{
  "abi": [
    {
      "inputs": [],
      "stateMutability": "nonpayable",
      "type": "constructor"
    },
    {
      "anonymous": false,
      "inputs": [
        {
          "indexed": false,
          "internalType": "uint256",
          "name": "_strikePrice",
          "type": "uint256"
        },
        {
          "indexed": false,
          "internalType": "address",
          "name": "_asset",
          "type": "address"
        },
        {
          "indexed": false,
          "internalType": "uint256",
          "name": "_duration",
          "type": "uint256"
        },
        {
          "indexed": false,
          "internalType": "uint256",
          "name": "_startTime",
          "type": "uint256"
        },
        {
          "indexed": false,
          "internalType": "uint256",
          "name": "_deltaPrice",
          "type": "uint256"
        },
        {
          "indexed": false,
          "internalType": "address",
          "name": "_chainlinkPriceFeed",
          "type": "address"
        },
        {
          "indexed": false,
          "internalType": "uint256",
          "name": "_fees",
          "type": "uint256"
        },
        {
          "indexed": false,
          "internalType": "string",
          "name": "_name",
          "type": "string"
        },
        {
          "indexed": false,
          "internalType": "string",
          "name": "_symbol",
          "type": "string"
        }
      ],
      "name": "NewDiodePool",
      "type": "event"
    },
    {
      "inputs": [
        {
          "internalType": "uint256",
          "name": "_strikePrice",
          "type": "uint256"
        },
        {
          "internalType": "address",
          "name": "_asset",
          "type": "address"
        },
        {
          "internalType": "uint256",
          "name": "_duration",
          "type": "uint256"
        },
        {
          "internalType": "uint256",
          "name": "_startTime",
          "type": "uint256"
        },
        {
          "internalType": "uint256",
          "name": "_deltaPrice",
          "type": "uint256"
        },
        {
          "internalType": "address",
          "name": "_chainlinkPriceFeed",
          "type": "address"
        },
        {
          "internalType": "uint256",
          "name": "_fees",
          "type": "uint256"
        },
        {
          "internalType": "string",
          "name": "_name",
          "type": "string"
        },
        {
          "internalType": "string",
          "name": "_symbol",
          "type": "string"
        }
      ],
      "name": "deployDiodePool",
      "outputs": [
        {
          "internalType": "address",
          "name": "deployedPool",
          "type": "address"
        }
      ],
      "stateMutability": "nonpayable",
      "type": "function"
    },
    {
      "inputs": [
        {
          "internalType": "uint256",
          "name": "",
          "type": "uint256"
        }
      ],
      "name": "diodePoolsList",
      "outputs": [
        {
          "internalType": "address",
          "name": "",
          "type": "address"
        }
      ],
      "stateMutability": "view",
      "type": "function"
    },
    {
      "inputs": [],
      "name": "getAllDiodePools",
      "outputs": [
        {
          "internalType": "address[]",
          "name": "",
          "type": "address[]"
        }
      ],
      "stateMutability": "view",
      "type": "function"
    }
  ],
  "bytecode": {
    "object": "0x608060405234801561001057600080fd5b5061372d806100206000396000f3fe60806040523480156200001157600080fd5b5060043610620000465760003560e01c80630961189e146200004b5780634355cba2146200006d578063b7800be0146200009d575b600080fd5b62000055620000b4565b6040516200006491906200023e565b60405180910390f35b620000846200007e36600462000355565b62000118565b6040516001600160a01b03909116815260200162000064565b62000084620000ae36600462000416565b62000205565b606060008054806020026020016040519081016040528092919081815260200182805480156200010e57602002820191906000526020600020905b81546001600160a01b03168152600190910190602001808311620000ef575b5050505050905090565b6000898989898989898989604051620001319062000230565b620001459998979695949392919062000478565b604051809103906000f08015801562000162573d6000803e3d6000fd5b50600080546001810182559080527f290decd9548b62a8d60345a988386fc84ba6bc95484008f6362f93160ef3e5630180546001600160a01b0319166001600160a01b0383161790556040519091507f13f222f6242caf4974aa846a054245a655e98af884314d9c7a4e3cb507f35b4490620001f0908c908c908c908c908c908c908c908c908c9062000478565b60405180910390a19998505050505050505050565b600081815481106200021657600080fd5b6000918252602090912001546001600160a01b0316905081565b61320c80620004ec83390190565b6020808252825182820181905260009190848201906040850190845b81811015620002815783516001600160a01b0316835292840192918401916001016200025a565b50909695505050505050565b80356001600160a01b0381168114620002a557600080fd5b919050565b634e487b7160e01b600052604160045260246000fd5b600082601f830112620002d257600080fd5b813567ffffffffffffffff80821115620002f057620002f0620002aa565b604051601f8301601f19908116603f011681019082821181831017156200031b576200031b620002aa565b816040528381528660208588010111156200033557600080fd5b836020870160208301376000602085830101528094505050505092915050565b60008060008060008060008060006101208a8c0312156200037557600080fd5b893598506200038760208b016200028d565b975060408a0135965060608a0135955060808a01359450620003ac60a08b016200028d565b935060c08a0135925060e08a013567ffffffffffffffff80821115620003d157600080fd5b620003df8d838e01620002c0565b93506101008c0135915080821115620003f757600080fd5b50620004068c828d01620002c0565b9150509295985092959850929598565b6000602082840312156200042957600080fd5b5035919050565b6000815180845260005b8181101562000458576020818501810151868301820152016200043a565b506000602082860101526020601f19601f83011685010191505092915050565b60006101208b835260018060a01b03808c1660208501528a604085015289606085015288608085015280881660a0850152508560c08401528060e0840152620004c48184018662000430565b9050828103610100840152620004db818562000430565b9c9b50505050505050505050505056fe60806040523480156200001157600080fd5b506040516200320c3803806200320c8339810160408190526200003491620002fb565b818160006200004483826200044b565b5060016200005382826200044b565b505050620000706200006a620000e260201b60201c565b620000e6565b601780546001600160a01b03808b166001600160a01b03199283161790925560148b9055601880549287169290911691909117905560098790556007869055620000bb878762000517565b60085560158590556013839055620000d33262000138565b5050505050505050506200053f565b3390565b600680546001600160a01b038381166001600160a01b0319831681179093556040519116919082907f8be0079c531659141344cd1fd0a4f28419497f9722a3daafe3b4186f6b6457e090600090a35050565b62000142620001bb565b6001600160a01b038116620001ad5760405162461bcd60e51b815260206004820152602660248201527f4f776e61626c653a206e6577206f776e657220697320746865207a65726f206160448201526564647265737360d01b60648201526084015b60405180910390fd5b620001b881620000e6565b50565b6006546001600160a01b03163314620002175760405162461bcd60e51b815260206004820181905260248201527f4f776e61626c653a2063616c6c6572206973206e6f7420746865206f776e65726044820152606401620001a4565b565b80516001600160a01b03811681146200023157600080fd5b919050565b634e487b7160e01b600052604160045260246000fd5b600082601f8301126200025e57600080fd5b81516001600160401b03808211156200027b576200027b62000236565b604051601f8301601f19908116603f01168101908282118183101715620002a657620002a662000236565b81604052838152602092508683858801011115620002c357600080fd5b600091505b83821015620002e75785820183015181830184015290820190620002c8565b600093810190920192909252949350505050565b60008060008060008060008060006101208a8c0312156200031b57600080fd5b895198506200032d60208b0162000219565b975060408a0151965060608a0151955060808a015194506200035260a08b0162000219565b60c08b015160e08c015191955093506001600160401b03808211156200037757600080fd5b620003858d838e016200024c565b93506101008c01519150808211156200039d57600080fd5b50620003ac8c828d016200024c565b9150509295985092959850929598565b600181811c90821680620003d157607f821691505b602082108103620003f257634e487b7160e01b600052602260045260246000fd5b50919050565b601f8211156200044657600081815260208120601f850160051c81016020861015620004215750805b601f850160051c820191505b8181101562000442578281556001016200042d565b5050505b505050565b81516001600160401b0381111562000467576200046762000236565b6200047f81620004788454620003bc565b84620003f8565b602080601f831160018114620004b757600084156200049e5750858301515b600019600386901b1c1916600185901b17855562000442565b600085815260208120601f198616915b82811015620004e857888601518255948401946001909101908401620004c7565b5085821015620005075787850151600019600388901b60f8161c191681555b5050505050600190811b01905550565b808201808211156200053957634e487b7160e01b600052601160045260246000fd5b92915050565b612cbd806200054f6000396000f3fe608060405234801561001057600080fd5b50600436106102735760003560e01c806366805de511610151578063ae7f93e8116100c3578063bd05e96511610087578063bd05e965146104e6578063c52987cf14610547578063c87b56dd14610550578063d8a2b7f014610563578063e985e9c514610576578063f2fde38b1461058957600080fd5b8063ae7f93e8146104af578063af5260bf146104b8578063b868723e146104c1578063b88d4fde146104ca578063bb77d7ea146104dd57600080fd5b80637d882097116101155780637d8820971461045d5780638327bed3146104665780638da5cb5b1461047a57806395d89b411461048b5780639f181b5e14610493578063a22cb4651461049c57600080fd5b806366805de51461041d57806370a0823114610425578063715018a61461043857806378e97925146104405780637d79669e1461044957600080fd5b806323d3d9ca116101ea57806342842e0e116101ae57806342842e0e146103bf578063476343ee146103d25780634a5f0fb0146103db578063531a9358146103ee57806354bf5d13146104015780636352211e1461040a57600080fd5b806323d3d9ca1461038a57806333a100ca146103925780633641657f146103a55780633b649812146103ad5780633f3f4537146103b657600080fd5b80630dff5c571161023c5780630dff5c57146103285780630e15561a1461033b5780630fb5a6b4146103525780631bc6a79e1461035b5780631c4b774b1461036457806323b872dd1461037757600080fd5b8062a6e7301461027857806301ffc9a7146102b057806306fdde03146102d3578063081812fc146102e8578063095ea7b314610313575b600080fd5b61028b610286366004612576565b61059c565b6040805194855260208501939093529183015260608201526080015b60405180910390f35b6102c36102be3660046125bc565b61087a565b60405190151581526020016102a7565b6102db6108cc565b6040516102a79190612629565b6102fb6102f636600461263c565b61095e565b6040516001600160a01b0390911681526020016102a7565b61032661032136600461266c565b610985565b005b6016546102fb906001600160a01b031681565b610344600d5481565b6040519081526020016102a7565b61034460095481565b61034460155481565b61034461037236600461263c565b610a9f565b610326610385366004612696565b610cd4565b610344610d05565b6103266103a03660046126d2565b610e52565b610344610e9f565b61034460105481565b61034460115481565b6103266103cd366004612696565b610ef8565b61034460135481565b6017546102fb906001600160a01b031681565b6103446103fc3660046126ed565b610f13565b610344600b5481565b6102fb61041836600461263c565b611003565b610326611063565b6103446104333660046126d2565b6111b7565b61032661123d565b61034460075481565b6018546102c390600160a81b900460ff1681565b610344600f5481565b6018546102c390600160a01b900460ff1681565b6006546001600160a01b03166102fb565b6102db611251565b610344600e5481565b6103266104aa36600461270a565b611260565b61034460125481565b61034460085481565b610344600c5481565b6103266104d836600461274c565b61126b565b610344600a5481565b6105216104f436600461263c565b60196020526000908152604090208054600182015460028301546003909301549192909160ff9091169084565b6040805194855260208501939093529015159183019190915260608201526080016102a7565b61034460145481565b6102db61055e36600461263c565b6112a3565b6018546102fb906001600160a01b031681565b6102c3610584366004612828565b611317565b6103266105973660046126d2565b611345565b6000806000806007544210156105b157600080fd5b60185460408051633fabe5a360e21b815290516000926001600160a01b03169163feaf968c9160048083019260a09291908290030181865afa1580156105fb573d6000803e3d6000fd5b505050506040513d601f19601f8201168201806040525081019061061f9190612875565b5050509150506000811361063257600080fd5b86600f600082825461064491906128db565b909155508190506000610656826113be565b90506000610664828a6115da565b601754909150600090610681908c906001600160a01b031661167a565b905060006009544260085461069691906128ee565b6106a08585612901565b6106aa9190612901565b6106b49190612936565b600e805491925060006106c68361294a565b9091555050600e5460008181526019602052604090208d8155600180820187905560028201805460ff19168f151590811790915560038301859055900361073d5782600a600082825461071991906128db565b925050819055508d6010600082825461073291906128db565b909155506107789050565b8c15156000036107785782600b600082825461075991906128db565b925050819055508d6011600082825461077291906128db565b90915550505b61079f333061078b87633b9aca00612901565b6017546001600160a01b031692919061185e565b6016546107d0906001600160a01b03166107bd86633b9aca00612901565b6017546001600160a01b031691906118c9565b6016546017546001600160a01b03918216916347e7ef2491166107f787633b9aca00612901565b6040516001600160e01b031960e085901b1681526001600160a01b0390921660048301526024820152604401600060405180830381600087803b15801561083d57600080fd5b505af1158015610851573d6000803e3d6000fd5b5050505061086561085f3390565b836119de565b50929c909b5092995097509095505050505050565b60006001600160e01b031982166380ac58cd60e01b14806108ab57506001600160e01b03198216635b5e139f60e01b145b806108c657506301ffc9a760e01b6001600160e01b03198316145b92915050565b6060600080546108db90612963565b80601f016020809104026020016040519081016040528092919081815260200182805461090790612963565b80156109545780601f1061092957610100808354040283529160200191610954565b820191906000526020600020905b81548152906001019060200180831161093757829003601f168201915b5050505050905090565b6000610969826119f8565b506000908152600460205260409020546001600160a01b031690565b600061099082611003565b9050806001600160a01b0316836001600160a01b031603610a025760405162461bcd60e51b815260206004820152602160248201527f4552433732313a20617070726f76616c20746f2063757272656e74206f776e656044820152603960f91b60648201526084015b60405180910390fd5b336001600160a01b0382161480610a1e5750610a1e8133611317565b610a905760405162461bcd60e51b815260206004820152603e60248201527f4552433732313a20617070726f76652063616c6c6572206973206e6f7420746f60448201527f6b656e206f776e6572206e6f7220617070726f76656420666f7220616c6c000060648201526084016109f9565b610a9a8383611a57565b505050565b600060085442118015610ac05750601854600160a01b900460ff1615156001145b610ac957600080fd5b33610ad383611003565b6001600160a01b031614610b295760405162461bcd60e51b815260206004820152601d60248201527f75736572206973206e6f74204f776e6572206f6620746f6b656e20494400000060448201526064016109f9565b6000806000806012541115610b8057600f54601254600087815260196020526040902054610b579190612901565b610b619190612936565b9250610b7b335b6017546001600160a01b03169085611ac5565b610ccc565b601454600c5410158015610baa575060008581526019602052604090206002015460ff1615156001145b15610c1257600085815260196020526040902060030154610bd090633b9aca0090612936565b600a54600d54919350610be7919084906000611af5565b601354909350610c03908490670de0b6b3a76400006001611af5565b9050610c0f81846128ee565b92505b601454600c54108015610c37575060008581526019602052604090206002015460ff16155b15610c9f57600085815260196020526040902060030154610c5d90633b9aca0090612936565b600b54600d54919350610c74919084906000611af5565b601354909350610c90908490670de0b6b3a76400006001611af5565b9050610c9c81846128ee565b92505b600085815260196020526040902054610cb890846128db565b9250610cc333610b68565b50909392505050565b505050919050565b610cde3382611b54565b610cfa5760405162461bcd60e51b81526004016109f99061299d565b610a9a838383611bb2565b60105460009015610e4c576010546017546040805163313ce56760e01b81529051600093926001600160a01b03169163313ce5679160048083019260209291908290030181865afa158015610d5e573d6000803e3d6000fd5b505050506040513d601f19601f82011682018060405250810190610d8291906129eb565b610d8d90600a612af2565b600f54610d9a9190612901565b610da49190612936565b601754909150600090610dc19083906001600160a01b031661167a565b905080601660009054906101000a90046001600160a01b03166001600160a01b0316639f560dd56040518163ffffffff1660e01b8152600401602060405180830381865afa158015610e17573d6000803e3d6000fd5b505050506040513d601f19601f82011682018060405250810190610e3b9190612b01565b610e459190612901565b9250505090565b50600090565b601854600160a81b900460ff1615610e6957600080fd5b6018805460ff60a81b1916600160a81b179055601680546001600160a01b039092166001600160a01b0319909216919091179055565b60115460009015610e4c576011546017546040805163313ce56760e01b81529051600093926001600160a01b03169163313ce5679160048083019260209291908290030181865afa158015610d5e573d6000803e3d6000fd5b610a9a8383836040518060200160405280600081525061126b565b600080601860009054906101000a90046001600160a01b03166001600160a01b031663feaf968c6040518163ffffffff1660e01b815260040160a060405180830381865afa158015610f69573d6000803e3d6000fd5b505050506040513d601f19601f82011682018060405250810190610f8d9190612875565b50505091505060008113610fa057600080fd5b6000610fab826113be565b9050831515600103610fd4576014548110610fcf57610fc8610d05565b9250610fd4565b600092505b831515600003610ffc57601454811015610ff757610ff0610e9f565b9250610ffc565b600092505b5050919050565b6000818152600260205260408120546001600160a01b0316806108c65760405162461bcd60e51b8152602060048201526018602482015277115490cdcc8c4e881a5b9d985b1a59081d1bdad95b88125160421b60448201526064016109f9565b61106b611d4e565b600854421161107957600080fd5b6018805460ff60a01b198116600160a01b1790915560408051633fabe5a360e21b815290516000926001600160a01b03169163feaf968c9160048083019260a09291908290030181865afa1580156110d5573d6000803e3d6000fd5b505050506040513d601f19601f820116820180604052508101906110f99190612875565b5050509150506000811361110c57600080fd5b611115816113be565b600c5560165460408051633ccfd60b60e01b815290516000926001600160a01b031691633ccfd60b916004808301926020929190829003018187875af1158015611163573d6000803e3d6000fd5b505050506040513d601f19601f820116820180604052508101906111879190612b01565b9050600f5481116111985760125550565b600f548111156111b357600f546111af90826128ee565b600d555b5050565b60006001600160a01b0382166112215760405162461bcd60e51b815260206004820152602960248201527f4552433732313a2061646472657373207a65726f206973206e6f7420612076616044820152683634b21037bbb732b960b91b60648201526084016109f9565b506001600160a01b031660009081526003602052604090205490565b611245611d4e565b61124f6000611da8565b565b6060600180546108db90612963565b6111b3338383611dfa565b6112753383611b54565b6112915760405162461bcd60e51b81526004016109f99061299d565b61129d84848484611ec8565b50505050565b60606112ae826119f8565b60006112c560408051602081019091526000815290565b905060008151116112e55760405180602001604052806000815250611310565b806112ef84611efb565b604051602001611300929190612b1a565b6040516020818303038152906040525b9392505050565b6001600160a01b03918216600090815260056020908152604080832093909416825291909152205460ff1690565b61134d611d4e565b6001600160a01b0381166113b25760405162461bcd60e51b815260206004820152602660248201527f4f776e61626c653a206e6577206f776e657220697320746865207a65726f206160448201526564647265737360d01b60648201526084016109f9565b6113bb81611da8565b50565b6018546040805163313ce56760e01b8152905183926009926001600160a01b039091169163313ce567916004808201926020929091908290030181865afa15801561140d573d6000803e3d6000fd5b505050506040513d601f19601f8201168201806040525081019061143191906129eb565b60ff1610156114d157601860009054906101000a90046001600160a01b03166001600160a01b031663313ce5676040518163ffffffff1660e01b8152600401602060405180830381865afa15801561148d573d6000803e3d6000fd5b505050506040513d601f19601f820116820180604052508101906114b191906129eb565b6114bc906009612b49565b6114c790600a612af2565b6108c69082612901565b6018546040805163313ce56760e01b815290516009926001600160a01b03169163313ce5679160048083019260209291908290030181865afa15801561151b573d6000803e3d6000fd5b505050506040513d601f19601f8201168201806040525081019061153f91906129eb565b60ff1611156115d5576018546040805163313ce56760e01b815290516009926001600160a01b03169163313ce5679160048083019260209291908290030181865afa158015611592573d6000803e3d6000fd5b505050506040513d601f19601f820116820180604052508101906115b691906129eb565b6115c09190612b49565b6115cb90600a612af2565b6108c69082612936565b919050565b6000811515600103611642576014548311156115fb5750633b9aca006108c6565b6014548311611642576015548360145461161591906128ee565b61162390633b9aca00612901565b61162d9190612936565b61163b90633b9aca006128db565b90506108c6565b8115156000036108c6578260145411156116615750633b9aca006108c6565b82601454116108c65760155460145461161590856128ee565b60008290506009826001600160a01b031663313ce5676040518163ffffffff1660e01b8152600401602060405180830381865afa1580156116bf573d6000803e3d6000fd5b505050506040513d601f19601f820116820180604052508101906116e391906129eb565b60ff16101561176e57816001600160a01b031663313ce5676040518163ffffffff1660e01b8152600401602060405180830381865afa15801561172a573d6000803e3d6000fd5b505050506040513d601f19601f8201168201806040525081019061174e91906129eb565b611759906009612b49565b61176490600a612af2565b61163b9082612901565b6009826001600160a01b031663313ce5676040518163ffffffff1660e01b8152600401602060405180830381865afa1580156117ae573d6000803e3d6000fd5b505050506040513d601f19601f820116820180604052508101906117d291906129eb565b60ff1611156108c6576009826001600160a01b031663313ce5676040518163ffffffff1660e01b8152600401602060405180830381865afa15801561181b573d6000803e3d6000fd5b505050506040513d601f19601f8201168201806040525081019061183f91906129eb565b6118499190612b49565b61185490600a612af2565b6113109082612936565b6040516001600160a01b038085166024830152831660448201526064810182905261129d9085906323b872dd60e01b906084015b60408051601f198184030181529190526020810180516001600160e01b03166001600160e01b031990931692909217909152611ffc565b8015806119435750604051636eb1769f60e11b81523060048201526001600160a01b03838116602483015284169063dd62ed3e90604401602060405180830381865afa15801561191d573d6000803e3d6000fd5b505050506040513d601f19601f820116820180604052508101906119419190612b01565b155b6119ae5760405162461bcd60e51b815260206004820152603660248201527f5361666545524332303a20617070726f76652066726f6d206e6f6e2d7a65726f60448201527520746f206e6f6e2d7a65726f20616c6c6f77616e636560501b60648201526084016109f9565b6040516001600160a01b038316602482015260448101829052610a9a90849063095ea7b360e01b90606401611892565b6111b38282604051806020016040528060008152506120ce565b6000818152600260205260409020546001600160a01b03166113bb5760405162461bcd60e51b8152602060048201526018602482015277115490cdcc8c4e881a5b9d985b1a59081d1bdad95b88125160421b60448201526064016109f9565b600081815260046020526040902080546001600160a01b0319166001600160a01b0384169081179091558190611a8c82611003565b6001600160a01b03167f8c5be1e5ebec7d5bd14f71427d1e84f3dd0314c0f7b2291e5b200ac8c7c3b92560405160405180910390a45050565b6040516001600160a01b038316602482015260448101829052610a9a90849063a9059cbb60e01b90606401611892565b600080611b03868686612101565b90506001836002811115611b1957611b19612b62565b148015611b36575060008480611b3157611b31612920565b868809115b15611b4957611b466001826128db565b90505b90505b949350505050565b600080611b6083611003565b9050806001600160a01b0316846001600160a01b03161480611b875750611b878185611317565b80611b4c5750836001600160a01b0316611ba08461095e565b6001600160a01b031614949350505050565b826001600160a01b0316611bc582611003565b6001600160a01b031614611c295760405162461bcd60e51b815260206004820152602560248201527f4552433732313a207472616e736665722066726f6d20696e636f72726563742060448201526437bbb732b960d91b60648201526084016109f9565b6001600160a01b038216611c8b5760405162461bcd60e51b8152602060048201526024808201527f4552433732313a207472616e7366657220746f20746865207a65726f206164646044820152637265737360e01b60648201526084016109f9565b611c96600082611a57565b6001600160a01b0383166000908152600360205260408120805460019290611cbf9084906128ee565b90915550506001600160a01b0382166000908152600360205260408120805460019290611ced9084906128db565b909155505060008181526002602052604080822080546001600160a01b0319166001600160a01b0386811691821790925591518493918716917fddf252ad1be2c89b69c2b068fc378daa952ba7f163c4a11628f55a4df523b3ef91a4505050565b6006546001600160a01b0316331461124f5760405162461bcd60e51b815260206004820181905260248201527f4f776e61626c653a2063616c6c6572206973206e6f7420746865206f776e657260448201526064016109f9565b600680546001600160a01b038381166001600160a01b0319831681179093556040519116919082907f8be0079c531659141344cd1fd0a4f28419497f9722a3daafe3b4186f6b6457e090600090a35050565b816001600160a01b0316836001600160a01b031603611e5b5760405162461bcd60e51b815260206004820152601960248201527f4552433732313a20617070726f766520746f2063616c6c65720000000000000060448201526064016109f9565b6001600160a01b03838116600081815260056020908152604080832094871680845294825291829020805460ff191686151590811790915591519182527f17307eab39ab6107e8899845ad3d59bd9653f200f220920489ca2b5937696c31910160405180910390a3505050565b611ed3848484611bb2565b611edf848484846121af565b61129d5760405162461bcd60e51b81526004016109f990612b78565b606081600003611f225750506040805180820190915260018152600360fc1b602082015290565b8160005b8115611f4c5780611f368161294a565b9150611f459050600a83612936565b9150611f26565b60008167ffffffffffffffff811115611f6757611f67612736565b6040519080825280601f01601f191660200182016040528015611f91576020820181803683370190505b5090505b8415611b4c57611fa66001836128ee565b9150611fb3600a86612bca565b611fbe9060306128db565b60f81b818381518110611fd357611fd3612bde565b60200101906001600160f81b031916908160001a905350611ff5600a86612936565b9450611f95565b6000612051826040518060400160405280602081526020017f5361666545524332303a206c6f772d6c6576656c2063616c6c206661696c6564815250856001600160a01b03166122ad9092919063ffffffff16565b805190915015610a9a578080602001905181019061206f9190612bf4565b610a9a5760405162461bcd60e51b815260206004820152602a60248201527f5361666545524332303a204552433230206f7065726174696f6e20646964206e6044820152691bdd081cdd58d8d9595960b21b60648201526084016109f9565b6120d883836122bc565b6120e560008484846121af565b610a9a5760405162461bcd60e51b81526004016109f990612b78565b600080806000198587098587029250828110838203039150508060000361213b5783828161213157612131612920565b0492505050611310565b80841161214757600080fd5b600084868809600260036001881981018916988990049182028318808302840302808302840302808302840302808302840302808302840302918202909203026000889003889004909101858311909403939093029303949094049190911702949350505050565b60006001600160a01b0384163b156122a557604051630a85bd0160e11b81526001600160a01b0385169063150b7a02906121f3903390899088908890600401612c11565b6020604051808303816000875af192505050801561222e575060408051601f3d908101601f1916820190925261222b91810190612c4e565b60015b61228b573d80801561225c576040519150601f19603f3d011682016040523d82523d6000602084013e612261565b606091505b5080516000036122835760405162461bcd60e51b81526004016109f990612b78565b805181602001fd5b6001600160e01b031916630a85bd0160e11b149050611b4c565b506001611b4c565b6060611b4c84846000856123fe565b6001600160a01b0382166123125760405162461bcd60e51b815260206004820181905260248201527f4552433732313a206d696e7420746f20746865207a65726f206164647265737360448201526064016109f9565b6000818152600260205260409020546001600160a01b0316156123775760405162461bcd60e51b815260206004820152601c60248201527f4552433732313a20746f6b656e20616c7265616479206d696e7465640000000060448201526064016109f9565b6001600160a01b03821660009081526003602052604081208054600192906123a09084906128db565b909155505060008181526002602052604080822080546001600160a01b0319166001600160a01b03861690811790915590518392907fddf252ad1be2c89b69c2b068fc378daa952ba7f163c4a11628f55a4df523b3ef908290a45050565b60608247101561245f5760405162461bcd60e51b815260206004820152602660248201527f416464726573733a20696e73756666696369656e742062616c616e636520666f6044820152651c8818d85b1b60d21b60648201526084016109f9565b6001600160a01b0385163b6124b65760405162461bcd60e51b815260206004820152601d60248201527f416464726573733a2063616c6c20746f206e6f6e2d636f6e747261637400000060448201526064016109f9565b600080866001600160a01b031685876040516124d29190612c6b565b60006040518083038185875af1925050503d806000811461250f576040519150601f19603f3d011682016040523d82523d6000602084013e612514565b606091505b509150915061252482828661252f565b979650505050505050565b6060831561253e575081611310565b82511561254e5782518084602001fd5b8160405162461bcd60e51b81526004016109f99190612629565b80151581146113bb57600080fd5b6000806040838503121561258957600080fd5b82359150602083013561259b81612568565b809150509250929050565b6001600160e01b0319811681146113bb57600080fd5b6000602082840312156125ce57600080fd5b8135611310816125a6565b60005b838110156125f45781810151838201526020016125dc565b50506000910152565b600081518084526126158160208601602086016125d9565b601f01601f19169290920160200192915050565b60208152600061131060208301846125fd565b60006020828403121561264e57600080fd5b5035919050565b80356001600160a01b03811681146115d557600080fd5b6000806040838503121561267f57600080fd5b61268883612655565b946020939093013593505050565b6000806000606084860312156126ab57600080fd5b6126b484612655565b92506126c260208501612655565b9150604084013590509250925092565b6000602082840312156126e457600080fd5b61131082612655565b6000602082840312156126ff57600080fd5b813561131081612568565b6000806040838503121561271d57600080fd5b61272683612655565b9150602083013561259b81612568565b634e487b7160e01b600052604160045260246000fd5b6000806000806080858703121561276257600080fd5b61276b85612655565b935061277960208601612655565b925060408501359150606085013567ffffffffffffffff8082111561279d57600080fd5b818701915087601f8301126127b157600080fd5b8135818111156127c3576127c3612736565b604051601f8201601f19908116603f011681019083821181831017156127eb576127eb612736565b816040528281528a602084870101111561280457600080fd5b82602086016020830137600060208483010152809550505050505092959194509250565b6000806040838503121561283b57600080fd5b61284483612655565b915061285260208401612655565b90509250929050565b805169ffffffffffffffffffff811681146115d557600080fd5b600080600080600060a0868803121561288d57600080fd5b6128968661285b565b94506020860151935060408601519250606086015191506128b96080870161285b565b90509295509295909350565b634e487b7160e01b600052601160045260246000fd5b808201808211156108c6576108c66128c5565b818103818111156108c6576108c66128c5565b600081600019048311821515161561291b5761291b6128c5565b500290565b634e487b7160e01b600052601260045260246000fd5b60008261294557612945612920565b500490565b60006001820161295c5761295c6128c5565b5060010190565b600181811c9082168061297757607f821691505b60208210810361299757634e487b7160e01b600052602260045260246000fd5b50919050565b6020808252602e908201527f4552433732313a2063616c6c6572206973206e6f7420746f6b656e206f776e6560408201526d1c881b9bdc88185c1c1c9bdd995960921b606082015260800190565b6000602082840312156129fd57600080fd5b815160ff8116811461131057600080fd5b600181815b80851115612a49578160001904821115612a2f57612a2f6128c5565b80851615612a3c57918102915b93841c9390800290612a13565b509250929050565b600082612a60575060016108c6565b81612a6d575060006108c6565b8160018114612a835760028114612a8d57612aa9565b60019150506108c6565b60ff841115612a9e57612a9e6128c5565b50506001821b6108c6565b5060208310610133831016604e8410600b8410161715612acc575081810a6108c6565b612ad68383612a0e565b8060001904821115612aea57612aea6128c5565b029392505050565b600061131060ff841683612a51565b600060208284031215612b1357600080fd5b5051919050565b60008351612b2c8184602088016125d9565b835190830190612b408183602088016125d9565b01949350505050565b60ff82811682821603908111156108c6576108c66128c5565b634e487b7160e01b600052602160045260246000fd5b60208082526032908201527f4552433732313a207472616e7366657220746f206e6f6e20455243373231526560408201527131b2b4bb32b91034b6b83632b6b2b73a32b960711b606082015260800190565b600082612bd957612bd9612920565b500690565b634e487b7160e01b600052603260045260246000fd5b600060208284031215612c0657600080fd5b815161131081612568565b6001600160a01b0385811682528416602082015260408101839052608060608201819052600090612c44908301846125fd565b9695505050505050565b600060208284031215612c6057600080fd5b8151611310816125a6565b60008251612c7d8184602087016125d9565b919091019291505056fea26469706673582212203423084f929e5cb6223af6dff23c4429ba98bab36f84c7cfc422aadbdd80223f64736f6c63430008100033a26469706673582212200ee182456994156aaa8ddca19687a61a6f263ef2dc2a239a2eb06dd3abf771ee64736f6c63430008100033",
    "linkReferences": {}
  },
  "methodIdentifiers": {
    "deployDiodePool(uint256,address,uint256,uint256,uint256,address,uint256,string,string)": "4355cba2",
    "diodePoolsList(uint256)": "b7800be0",
    "getAllDiodePools()": "0961189e"
  },
  "id": 1
}