{
  "abi": [
    {
      "inputs": [
        {
          "internalType": "uint256",
          "name": "_strikePrice",
          "type": "uint256"
        },
        {
          "internalType": "address",
          "name": "_asset",
          "type": "address"
        },
        {
          "internalType": "uint256",
          "name": "_duration",
          "type": "uint256"
        },
        {
          "internalType": "uint256",
          "name": "_startTime",
          "type": "uint256"
        },
        {
          "internalType": "uint256",
          "name": "_deltaPrice",
          "type": "uint256"
        },
        {
          "internalType": "address",
          "name": "_chainlinkPriceFeed",
          "type": "address"
        },
        {
          "internalType": "uint256",
          "name": "_fees",
          "type": "uint256"
        },
        {
          "internalType": "uint256[2]",
          "name": "_capLongShort",
          "type": "uint256[2]"
        },
        {
          "internalType": "string",
          "name": "_name",
          "type": "string"
        },
        {
          "internalType": "string",
          "name": "_symbol",
          "type": "string"
        }
      ],
      "stateMutability": "nonpayable",
      "type": "constructor"
    },
    {
      "anonymous": false,
      "inputs": [
        {
          "indexed": true,
          "internalType": "address",
          "name": "owner",
          "type": "address"
        },
        {
          "indexed": true,
          "internalType": "address",
          "name": "approved",
          "type": "address"
        },
        {
          "indexed": true,
          "internalType": "uint256",
          "name": "tokenId",
          "type": "uint256"
        }
      ],
      "name": "Approval",
      "type": "event"
    },
    {
      "anonymous": false,
      "inputs": [
        {
          "indexed": true,
          "internalType": "address",
          "name": "owner",
          "type": "address"
        },
        {
          "indexed": true,
          "internalType": "address",
          "name": "operator",
          "type": "address"
        },
        {
          "indexed": false,
          "internalType": "bool",
          "name": "approved",
          "type": "bool"
        }
      ],
      "name": "ApprovalForAll",
      "type": "event"
    },
    {
      "anonymous": false,
      "inputs": [
        {
          "indexed": true,
          "internalType": "address",
          "name": "previousOwner",
          "type": "address"
        },
        {
          "indexed": true,
          "internalType": "address",
          "name": "newOwner",
          "type": "address"
        }
      ],
      "name": "OwnershipTransferred",
      "type": "event"
    },
    {
      "anonymous": false,
      "inputs": [
        {
          "indexed": true,
          "internalType": "address",
          "name": "from",
          "type": "address"
        },
        {
          "indexed": true,
          "internalType": "address",
          "name": "to",
          "type": "address"
        },
        {
          "indexed": true,
          "internalType": "uint256",
          "name": "tokenId",
          "type": "uint256"
        }
      ],
      "name": "Transfer",
      "type": "event"
    },
    {
      "inputs": [
        {
          "internalType": "bool",
          "name": "_longOrShort",
          "type": "bool"
        }
      ],
      "name": "actualAPYBooster",
      "outputs": [
        {
          "internalType": "uint256",
          "name": "apyMultiplicator",
          "type": "uint256"
        }
      ],
      "stateMutability": "view",
      "type": "function"
    },
    {
      "inputs": [],
      "name": "alphaLongs",
      "outputs": [
        {
          "internalType": "uint256",
          "name": "",
          "type": "uint256"
        }
      ],
      "stateMutability": "view",
      "type": "function"
    },
    {
      "inputs": [],
      "name": "alphaShorts",
      "outputs": [
        {
          "internalType": "uint256",
          "name": "",
          "type": "uint256"
        }
      ],
      "stateMutability": "view",
      "type": "function"
    },
    {
      "inputs": [
        {
          "internalType": "address",
          "name": "to",
          "type": "address"
        },
        {
          "internalType": "uint256",
          "name": "tokenId",
          "type": "uint256"
        }
      ],
      "name": "approve",
      "outputs": [],
      "stateMutability": "nonpayable",
      "type": "function"
    },
    {
      "inputs": [],
      "name": "apyBoosterLong",
      "outputs": [
        {
          "internalType": "uint256",
          "name": "standardizedMultiplicator",
          "type": "uint256"
        }
      ],
      "stateMutability": "view",
      "type": "function"
    },
    {
      "inputs": [],
      "name": "apyBoosterShort",
      "outputs": [
        {
          "internalType": "uint256",
          "name": "standardizedMultiplicator",
          "type": "uint256"
        }
      ],
      "stateMutability": "view",
      "type": "function"
    },
    {
      "inputs": [
        {
          "internalType": "address",
          "name": "owner",
          "type": "address"
        }
      ],
      "name": "balanceOf",
      "outputs": [
        {
          "internalType": "uint256",
          "name": "",
          "type": "uint256"
        }
      ],
      "stateMutability": "view",
      "type": "function"
    },
    {
      "inputs": [
        {
          "internalType": "uint256",
          "name": "",
          "type": "uint256"
        }
      ],
      "name": "capLongShort",
      "outputs": [
        {
          "internalType": "uint256",
          "name": "",
          "type": "uint256"
        }
      ],
      "stateMutability": "view",
      "type": "function"
    },
    {
      "inputs": [],
      "name": "chainlinkPriceFeed",
      "outputs": [
        {
          "internalType": "address",
          "name": "",
          "type": "address"
        }
      ],
      "stateMutability": "view",
      "type": "function"
    },
    {
      "inputs": [],
      "name": "closePool",
      "outputs": [],
      "stateMutability": "nonpayable",
      "type": "function"
    },
    {
      "inputs": [],
      "name": "deltaPrice",
      "outputs": [
        {
          "internalType": "uint256",
          "name": "",
          "type": "uint256"
        }
      ],
      "stateMutability": "view",
      "type": "function"
    },
    {
      "inputs": [
        {
          "internalType": "uint256",
          "name": "amount",
          "type": "uint256"
        },
        {
          "internalType": "bool",
          "name": "longShort",
          "type": "bool"
        }
      ],
      "name": "depositFunds",
      "outputs": [
        {
          "internalType": "uint256",
          "name": "_computedRisk",
          "type": "uint256"
        },
        {
          "internalType": "uint256",
          "name": "_alpha",
          "type": "uint256"
        },
        {
          "internalType": "uint256",
          "name": "_standardizedPrice",
          "type": "uint256"
        },
        {
          "internalType": "uint256",
          "name": "_standardizedAmount",
          "type": "uint256"
        }
      ],
      "stateMutability": "nonpayable",
      "type": "function"
    },
    {
      "inputs": [],
      "name": "duration",
      "outputs": [
        {
          "internalType": "uint256",
          "name": "",
          "type": "uint256"
        }
      ],
      "stateMutability": "view",
      "type": "function"
    },
    {
      "inputs": [],
      "name": "endPrice",
      "outputs": [
        {
          "internalType": "uint256",
          "name": "",
          "type": "uint256"
        }
      ],
      "stateMutability": "view",
      "type": "function"
    },
    {
      "inputs": [],
      "name": "finalTime",
      "outputs": [
        {
          "internalType": "uint256",
          "name": "",
          "type": "uint256"
        }
      ],
      "stateMutability": "view",
      "type": "function"
    },
    {
      "inputs": [
        {
          "internalType": "uint256",
          "name": "tokenId",
          "type": "uint256"
        }
      ],
      "name": "getApproved",
      "outputs": [
        {
          "internalType": "address",
          "name": "",
          "type": "address"
        }
      ],
      "stateMutability": "view",
      "type": "function"
    },
    {
      "inputs": [
        {
          "internalType": "uint256",
          "name": "tokenID",
          "type": "uint256"
        }
      ],
      "name": "getReward",
      "outputs": [
        {
          "internalType": "uint256",
          "name": "_amountOwed",
          "type": "uint256"
        }
      ],
      "stateMutability": "nonpayable",
      "type": "function"
    },
    {
      "inputs": [
        {
          "internalType": "address",
          "name": "owner",
          "type": "address"
        },
        {
          "internalType": "address",
          "name": "operator",
          "type": "address"
        }
      ],
      "name": "isApprovedForAll",
      "outputs": [
        {
          "internalType": "bool",
          "name": "",
          "type": "bool"
        }
      ],
      "stateMutability": "view",
      "type": "function"
    },
    {
      "inputs": [],
      "name": "name",
      "outputs": [
        {
          "internalType": "string",
          "name": "",
          "type": "string"
        }
      ],
      "stateMutability": "view",
      "type": "function"
    },
    {
      "inputs": [],
      "name": "owner",
      "outputs": [
        {
          "internalType": "address",
          "name": "",
          "type": "address"
        }
      ],
      "stateMutability": "view",
      "type": "function"
    },
    {
      "inputs": [
        {
          "internalType": "uint256",
          "name": "tokenId",
          "type": "uint256"
        }
      ],
      "name": "ownerOf",
      "outputs": [
        {
          "internalType": "address",
          "name": "",
          "type": "address"
        }
      ],
      "stateMutability": "view",
      "type": "function"
    },
    {
      "inputs": [],
      "name": "poolIsClosed",
      "outputs": [
        {
          "internalType": "bool",
          "name": "",
          "type": "bool"
        }
      ],
      "stateMutability": "view",
      "type": "function"
    },
    {
      "inputs": [],
      "name": "renounceOwnership",
      "outputs": [],
      "stateMutability": "nonpayable",
      "type": "function"
    },
    {
      "inputs": [
        {
          "internalType": "address",
          "name": "from",
          "type": "address"
        },
        {
          "internalType": "address",
          "name": "to",
          "type": "address"
        },
        {
          "internalType": "uint256",
          "name": "tokenId",
          "type": "uint256"
        }
      ],
      "name": "safeTransferFrom",
      "outputs": [],
      "stateMutability": "nonpayable",
      "type": "function"
    },
    {
      "inputs": [
        {
          "internalType": "address",
          "name": "from",
          "type": "address"
        },
        {
          "internalType": "address",
          "name": "to",
          "type": "address"
        },
        {
          "internalType": "uint256",
          "name": "tokenId",
          "type": "uint256"
        },
        {
          "internalType": "bytes",
          "name": "data",
          "type": "bytes"
        }
      ],
      "name": "safeTransferFrom",
      "outputs": [],
      "stateMutability": "nonpayable",
      "type": "function"
    },
    {
      "inputs": [
        {
          "internalType": "address",
          "name": "operator",
          "type": "address"
        },
        {
          "internalType": "bool",
          "name": "approved",
          "type": "bool"
        }
      ],
      "name": "setApprovalForAll",
      "outputs": [],
      "stateMutability": "nonpayable",
      "type": "function"
    },
    {
      "inputs": [
        {
          "internalType": "address",
          "name": "_strat",
          "type": "address"
        }
      ],
      "name": "setStrategy",
      "outputs": [],
      "stateMutability": "nonpayable",
      "type": "function"
    },
    {
      "inputs": [],
      "name": "startTime",
      "outputs": [
        {
          "internalType": "uint256",
          "name": "",
          "type": "uint256"
        }
      ],
      "stateMutability": "view",
      "type": "function"
    },
    {
      "inputs": [],
      "name": "stratContract",
      "outputs": [
        {
          "internalType": "address",
          "name": "",
          "type": "address"
        }
      ],
      "stateMutability": "view",
      "type": "function"
    },
    {
      "inputs": [],
      "name": "strategyActivated",
      "outputs": [
        {
          "internalType": "bool",
          "name": "",
          "type": "bool"
        }
      ],
      "stateMutability": "view",
      "type": "function"
    },
    {
      "inputs": [],
      "name": "strikePrice",
      "outputs": [
        {
          "internalType": "uint256",
          "name": "",
          "type": "uint256"
        }
      ],
      "stateMutability": "view",
      "type": "function"
    },
    {
      "inputs": [],
      "name": "suppliedAsset",
      "outputs": [
        {
          "internalType": "address",
          "name": "",
          "type": "address"
        }
      ],
      "stateMutability": "view",
      "type": "function"
    },
    {
      "inputs": [
        {
          "internalType": "bytes4",
          "name": "interfaceId",
          "type": "bytes4"
        }
      ],
      "name": "supportsInterface",
      "outputs": [
        {
          "internalType": "bool",
          "name": "",
          "type": "bool"
        }
      ],
      "stateMutability": "view",
      "type": "function"
    },
    {
      "inputs": [],
      "name": "symbol",
      "outputs": [
        {
          "internalType": "string",
          "name": "",
          "type": "string"
        }
      ],
      "stateMutability": "view",
      "type": "function"
    },
    {
      "inputs": [],
      "name": "tokenCount",
      "outputs": [
        {
          "internalType": "uint256",
          "name": "",
          "type": "uint256"
        }
      ],
      "stateMutability": "view",
      "type": "function"
    },
    {
      "inputs": [
        {
          "internalType": "uint256",
          "name": "",
          "type": "uint256"
        }
      ],
      "name": "tokenToPosition",
      "outputs": [
        {
          "internalType": "uint256",
          "name": "amount",
          "type": "uint256"
        },
        {
          "internalType": "uint256",
          "name": "assetPrice",
          "type": "uint256"
        },
        {
          "internalType": "bool",
          "name": "longOrShort",
          "type": "bool"
        },
        {
          "internalType": "uint256",
          "name": "alpha",
          "type": "uint256"
        }
      ],
      "stateMutability": "view",
      "type": "function"
    },
    {
      "inputs": [
        {
          "internalType": "uint256",
          "name": "tokenId",
          "type": "uint256"
        }
      ],
      "name": "tokenURI",
      "outputs": [
        {
          "internalType": "string",
          "name": "",
          "type": "string"
        }
      ],
      "stateMutability": "view",
      "type": "function"
    },
    {
      "inputs": [],
      "name": "totalDeposits",
      "outputs": [
        {
          "internalType": "uint256",
          "name": "",
          "type": "uint256"
        }
      ],
      "stateMutability": "view",
      "type": "function"
    },
    {
      "inputs": [],
      "name": "totalDepositsLONG",
      "outputs": [
        {
          "internalType": "uint256",
          "name": "",
          "type": "uint256"
        }
      ],
      "stateMutability": "view",
      "type": "function"
    },
    {
      "inputs": [],
      "name": "totalDepositsSHORT",
      "outputs": [
        {
          "internalType": "uint256",
          "name": "",
          "type": "uint256"
        }
      ],
      "stateMutability": "view",
      "type": "function"
    },
    {
      "inputs": [],
      "name": "totalReturnedFromStrat",
      "outputs": [
        {
          "internalType": "uint256",
          "name": "",
          "type": "uint256"
        }
      ],
      "stateMutability": "view",
      "type": "function"
    },
    {
      "inputs": [],
      "name": "totalRewards",
      "outputs": [
        {
          "internalType": "uint256",
          "name": "",
          "type": "uint256"
        }
      ],
      "stateMutability": "view",
      "type": "function"
    },
    {
      "inputs": [
        {
          "internalType": "address",
          "name": "from",
          "type": "address"
        },
        {
          "internalType": "address",
          "name": "to",
          "type": "address"
        },
        {
          "internalType": "uint256",
          "name": "tokenId",
          "type": "uint256"
        }
      ],
      "name": "transferFrom",
      "outputs": [],
      "stateMutability": "nonpayable",
      "type": "function"
    },
    {
      "inputs": [
        {
          "internalType": "address",
          "name": "newOwner",
          "type": "address"
        }
      ],
      "name": "transferOwnership",
      "outputs": [],
      "stateMutability": "nonpayable",
      "type": "function"
    },
    {
      "inputs": [],
      "name": "withdrawFees",
      "outputs": [
        {
          "internalType": "uint256",
          "name": "",
          "type": "uint256"
        }
      ],
      "stateMutability": "view",
      "type": "function"
    }
  ],
  "bytecode": {
    "object": "0x60806040523480156200001157600080fd5b50604051620033c3380380620033c3833981016040819052620000349162000432565b8181600062000044838262000597565b50600162000053828262000597565b505050620000706200006a6200013c60201b60201c565b62000140565b610bb8841115620000b95760405162461bcd60e51b815260206004820152600e60248201526d4d6178206665652069732033302560901b60448201526064015b60405180910390fd5b601980546001600160a01b03808c166001600160a01b03199283161790925560168c9055601a8054928816929091169190911790556009889055600787905562000104888862000663565b600855601786905560118490556200012060128460026200026f565b506200012c3262000192565b505050505050505050506200068b565b3390565b600680546001600160a01b038381166001600160a01b0319831681179093556040519116919082907f8be0079c531659141344cd1fd0a4f28419497f9722a3daafe3b4186f6b6457e090600090a35050565b6200019c62000211565b6001600160a01b038116620002035760405162461bcd60e51b815260206004820152602660248201527f4f776e61626c653a206e6577206f776e657220697320746865207a65726f206160448201526564647265737360d01b6064820152608401620000b0565b6200020e8162000140565b50565b6006546001600160a01b031633146200026d5760405162461bcd60e51b815260206004820181905260248201527f4f776e61626c653a2063616c6c6572206973206e6f7420746865206f776e65726044820152606401620000b0565b565b8260028101928215620002a0579160200282015b82811115620002a057825182559160200191906001019062000283565b50620002ae929150620002b2565b5090565b5b80821115620002ae5760008155600101620002b3565b80516001600160a01b0381168114620002e157600080fd5b919050565b634e487b7160e01b600052604160045260246000fd5b604051601f8201601f191681016001600160401b0381118282101715620003275762000327620002e6565b604052919050565b600082601f8301126200034157600080fd5b604080519081016001600160401b0381118282101715620003665762000366620002e6565b80604052508060408401858111156200037e57600080fd5b845b818110156200039a57805183526020928301920162000380565b509195945050505050565b600082601f830112620003b757600080fd5b81516001600160401b03811115620003d357620003d3620002e6565b6020620003e9601f8301601f19168201620002fc565b8281528582848701011115620003fe57600080fd5b60005b838110156200041e57858101830151828201840152820162000401565b506000928101909101919091529392505050565b6000806000806000806000806000806101608b8d0312156200045357600080fd5b8a5199506200046560208c01620002c9565b985060408b0151975060608b0151965060808b015195506200048a60a08c01620002c9565b945060c08b01519350620004a28c60e08d016200032f565b6101208c01519093506001600160401b0380821115620004c157600080fd5b620004cf8e838f01620003a5565b93506101408d0151915080821115620004e757600080fd5b50620004f68d828e01620003a5565b9150509295989b9194979a5092959850565b600181811c908216806200051d57607f821691505b6020821081036200053e57634e487b7160e01b600052602260045260246000fd5b50919050565b601f8211156200059257600081815260208120601f850160051c810160208610156200056d5750805b601f850160051c820191505b818110156200058e5782815560010162000579565b5050505b505050565b81516001600160401b03811115620005b357620005b3620002e6565b620005cb81620005c4845462000508565b8462000544565b602080601f831160018114620006035760008415620005ea5750858301515b600019600386901b1c1916600185901b1785556200058e565b600085815260208120601f198616915b82811015620006345788860151825594840194600190910190840162000613565b5085821015620006535787850151600019600388901b60f8161c191681555b5050505050600190811b01905550565b808201808211156200068557634e487b7160e01b600052601160045260246000fd5b92915050565b612d28806200069b6000396000f3fe608060405234801561001057600080fd5b506004361061027e5760003560e01c8063715018a61161015c578063af5260bf116100ce578063c87b56dd11610087578063c87b56dd14610548578063d8a2b7f01461055b578063e985e9c51461056e578063eb4c74b814610581578063f2a16e0414610594578063f2fde38b146105a757600080fd5b8063af5260bf146104b0578063b868723e146104b9578063b88d4fde146104c2578063bb77d7ea146104d5578063bd05e965146104de578063c52987cf1461053f57600080fd5b80638901ba12116101205780638901ba121461046a5780638da5cb5b1461047257806395d89b41146104835780639f181b5e1461048b578063a22cb46514610494578063ae7f93e8146104a757600080fd5b8063715018a61461042857806378e97925146104305780637d79669e146104395780637d8820971461044d5780638327bed31461045657600080fd5b806333a100ca116101f55780634a5f0fb0116101b95780634a5f0fb0146103d657806354bf5d13146103e95780636352211e146103f257806366805de5146104055780636fdeeae51461040d57806370a082311461041557600080fd5b806333a100ca146103955780633b649812146103a85780633f3f4537146103b157806342842e0e146103ba578063476343ee146103cd57600080fd5b80630dff5c57116102475780630dff5c57146103335780630e15561a146103465780630fb5a6b41461035d5780631bc6a79e146103665780631c4b774b1461036f57806323b872dd1461038257600080fd5b8062a6e7301461028357806301ffc9a7146102bb57806306fdde03146102de578063081812fc146102f3578063095ea7b31461031e575b600080fd5b6102966102913660046125e1565b6105ba565b6040805194855260208501939093529183015260608201526080015b60405180910390f35b6102ce6102c9366004612627565b610989565b60405190151581526020016102b2565b6102e66109db565b6040516102b29190612694565b6103066103013660046126a7565b610a6d565b6040516001600160a01b0390911681526020016102b2565b61033161032c3660046126d7565b610a94565b005b601854610306906001600160a01b031681565b61034f600b5481565b6040519081526020016102b2565b61034f60095481565b61034f60175481565b61034f61037d3660046126a7565b610ba9565b610331610390366004612701565b610db0565b6103316103a336600461273d565b610de1565b61034f600e5481565b61034f600f5481565b6103316103c8366004612701565b610e2e565b61034f60115481565b601954610306906001600160a01b031681565b61034f60155481565b6103066104003660046126a7565b610e49565b610331610ea9565b61034f610ffd565b61034f61042336600461273d565b6110c2565b610331611148565b61034f60075481565b601a546102ce90600160a81b900460ff1681565b61034f600d5481565b601a546102ce90600160a01b900460ff1681565b61034f61115c565b6006546001600160a01b0316610306565b6102e66111b5565b61034f600c5481565b6103316104a2366004612758565b6111c4565b61034f60105481565b61034f60085481565b61034f600a5481565b6103316104d036600461279a565b6111cf565b61034f60145481565b6105196104ec3660046126a7565b601b6020526000908152604090208054600182015460028301546003909301549192909160ff9091169084565b6040805194855260208501939093529015159183019190915260608201526080016102b2565b61034f60165481565b6102e66105563660046126a7565b611207565b601a54610306906001600160a01b031681565b6102ce61057c366004612876565b61127b565b61034f61058f3660046128a9565b6112a9565b61034f6105a23660046126a7565b611399565b6103316105b536600461273d565b6113b0565b6000806000806007544210156105cf57600080fd5b84151560010361065157601254600e546105ea9088906128f2565b111561064c5760405162461bcd60e51b815260206004820152602660248201527f4d617820616d6f756e7420666f72206c6f6e6720706f736974696f6e7320657860448201526518d95959195960d21b60648201526084015b60405180910390fd5b6106c0565b601354600f546106629088906128f2565b11156106c05760405162461bcd60e51b815260206004820152602760248201527f4d617820616d6f756e7420666f722073686f727420706f736974696f6e7320656044820152661e18d95959195960ca1b6064820152608401610643565b601a5460408051633fabe5a360e21b815290516000926001600160a01b03169163feaf968c9160048083019260a09291908290030181865afa15801561070a573d6000803e3d6000fd5b505050506040513d601f19601f8201168201806040525081019061072e919061291f565b5050509150506000811361074157600080fd5b86600d600082825461075391906128f2565b90915550819050600061076582611429565b90506000610773828a611645565b601954909150600090610790908c906001600160a01b03166116e5565b90506000600954426008546107a5919061296f565b6107af8585612982565b6107b99190612982565b6107c391906129b7565b600c805491925060006107d5836129cb565b9091555050600c546000818152601b602052604090208d8155600180820187905560028201805460ff19168f151590811790915560038301859055900361084c57826014600082825461082891906128f2565b925050819055508d600e600082825461084191906128f2565b909155506108879050565b8c151560000361088757826015600082825461086891906128f2565b925050819055508d600f600082825461088191906128f2565b90915550505b6108ae333061089a87633b9aca00612982565b6019546001600160a01b03169291906118c9565b6018546108df906001600160a01b03166108cc86633b9aca00612982565b6019546001600160a01b03169190611934565b6018546019546001600160a01b03918216916347e7ef24911661090687633b9aca00612982565b6040516001600160e01b031960e085901b1681526001600160a01b0390921660048301526024820152604401600060405180830381600087803b15801561094c57600080fd5b505af1158015610960573d6000803e3d6000fd5b5050505061097461096e3390565b83611a49565b50929c909b5092995097509095505050505050565b60006001600160e01b031982166380ac58cd60e01b14806109ba57506001600160e01b03198216635b5e139f60e01b145b806109d557506301ffc9a760e01b6001600160e01b03198316145b92915050565b6060600080546109ea906129e4565b80601f0160208091040260200160405190810160405280929190818152602001828054610a16906129e4565b8015610a635780601f10610a3857610100808354040283529160200191610a63565b820191906000526020600020905b815481529060010190602001808311610a4657829003601f168201915b5050505050905090565b6000610a7882611a63565b506000908152600460205260409020546001600160a01b031690565b6000610a9f82610e49565b9050806001600160a01b0316836001600160a01b031603610b0c5760405162461bcd60e51b815260206004820152602160248201527f4552433732313a20617070726f76616c20746f2063757272656e74206f776e656044820152603960f91b6064820152608401610643565b336001600160a01b0382161480610b285750610b28813361127b565b610b9a5760405162461bcd60e51b815260206004820152603e60248201527f4552433732313a20617070726f76652063616c6c6572206973206e6f7420746f60448201527f6b656e206f776e6572206e6f7220617070726f76656420666f7220616c6c00006064820152608401610643565b610ba48383611ac2565b505050565b600060085442118015610bca5750601a54600160a01b900460ff1615156001145b610bd357600080fd5b33610bdd83610e49565b6001600160a01b031614610c335760405162461bcd60e51b815260206004820152601d60248201527f75736572206973206e6f74204f776e6572206f6620746f6b656e2049440000006044820152606401610643565b6000806000806010541115610c8a57600d546010546000878152601b6020526040902054610c619190612982565b610c6b91906129b7565b9250610c85335b6019546001600160a01b03169085611b30565b610da8565b601654600a5410158015610cb457506000858152601b602052604090206002015460ff1615156001145b15610d05576000858152601b6020526040812060030154601454600b54919450610ce092859190611b60565b601154909350610cf69084906127106001611b60565b9050610d02818461296f565b92505b601654600a54108015610d2a57506000858152601b602052604090206002015460ff16155b15610d7b576000858152601b6020526040812060030154601554600b54919450610d5692859190611b60565b601154909350610d6c9084906127106001611b60565b9050610d78818461296f565b92505b6000858152601b6020526040902054610d9490846128f2565b9250610d9f33610c72565b50909392505050565b505050919050565b610dba3382611bbf565b610dd65760405162461bcd60e51b815260040161064390612a1e565b610ba4838383611c1d565b601a54600160a81b900460ff1615610df857600080fd5b601a805460ff60a81b1916600160a81b179055601880546001600160a01b039092166001600160a01b0319909216919091179055565b610ba4838383604051806020016040528060008152506111cf565b6000818152600260205260408120546001600160a01b0316806109d55760405162461bcd60e51b8152602060048201526018602482015277115490cdcc8c4e881a5b9d985b1a59081d1bdad95b88125160421b6044820152606401610643565b610eb1611db9565b6008544211610ebf57600080fd5b601a805460ff60a01b198116600160a01b1790915560408051633fabe5a360e21b815290516000926001600160a01b03169163feaf968c9160048083019260a09291908290030181865afa158015610f1b573d6000803e3d6000fd5b505050506040513d601f19601f82011682018060405250810190610f3f919061291f565b50505091505060008113610f5257600080fd5b610f5b81611429565b600a5560185460408051633ccfd60b60e01b815290516000926001600160a01b031691633ccfd60b916004808301926020929190829003018187875af1158015610fa9573d6000803e3d6000fd5b505050506040513d601f19601f82011682018060405250810190610fcd9190612a6c565b9050600d548111610fde5760105550565b600d54811115610ff957600d54610ff5908261296f565b600b555b5050565b600f54600090156110bc57600f546019546040805163313ce56760e01b81529051600093926001600160a01b03169163313ce5679160048083019260209291908290030181865afa158015611056573d6000803e3d6000fd5b505050506040513d601f19601f8201168201806040525081019061107a9190612a85565b61108590600a612b8c565b600d546110929190612982565b61109c91906129b7565b6019549091506110b69082906001600160a01b03166116e5565b91505090565b50600090565b60006001600160a01b03821661112c5760405162461bcd60e51b815260206004820152602960248201527f4552433732313a2061646472657373207a65726f206973206e6f7420612076616044820152683634b21037bbb732b960b91b6064820152608401610643565b506001600160a01b031660009081526003602052604090205490565b611150611db9565b61115a6000611e13565b565b600e54600090156110bc57600e546019546040805163313ce56760e01b81529051600093926001600160a01b03169163313ce5679160048083019260209291908290030181865afa158015611056573d6000803e3d6000fd5b6060600180546109ea906129e4565b610ff9338383611e65565b6111d93383611bbf565b6111f55760405162461bcd60e51b815260040161064390612a1e565b61120184848484611f33565b50505050565b606061121282611a63565b600061122960408051602081019091526000815290565b905060008151116112495760405180602001604052806000815250611274565b8061125384611f66565b604051602001611264929190612b9b565b6040516020818303038152906040525b9392505050565b6001600160a01b03918216600090815260056020908152604080832093909416825291909152205460ff1690565b600080601a60009054906101000a90046001600160a01b03166001600160a01b031663feaf968c6040518163ffffffff1660e01b815260040160a060405180830381865afa1580156112ff573d6000803e3d6000fd5b505050506040513d601f19601f82011682018060405250810190611323919061291f565b5050509150506000811361133657600080fd5b600061134182611429565b905083151560010361136a5760165481106113655761135e61115c565b925061136a565b600092505b8315156000036113925760165481101561138d57611386610ffd565b9250611392565b600092505b5050919050565b601281600281106113a957600080fd5b0154905081565b6113b8611db9565b6001600160a01b03811661141d5760405162461bcd60e51b815260206004820152602660248201527f4f776e61626c653a206e6577206f776e657220697320746865207a65726f206160448201526564647265737360d01b6064820152608401610643565b61142681611e13565b50565b601a546040805163313ce56760e01b8152905183926009926001600160a01b039091169163313ce567916004808201926020929091908290030181865afa158015611478573d6000803e3d6000fd5b505050506040513d601f19601f8201168201806040525081019061149c9190612a85565b60ff16101561153c57601a60009054906101000a90046001600160a01b03166001600160a01b031663313ce5676040518163ffffffff1660e01b8152600401602060405180830381865afa1580156114f8573d6000803e3d6000fd5b505050506040513d601f19601f8201168201806040525081019061151c9190612a85565b611527906009612bca565b61153290600a612b8c565b6109d59082612982565b601a546040805163313ce56760e01b815290516009926001600160a01b03169163313ce5679160048083019260209291908290030181865afa158015611586573d6000803e3d6000fd5b505050506040513d601f19601f820116820180604052508101906115aa9190612a85565b60ff16111561164057601a546040805163313ce56760e01b815290516009926001600160a01b03169163313ce5679160048083019260209291908290030181865afa1580156115fd573d6000803e3d6000fd5b505050506040513d601f19601f820116820180604052508101906116219190612a85565b61162b9190612bca565b61163690600a612b8c565b6109d590826129b7565b919050565b60008115156001036116ad576016548311156116665750633b9aca006109d5565b60165483116116ad5760175483601654611680919061296f565b61168e90633b9aca00612982565b61169891906129b7565b6116a690633b9aca006128f2565b90506109d5565b8115156000036109d5578260165411156116cc5750633b9aca006109d5565b82601654116109d557601754601654611680908561296f565b60008290506009826001600160a01b031663313ce5676040518163ffffffff1660e01b8152600401602060405180830381865afa15801561172a573d6000803e3d6000fd5b505050506040513d601f19601f8201168201806040525081019061174e9190612a85565b60ff1610156117d957816001600160a01b031663313ce5676040518163ffffffff1660e01b8152600401602060405180830381865afa158015611795573d6000803e3d6000fd5b505050506040513d601f19601f820116820180604052508101906117b99190612a85565b6117c4906009612bca565b6117cf90600a612b8c565b6116a69082612982565b6009826001600160a01b031663313ce5676040518163ffffffff1660e01b8152600401602060405180830381865afa158015611819573d6000803e3d6000fd5b505050506040513d601f19601f8201168201806040525081019061183d9190612a85565b60ff1611156109d5576009826001600160a01b031663313ce5676040518163ffffffff1660e01b8152600401602060405180830381865afa158015611886573d6000803e3d6000fd5b505050506040513d601f19601f820116820180604052508101906118aa9190612a85565b6118b49190612bca565b6118bf90600a612b8c565b61127490826129b7565b6040516001600160a01b03808516602483015283166044820152606481018290526112019085906323b872dd60e01b906084015b60408051601f198184030181529190526020810180516001600160e01b03166001600160e01b031990931692909217909152612067565b8015806119ae5750604051636eb1769f60e11b81523060048201526001600160a01b03838116602483015284169063dd62ed3e90604401602060405180830381865afa158015611988573d6000803e3d6000fd5b505050506040513d601f19601f820116820180604052508101906119ac9190612a6c565b155b611a195760405162461bcd60e51b815260206004820152603660248201527f5361666545524332303a20617070726f76652066726f6d206e6f6e2d7a65726f60448201527520746f206e6f6e2d7a65726f20616c6c6f77616e636560501b6064820152608401610643565b6040516001600160a01b038316602482015260448101829052610ba490849063095ea7b360e01b906064016118fd565b610ff9828260405180602001604052806000815250612139565b6000818152600260205260409020546001600160a01b03166114265760405162461bcd60e51b8152602060048201526018602482015277115490cdcc8c4e881a5b9d985b1a59081d1bdad95b88125160421b6044820152606401610643565b600081815260046020526040902080546001600160a01b0319166001600160a01b0384169081179091558190611af782610e49565b6001600160a01b03167f8c5be1e5ebec7d5bd14f71427d1e84f3dd0314c0f7b2291e5b200ac8c7c3b92560405160405180910390a45050565b6040516001600160a01b038316602482015260448101829052610ba490849063a9059cbb60e01b906064016118fd565b600080611b6e86868661216c565b90506001836002811115611b8457611b84612be3565b148015611ba1575060008480611b9c57611b9c6129a1565b868809115b15611bb457611bb16001826128f2565b90505b90505b949350505050565b600080611bcb83610e49565b9050806001600160a01b0316846001600160a01b03161480611bf25750611bf2818561127b565b80611bb75750836001600160a01b0316611c0b84610a6d565b6001600160a01b031614949350505050565b826001600160a01b0316611c3082610e49565b6001600160a01b031614611c945760405162461bcd60e51b815260206004820152602560248201527f4552433732313a207472616e736665722066726f6d20696e636f72726563742060448201526437bbb732b960d91b6064820152608401610643565b6001600160a01b038216611cf65760405162461bcd60e51b8152602060048201526024808201527f4552433732313a207472616e7366657220746f20746865207a65726f206164646044820152637265737360e01b6064820152608401610643565b611d01600082611ac2565b6001600160a01b0383166000908152600360205260408120805460019290611d2a90849061296f565b90915550506001600160a01b0382166000908152600360205260408120805460019290611d589084906128f2565b909155505060008181526002602052604080822080546001600160a01b0319166001600160a01b0386811691821790925591518493918716917fddf252ad1be2c89b69c2b068fc378daa952ba7f163c4a11628f55a4df523b3ef91a4505050565b6006546001600160a01b0316331461115a5760405162461bcd60e51b815260206004820181905260248201527f4f776e61626c653a2063616c6c6572206973206e6f7420746865206f776e65726044820152606401610643565b600680546001600160a01b038381166001600160a01b0319831681179093556040519116919082907f8be0079c531659141344cd1fd0a4f28419497f9722a3daafe3b4186f6b6457e090600090a35050565b816001600160a01b0316836001600160a01b031603611ec65760405162461bcd60e51b815260206004820152601960248201527f4552433732313a20617070726f766520746f2063616c6c6572000000000000006044820152606401610643565b6001600160a01b03838116600081815260056020908152604080832094871680845294825291829020805460ff191686151590811790915591519182527f17307eab39ab6107e8899845ad3d59bd9653f200f220920489ca2b5937696c31910160405180910390a3505050565b611f3e848484611c1d565b611f4a8484848461221a565b6112015760405162461bcd60e51b815260040161064390612bf9565b606081600003611f8d5750506040805180820190915260018152600360fc1b602082015290565b8160005b8115611fb75780611fa1816129cb565b9150611fb09050600a836129b7565b9150611f91565b60008167ffffffffffffffff811115611fd257611fd2612784565b6040519080825280601f01601f191660200182016040528015611ffc576020820181803683370190505b5090505b8415611bb75761201160018361296f565b915061201e600a86612c4b565b6120299060306128f2565b60f81b81838151811061203e5761203e6128c6565b60200101906001600160f81b031916908160001a905350612060600a866129b7565b9450612000565b60006120bc826040518060400160405280602081526020017f5361666545524332303a206c6f772d6c6576656c2063616c6c206661696c6564815250856001600160a01b03166123189092919063ffffffff16565b805190915015610ba457808060200190518101906120da9190612c5f565b610ba45760405162461bcd60e51b815260206004820152602a60248201527f5361666545524332303a204552433230206f7065726174696f6e20646964206e6044820152691bdd081cdd58d8d9595960b21b6064820152608401610643565b6121438383612327565b612150600084848461221a565b610ba45760405162461bcd60e51b815260040161064390612bf9565b60008080600019858709858702925082811083820303915050806000036121a65783828161219c5761219c6129a1565b0492505050611274565b8084116121b257600080fd5b600084868809600260036001881981018916988990049182028318808302840302808302840302808302840302808302840302808302840302918202909203026000889003889004909101858311909403939093029303949094049190911702949350505050565b60006001600160a01b0384163b1561231057604051630a85bd0160e11b81526001600160a01b0385169063150b7a029061225e903390899088908890600401612c7c565b6020604051808303816000875af1925050508015612299575060408051601f3d908101601f1916820190925261229691810190612cb9565b60015b6122f6573d8080156122c7576040519150601f19603f3d011682016040523d82523d6000602084013e6122cc565b606091505b5080516000036122ee5760405162461bcd60e51b815260040161064390612bf9565b805181602001fd5b6001600160e01b031916630a85bd0160e11b149050611bb7565b506001611bb7565b6060611bb78484600085612469565b6001600160a01b03821661237d5760405162461bcd60e51b815260206004820181905260248201527f4552433732313a206d696e7420746f20746865207a65726f20616464726573736044820152606401610643565b6000818152600260205260409020546001600160a01b0316156123e25760405162461bcd60e51b815260206004820152601c60248201527f4552433732313a20746f6b656e20616c7265616479206d696e746564000000006044820152606401610643565b6001600160a01b038216600090815260036020526040812080546001929061240b9084906128f2565b909155505060008181526002602052604080822080546001600160a01b0319166001600160a01b03861690811790915590518392907fddf252ad1be2c89b69c2b068fc378daa952ba7f163c4a11628f55a4df523b3ef908290a45050565b6060824710156124ca5760405162461bcd60e51b815260206004820152602660248201527f416464726573733a20696e73756666696369656e742062616c616e636520666f6044820152651c8818d85b1b60d21b6064820152608401610643565b6001600160a01b0385163b6125215760405162461bcd60e51b815260206004820152601d60248201527f416464726573733a2063616c6c20746f206e6f6e2d636f6e74726163740000006044820152606401610643565b600080866001600160a01b0316858760405161253d9190612cd6565b60006040518083038185875af1925050503d806000811461257a576040519150601f19603f3d011682016040523d82523d6000602084013e61257f565b606091505b509150915061258f82828661259a565b979650505050505050565b606083156125a9575081611274565b8251156125b95782518084602001fd5b8160405162461bcd60e51b81526004016106439190612694565b801515811461142657600080fd5b600080604083850312156125f457600080fd5b823591506020830135612606816125d3565b809150509250929050565b6001600160e01b03198116811461142657600080fd5b60006020828403121561263957600080fd5b813561127481612611565b60005b8381101561265f578181015183820152602001612647565b50506000910152565b60008151808452612680816020860160208601612644565b601f01601f19169290920160200192915050565b6020815260006112746020830184612668565b6000602082840312156126b957600080fd5b5035919050565b80356001600160a01b038116811461164057600080fd5b600080604083850312156126ea57600080fd5b6126f3836126c0565b946020939093013593505050565b60008060006060848603121561271657600080fd5b61271f846126c0565b925061272d602085016126c0565b9150604084013590509250925092565b60006020828403121561274f57600080fd5b611274826126c0565b6000806040838503121561276b57600080fd5b612774836126c0565b91506020830135612606816125d3565b634e487b7160e01b600052604160045260246000fd5b600080600080608085870312156127b057600080fd5b6127b9856126c0565b93506127c7602086016126c0565b925060408501359150606085013567ffffffffffffffff808211156127eb57600080fd5b818701915087601f8301126127ff57600080fd5b81358181111561281157612811612784565b604051601f8201601f19908116603f0116810190838211818310171561283957612839612784565b816040528281528a602084870101111561285257600080fd5b82602086016020830137600060208483010152809550505050505092959194509250565b6000806040838503121561288957600080fd5b612892836126c0565b91506128a0602084016126c0565b90509250929050565b6000602082840312156128bb57600080fd5b8135611274816125d3565b634e487b7160e01b600052603260045260246000fd5b634e487b7160e01b600052601160045260246000fd5b808201808211156109d5576109d56128dc565b805169ffffffffffffffffffff8116811461164057600080fd5b600080600080600060a0868803121561293757600080fd5b61294086612905565b945060208601519350604086015192506060860151915061296360808701612905565b90509295509295909350565b818103818111156109d5576109d56128dc565b600081600019048311821515161561299c5761299c6128dc565b500290565b634e487b7160e01b600052601260045260246000fd5b6000826129c6576129c66129a1565b500490565b6000600182016129dd576129dd6128dc565b5060010190565b600181811c908216806129f857607f821691505b602082108103612a1857634e487b7160e01b600052602260045260246000fd5b50919050565b6020808252602e908201527f4552433732313a2063616c6c6572206973206e6f7420746f6b656e206f776e6560408201526d1c881b9bdc88185c1c1c9bdd995960921b606082015260800190565b600060208284031215612a7e57600080fd5b5051919050565b600060208284031215612a9757600080fd5b815160ff8116811461127457600080fd5b600181815b80851115612ae3578160001904821115612ac957612ac96128dc565b80851615612ad657918102915b93841c9390800290612aad565b509250929050565b600082612afa575060016109d5565b81612b07575060006109d5565b8160018114612b1d5760028114612b2757612b43565b60019150506109d5565b60ff841115612b3857612b386128dc565b50506001821b6109d5565b5060208310610133831016604e8410600b8410161715612b66575081810a6109d5565b612b708383612aa8565b8060001904821115612b8457612b846128dc565b029392505050565b600061127460ff841683612aeb565b60008351612bad818460208801612644565b835190830190612bc1818360208801612644565b01949350505050565b60ff82811682821603908111156109d5576109d56128dc565b634e487b7160e01b600052602160045260246000fd5b60208082526032908201527f4552433732313a207472616e7366657220746f206e6f6e20455243373231526560408201527131b2b4bb32b91034b6b83632b6b2b73a32b960711b606082015260800190565b600082612c5a57612c5a6129a1565b500690565b600060208284031215612c7157600080fd5b8151611274816125d3565b6001600160a01b0385811682528416602082015260408101839052608060608201819052600090612caf90830184612668565b9695505050505050565b600060208284031215612ccb57600080fd5b815161127481612611565b60008251612ce8818460208701612644565b919091019291505056fea264697066735822122099b19fe3e66cc5d6bb818ea799c783def4ec577c8550fc98f36eee3ce5fcbda764736f6c63430008100033",
    "linkReferences": {}
  },
  "methodIdentifiers": {
    "actualAPYBooster(bool)": "eb4c74b8",
    "alphaLongs()": "bb77d7ea",
    "alphaShorts()": "54bf5d13",
    "approve(address,uint256)": "095ea7b3",
    "apyBoosterLong()": "8901ba12",
    "apyBoosterShort()": "6fdeeae5",
    "balanceOf(address)": "70a08231",
    "capLongShort(uint256)": "f2a16e04",
    "chainlinkPriceFeed()": "d8a2b7f0",
    "closePool()": "66805de5",
    "deltaPrice()": "1bc6a79e",
    "depositFunds(uint256,bool)": "00a6e730",
    "duration()": "0fb5a6b4",
    "endPrice()": "b868723e",
    "finalTime()": "af5260bf",
    "getApproved(uint256)": "081812fc",
    "getReward(uint256)": "1c4b774b",
    "isApprovedForAll(address,address)": "e985e9c5",
    "name()": "06fdde03",
    "owner()": "8da5cb5b",
    "ownerOf(uint256)": "6352211e",
    "poolIsClosed()": "8327bed3",
    "renounceOwnership()": "715018a6",
    "safeTransferFrom(address,address,uint256)": "42842e0e",
    "safeTransferFrom(address,address,uint256,bytes)": "b88d4fde",
    "setApprovalForAll(address,bool)": "a22cb465",
    "setStrategy(address)": "33a100ca",
    "startTime()": "78e97925",
    "stratContract()": "0dff5c57",
    "strategyActivated()": "7d79669e",
    "strikePrice()": "c52987cf",
    "suppliedAsset()": "4a5f0fb0",
    "supportsInterface(bytes4)": "01ffc9a7",
    "symbol()": "95d89b41",
    "tokenCount()": "9f181b5e",
    "tokenToPosition(uint256)": "bd05e965",
    "tokenURI(uint256)": "c87b56dd",
    "totalDeposits()": "7d882097",
    "totalDepositsLONG()": "3b649812",
    "totalDepositsSHORT()": "3f3f4537",
    "totalReturnedFromStrat()": "ae7f93e8",
    "totalRewards()": "0e15561a",
    "transferFrom(address,address,uint256)": "23b872dd",
    "transferOwnership(address)": "f2fde38b",
    "withdrawFees()": "476343ee"
  },
  "id": 0
}