{
  "abi": [
    {
      "inputs": [
        {
          "internalType": "uint256",
          "name": "_strikePrice",
          "type": "uint256"
        },
        {
          "internalType": "address",
          "name": "_asset",
          "type": "address"
        },
        {
          "internalType": "uint256",
          "name": "_duration",
          "type": "uint256"
        },
        {
          "internalType": "uint256",
          "name": "_startTime",
          "type": "uint256"
        },
        {
          "internalType": "uint256",
          "name": "_deltaPrice",
          "type": "uint256"
        },
        {
          "internalType": "address",
          "name": "_chainlinkPriceFeed",
          "type": "address"
        },
        {
          "internalType": "uint256",
          "name": "_fees",
          "type": "uint256"
        },
        {
          "internalType": "uint256[2]",
          "name": "_capLongShort",
          "type": "uint256[2]"
        },
        {
          "internalType": "string",
          "name": "_name",
          "type": "string"
        },
        {
          "internalType": "string",
          "name": "_symbol",
          "type": "string"
        }
      ],
      "stateMutability": "nonpayable",
      "type": "constructor"
    },
    {
      "anonymous": false,
      "inputs": [
        {
          "indexed": true,
          "internalType": "address",
          "name": "owner",
          "type": "address"
        },
        {
          "indexed": true,
          "internalType": "address",
          "name": "approved",
          "type": "address"
        },
        {
          "indexed": true,
          "internalType": "uint256",
          "name": "tokenId",
          "type": "uint256"
        }
      ],
      "name": "Approval",
      "type": "event"
    },
    {
      "anonymous": false,
      "inputs": [
        {
          "indexed": true,
          "internalType": "address",
          "name": "owner",
          "type": "address"
        },
        {
          "indexed": true,
          "internalType": "address",
          "name": "operator",
          "type": "address"
        },
        {
          "indexed": false,
          "internalType": "bool",
          "name": "approved",
          "type": "bool"
        }
      ],
      "name": "ApprovalForAll",
      "type": "event"
    },
    {
      "anonymous": false,
      "inputs": [
        {
          "indexed": true,
          "internalType": "address",
          "name": "previousOwner",
          "type": "address"
        },
        {
          "indexed": true,
          "internalType": "address",
          "name": "newOwner",
          "type": "address"
        }
      ],
      "name": "OwnershipTransferred",
      "type": "event"
    },
    {
      "anonymous": false,
      "inputs": [
        {
          "indexed": true,
          "internalType": "address",
          "name": "from",
          "type": "address"
        },
        {
          "indexed": true,
          "internalType": "address",
          "name": "to",
          "type": "address"
        },
        {
          "indexed": true,
          "internalType": "uint256",
          "name": "tokenId",
          "type": "uint256"
        }
      ],
      "name": "Transfer",
      "type": "event"
    },
    {
      "inputs": [
        {
          "internalType": "bool",
          "name": "_longOrShort",
          "type": "bool"
        }
      ],
      "name": "actualAPYBooster",
      "outputs": [
        {
          "internalType": "uint256",
          "name": "apyMultiplicator",
          "type": "uint256"
        }
      ],
      "stateMutability": "view",
      "type": "function"
    },
    {
      "inputs": [],
      "name": "alphaLongs",
      "outputs": [
        {
          "internalType": "uint256",
          "name": "",
          "type": "uint256"
        }
      ],
      "stateMutability": "view",
      "type": "function"
    },
    {
      "inputs": [],
      "name": "alphaShorts",
      "outputs": [
        {
          "internalType": "uint256",
          "name": "",
          "type": "uint256"
        }
      ],
      "stateMutability": "view",
      "type": "function"
    },
    {
      "inputs": [
        {
          "internalType": "address",
          "name": "to",
          "type": "address"
        },
        {
          "internalType": "uint256",
          "name": "tokenId",
          "type": "uint256"
        }
      ],
      "name": "approve",
      "outputs": [],
      "stateMutability": "nonpayable",
      "type": "function"
    },
    {
      "inputs": [],
      "name": "apyBoosterLong",
      "outputs": [
        {
          "internalType": "uint256",
          "name": "standardizedMultiplicator",
          "type": "uint256"
        }
      ],
      "stateMutability": "view",
      "type": "function"
    },
    {
      "inputs": [],
      "name": "apyBoosterShort",
      "outputs": [
        {
          "internalType": "uint256",
          "name": "standardizedMultiplicator",
          "type": "uint256"
        }
      ],
      "stateMutability": "view",
      "type": "function"
    },
    {
      "inputs": [
        {
          "internalType": "address",
          "name": "owner",
          "type": "address"
        }
      ],
      "name": "balanceOf",
      "outputs": [
        {
          "internalType": "uint256",
          "name": "",
          "type": "uint256"
        }
      ],
      "stateMutability": "view",
      "type": "function"
    },
    {
      "inputs": [
        {
          "internalType": "uint256",
          "name": "",
          "type": "uint256"
        }
      ],
      "name": "capLongShort",
      "outputs": [
        {
          "internalType": "uint256",
          "name": "",
          "type": "uint256"
        }
      ],
      "stateMutability": "view",
      "type": "function"
    },
    {
      "inputs": [],
      "name": "chainlinkPriceFeed",
      "outputs": [
        {
          "internalType": "address",
          "name": "",
          "type": "address"
        }
      ],
      "stateMutability": "view",
      "type": "function"
    },
    {
      "inputs": [],
      "name": "closePool",
      "outputs": [],
      "stateMutability": "nonpayable",
      "type": "function"
    },
    {
      "inputs": [],
      "name": "deltaPrice",
      "outputs": [
        {
          "internalType": "uint256",
          "name": "",
          "type": "uint256"
        }
      ],
      "stateMutability": "view",
      "type": "function"
    },
    {
      "inputs": [
        {
          "internalType": "uint256",
          "name": "amount",
          "type": "uint256"
        },
        {
          "internalType": "bool",
          "name": "longShort",
          "type": "bool"
        }
      ],
      "name": "depositFunds",
      "outputs": [
        {
          "internalType": "uint256",
          "name": "_computedRisk",
          "type": "uint256"
        },
        {
          "internalType": "uint256",
          "name": "_alpha",
          "type": "uint256"
        },
        {
          "internalType": "uint256",
          "name": "_standardizedPrice",
          "type": "uint256"
        },
        {
          "internalType": "uint256",
          "name": "_standardizedAmount",
          "type": "uint256"
        }
      ],
      "stateMutability": "nonpayable",
      "type": "function"
    },
    {
      "inputs": [],
      "name": "duration",
      "outputs": [
        {
          "internalType": "uint256",
          "name": "",
          "type": "uint256"
        }
      ],
      "stateMutability": "view",
      "type": "function"
    },
    {
      "inputs": [],
      "name": "endPrice",
      "outputs": [
        {
          "internalType": "uint256",
          "name": "",
          "type": "uint256"
        }
      ],
      "stateMutability": "view",
      "type": "function"
    },
    {
      "inputs": [],
      "name": "finalTime",
      "outputs": [
        {
          "internalType": "uint256",
          "name": "",
          "type": "uint256"
        }
      ],
      "stateMutability": "view",
      "type": "function"
    },
    {
      "inputs": [
        {
          "internalType": "uint256",
          "name": "tokenId",
          "type": "uint256"
        }
      ],
      "name": "getApproved",
      "outputs": [
        {
          "internalType": "address",
          "name": "",
          "type": "address"
        }
      ],
      "stateMutability": "view",
      "type": "function"
    },
    {
      "inputs": [
        {
          "internalType": "uint256",
          "name": "tokenID",
          "type": "uint256"
        }
      ],
      "name": "getReward",
      "outputs": [
        {
          "internalType": "uint256",
          "name": "_amountOwed",
          "type": "uint256"
        }
      ],
      "stateMutability": "nonpayable",
      "type": "function"
    },
    {
      "inputs": [
        {
          "internalType": "address",
          "name": "owner",
          "type": "address"
        },
        {
          "internalType": "address",
          "name": "operator",
          "type": "address"
        }
      ],
      "name": "isApprovedForAll",
      "outputs": [
        {
          "internalType": "bool",
          "name": "",
          "type": "bool"
        }
      ],
      "stateMutability": "view",
      "type": "function"
    },
    {
      "inputs": [],
      "name": "name",
      "outputs": [
        {
          "internalType": "string",
          "name": "",
          "type": "string"
        }
      ],
      "stateMutability": "view",
      "type": "function"
    },
    {
      "inputs": [],
      "name": "owner",
      "outputs": [
        {
          "internalType": "address",
          "name": "",
          "type": "address"
        }
      ],
      "stateMutability": "view",
      "type": "function"
    },
    {
      "inputs": [
        {
          "internalType": "uint256",
          "name": "tokenId",
          "type": "uint256"
        }
      ],
      "name": "ownerOf",
      "outputs": [
        {
          "internalType": "address",
          "name": "",
          "type": "address"
        }
      ],
      "stateMutability": "view",
      "type": "function"
    },
    {
      "inputs": [],
      "name": "poolIsClosed",
      "outputs": [
        {
          "internalType": "bool",
          "name": "",
          "type": "bool"
        }
      ],
      "stateMutability": "view",
      "type": "function"
    },
    {
      "inputs": [],
      "name": "renounceOwnership",
      "outputs": [],
      "stateMutability": "nonpayable",
      "type": "function"
    },
    {
      "inputs": [
        {
          "internalType": "address",
          "name": "from",
          "type": "address"
        },
        {
          "internalType": "address",
          "name": "to",
          "type": "address"
        },
        {
          "internalType": "uint256",
          "name": "tokenId",
          "type": "uint256"
        }
      ],
      "name": "safeTransferFrom",
      "outputs": [],
      "stateMutability": "nonpayable",
      "type": "function"
    },
    {
      "inputs": [
        {
          "internalType": "address",
          "name": "from",
          "type": "address"
        },
        {
          "internalType": "address",
          "name": "to",
          "type": "address"
        },
        {
          "internalType": "uint256",
          "name": "tokenId",
          "type": "uint256"
        },
        {
          "internalType": "bytes",
          "name": "data",
          "type": "bytes"
        }
      ],
      "name": "safeTransferFrom",
      "outputs": [],
      "stateMutability": "nonpayable",
      "type": "function"
    },
    {
      "inputs": [
        {
          "internalType": "address",
          "name": "operator",
          "type": "address"
        },
        {
          "internalType": "bool",
          "name": "approved",
          "type": "bool"
        }
      ],
      "name": "setApprovalForAll",
      "outputs": [],
      "stateMutability": "nonpayable",
      "type": "function"
    },
    {
      "inputs": [
        {
          "internalType": "address",
          "name": "_strat",
          "type": "address"
        }
      ],
      "name": "setStrategy",
      "outputs": [],
      "stateMutability": "nonpayable",
      "type": "function"
    },
    {
      "inputs": [],
      "name": "startTime",
      "outputs": [
        {
          "internalType": "uint256",
          "name": "",
          "type": "uint256"
        }
      ],
      "stateMutability": "view",
      "type": "function"
    },
    {
      "inputs": [],
      "name": "stratContract",
      "outputs": [
        {
          "internalType": "address",
          "name": "",
          "type": "address"
        }
      ],
      "stateMutability": "view",
      "type": "function"
    },
    {
      "inputs": [],
      "name": "strategyActivated",
      "outputs": [
        {
          "internalType": "bool",
          "name": "",
          "type": "bool"
        }
      ],
      "stateMutability": "view",
      "type": "function"
    },
    {
      "inputs": [],
      "name": "strikePrice",
      "outputs": [
        {
          "internalType": "uint256",
          "name": "",
          "type": "uint256"
        }
      ],
      "stateMutability": "view",
      "type": "function"
    },
    {
      "inputs": [],
      "name": "suppliedAsset",
      "outputs": [
        {
          "internalType": "address",
          "name": "",
          "type": "address"
        }
      ],
      "stateMutability": "view",
      "type": "function"
    },
    {
      "inputs": [
        {
          "internalType": "bytes4",
          "name": "interfaceId",
          "type": "bytes4"
        }
      ],
      "name": "supportsInterface",
      "outputs": [
        {
          "internalType": "bool",
          "name": "",
          "type": "bool"
        }
      ],
      "stateMutability": "view",
      "type": "function"
    },
    {
      "inputs": [],
      "name": "symbol",
      "outputs": [
        {
          "internalType": "string",
          "name": "",
          "type": "string"
        }
      ],
      "stateMutability": "view",
      "type": "function"
    },
    {
      "inputs": [],
      "name": "tokenCount",
      "outputs": [
        {
          "internalType": "uint256",
          "name": "",
          "type": "uint256"
        }
      ],
      "stateMutability": "view",
      "type": "function"
    },
    {
      "inputs": [
        {
          "internalType": "uint256",
          "name": "",
          "type": "uint256"
        }
      ],
      "name": "tokenToPosition",
      "outputs": [
        {
          "internalType": "uint256",
          "name": "amount",
          "type": "uint256"
        },
        {
          "internalType": "uint256",
          "name": "assetPrice",
          "type": "uint256"
        },
        {
          "internalType": "bool",
          "name": "longOrShort",
          "type": "bool"
        },
        {
          "internalType": "uint256",
          "name": "alpha",
          "type": "uint256"
        }
      ],
      "stateMutability": "view",
      "type": "function"
    },
    {
      "inputs": [
        {
          "internalType": "uint256",
          "name": "tokenId",
          "type": "uint256"
        }
      ],
      "name": "tokenURI",
      "outputs": [
        {
          "internalType": "string",
          "name": "",
          "type": "string"
        }
      ],
      "stateMutability": "view",
      "type": "function"
    },
    {
      "inputs": [],
      "name": "totalDeposits",
      "outputs": [
        {
          "internalType": "uint256",
          "name": "",
          "type": "uint256"
        }
      ],
      "stateMutability": "view",
      "type": "function"
    },
    {
      "inputs": [],
      "name": "totalDepositsLONG",
      "outputs": [
        {
          "internalType": "uint256",
          "name": "",
          "type": "uint256"
        }
      ],
      "stateMutability": "view",
      "type": "function"
    },
    {
      "inputs": [],
      "name": "totalDepositsSHORT",
      "outputs": [
        {
          "internalType": "uint256",
          "name": "",
          "type": "uint256"
        }
      ],
      "stateMutability": "view",
      "type": "function"
    },
    {
      "inputs": [],
      "name": "totalReturnedFromStrat",
      "outputs": [
        {
          "internalType": "uint256",
          "name": "",
          "type": "uint256"
        }
      ],
      "stateMutability": "view",
      "type": "function"
    },
    {
      "inputs": [],
      "name": "totalRewards",
      "outputs": [
        {
          "internalType": "uint256",
          "name": "",
          "type": "uint256"
        }
      ],
      "stateMutability": "view",
      "type": "function"
    },
    {
      "inputs": [
        {
          "internalType": "address",
          "name": "from",
          "type": "address"
        },
        {
          "internalType": "address",
          "name": "to",
          "type": "address"
        },
        {
          "internalType": "uint256",
          "name": "tokenId",
          "type": "uint256"
        }
      ],
      "name": "transferFrom",
      "outputs": [],
      "stateMutability": "nonpayable",
      "type": "function"
    },
    {
      "inputs": [
        {
          "internalType": "address",
          "name": "newOwner",
          "type": "address"
        }
      ],
      "name": "transferOwnership",
      "outputs": [],
      "stateMutability": "nonpayable",
      "type": "function"
    },
    {
      "inputs": [],
      "name": "withdrawFees",
      "outputs": [
        {
          "internalType": "uint256",
          "name": "",
          "type": "uint256"
        }
      ],
      "stateMutability": "view",
      "type": "function"
    }
  ],
  "bytecode": {
    "object": "0x60806040523480156200001157600080fd5b50604051620033aa380380620033aa833981016040819052620000349162000432565b8181600062000044838262000597565b50600162000053828262000597565b505050620000706200006a6200013c60201b60201c565b62000140565b610bb8841115620000b95760405162461bcd60e51b815260206004820152600e60248201526d4d6178206665652069732033302560901b60448201526064015b60405180910390fd5b601980546001600160a01b03808c166001600160a01b03199283161790925560168c9055601a8054928816929091169190911790556009889055600787905562000104888862000663565b600855601786905560118490556200012060128460026200026f565b506200012c3262000192565b505050505050505050506200068b565b3390565b600680546001600160a01b038381166001600160a01b0319831681179093556040519116919082907f8be0079c531659141344cd1fd0a4f28419497f9722a3daafe3b4186f6b6457e090600090a35050565b6200019c62000211565b6001600160a01b038116620002035760405162461bcd60e51b815260206004820152602660248201527f4f776e61626c653a206e6577206f776e657220697320746865207a65726f206160448201526564647265737360d01b6064820152608401620000b0565b6200020e8162000140565b50565b6006546001600160a01b031633146200026d5760405162461bcd60e51b815260206004820181905260248201527f4f776e61626c653a2063616c6c6572206973206e6f7420746865206f776e65726044820152606401620000b0565b565b8260028101928215620002a0579160200282015b82811115620002a057825182559160200191906001019062000283565b50620002ae929150620002b2565b5090565b5b80821115620002ae5760008155600101620002b3565b80516001600160a01b0381168114620002e157600080fd5b919050565b634e487b7160e01b600052604160045260246000fd5b604051601f8201601f191681016001600160401b0381118282101715620003275762000327620002e6565b604052919050565b600082601f8301126200034157600080fd5b604080519081016001600160401b0381118282101715620003665762000366620002e6565b80604052508060408401858111156200037e57600080fd5b845b818110156200039a57805183526020928301920162000380565b509195945050505050565b600082601f830112620003b757600080fd5b81516001600160401b03811115620003d357620003d3620002e6565b6020620003e9601f8301601f19168201620002fc565b8281528582848701011115620003fe57600080fd5b60005b838110156200041e57858101830151828201840152820162000401565b506000928101909101919091529392505050565b6000806000806000806000806000806101608b8d0312156200045357600080fd5b8a5199506200046560208c01620002c9565b985060408b0151975060608b0151965060808b015195506200048a60a08c01620002c9565b945060c08b01519350620004a28c60e08d016200032f565b6101208c01519093506001600160401b0380821115620004c157600080fd5b620004cf8e838f01620003a5565b93506101408d0151915080821115620004e757600080fd5b50620004f68d828e01620003a5565b9150509295989b9194979a5092959850565b600181811c908216806200051d57607f821691505b6020821081036200053e57634e487b7160e01b600052602260045260246000fd5b50919050565b601f8211156200059257600081815260208120601f850160051c810160208610156200056d5750805b601f850160051c820191505b818110156200058e5782815560010162000579565b5050505b505050565b81516001600160401b03811115620005b357620005b3620002e6565b620005cb81620005c4845462000508565b8462000544565b602080601f831160018114620006035760008415620005ea5750858301515b600019600386901b1c1916600185901b1785556200058e565b600085815260208120601f198616915b82811015620006345788860151825594840194600190910190840162000613565b5085821015620006535787850151600019600388901b60f8161c191681555b5050505050600190811b01905550565b808201808211156200068557634e487b7160e01b600052601160045260246000fd5b92915050565b612d0f806200069b6000396000f3fe608060405234801561001057600080fd5b506004361061027e5760003560e01c8063715018a61161015c578063af5260bf116100ce578063c87b56dd11610087578063c87b56dd14610548578063d8a2b7f01461055b578063e985e9c51461056e578063eb4c74b814610581578063f2a16e0414610594578063f2fde38b146105a757600080fd5b8063af5260bf146104b0578063b868723e146104b9578063b88d4fde146104c2578063bb77d7ea146104d5578063bd05e965146104de578063c52987cf1461053f57600080fd5b80638901ba12116101205780638901ba121461046a5780638da5cb5b1461047257806395d89b41146104835780639f181b5e1461048b578063a22cb46514610494578063ae7f93e8146104a757600080fd5b8063715018a61461042857806378e97925146104305780637d79669e146104395780637d8820971461044d5780638327bed31461045657600080fd5b806333a100ca116101f55780634a5f0fb0116101b95780634a5f0fb0146103d657806354bf5d13146103e95780636352211e146103f257806366805de5146104055780636fdeeae51461040d57806370a082311461041557600080fd5b806333a100ca146103955780633b649812146103a85780633f3f4537146103b157806342842e0e146103ba578063476343ee146103cd57600080fd5b80630dff5c57116102475780630dff5c57146103335780630e15561a146103465780630fb5a6b41461035d5780631bc6a79e146103665780631c4b774b1461036f57806323b872dd1461038257600080fd5b8062a6e7301461028357806301ffc9a7146102bb57806306fdde03146102de578063081812fc146102f3578063095ea7b31461031e575b600080fd5b6102966102913660046125c8565b6105ba565b6040805194855260208501939093529183015260608201526080015b60405180910390f35b6102ce6102c936600461260e565b610989565b60405190151581526020016102b2565b6102e66109db565b6040516102b2919061267b565b61030661030136600461268e565b610a6d565b6040516001600160a01b0390911681526020016102b2565b61033161032c3660046126be565b610a94565b005b601854610306906001600160a01b031681565b61034f600b5481565b6040519081526020016102b2565b61034f60095481565b61034f60175481565b61034f61037d36600461268e565b610ba9565b6103316103903660046126e8565b610d97565b6103316103a3366004612724565b610dc8565b61034f600e5481565b61034f600f5481565b6103316103c83660046126e8565b610e15565b61034f60115481565b601954610306906001600160a01b031681565b61034f60155481565b61030661040036600461268e565b610e30565b610331610e90565b61034f610fe4565b61034f610423366004612724565b6110a9565b61033161112f565b61034f60075481565b601a546102ce90600160a81b900460ff1681565b61034f600d5481565b601a546102ce90600160a01b900460ff1681565b61034f611143565b6006546001600160a01b0316610306565b6102e661119c565b61034f600c5481565b6103316104a236600461273f565b6111ab565b61034f60105481565b61034f60085481565b61034f600a5481565b6103316104d0366004612781565b6111b6565b61034f60145481565b6105196104ec36600461268e565b601b6020526000908152604090208054600182015460028301546003909301549192909160ff9091169084565b6040805194855260208501939093529015159183019190915260608201526080016102b2565b61034f60165481565b6102e661055636600461268e565b6111ee565b601a54610306906001600160a01b031681565b6102ce61057c36600461285d565b611262565b61034f61058f366004612890565b611290565b61034f6105a236600461268e565b611380565b6103316105b5366004612724565b611397565b6000806000806007544210156105cf57600080fd5b84151560010361065157601254600e546105ea9088906128d9565b111561064c5760405162461bcd60e51b815260206004820152602660248201527f4d617820616d6f756e7420666f72206c6f6e6720706f736974696f6e7320657860448201526518d95959195960d21b60648201526084015b60405180910390fd5b6106c0565b601354600f546106629088906128d9565b11156106c05760405162461bcd60e51b815260206004820152602760248201527f4d617820616d6f756e7420666f722073686f727420706f736974696f6e7320656044820152661e18d95959195960ca1b6064820152608401610643565b601a5460408051633fabe5a360e21b815290516000926001600160a01b03169163feaf968c9160048083019260a09291908290030181865afa15801561070a573d6000803e3d6000fd5b505050506040513d601f19601f8201168201806040525081019061072e9190612906565b5050509150506000811361074157600080fd5b86600d600082825461075391906128d9565b90915550819050600061076582611410565b90506000610773828a61162c565b601954909150600090610790908c906001600160a01b03166116cc565b90506000600954426008546107a59190612956565b6107af8585612969565b6107b99190612969565b6107c3919061299e565b600c805491925060006107d5836129b2565b9091555050600c546000818152601b602052604090208d8155600180820187905560028201805460ff19168f151590811790915560038301859055900361084c57826014600082825461082891906128d9565b925050819055508d600e600082825461084191906128d9565b909155506108879050565b8c151560000361088757826015600082825461086891906128d9565b925050819055508d600f600082825461088191906128d9565b90915550505b6108ae333061089a87633b9aca00612969565b6019546001600160a01b03169291906118b0565b6018546108df906001600160a01b03166108cc86633b9aca00612969565b6019546001600160a01b0316919061191b565b6018546019546001600160a01b03918216916347e7ef24911661090687633b9aca00612969565b6040516001600160e01b031960e085901b1681526001600160a01b0390921660048301526024820152604401600060405180830381600087803b15801561094c57600080fd5b505af1158015610960573d6000803e3d6000fd5b5050505061097461096e3390565b83611a30565b50929c909b5092995097509095505050505050565b60006001600160e01b031982166380ac58cd60e01b14806109ba57506001600160e01b03198216635b5e139f60e01b145b806109d557506301ffc9a760e01b6001600160e01b03198316145b92915050565b6060600080546109ea906129cb565b80601f0160208091040260200160405190810160405280929190818152602001828054610a16906129cb565b8015610a635780601f10610a3857610100808354040283529160200191610a63565b820191906000526020600020905b815481529060010190602001808311610a4657829003601f168201915b5050505050905090565b6000610a7882611a4a565b506000908152600460205260409020546001600160a01b031690565b6000610a9f82610e30565b9050806001600160a01b0316836001600160a01b031603610b0c5760405162461bcd60e51b815260206004820152602160248201527f4552433732313a20617070726f76616c20746f2063757272656e74206f776e656044820152603960f91b6064820152608401610643565b336001600160a01b0382161480610b285750610b288133611262565b610b9a5760405162461bcd60e51b815260206004820152603e60248201527f4552433732313a20617070726f76652063616c6c6572206973206e6f7420746f60448201527f6b656e206f776e6572206e6f7220617070726f76656420666f7220616c6c00006064820152608401610643565b610ba48383611aa9565b505050565b600060085442118015610bca5750601a54600160a01b900460ff1615156001145b610bd357600080fd5b33610bdd83610e30565b6001600160a01b031614610c335760405162461bcd60e51b815260206004820152601d60248201527f75736572206973206e6f74204f776e6572206f6620746f6b656e2049440000006044820152606401610643565b6000806000806010541115610c8d57600d546010546000878152601b6020526040902054610c619190612969565b610c6b919061299e565b9250610c84336019546001600160a01b03169085611b17565b50909392505050565b601654600a5410158015610cb757506000858152601b602052604090206002015460ff1615156001145b15610d08576000858152601b6020526040812060030154601454600b54919450610ce392859190611b47565b601154909350610cf99084906127106001611b47565b9050610d058184612956565b92505b601654600a54108015610d2d57506000858152601b602052604090206002015460ff16155b15610d7e576000858152601b6020526040812060030154601554600b54919450610d5992859190611b47565b601154909350610d6f9084906127106001611b47565b9050610d7b8184612956565b92505b6000858152601b6020526040902054610c6b90846128d9565b610da13382611ba6565b610dbd5760405162461bcd60e51b815260040161064390612a05565b610ba4838383611c04565b601a54600160a81b900460ff1615610ddf57600080fd5b601a805460ff60a81b1916600160a81b179055601880546001600160a01b039092166001600160a01b0319909216919091179055565b610ba4838383604051806020016040528060008152506111b6565b6000818152600260205260408120546001600160a01b0316806109d55760405162461bcd60e51b8152602060048201526018602482015277115490cdcc8c4e881a5b9d985b1a59081d1bdad95b88125160421b6044820152606401610643565b610e98611da0565b6008544211610ea657600080fd5b601a805460ff60a01b198116600160a01b1790915560408051633fabe5a360e21b815290516000926001600160a01b03169163feaf968c9160048083019260a09291908290030181865afa158015610f02573d6000803e3d6000fd5b505050506040513d601f19601f82011682018060405250810190610f269190612906565b50505091505060008113610f3957600080fd5b610f4281611410565b600a5560185460408051633ccfd60b60e01b815290516000926001600160a01b031691633ccfd60b916004808301926020929190829003018187875af1158015610f90573d6000803e3d6000fd5b505050506040513d601f19601f82011682018060405250810190610fb49190612a53565b9050600d548111610fc55760105550565b600d54811115610fe057600d54610fdc9082612956565b600b555b5050565b600f54600090156110a357600f546019546040805163313ce56760e01b81529051600093926001600160a01b03169163313ce5679160048083019260209291908290030181865afa15801561103d573d6000803e3d6000fd5b505050506040513d601f19601f820116820180604052508101906110619190612a6c565b61106c90600a612b73565b600d546110799190612969565b611083919061299e565b60195490915061109d9082906001600160a01b03166116cc565b91505090565b50600090565b60006001600160a01b0382166111135760405162461bcd60e51b815260206004820152602960248201527f4552433732313a2061646472657373207a65726f206973206e6f7420612076616044820152683634b21037bbb732b960b91b6064820152608401610643565b506001600160a01b031660009081526003602052604090205490565b611137611da0565b6111416000611dfa565b565b600e54600090156110a357600e546019546040805163313ce56760e01b81529051600093926001600160a01b03169163313ce5679160048083019260209291908290030181865afa15801561103d573d6000803e3d6000fd5b6060600180546109ea906129cb565b610fe0338383611e4c565b6111c03383611ba6565b6111dc5760405162461bcd60e51b815260040161064390612a05565b6111e884848484611f1a565b50505050565b60606111f982611a4a565b600061121060408051602081019091526000815290565b90506000815111611230576040518060200160405280600081525061125b565b8061123a84611f4d565b60405160200161124b929190612b82565b6040516020818303038152906040525b9392505050565b6001600160a01b03918216600090815260056020908152604080832093909416825291909152205460ff1690565b600080601a60009054906101000a90046001600160a01b03166001600160a01b031663feaf968c6040518163ffffffff1660e01b815260040160a060405180830381865afa1580156112e6573d6000803e3d6000fd5b505050506040513d601f19601f8201168201806040525081019061130a9190612906565b5050509150506000811361131d57600080fd5b600061132882611410565b905083151560010361135157601654811061134c57611345611143565b9250611351565b600092505b831515600003611379576016548110156113745761136d610fe4565b9250611379565b600092505b5050919050565b6012816002811061139057600080fd5b0154905081565b61139f611da0565b6001600160a01b0381166114045760405162461bcd60e51b815260206004820152602660248201527f4f776e61626c653a206e6577206f776e657220697320746865207a65726f206160448201526564647265737360d01b6064820152608401610643565b61140d81611dfa565b50565b601a546040805163313ce56760e01b8152905183926009926001600160a01b039091169163313ce567916004808201926020929091908290030181865afa15801561145f573d6000803e3d6000fd5b505050506040513d601f19601f820116820180604052508101906114839190612a6c565b60ff16101561152357601a60009054906101000a90046001600160a01b03166001600160a01b031663313ce5676040518163ffffffff1660e01b8152600401602060405180830381865afa1580156114df573d6000803e3d6000fd5b505050506040513d601f19601f820116820180604052508101906115039190612a6c565b61150e906009612bb1565b61151990600a612b73565b6109d59082612969565b601a546040805163313ce56760e01b815290516009926001600160a01b03169163313ce5679160048083019260209291908290030181865afa15801561156d573d6000803e3d6000fd5b505050506040513d601f19601f820116820180604052508101906115919190612a6c565b60ff16111561162757601a546040805163313ce56760e01b815290516009926001600160a01b03169163313ce5679160048083019260209291908290030181865afa1580156115e4573d6000803e3d6000fd5b505050506040513d601f19601f820116820180604052508101906116089190612a6c565b6116129190612bb1565b61161d90600a612b73565b6109d5908261299e565b919050565b60008115156001036116945760165483111561164d5750633b9aca006109d5565b601654831161169457601754836016546116679190612956565b61167590633b9aca00612969565b61167f919061299e565b61168d90633b9aca006128d9565b90506109d5565b8115156000036109d5578260165411156116b35750633b9aca006109d5565b82601654116109d5576017546016546116679085612956565b60008290506009826001600160a01b031663313ce5676040518163ffffffff1660e01b8152600401602060405180830381865afa158015611711573d6000803e3d6000fd5b505050506040513d601f19601f820116820180604052508101906117359190612a6c565b60ff1610156117c057816001600160a01b031663313ce5676040518163ffffffff1660e01b8152600401602060405180830381865afa15801561177c573d6000803e3d6000fd5b505050506040513d601f19601f820116820180604052508101906117a09190612a6c565b6117ab906009612bb1565b6117b690600a612b73565b61168d9082612969565b6009826001600160a01b031663313ce5676040518163ffffffff1660e01b8152600401602060405180830381865afa158015611800573d6000803e3d6000fd5b505050506040513d601f19601f820116820180604052508101906118249190612a6c565b60ff1611156109d5576009826001600160a01b031663313ce5676040518163ffffffff1660e01b8152600401602060405180830381865afa15801561186d573d6000803e3d6000fd5b505050506040513d601f19601f820116820180604052508101906118919190612a6c565b61189b9190612bb1565b6118a690600a612b73565b61125b908261299e565b6040516001600160a01b03808516602483015283166044820152606481018290526111e89085906323b872dd60e01b906084015b60408051601f198184030181529190526020810180516001600160e01b03166001600160e01b03199093169290921790915261204e565b8015806119955750604051636eb1769f60e11b81523060048201526001600160a01b03838116602483015284169063dd62ed3e90604401602060405180830381865afa15801561196f573d6000803e3d6000fd5b505050506040513d601f19601f820116820180604052508101906119939190612a53565b155b611a005760405162461bcd60e51b815260206004820152603660248201527f5361666545524332303a20617070726f76652066726f6d206e6f6e2d7a65726f60448201527520746f206e6f6e2d7a65726f20616c6c6f77616e636560501b6064820152608401610643565b6040516001600160a01b038316602482015260448101829052610ba490849063095ea7b360e01b906064016118e4565b610fe0828260405180602001604052806000815250612120565b6000818152600260205260409020546001600160a01b031661140d5760405162461bcd60e51b8152602060048201526018602482015277115490cdcc8c4e881a5b9d985b1a59081d1bdad95b88125160421b6044820152606401610643565b600081815260046020526040902080546001600160a01b0319166001600160a01b0384169081179091558190611ade82610e30565b6001600160a01b03167f8c5be1e5ebec7d5bd14f71427d1e84f3dd0314c0f7b2291e5b200ac8c7c3b92560405160405180910390a45050565b6040516001600160a01b038316602482015260448101829052610ba490849063a9059cbb60e01b906064016118e4565b600080611b55868686612153565b90506001836002811115611b6b57611b6b612bca565b148015611b88575060008480611b8357611b83612988565b868809115b15611b9b57611b986001826128d9565b90505b90505b949350505050565b600080611bb283610e30565b9050806001600160a01b0316846001600160a01b03161480611bd95750611bd98185611262565b80611b9e5750836001600160a01b0316611bf284610a6d565b6001600160a01b031614949350505050565b826001600160a01b0316611c1782610e30565b6001600160a01b031614611c7b5760405162461bcd60e51b815260206004820152602560248201527f4552433732313a207472616e736665722066726f6d20696e636f72726563742060448201526437bbb732b960d91b6064820152608401610643565b6001600160a01b038216611cdd5760405162461bcd60e51b8152602060048201526024808201527f4552433732313a207472616e7366657220746f20746865207a65726f206164646044820152637265737360e01b6064820152608401610643565b611ce8600082611aa9565b6001600160a01b0383166000908152600360205260408120805460019290611d11908490612956565b90915550506001600160a01b0382166000908152600360205260408120805460019290611d3f9084906128d9565b909155505060008181526002602052604080822080546001600160a01b0319166001600160a01b0386811691821790925591518493918716917fddf252ad1be2c89b69c2b068fc378daa952ba7f163c4a11628f55a4df523b3ef91a4505050565b6006546001600160a01b031633146111415760405162461bcd60e51b815260206004820181905260248201527f4f776e61626c653a2063616c6c6572206973206e6f7420746865206f776e65726044820152606401610643565b600680546001600160a01b038381166001600160a01b0319831681179093556040519116919082907f8be0079c531659141344cd1fd0a4f28419497f9722a3daafe3b4186f6b6457e090600090a35050565b816001600160a01b0316836001600160a01b031603611ead5760405162461bcd60e51b815260206004820152601960248201527f4552433732313a20617070726f766520746f2063616c6c6572000000000000006044820152606401610643565b6001600160a01b03838116600081815260056020908152604080832094871680845294825291829020805460ff191686151590811790915591519182527f17307eab39ab6107e8899845ad3d59bd9653f200f220920489ca2b5937696c31910160405180910390a3505050565b611f25848484611c04565b611f3184848484612201565b6111e85760405162461bcd60e51b815260040161064390612be0565b606081600003611f745750506040805180820190915260018152600360fc1b602082015290565b8160005b8115611f9e5780611f88816129b2565b9150611f979050600a8361299e565b9150611f78565b60008167ffffffffffffffff811115611fb957611fb961276b565b6040519080825280601f01601f191660200182016040528015611fe3576020820181803683370190505b5090505b8415611b9e57611ff8600183612956565b9150612005600a86612c32565b6120109060306128d9565b60f81b818381518110612025576120256128ad565b60200101906001600160f81b031916908160001a905350612047600a8661299e565b9450611fe7565b60006120a3826040518060400160405280602081526020017f5361666545524332303a206c6f772d6c6576656c2063616c6c206661696c6564815250856001600160a01b03166122ff9092919063ffffffff16565b805190915015610ba457808060200190518101906120c19190612c46565b610ba45760405162461bcd60e51b815260206004820152602a60248201527f5361666545524332303a204552433230206f7065726174696f6e20646964206e6044820152691bdd081cdd58d8d9595960b21b6064820152608401610643565b61212a838361230e565b6121376000848484612201565b610ba45760405162461bcd60e51b815260040161064390612be0565b600080806000198587098587029250828110838203039150508060000361218d5783828161218357612183612988565b049250505061125b565b80841161219957600080fd5b600084868809600260036001881981018916988990049182028318808302840302808302840302808302840302808302840302808302840302918202909203026000889003889004909101858311909403939093029303949094049190911702949350505050565b60006001600160a01b0384163b156122f757604051630a85bd0160e11b81526001600160a01b0385169063150b7a0290612245903390899088908890600401612c63565b6020604051808303816000875af1925050508015612280575060408051601f3d908101601f1916820190925261227d91810190612ca0565b60015b6122dd573d8080156122ae576040519150601f19603f3d011682016040523d82523d6000602084013e6122b3565b606091505b5080516000036122d55760405162461bcd60e51b815260040161064390612be0565b805181602001fd5b6001600160e01b031916630a85bd0160e11b149050611b9e565b506001611b9e565b6060611b9e8484600085612450565b6001600160a01b0382166123645760405162461bcd60e51b815260206004820181905260248201527f4552433732313a206d696e7420746f20746865207a65726f20616464726573736044820152606401610643565b6000818152600260205260409020546001600160a01b0316156123c95760405162461bcd60e51b815260206004820152601c60248201527f4552433732313a20746f6b656e20616c7265616479206d696e746564000000006044820152606401610643565b6001600160a01b03821660009081526003602052604081208054600192906123f29084906128d9565b909155505060008181526002602052604080822080546001600160a01b0319166001600160a01b03861690811790915590518392907fddf252ad1be2c89b69c2b068fc378daa952ba7f163c4a11628f55a4df523b3ef908290a45050565b6060824710156124b15760405162461bcd60e51b815260206004820152602660248201527f416464726573733a20696e73756666696369656e742062616c616e636520666f6044820152651c8818d85b1b60d21b6064820152608401610643565b6001600160a01b0385163b6125085760405162461bcd60e51b815260206004820152601d60248201527f416464726573733a2063616c6c20746f206e6f6e2d636f6e74726163740000006044820152606401610643565b600080866001600160a01b031685876040516125249190612cbd565b60006040518083038185875af1925050503d8060008114612561576040519150601f19603f3d011682016040523d82523d6000602084013e612566565b606091505b5091509150612576828286612581565b979650505050505050565b6060831561259057508161125b565b8251156125a05782518084602001fd5b8160405162461bcd60e51b8152600401610643919061267b565b801515811461140d57600080fd5b600080604083850312156125db57600080fd5b8235915060208301356125ed816125ba565b809150509250929050565b6001600160e01b03198116811461140d57600080fd5b60006020828403121561262057600080fd5b813561125b816125f8565b60005b8381101561264657818101518382015260200161262e565b50506000910152565b6000815180845261266781602086016020860161262b565b601f01601f19169290920160200192915050565b60208152600061125b602083018461264f565b6000602082840312156126a057600080fd5b5035919050565b80356001600160a01b038116811461162757600080fd5b600080604083850312156126d157600080fd5b6126da836126a7565b946020939093013593505050565b6000806000606084860312156126fd57600080fd5b612706846126a7565b9250612714602085016126a7565b9150604084013590509250925092565b60006020828403121561273657600080fd5b61125b826126a7565b6000806040838503121561275257600080fd5b61275b836126a7565b915060208301356125ed816125ba565b634e487b7160e01b600052604160045260246000fd5b6000806000806080858703121561279757600080fd5b6127a0856126a7565b93506127ae602086016126a7565b925060408501359150606085013567ffffffffffffffff808211156127d257600080fd5b818701915087601f8301126127e657600080fd5b8135818111156127f8576127f861276b565b604051601f8201601f19908116603f011681019083821181831017156128205761282061276b565b816040528281528a602084870101111561283957600080fd5b82602086016020830137600060208483010152809550505050505092959194509250565b6000806040838503121561287057600080fd5b612879836126a7565b9150612887602084016126a7565b90509250929050565b6000602082840312156128a257600080fd5b813561125b816125ba565b634e487b7160e01b600052603260045260246000fd5b634e487b7160e01b600052601160045260246000fd5b808201808211156109d5576109d56128c3565b805169ffffffffffffffffffff8116811461162757600080fd5b600080600080600060a0868803121561291e57600080fd5b612927866128ec565b945060208601519350604086015192506060860151915061294a608087016128ec565b90509295509295909350565b818103818111156109d5576109d56128c3565b6000816000190483118215151615612983576129836128c3565b500290565b634e487b7160e01b600052601260045260246000fd5b6000826129ad576129ad612988565b500490565b6000600182016129c4576129c46128c3565b5060010190565b600181811c908216806129df57607f821691505b6020821081036129ff57634e487b7160e01b600052602260045260246000fd5b50919050565b6020808252602e908201527f4552433732313a2063616c6c6572206973206e6f7420746f6b656e206f776e6560408201526d1c881b9bdc88185c1c1c9bdd995960921b606082015260800190565b600060208284031215612a6557600080fd5b5051919050565b600060208284031215612a7e57600080fd5b815160ff8116811461125b57600080fd5b600181815b80851115612aca578160001904821115612ab057612ab06128c3565b80851615612abd57918102915b93841c9390800290612a94565b509250929050565b600082612ae1575060016109d5565b81612aee575060006109d5565b8160018114612b045760028114612b0e57612b2a565b60019150506109d5565b60ff841115612b1f57612b1f6128c3565b50506001821b6109d5565b5060208310610133831016604e8410600b8410161715612b4d575081810a6109d5565b612b578383612a8f565b8060001904821115612b6b57612b6b6128c3565b029392505050565b600061125b60ff841683612ad2565b60008351612b9481846020880161262b565b835190830190612ba881836020880161262b565b01949350505050565b60ff82811682821603908111156109d5576109d56128c3565b634e487b7160e01b600052602160045260246000fd5b60208082526032908201527f4552433732313a207472616e7366657220746f206e6f6e20455243373231526560408201527131b2b4bb32b91034b6b83632b6b2b73a32b960711b606082015260800190565b600082612c4157612c41612988565b500690565b600060208284031215612c5857600080fd5b815161125b816125ba565b6001600160a01b0385811682528416602082015260408101839052608060608201819052600090612c969083018461264f565b9695505050505050565b600060208284031215612cb257600080fd5b815161125b816125f8565b60008251612ccf81846020870161262b565b919091019291505056fea2646970667358221220c16e658821cd67567c7fcb5cf86e02e7ad1bcfc2deb9f9c86b060f8b585ad98b64736f6c63430008100033",
    "linkReferences": {}
  },
  "methodIdentifiers": {
    "actualAPYBooster(bool)": "eb4c74b8",
    "alphaLongs()": "bb77d7ea",
    "alphaShorts()": "54bf5d13",
    "approve(address,uint256)": "095ea7b3",
    "apyBoosterLong()": "8901ba12",
    "apyBoosterShort()": "6fdeeae5",
    "balanceOf(address)": "70a08231",
    "capLongShort(uint256)": "f2a16e04",
    "chainlinkPriceFeed()": "d8a2b7f0",
    "closePool()": "66805de5",
    "deltaPrice()": "1bc6a79e",
    "depositFunds(uint256,bool)": "00a6e730",
    "duration()": "0fb5a6b4",
    "endPrice()": "b868723e",
    "finalTime()": "af5260bf",
    "getApproved(uint256)": "081812fc",
    "getReward(uint256)": "1c4b774b",
    "isApprovedForAll(address,address)": "e985e9c5",
    "name()": "06fdde03",
    "owner()": "8da5cb5b",
    "ownerOf(uint256)": "6352211e",
    "poolIsClosed()": "8327bed3",
    "renounceOwnership()": "715018a6",
    "safeTransferFrom(address,address,uint256)": "42842e0e",
    "safeTransferFrom(address,address,uint256,bytes)": "b88d4fde",
    "setApprovalForAll(address,bool)": "a22cb465",
    "setStrategy(address)": "33a100ca",
    "startTime()": "78e97925",
    "stratContract()": "0dff5c57",
    "strategyActivated()": "7d79669e",
    "strikePrice()": "c52987cf",
    "suppliedAsset()": "4a5f0fb0",
    "supportsInterface(bytes4)": "01ffc9a7",
    "symbol()": "95d89b41",
    "tokenCount()": "9f181b5e",
    "tokenToPosition(uint256)": "bd05e965",
    "tokenURI(uint256)": "c87b56dd",
    "totalDeposits()": "7d882097",
    "totalDepositsLONG()": "3b649812",
    "totalDepositsSHORT()": "3f3f4537",
    "totalReturnedFromStrat()": "ae7f93e8",
    "totalRewards()": "0e15561a",
    "transferFrom(address,address,uint256)": "23b872dd",
    "transferOwnership(address)": "f2fde38b",
    "withdrawFees()": "476343ee"
  },
  "id": 0
}