{
  "abi": [
    {
      "inputs": [
        {
          "internalType": "uint256",
          "name": "_strikePrice",
          "type": "uint256"
        },
        {
          "internalType": "address",
          "name": "_asset",
          "type": "address"
        },
        {
          "internalType": "uint256",
          "name": "_duration",
          "type": "uint256"
        },
        {
          "internalType": "uint256",
          "name": "_startTime",
          "type": "uint256"
        },
        {
          "internalType": "uint256",
          "name": "_deltaPrice",
          "type": "uint256"
        },
        {
          "internalType": "address",
          "name": "_chainlinkPriceFeed",
          "type": "address"
        },
        {
          "internalType": "uint256",
          "name": "_fees",
          "type": "uint256"
        },
        {
          "internalType": "string",
          "name": "_name",
          "type": "string"
        },
        {
          "internalType": "string",
          "name": "_symbol",
          "type": "string"
        }
      ],
      "stateMutability": "nonpayable",
      "type": "constructor"
    },
    {
      "anonymous": false,
      "inputs": [
        {
          "indexed": true,
          "internalType": "address",
          "name": "owner",
          "type": "address"
        },
        {
          "indexed": true,
          "internalType": "address",
          "name": "approved",
          "type": "address"
        },
        {
          "indexed": true,
          "internalType": "uint256",
          "name": "tokenId",
          "type": "uint256"
        }
      ],
      "name": "Approval",
      "type": "event"
    },
    {
      "anonymous": false,
      "inputs": [
        {
          "indexed": true,
          "internalType": "address",
          "name": "owner",
          "type": "address"
        },
        {
          "indexed": true,
          "internalType": "address",
          "name": "operator",
          "type": "address"
        },
        {
          "indexed": false,
          "internalType": "bool",
          "name": "approved",
          "type": "bool"
        }
      ],
      "name": "ApprovalForAll",
      "type": "event"
    },
    {
      "anonymous": false,
      "inputs": [
        {
          "indexed": true,
          "internalType": "address",
          "name": "previousOwner",
          "type": "address"
        },
        {
          "indexed": true,
          "internalType": "address",
          "name": "newOwner",
          "type": "address"
        }
      ],
      "name": "OwnershipTransferred",
      "type": "event"
    },
    {
      "anonymous": false,
      "inputs": [
        {
          "indexed": true,
          "internalType": "address",
          "name": "from",
          "type": "address"
        },
        {
          "indexed": true,
          "internalType": "address",
          "name": "to",
          "type": "address"
        },
        {
          "indexed": true,
          "internalType": "uint256",
          "name": "tokenId",
          "type": "uint256"
        }
      ],
      "name": "Transfer",
      "type": "event"
    },
    {
      "inputs": [
        {
          "internalType": "address",
          "name": "to",
          "type": "address"
        },
        {
          "internalType": "uint256",
          "name": "tokenId",
          "type": "uint256"
        }
      ],
      "name": "approve",
      "outputs": [],
      "stateMutability": "nonpayable",
      "type": "function"
    },
    {
      "inputs": [
        {
          "internalType": "address",
          "name": "owner",
          "type": "address"
        }
      ],
      "name": "balanceOf",
      "outputs": [
        {
          "internalType": "uint256",
          "name": "",
          "type": "uint256"
        }
      ],
      "stateMutability": "view",
      "type": "function"
    },
    {
      "inputs": [],
      "name": "chainlinkPriceFeed",
      "outputs": [
        {
          "internalType": "address",
          "name": "",
          "type": "address"
        }
      ],
      "stateMutability": "view",
      "type": "function"
    },
    {
      "inputs": [],
      "name": "closePool",
      "outputs": [],
      "stateMutability": "nonpayable",
      "type": "function"
    },
    {
      "inputs": [],
      "name": "deltaPrice",
      "outputs": [
        {
          "internalType": "uint256",
          "name": "",
          "type": "uint256"
        }
      ],
      "stateMutability": "view",
      "type": "function"
    },
    {
      "inputs": [
        {
          "internalType": "uint256",
          "name": "amount",
          "type": "uint256"
        },
        {
          "internalType": "bool",
          "name": "longShort",
          "type": "bool"
        }
      ],
      "name": "depositFunds",
      "outputs": [
        {
          "internalType": "uint256",
          "name": "_computedRisk",
          "type": "uint256"
        },
        {
          "internalType": "uint256",
          "name": "_alpha",
          "type": "uint256"
        },
        {
          "internalType": "uint256",
          "name": "_standardizedPrice",
          "type": "uint256"
        },
        {
          "internalType": "uint256",
          "name": "_standardizedAmount",
          "type": "uint256"
        }
      ],
      "stateMutability": "nonpayable",
      "type": "function"
    },
    {
      "inputs": [],
      "name": "duration",
      "outputs": [
        {
          "internalType": "uint256",
          "name": "",
          "type": "uint256"
        }
      ],
      "stateMutability": "view",
      "type": "function"
    },
    {
      "inputs": [],
      "name": "endPrice",
      "outputs": [
        {
          "internalType": "uint256",
          "name": "",
          "type": "uint256"
        }
      ],
      "stateMutability": "view",
      "type": "function"
    },
    {
      "inputs": [],
      "name": "finalTime",
      "outputs": [
        {
          "internalType": "uint256",
          "name": "",
          "type": "uint256"
        }
      ],
      "stateMutability": "view",
      "type": "function"
    },
    {
      "inputs": [
        {
          "internalType": "uint256",
          "name": "tokenId",
          "type": "uint256"
        }
      ],
      "name": "getApproved",
      "outputs": [
        {
          "internalType": "address",
          "name": "",
          "type": "address"
        }
      ],
      "stateMutability": "view",
      "type": "function"
    },
    {
      "inputs": [
        {
          "internalType": "uint256",
          "name": "tokenID",
          "type": "uint256"
        }
      ],
      "name": "getReward",
      "outputs": [
        {
          "internalType": "uint256",
          "name": "_amountOwed",
          "type": "uint256"
        }
      ],
      "stateMutability": "nonpayable",
      "type": "function"
    },
    {
      "inputs": [
        {
          "internalType": "address",
          "name": "owner",
          "type": "address"
        },
        {
          "internalType": "address",
          "name": "operator",
          "type": "address"
        }
      ],
      "name": "isApprovedForAll",
      "outputs": [
        {
          "internalType": "bool",
          "name": "",
          "type": "bool"
        }
      ],
      "stateMutability": "view",
      "type": "function"
    },
    {
      "inputs": [],
      "name": "longs",
      "outputs": [
        {
          "internalType": "uint256",
          "name": "",
          "type": "uint256"
        }
      ],
      "stateMutability": "view",
      "type": "function"
    },
    {
      "inputs": [],
      "name": "name",
      "outputs": [
        {
          "internalType": "string",
          "name": "",
          "type": "string"
        }
      ],
      "stateMutability": "view",
      "type": "function"
    },
    {
      "inputs": [],
      "name": "owner",
      "outputs": [
        {
          "internalType": "address",
          "name": "",
          "type": "address"
        }
      ],
      "stateMutability": "view",
      "type": "function"
    },
    {
      "inputs": [
        {
          "internalType": "uint256",
          "name": "tokenId",
          "type": "uint256"
        }
      ],
      "name": "ownerOf",
      "outputs": [
        {
          "internalType": "address",
          "name": "",
          "type": "address"
        }
      ],
      "stateMutability": "view",
      "type": "function"
    },
    {
      "inputs": [],
      "name": "poolIsClosed",
      "outputs": [
        {
          "internalType": "bool",
          "name": "",
          "type": "bool"
        }
      ],
      "stateMutability": "view",
      "type": "function"
    },
    {
      "inputs": [],
      "name": "renounceOwnership",
      "outputs": [],
      "stateMutability": "nonpayable",
      "type": "function"
    },
    {
      "inputs": [
        {
          "internalType": "address",
          "name": "from",
          "type": "address"
        },
        {
          "internalType": "address",
          "name": "to",
          "type": "address"
        },
        {
          "internalType": "uint256",
          "name": "tokenId",
          "type": "uint256"
        }
      ],
      "name": "safeTransferFrom",
      "outputs": [],
      "stateMutability": "nonpayable",
      "type": "function"
    },
    {
      "inputs": [
        {
          "internalType": "address",
          "name": "from",
          "type": "address"
        },
        {
          "internalType": "address",
          "name": "to",
          "type": "address"
        },
        {
          "internalType": "uint256",
          "name": "tokenId",
          "type": "uint256"
        },
        {
          "internalType": "bytes",
          "name": "data",
          "type": "bytes"
        }
      ],
      "name": "safeTransferFrom",
      "outputs": [],
      "stateMutability": "nonpayable",
      "type": "function"
    },
    {
      "inputs": [
        {
          "internalType": "address",
          "name": "operator",
          "type": "address"
        },
        {
          "internalType": "bool",
          "name": "approved",
          "type": "bool"
        }
      ],
      "name": "setApprovalForAll",
      "outputs": [],
      "stateMutability": "nonpayable",
      "type": "function"
    },
    {
      "inputs": [
        {
          "internalType": "address",
          "name": "_strat",
          "type": "address"
        }
      ],
      "name": "setStrategy",
      "outputs": [],
      "stateMutability": "nonpayable",
      "type": "function"
    },
    {
      "inputs": [
        {
          "internalType": "uint256",
          "name": "_amount",
          "type": "uint256"
        },
        {
          "internalType": "uint256",
          "name": "_endPrice",
          "type": "uint256"
        }
      ],
      "name": "setTotalRewardsAndPrice",
      "outputs": [],
      "stateMutability": "nonpayable",
      "type": "function"
    },
    {
      "inputs": [],
      "name": "shorts",
      "outputs": [
        {
          "internalType": "uint256",
          "name": "",
          "type": "uint256"
        }
      ],
      "stateMutability": "view",
      "type": "function"
    },
    {
      "inputs": [],
      "name": "startTime",
      "outputs": [
        {
          "internalType": "uint256",
          "name": "",
          "type": "uint256"
        }
      ],
      "stateMutability": "view",
      "type": "function"
    },
    {
      "inputs": [],
      "name": "strikePrice",
      "outputs": [
        {
          "internalType": "uint256",
          "name": "",
          "type": "uint256"
        }
      ],
      "stateMutability": "view",
      "type": "function"
    },
    {
      "inputs": [],
      "name": "suppliedAsset",
      "outputs": [
        {
          "internalType": "address",
          "name": "",
          "type": "address"
        }
      ],
      "stateMutability": "view",
      "type": "function"
    },
    {
      "inputs": [
        {
          "internalType": "bytes4",
          "name": "interfaceId",
          "type": "bytes4"
        }
      ],
      "name": "supportsInterface",
      "outputs": [
        {
          "internalType": "bool",
          "name": "",
          "type": "bool"
        }
      ],
      "stateMutability": "view",
      "type": "function"
    },
    {
      "inputs": [],
      "name": "symbol",
      "outputs": [
        {
          "internalType": "string",
          "name": "",
          "type": "string"
        }
      ],
      "stateMutability": "view",
      "type": "function"
    },
    {
      "inputs": [],
      "name": "tokenCount",
      "outputs": [
        {
          "internalType": "uint256",
          "name": "",
          "type": "uint256"
        }
      ],
      "stateMutability": "view",
      "type": "function"
    },
    {
      "inputs": [
        {
          "internalType": "uint256",
          "name": "",
          "type": "uint256"
        }
      ],
      "name": "tokenToPosition",
      "outputs": [
        {
          "internalType": "uint256",
          "name": "amount",
          "type": "uint256"
        },
        {
          "internalType": "uint256",
          "name": "timeStamp",
          "type": "uint256"
        },
        {
          "internalType": "uint256",
          "name": "assetPrice",
          "type": "uint256"
        },
        {
          "internalType": "bool",
          "name": "longOrShort",
          "type": "bool"
        },
        {
          "internalType": "uint256",
          "name": "alpha",
          "type": "uint256"
        }
      ],
      "stateMutability": "view",
      "type": "function"
    },
    {
      "inputs": [
        {
          "internalType": "uint256",
          "name": "tokenId",
          "type": "uint256"
        }
      ],
      "name": "tokenURI",
      "outputs": [
        {
          "internalType": "string",
          "name": "",
          "type": "string"
        }
      ],
      "stateMutability": "view",
      "type": "function"
    },
    {
      "inputs": [],
      "name": "totalDeposits",
      "outputs": [
        {
          "internalType": "uint256",
          "name": "",
          "type": "uint256"
        }
      ],
      "stateMutability": "view",
      "type": "function"
    },
    {
      "inputs": [],
      "name": "totalReturnedFromStrat",
      "outputs": [
        {
          "internalType": "uint256",
          "name": "",
          "type": "uint256"
        }
      ],
      "stateMutability": "view",
      "type": "function"
    },
    {
      "inputs": [],
      "name": "totalRewards",
      "outputs": [
        {
          "internalType": "uint256",
          "name": "",
          "type": "uint256"
        }
      ],
      "stateMutability": "view",
      "type": "function"
    },
    {
      "inputs": [
        {
          "internalType": "address",
          "name": "from",
          "type": "address"
        },
        {
          "internalType": "address",
          "name": "to",
          "type": "address"
        },
        {
          "internalType": "uint256",
          "name": "tokenId",
          "type": "uint256"
        }
      ],
      "name": "transferFrom",
      "outputs": [],
      "stateMutability": "nonpayable",
      "type": "function"
    },
    {
      "inputs": [
        {
          "internalType": "address",
          "name": "newOwner",
          "type": "address"
        }
      ],
      "name": "transferOwnership",
      "outputs": [],
      "stateMutability": "nonpayable",
      "type": "function"
    },
    {
      "inputs": [],
      "name": "withdrawFees",
      "outputs": [
        {
          "internalType": "uint256",
          "name": "",
          "type": "uint256"
        }
      ],
      "stateMutability": "view",
      "type": "function"
    }
  ],
  "bytecode": {
    "object": "0x60806040523480156200001157600080fd5b5060405162002dd038038062002dd083398101604081905262000034916200020d565b818160006200004483826200035d565b5060016200005382826200035d565b505050620000706200006a620000d560201b60201c565b620000d9565b600780546001600160a01b03808b166001600160a01b03199283161790925560088b90556009805492871692909116919091179055600c879055600a869055620000bb878762000429565b600b555050600f9290925550601655506200045192505050565b3390565b600680546001600160a01b038381166001600160a01b0319831681179093556040519116919082907f8be0079c531659141344cd1fd0a4f28419497f9722a3daafe3b4186f6b6457e090600090a35050565b80516001600160a01b03811681146200014357600080fd5b919050565b634e487b7160e01b600052604160045260246000fd5b600082601f8301126200017057600080fd5b81516001600160401b03808211156200018d576200018d62000148565b604051601f8301601f19908116603f01168101908282118183101715620001b857620001b862000148565b81604052838152602092508683858801011115620001d557600080fd5b600091505b83821015620001f95785820183015181830184015290820190620001da565b600093810190920192909252949350505050565b60008060008060008060008060006101208a8c0312156200022d57600080fd5b895198506200023f60208b016200012b565b975060408a0151965060608a0151955060808a015194506200026460a08b016200012b565b60c08b015160e08c015191955093506001600160401b03808211156200028957600080fd5b620002978d838e016200015e565b93506101008c0151915080821115620002af57600080fd5b50620002be8c828d016200015e565b9150509295985092959850929598565b600181811c90821680620002e357607f821691505b6020821081036200030457634e487b7160e01b600052602260045260246000fd5b50919050565b601f8211156200035857600081815260208120601f850160051c81016020861015620003335750805b601f850160051c820191505b8181101562000354578281556001016200033f565b5050505b505050565b81516001600160401b0381111562000379576200037962000148565b62000391816200038a8454620002ce565b846200030a565b602080601f831160018114620003c95760008415620003b05750858301515b600019600386901b1c1916600185901b17855562000354565b600085815260208120601f198616915b82811015620003fa57888601518255948401946001909101908401620003d9565b5085821015620004195787850151600019600388901b60f8161c191681555b5050505050600190811b01905550565b808201808211156200044b57634e487b7160e01b600052601160045260246000fd5b92915050565b61296f80620004616000396000f3fe608060405234801561001057600080fd5b50600436106102315760003560e01c806378e9792511610130578063af5260bf116100b8578063c87b56dd1161007c578063c87b56dd146104c5578063d8a2b7f0146104d8578063dbe7f9bd146104eb578063e985e9c5146104f4578063f2fde38b1461050757600080fd5b8063af5260bf1461042d578063b868723e14610436578063b88d4fde1461043f578063bd05e96514610452578063c52987cf146104bc57600080fd5b80638da5cb5b116100ff5780638da5cb5b146103ef57806395d89b41146104005780639f181b5e14610408578063a22cb46514610411578063ae7f93e81461042457600080fd5b806378e97925146103c0578063793ebd28146103c95780637d882097146103d25780638327bed3146103db57600080fd5b80631c4b774b116101be5780634a5f0fb0116101825780634a5f0fb0146103775780636352211e1461038a57806366805de51461039d57806370a08231146103a5578063715018a6146103b857600080fd5b80631c4b774b1461032257806323b872dd1461033557806333a100ca1461034857806342842e0e1461035b578063476343ee1461036e57600080fd5b8063095ea7b311610205578063095ea7b3146102d15780630e15561a146102e65780630fb5a6b4146102fd5780631bc6a79e146103065780631c153b811461030f57600080fd5b8062a6e7301461023657806301ffc9a71461026e57806306fdde0314610291578063081812fc146102a6575b600080fd5b610249610244366004612223565b61051a565b6040805194855260208501939093529183015260608201526080015b60405180910390f35b61028161027c366004612269565b6107cf565b6040519015158152602001610265565b610299610821565b60405161026591906122d6565b6102b96102b43660046122e9565b6108b3565b6040516001600160a01b039091168152602001610265565b6102e46102df366004612319565b6108da565b005b6102ef60115481565b604051908152602001610265565b6102ef600c5481565b6102ef600f5481565b6102e461031d366004612343565b6109f4565b6102ef6103303660046122e9565b610a16565b6102e4610343366004612365565b610c29565b6102e46103563660046123a1565b610c5a565b6102e4610369366004612365565b610c84565b6102ef60165481565b6007546102b9906001600160a01b031681565b6102b96103983660046122e9565b610c9f565b6102e4610cff565b6102ef6103b33660046123a1565b610e54565b6102e4610eda565b6102ef600a5481565b6102ef600d5481565b6102ef60145481565b60135461028190600160a01b900460ff1681565b6006546001600160a01b03166102b9565b610299610eee565b6102ef60125481565b6102e461041f3660046123bc565b610efd565b6102ef60155481565b6102ef600b5481565b6102ef60105481565b6102e461044d3660046123fe565b610f08565b6104926104603660046122e9565b6017602052600090815260409020805460018201546002830154600384015460049094015492939192909160ff169085565b6040805195865260208601949094529284019190915215156060830152608082015260a001610265565b6102ef60085481565b6102996104d33660046122e9565b610f40565b6009546102b9906001600160a01b031681565b6102ef600e5481565b6102816105023660046124da565b610fb4565b6102e46105153660046123a1565b610fe2565b600080600080600a5442101561052f57600080fd5b60095460408051633fabe5a360e21b815290516000926001600160a01b03169163feaf968c9160048083019260a09291908290030181865afa158015610579573d6000803e3d6000fd5b505050506040513d601f19601f8201168201806040525081019061059d9190612527565b505050915050600081136105b057600080fd5b86601460008282546105c2919061258d565b9091555081905060006105d48261105b565b905060006105e2828a611287565b6007549091506000906105ff908c906001600160a01b0316611327565b90506000600c5442600b5461061491906125a0565b61061e85856125b3565b61062891906125b3565b61063291906125e8565b601280549192506000610644836125fc565b909155505060125460008181526017602052604090208d8155426001808301919091556002820187905560038201805460ff19168f15159081179091556004830185905590036106ab5782600d60008282546106a0919061258d565b909155506106cd9050565b8c15156000036106cd5782600e60008282546106c7919061258d565b90915550505b6106f433306106e087633b9aca006125b3565b6007546001600160a01b031692919061150b565b601354610725906001600160a01b031661071286633b9aca006125b3565b6007546001600160a01b03169190611576565b6013546007546001600160a01b03918216916347e7ef24911661074c87633b9aca006125b3565b6040516001600160e01b031960e085901b1681526001600160a01b0390921660048301526024820152604401600060405180830381600087803b15801561079257600080fd5b505af11580156107a6573d6000803e3d6000fd5b505050506107ba6107b43390565b8361168b565b50929c909b5092995097509095505050505050565b60006001600160e01b031982166380ac58cd60e01b148061080057506001600160e01b03198216635b5e139f60e01b145b8061081b57506301ffc9a760e01b6001600160e01b03198316145b92915050565b60606000805461083090612615565b80601f016020809104026020016040519081016040528092919081815260200182805461085c90612615565b80156108a95780601f1061087e576101008083540402835291602001916108a9565b820191906000526020600020905b81548152906001019060200180831161088c57829003601f168201915b5050505050905090565b60006108be826116a5565b506000908152600460205260409020546001600160a01b031690565b60006108e582610c9f565b9050806001600160a01b0316836001600160a01b0316036109575760405162461bcd60e51b815260206004820152602160248201527f4552433732313a20617070726f76616c20746f2063757272656e74206f776e656044820152603960f91b60648201526084015b60405180910390fd5b336001600160a01b038216148061097357506109738133610fb4565b6109e55760405162461bcd60e51b815260206004820152603e60248201527f4552433732313a20617070726f76652063616c6c6572206973206e6f7420746f60448201527f6b656e206f776e6572206e6f7220617070726f76656420666f7220616c6c0000606482015260840161094e565b6109ef8383611704565b505050565b8160116000828254610a06919061258d565b9091555050601055506000601555565b6000600b5442118015610a375750601354600160a01b900460ff1615156001145b610a4057600080fd5b33610a4a83610c9f565b6001600160a01b031614610aa05760405162461bcd60e51b815260206004820152601d60248201527f75736572206973206e6f74204f776e6572206f6620746f6b656e204944000000604482015260640161094e565b6000806000806015541115610af757601454601554600087815260176020526040902054610ace91906125b3565b610ad891906125e8565b9250610af2335b6007546001600160a01b03169085611772565b610c21565b60085460105410158015610b21575060008581526017602052604090206003015460ff1615156001145b15610b7857600085815260176020526040812060040154600d54601154919450610b4d928591906117a2565b601654909350610b69908490670de0b6b3a764000060016117a2565b9050610b7581846125a0565b92505b600854601054108015610b9d575060008581526017602052604090206003015460ff16155b15610bf457600085815260176020526040812060040154600e54601154919450610bc9928591906117a2565b601654909350610be5908490670de0b6b3a764000060016117a2565b9050610bf181846125a0565b92505b600085815260176020526040902054610c0d908461258d565b9250610c1833610adf565b50909392505050565b505050919050565b610c333382611801565b610c4f5760405162461bcd60e51b815260040161094e9061264f565b6109ef83838361185f565b610c626119fb565b601380546001600160a01b0319166001600160a01b0392909216919091179055565b6109ef83838360405180602001604052806000815250610f08565b6000818152600260205260408120546001600160a01b03168061081b5760405162461bcd60e51b8152602060048201526018602482015277115490cdcc8c4e881a5b9d985b1a59081d1bdad95b88125160421b604482015260640161094e565b610d076119fb565b600b544211610d1557600080fd5b6013805460ff60a01b1916600160a01b17905560095460408051633fabe5a360e21b815290516000926001600160a01b03169163feaf968c9160048083019260a09291908290030181865afa158015610d72573d6000803e3d6000fd5b505050506040513d601f19601f82011682018060405250810190610d969190612527565b50505091505060008113610da957600080fd5b610db28161105b565b60105560135460408051633ccfd60b60e01b815290516000926001600160a01b031691633ccfd60b916004808301926020929190829003018187875af1158015610e00573d6000803e3d6000fd5b505050506040513d601f19601f82011682018060405250810190610e24919061269d565b90506014548111610e355760155550565b601454811115610e5057601454610e4c90826125a0565b6011555b5050565b60006001600160a01b038216610ebe5760405162461bcd60e51b815260206004820152602960248201527f4552433732313a2061646472657373207a65726f206973206e6f7420612076616044820152683634b21037bbb732b960b91b606482015260840161094e565b506001600160a01b031660009081526003602052604090205490565b610ee26119fb565b610eec6000611a55565b565b60606001805461083090612615565b610e50338383611aa7565b610f123383611801565b610f2e5760405162461bcd60e51b815260040161094e9061264f565b610f3a84848484611b75565b50505050565b6060610f4b826116a5565b6000610f6260408051602081019091526000815290565b90506000815111610f825760405180602001604052806000815250610fad565b80610f8c84611ba8565b604051602001610f9d9291906126b6565b6040516020818303038152906040525b9392505050565b6001600160a01b03918216600090815260056020908152604080832093909416825291909152205460ff1690565b610fea6119fb565b6001600160a01b03811661104f5760405162461bcd60e51b815260206004820152602660248201527f4f776e61626c653a206e6577206f776e657220697320746865207a65726f206160448201526564647265737360d01b606482015260840161094e565b61105881611a55565b50565b600980546040805163313ce56760e01b815290518493926001600160a01b03169163313ce5679160048083019260209291908290030181865afa1580156110a6573d6000803e3d6000fd5b505050506040513d601f19601f820116820180604052508101906110ca91906126e5565b60ff16101561116a57600960009054906101000a90046001600160a01b03166001600160a01b031663313ce5676040518163ffffffff1660e01b8152600401602060405180830381865afa158015611126573d6000803e3d6000fd5b505050506040513d601f19601f8201168201806040525081019061114a91906126e5565b611155906009612708565b61116090600a612805565b61081b90826125b3565b60098060009054906101000a90046001600160a01b03166001600160a01b031663313ce5676040518163ffffffff1660e01b8152600401602060405180830381865afa1580156111be573d6000803e3d6000fd5b505050506040513d601f19601f820116820180604052508101906111e291906126e5565b60ff1611156112825760098060009054906101000a90046001600160a01b03166001600160a01b031663313ce5676040518163ffffffff1660e01b8152600401602060405180830381865afa15801561123f573d6000803e3d6000fd5b505050506040513d601f19601f8201168201806040525081019061126391906126e5565b61126d9190612708565b61127890600a612805565b61081b90826125e8565b919050565b60008115156001036112ef576008548311156112a85750633b9aca0061081b565b60085483116112ef57600f54836008546112c291906125a0565b6112d090633b9aca006125b3565b6112da91906125e8565b6112e890633b9aca0061258d565b905061081b565b81151560000361081b5782600854111561130e5750633b9aca0061081b565b826008541161081b57600f546008546112c290856125a0565b60008290506009826001600160a01b031663313ce5676040518163ffffffff1660e01b8152600401602060405180830381865afa15801561136c573d6000803e3d6000fd5b505050506040513d601f19601f8201168201806040525081019061139091906126e5565b60ff16101561141b57816001600160a01b031663313ce5676040518163ffffffff1660e01b8152600401602060405180830381865afa1580156113d7573d6000803e3d6000fd5b505050506040513d601f19601f820116820180604052508101906113fb91906126e5565b611406906012612708565b61141190600a612805565b6112e890826125b3565b6009826001600160a01b031663313ce5676040518163ffffffff1660e01b8152600401602060405180830381865afa15801561145b573d6000803e3d6000fd5b505050506040513d601f19601f8201168201806040525081019061147f91906126e5565b60ff16111561081b576009826001600160a01b031663313ce5676040518163ffffffff1660e01b8152600401602060405180830381865afa1580156114c8573d6000803e3d6000fd5b505050506040513d601f19601f820116820180604052508101906114ec91906126e5565b6114f69190612708565b61150190600a612805565b610fad90826125e8565b6040516001600160a01b0380851660248301528316604482015260648101829052610f3a9085906323b872dd60e01b906084015b60408051601f198184030181529190526020810180516001600160e01b03166001600160e01b031990931692909217909152611ca9565b8015806115f05750604051636eb1769f60e11b81523060048201526001600160a01b03838116602483015284169063dd62ed3e90604401602060405180830381865afa1580156115ca573d6000803e3d6000fd5b505050506040513d601f19601f820116820180604052508101906115ee919061269d565b155b61165b5760405162461bcd60e51b815260206004820152603660248201527f5361666545524332303a20617070726f76652066726f6d206e6f6e2d7a65726f60448201527520746f206e6f6e2d7a65726f20616c6c6f77616e636560501b606482015260840161094e565b6040516001600160a01b0383166024820152604481018290526109ef90849063095ea7b360e01b9060640161153f565b610e50828260405180602001604052806000815250611d7b565b6000818152600260205260409020546001600160a01b03166110585760405162461bcd60e51b8152602060048201526018602482015277115490cdcc8c4e881a5b9d985b1a59081d1bdad95b88125160421b604482015260640161094e565b600081815260046020526040902080546001600160a01b0319166001600160a01b038416908117909155819061173982610c9f565b6001600160a01b03167f8c5be1e5ebec7d5bd14f71427d1e84f3dd0314c0f7b2291e5b200ac8c7c3b92560405160405180910390a45050565b6040516001600160a01b0383166024820152604481018290526109ef90849063a9059cbb60e01b9060640161153f565b6000806117b0868686611dae565b905060018360028111156117c6576117c6612814565b1480156117e35750600084806117de576117de6125d2565b868809115b156117f6576117f360018261258d565b90505b90505b949350505050565b60008061180d83610c9f565b9050806001600160a01b0316846001600160a01b0316148061183457506118348185610fb4565b806117f95750836001600160a01b031661184d846108b3565b6001600160a01b031614949350505050565b826001600160a01b031661187282610c9f565b6001600160a01b0316146118d65760405162461bcd60e51b815260206004820152602560248201527f4552433732313a207472616e736665722066726f6d20696e636f72726563742060448201526437bbb732b960d91b606482015260840161094e565b6001600160a01b0382166119385760405162461bcd60e51b8152602060048201526024808201527f4552433732313a207472616e7366657220746f20746865207a65726f206164646044820152637265737360e01b606482015260840161094e565b611943600082611704565b6001600160a01b038316600090815260036020526040812080546001929061196c9084906125a0565b90915550506001600160a01b038216600090815260036020526040812080546001929061199a90849061258d565b909155505060008181526002602052604080822080546001600160a01b0319166001600160a01b0386811691821790925591518493918716917fddf252ad1be2c89b69c2b068fc378daa952ba7f163c4a11628f55a4df523b3ef91a4505050565b6006546001600160a01b03163314610eec5760405162461bcd60e51b815260206004820181905260248201527f4f776e61626c653a2063616c6c6572206973206e6f7420746865206f776e6572604482015260640161094e565b600680546001600160a01b038381166001600160a01b0319831681179093556040519116919082907f8be0079c531659141344cd1fd0a4f28419497f9722a3daafe3b4186f6b6457e090600090a35050565b816001600160a01b0316836001600160a01b031603611b085760405162461bcd60e51b815260206004820152601960248201527f4552433732313a20617070726f766520746f2063616c6c657200000000000000604482015260640161094e565b6001600160a01b03838116600081815260056020908152604080832094871680845294825291829020805460ff191686151590811790915591519182527f17307eab39ab6107e8899845ad3d59bd9653f200f220920489ca2b5937696c31910160405180910390a3505050565b611b8084848461185f565b611b8c84848484611e5c565b610f3a5760405162461bcd60e51b815260040161094e9061282a565b606081600003611bcf5750506040805180820190915260018152600360fc1b602082015290565b8160005b8115611bf95780611be3816125fc565b9150611bf29050600a836125e8565b9150611bd3565b60008167ffffffffffffffff811115611c1457611c146123e8565b6040519080825280601f01601f191660200182016040528015611c3e576020820181803683370190505b5090505b84156117f957611c536001836125a0565b9150611c60600a8661287c565b611c6b90603061258d565b60f81b818381518110611c8057611c80612890565b60200101906001600160f81b031916908160001a905350611ca2600a866125e8565b9450611c42565b6000611cfe826040518060400160405280602081526020017f5361666545524332303a206c6f772d6c6576656c2063616c6c206661696c6564815250856001600160a01b0316611f5a9092919063ffffffff16565b8051909150156109ef5780806020019051810190611d1c91906128a6565b6109ef5760405162461bcd60e51b815260206004820152602a60248201527f5361666545524332303a204552433230206f7065726174696f6e20646964206e6044820152691bdd081cdd58d8d9595960b21b606482015260840161094e565b611d858383611f69565b611d926000848484611e5c565b6109ef5760405162461bcd60e51b815260040161094e9061282a565b6000808060001985870985870292508281108382030391505080600003611de857838281611dde57611dde6125d2565b0492505050610fad565b808411611df457600080fd5b600084868809600260036001881981018916988990049182028318808302840302808302840302808302840302808302840302808302840302918202909203026000889003889004909101858311909403939093029303949094049190911702949350505050565b60006001600160a01b0384163b15611f5257604051630a85bd0160e11b81526001600160a01b0385169063150b7a0290611ea09033908990889088906004016128c3565b6020604051808303816000875af1925050508015611edb575060408051601f3d908101601f19168201909252611ed891810190612900565b60015b611f38573d808015611f09576040519150601f19603f3d011682016040523d82523d6000602084013e611f0e565b606091505b508051600003611f305760405162461bcd60e51b815260040161094e9061282a565b805181602001fd5b6001600160e01b031916630a85bd0160e11b1490506117f9565b5060016117f9565b60606117f984846000856120ab565b6001600160a01b038216611fbf5760405162461bcd60e51b815260206004820181905260248201527f4552433732313a206d696e7420746f20746865207a65726f2061646472657373604482015260640161094e565b6000818152600260205260409020546001600160a01b0316156120245760405162461bcd60e51b815260206004820152601c60248201527f4552433732313a20746f6b656e20616c7265616479206d696e74656400000000604482015260640161094e565b6001600160a01b038216600090815260036020526040812080546001929061204d90849061258d565b909155505060008181526002602052604080822080546001600160a01b0319166001600160a01b03861690811790915590518392907fddf252ad1be2c89b69c2b068fc378daa952ba7f163c4a11628f55a4df523b3ef908290a45050565b60608247101561210c5760405162461bcd60e51b815260206004820152602660248201527f416464726573733a20696e73756666696369656e742062616c616e636520666f6044820152651c8818d85b1b60d21b606482015260840161094e565b6001600160a01b0385163b6121635760405162461bcd60e51b815260206004820152601d60248201527f416464726573733a2063616c6c20746f206e6f6e2d636f6e7472616374000000604482015260640161094e565b600080866001600160a01b0316858760405161217f919061291d565b60006040518083038185875af1925050503d80600081146121bc576040519150601f19603f3d011682016040523d82523d6000602084013e6121c1565b606091505b50915091506121d18282866121dc565b979650505050505050565b606083156121eb575081610fad565b8251156121fb5782518084602001fd5b8160405162461bcd60e51b815260040161094e91906122d6565b801515811461105857600080fd5b6000806040838503121561223657600080fd5b82359150602083013561224881612215565b809150509250929050565b6001600160e01b03198116811461105857600080fd5b60006020828403121561227b57600080fd5b8135610fad81612253565b60005b838110156122a1578181015183820152602001612289565b50506000910152565b600081518084526122c2816020860160208601612286565b601f01601f19169290920160200192915050565b602081526000610fad60208301846122aa565b6000602082840312156122fb57600080fd5b5035919050565b80356001600160a01b038116811461128257600080fd5b6000806040838503121561232c57600080fd5b61233583612302565b946020939093013593505050565b6000806040838503121561235657600080fd5b50508035926020909101359150565b60008060006060848603121561237a57600080fd5b61238384612302565b925061239160208501612302565b9150604084013590509250925092565b6000602082840312156123b357600080fd5b610fad82612302565b600080604083850312156123cf57600080fd5b6123d883612302565b9150602083013561224881612215565b634e487b7160e01b600052604160045260246000fd5b6000806000806080858703121561241457600080fd5b61241d85612302565b935061242b60208601612302565b925060408501359150606085013567ffffffffffffffff8082111561244f57600080fd5b818701915087601f83011261246357600080fd5b813581811115612475576124756123e8565b604051601f8201601f19908116603f0116810190838211818310171561249d5761249d6123e8565b816040528281528a60208487010111156124b657600080fd5b82602086016020830137600060208483010152809550505050505092959194509250565b600080604083850312156124ed57600080fd5b6124f683612302565b915061250460208401612302565b90509250929050565b805169ffffffffffffffffffff8116811461128257600080fd5b600080600080600060a0868803121561253f57600080fd5b6125488661250d565b945060208601519350604086015192506060860151915061256b6080870161250d565b90509295509295909350565b634e487b7160e01b600052601160045260246000fd5b8082018082111561081b5761081b612577565b8181038181111561081b5761081b612577565b60008160001904831182151516156125cd576125cd612577565b500290565b634e487b7160e01b600052601260045260246000fd5b6000826125f7576125f76125d2565b500490565b60006001820161260e5761260e612577565b5060010190565b600181811c9082168061262957607f821691505b60208210810361264957634e487b7160e01b600052602260045260246000fd5b50919050565b6020808252602e908201527f4552433732313a2063616c6c6572206973206e6f7420746f6b656e206f776e6560408201526d1c881b9bdc88185c1c1c9bdd995960921b606082015260800190565b6000602082840312156126af57600080fd5b5051919050565b600083516126c8818460208801612286565b8351908301906126dc818360208801612286565b01949350505050565b6000602082840312156126f757600080fd5b815160ff81168114610fad57600080fd5b60ff828116828216039081111561081b5761081b612577565b600181815b8085111561275c57816000190482111561274257612742612577565b8085161561274f57918102915b93841c9390800290612726565b509250929050565b6000826127735750600161081b565b816127805750600061081b565b816001811461279657600281146127a0576127bc565b600191505061081b565b60ff8411156127b1576127b1612577565b50506001821b61081b565b5060208310610133831016604e8410600b84101617156127df575081810a61081b565b6127e98383612721565b80600019048211156127fd576127fd612577565b029392505050565b6000610fad60ff841683612764565b634e487b7160e01b600052602160045260246000fd5b60208082526032908201527f4552433732313a207472616e7366657220746f206e6f6e20455243373231526560408201527131b2b4bb32b91034b6b83632b6b2b73a32b960711b606082015260800190565b60008261288b5761288b6125d2565b500690565b634e487b7160e01b600052603260045260246000fd5b6000602082840312156128b857600080fd5b8151610fad81612215565b6001600160a01b03858116825284166020820152604081018390526080606082018190526000906128f6908301846122aa565b9695505050505050565b60006020828403121561291257600080fd5b8151610fad81612253565b6000825161292f818460208701612286565b919091019291505056fea26469706673582212202be78bd65c9f392adda867635f4fe839e93f6ad04207f6527f98daa3041e9c3864736f6c63430008100033",
    "linkReferences": {}
  },
  "methodIdentifiers": {
    "approve(address,uint256)": "095ea7b3",
    "balanceOf(address)": "70a08231",
    "chainlinkPriceFeed()": "d8a2b7f0",
    "closePool()": "66805de5",
    "deltaPrice()": "1bc6a79e",
    "depositFunds(uint256,bool)": "00a6e730",
    "duration()": "0fb5a6b4",
    "endPrice()": "b868723e",
    "finalTime()": "af5260bf",
    "getApproved(uint256)": "081812fc",
    "getReward(uint256)": "1c4b774b",
    "isApprovedForAll(address,address)": "e985e9c5",
    "longs()": "793ebd28",
    "name()": "06fdde03",
    "owner()": "8da5cb5b",
    "ownerOf(uint256)": "6352211e",
    "poolIsClosed()": "8327bed3",
    "renounceOwnership()": "715018a6",
    "safeTransferFrom(address,address,uint256)": "42842e0e",
    "safeTransferFrom(address,address,uint256,bytes)": "b88d4fde",
    "setApprovalForAll(address,bool)": "a22cb465",
    "setStrategy(address)": "33a100ca",
    "setTotalRewardsAndPrice(uint256,uint256)": "1c153b81",
    "shorts()": "dbe7f9bd",
    "startTime()": "78e97925",
    "strikePrice()": "c52987cf",
    "suppliedAsset()": "4a5f0fb0",
    "supportsInterface(bytes4)": "01ffc9a7",
    "symbol()": "95d89b41",
    "tokenCount()": "9f181b5e",
    "tokenToPosition(uint256)": "bd05e965",
    "tokenURI(uint256)": "c87b56dd",
    "totalDeposits()": "7d882097",
    "totalReturnedFromStrat()": "ae7f93e8",
    "totalRewards()": "0e15561a",
    "transferFrom(address,address,uint256)": "23b872dd",
    "transferOwnership(address)": "f2fde38b",
    "withdrawFees()": "476343ee"
  },
  "id": 0
}