{
  "abi": [
    {
      "inputs": [
        {
          "internalType": "uint256",
          "name": "_strikePrice",
          "type": "uint256"
        },
        {
          "internalType": "address",
          "name": "_asset",
          "type": "address"
        },
        {
          "internalType": "uint256",
          "name": "_duration",
          "type": "uint256"
        },
        {
          "internalType": "uint256",
          "name": "_startTime",
          "type": "uint256"
        },
        {
          "internalType": "uint256",
          "name": "_deltaPrice",
          "type": "uint256"
        },
        {
          "internalType": "address",
          "name": "_chainlinkPriceFeed",
          "type": "address"
        },
        {
          "internalType": "uint256",
          "name": "_fees",
          "type": "uint256"
        },
        {
          "internalType": "string",
          "name": "_name",
          "type": "string"
        },
        {
          "internalType": "string",
          "name": "_symbol",
          "type": "string"
        }
      ],
      "stateMutability": "nonpayable",
      "type": "constructor"
    },
    {
      "anonymous": false,
      "inputs": [
        {
          "indexed": true,
          "internalType": "address",
          "name": "owner",
          "type": "address"
        },
        {
          "indexed": true,
          "internalType": "address",
          "name": "approved",
          "type": "address"
        },
        {
          "indexed": true,
          "internalType": "uint256",
          "name": "tokenId",
          "type": "uint256"
        }
      ],
      "name": "Approval",
      "type": "event"
    },
    {
      "anonymous": false,
      "inputs": [
        {
          "indexed": true,
          "internalType": "address",
          "name": "owner",
          "type": "address"
        },
        {
          "indexed": true,
          "internalType": "address",
          "name": "operator",
          "type": "address"
        },
        {
          "indexed": false,
          "internalType": "bool",
          "name": "approved",
          "type": "bool"
        }
      ],
      "name": "ApprovalForAll",
      "type": "event"
    },
    {
      "anonymous": false,
      "inputs": [
        {
          "indexed": true,
          "internalType": "address",
          "name": "previousOwner",
          "type": "address"
        },
        {
          "indexed": true,
          "internalType": "address",
          "name": "newOwner",
          "type": "address"
        }
      ],
      "name": "OwnershipTransferred",
      "type": "event"
    },
    {
      "anonymous": false,
      "inputs": [
        {
          "indexed": true,
          "internalType": "address",
          "name": "from",
          "type": "address"
        },
        {
          "indexed": true,
          "internalType": "address",
          "name": "to",
          "type": "address"
        },
        {
          "indexed": true,
          "internalType": "uint256",
          "name": "tokenId",
          "type": "uint256"
        }
      ],
      "name": "Transfer",
      "type": "event"
    },
    {
      "inputs": [
        {
          "internalType": "bool",
          "name": "_longOrShort",
          "type": "bool"
        }
      ],
      "name": "actualAPY",
      "outputs": [
        {
          "internalType": "uint256",
          "name": "_apy",
          "type": "uint256"
        }
      ],
      "stateMutability": "nonpayable",
      "type": "function"
    },
    {
      "inputs": [
        {
          "internalType": "address",
          "name": "to",
          "type": "address"
        },
        {
          "internalType": "uint256",
          "name": "tokenId",
          "type": "uint256"
        }
      ],
      "name": "approve",
      "outputs": [],
      "stateMutability": "nonpayable",
      "type": "function"
    },
    {
      "inputs": [
        {
          "internalType": "address",
          "name": "owner",
          "type": "address"
        }
      ],
      "name": "balanceOf",
      "outputs": [
        {
          "internalType": "uint256",
          "name": "",
          "type": "uint256"
        }
      ],
      "stateMutability": "view",
      "type": "function"
    },
    {
      "inputs": [],
      "name": "chainlinkPriceFeed",
      "outputs": [
        {
          "internalType": "address",
          "name": "",
          "type": "address"
        }
      ],
      "stateMutability": "view",
      "type": "function"
    },
    {
      "inputs": [],
      "name": "closePool",
      "outputs": [],
      "stateMutability": "nonpayable",
      "type": "function"
    },
    {
      "inputs": [],
      "name": "deltaPrice",
      "outputs": [
        {
          "internalType": "uint256",
          "name": "",
          "type": "uint256"
        }
      ],
      "stateMutability": "view",
      "type": "function"
    },
    {
      "inputs": [
        {
          "internalType": "uint256",
          "name": "amount",
          "type": "uint256"
        },
        {
          "internalType": "bool",
          "name": "longShort",
          "type": "bool"
        }
      ],
      "name": "depositFunds",
      "outputs": [
        {
          "internalType": "uint256",
          "name": "_computedRisk",
          "type": "uint256"
        },
        {
          "internalType": "uint256",
          "name": "_alpha",
          "type": "uint256"
        },
        {
          "internalType": "uint256",
          "name": "_standardizedPrice",
          "type": "uint256"
        },
        {
          "internalType": "uint256",
          "name": "_standardizedAmount",
          "type": "uint256"
        }
      ],
      "stateMutability": "nonpayable",
      "type": "function"
    },
    {
      "inputs": [],
      "name": "duration",
      "outputs": [
        {
          "internalType": "uint256",
          "name": "",
          "type": "uint256"
        }
      ],
      "stateMutability": "view",
      "type": "function"
    },
    {
      "inputs": [],
      "name": "endPrice",
      "outputs": [
        {
          "internalType": "uint256",
          "name": "",
          "type": "uint256"
        }
      ],
      "stateMutability": "view",
      "type": "function"
    },
    {
      "inputs": [],
      "name": "expectedAPY_longs",
      "outputs": [
        {
          "internalType": "uint256",
          "name": "_apy",
          "type": "uint256"
        }
      ],
      "stateMutability": "nonpayable",
      "type": "function"
    },
    {
      "inputs": [],
      "name": "expectedAPY_shorts",
      "outputs": [
        {
          "internalType": "uint256",
          "name": "_apy",
          "type": "uint256"
        }
      ],
      "stateMutability": "nonpayable",
      "type": "function"
    },
    {
      "inputs": [],
      "name": "finalTime",
      "outputs": [
        {
          "internalType": "uint256",
          "name": "",
          "type": "uint256"
        }
      ],
      "stateMutability": "view",
      "type": "function"
    },
    {
      "inputs": [
        {
          "internalType": "uint256",
          "name": "tokenId",
          "type": "uint256"
        }
      ],
      "name": "getApproved",
      "outputs": [
        {
          "internalType": "address",
          "name": "",
          "type": "address"
        }
      ],
      "stateMutability": "view",
      "type": "function"
    },
    {
      "inputs": [
        {
          "internalType": "uint256",
          "name": "tokenID",
          "type": "uint256"
        }
      ],
      "name": "getReward",
      "outputs": [
        {
          "internalType": "uint256",
          "name": "_amountOwed",
          "type": "uint256"
        }
      ],
      "stateMutability": "nonpayable",
      "type": "function"
    },
    {
      "inputs": [
        {
          "internalType": "address",
          "name": "owner",
          "type": "address"
        },
        {
          "internalType": "address",
          "name": "operator",
          "type": "address"
        }
      ],
      "name": "isApprovedForAll",
      "outputs": [
        {
          "internalType": "bool",
          "name": "",
          "type": "bool"
        }
      ],
      "stateMutability": "view",
      "type": "function"
    },
    {
      "inputs": [],
      "name": "longs",
      "outputs": [
        {
          "internalType": "uint256",
          "name": "",
          "type": "uint256"
        }
      ],
      "stateMutability": "view",
      "type": "function"
    },
    {
      "inputs": [],
      "name": "name",
      "outputs": [
        {
          "internalType": "string",
          "name": "",
          "type": "string"
        }
      ],
      "stateMutability": "view",
      "type": "function"
    },
    {
      "inputs": [],
      "name": "owner",
      "outputs": [
        {
          "internalType": "address",
          "name": "",
          "type": "address"
        }
      ],
      "stateMutability": "view",
      "type": "function"
    },
    {
      "inputs": [
        {
          "internalType": "uint256",
          "name": "tokenId",
          "type": "uint256"
        }
      ],
      "name": "ownerOf",
      "outputs": [
        {
          "internalType": "address",
          "name": "",
          "type": "address"
        }
      ],
      "stateMutability": "view",
      "type": "function"
    },
    {
      "inputs": [],
      "name": "poolIsClosed",
      "outputs": [
        {
          "internalType": "bool",
          "name": "",
          "type": "bool"
        }
      ],
      "stateMutability": "view",
      "type": "function"
    },
    {
      "inputs": [],
      "name": "renounceOwnership",
      "outputs": [],
      "stateMutability": "nonpayable",
      "type": "function"
    },
    {
      "inputs": [
        {
          "internalType": "address",
          "name": "from",
          "type": "address"
        },
        {
          "internalType": "address",
          "name": "to",
          "type": "address"
        },
        {
          "internalType": "uint256",
          "name": "tokenId",
          "type": "uint256"
        }
      ],
      "name": "safeTransferFrom",
      "outputs": [],
      "stateMutability": "nonpayable",
      "type": "function"
    },
    {
      "inputs": [
        {
          "internalType": "address",
          "name": "from",
          "type": "address"
        },
        {
          "internalType": "address",
          "name": "to",
          "type": "address"
        },
        {
          "internalType": "uint256",
          "name": "tokenId",
          "type": "uint256"
        },
        {
          "internalType": "bytes",
          "name": "data",
          "type": "bytes"
        }
      ],
      "name": "safeTransferFrom",
      "outputs": [],
      "stateMutability": "nonpayable",
      "type": "function"
    },
    {
      "inputs": [
        {
          "internalType": "address",
          "name": "operator",
          "type": "address"
        },
        {
          "internalType": "bool",
          "name": "approved",
          "type": "bool"
        }
      ],
      "name": "setApprovalForAll",
      "outputs": [],
      "stateMutability": "nonpayable",
      "type": "function"
    },
    {
      "inputs": [
        {
          "internalType": "address",
          "name": "_strat",
          "type": "address"
        }
      ],
      "name": "setStrategy",
      "outputs": [],
      "stateMutability": "nonpayable",
      "type": "function"
    },
    {
      "inputs": [
        {
          "internalType": "uint256",
          "name": "_amount",
          "type": "uint256"
        },
        {
          "internalType": "uint256",
          "name": "_endPrice",
          "type": "uint256"
        }
      ],
      "name": "setTotalRewardsAndPrice",
      "outputs": [],
      "stateMutability": "nonpayable",
      "type": "function"
    },
    {
      "inputs": [],
      "name": "shorts",
      "outputs": [
        {
          "internalType": "uint256",
          "name": "",
          "type": "uint256"
        }
      ],
      "stateMutability": "view",
      "type": "function"
    },
    {
      "inputs": [],
      "name": "startTime",
      "outputs": [
        {
          "internalType": "uint256",
          "name": "",
          "type": "uint256"
        }
      ],
      "stateMutability": "view",
      "type": "function"
    },
    {
      "inputs": [],
      "name": "strikePrice",
      "outputs": [
        {
          "internalType": "uint256",
          "name": "",
          "type": "uint256"
        }
      ],
      "stateMutability": "view",
      "type": "function"
    },
    {
      "inputs": [],
      "name": "suppliedAsset",
      "outputs": [
        {
          "internalType": "address",
          "name": "",
          "type": "address"
        }
      ],
      "stateMutability": "view",
      "type": "function"
    },
    {
      "inputs": [
        {
          "internalType": "bytes4",
          "name": "interfaceId",
          "type": "bytes4"
        }
      ],
      "name": "supportsInterface",
      "outputs": [
        {
          "internalType": "bool",
          "name": "",
          "type": "bool"
        }
      ],
      "stateMutability": "view",
      "type": "function"
    },
    {
      "inputs": [],
      "name": "symbol",
      "outputs": [
        {
          "internalType": "string",
          "name": "",
          "type": "string"
        }
      ],
      "stateMutability": "view",
      "type": "function"
    },
    {
      "inputs": [],
      "name": "tokenCount",
      "outputs": [
        {
          "internalType": "uint256",
          "name": "",
          "type": "uint256"
        }
      ],
      "stateMutability": "view",
      "type": "function"
    },
    {
      "inputs": [
        {
          "internalType": "uint256",
          "name": "",
          "type": "uint256"
        }
      ],
      "name": "tokenToPosition",
      "outputs": [
        {
          "internalType": "uint256",
          "name": "amount",
          "type": "uint256"
        },
        {
          "internalType": "uint256",
          "name": "timeStamp",
          "type": "uint256"
        },
        {
          "internalType": "uint256",
          "name": "assetPrice",
          "type": "uint256"
        },
        {
          "internalType": "bool",
          "name": "longOrShort",
          "type": "bool"
        },
        {
          "internalType": "uint256",
          "name": "alpha",
          "type": "uint256"
        }
      ],
      "stateMutability": "view",
      "type": "function"
    },
    {
      "inputs": [
        {
          "internalType": "uint256",
          "name": "tokenId",
          "type": "uint256"
        }
      ],
      "name": "tokenURI",
      "outputs": [
        {
          "internalType": "string",
          "name": "",
          "type": "string"
        }
      ],
      "stateMutability": "view",
      "type": "function"
    },
    {
      "inputs": [],
      "name": "totalDeposits",
      "outputs": [
        {
          "internalType": "uint256",
          "name": "",
          "type": "uint256"
        }
      ],
      "stateMutability": "view",
      "type": "function"
    },
    {
      "inputs": [],
      "name": "totalReturnedFromStrat",
      "outputs": [
        {
          "internalType": "uint256",
          "name": "",
          "type": "uint256"
        }
      ],
      "stateMutability": "view",
      "type": "function"
    },
    {
      "inputs": [],
      "name": "totalRewards",
      "outputs": [
        {
          "internalType": "uint256",
          "name": "",
          "type": "uint256"
        }
      ],
      "stateMutability": "view",
      "type": "function"
    },
    {
      "inputs": [
        {
          "internalType": "address",
          "name": "from",
          "type": "address"
        },
        {
          "internalType": "address",
          "name": "to",
          "type": "address"
        },
        {
          "internalType": "uint256",
          "name": "tokenId",
          "type": "uint256"
        }
      ],
      "name": "transferFrom",
      "outputs": [],
      "stateMutability": "nonpayable",
      "type": "function"
    },
    {
      "inputs": [
        {
          "internalType": "address",
          "name": "newOwner",
          "type": "address"
        }
      ],
      "name": "transferOwnership",
      "outputs": [],
      "stateMutability": "nonpayable",
      "type": "function"
    },
    {
      "inputs": [],
      "name": "withdrawFees",
      "outputs": [
        {
          "internalType": "uint256",
          "name": "",
          "type": "uint256"
        }
      ],
      "stateMutability": "view",
      "type": "function"
    }
  ],
  "bytecode": {
    "object": "0x60806040523480156200001157600080fd5b5060405162002ff538038062002ff583398101604081905262000034916200020d565b818160006200004483826200035d565b5060016200005382826200035d565b505050620000706200006a620000d560201b60201c565b620000d9565b600780546001600160a01b03808b166001600160a01b03199283161790925560088b90556009805492871692909116919091179055600c879055600a869055620000bb878762000429565b600b555050600f9290925550601655506200045192505050565b3390565b600680546001600160a01b038381166001600160a01b0319831681179093556040519116919082907f8be0079c531659141344cd1fd0a4f28419497f9722a3daafe3b4186f6b6457e090600090a35050565b80516001600160a01b03811681146200014357600080fd5b919050565b634e487b7160e01b600052604160045260246000fd5b600082601f8301126200017057600080fd5b81516001600160401b03808211156200018d576200018d62000148565b604051601f8301601f19908116603f01168101908282118183101715620001b857620001b862000148565b81604052838152602092508683858801011115620001d557600080fd5b600091505b83821015620001f95785820183015181830184015290820190620001da565b600093810190920192909252949350505050565b60008060008060008060008060006101208a8c0312156200022d57600080fd5b895198506200023f60208b016200012b565b975060408a0151965060608a0151955060808a015194506200026460a08b016200012b565b60c08b015160e08c015191955093506001600160401b03808211156200028957600080fd5b620002978d838e016200015e565b93506101008c0151915080821115620002af57600080fd5b50620002be8c828d016200015e565b9150509295985092959850929598565b600181811c90821680620002e357607f821691505b6020821081036200030457634e487b7160e01b600052602260045260246000fd5b50919050565b601f8211156200035857600081815260208120601f850160051c81016020861015620003335750805b601f850160051c820191505b8181101562000354578281556001016200033f565b5050505b505050565b81516001600160401b0381111562000379576200037962000148565b62000391816200038a8454620002ce565b846200030a565b602080601f831160018114620003c95760008415620003b05750858301515b600019600386901b1c1916600185901b17855562000354565b600085815260208120601f198616915b82811015620003fa57888601518255948401946001909101908401620003d9565b5085821015620004195787850151600019600388901b60f8161c191681555b5050505050600190811b01905550565b808201808211156200044b57634e487b7160e01b600052601160045260246000fd5b92915050565b612b9480620004616000396000f3fe608060405234801561001057600080fd5b50600436106102525760003560e01c8063715018a611610146578063af5260bf116100c3578063c87b56dd11610087578063c87b56dd14610501578063d8a2b7f014610514578063dbe7f9bd14610527578063dd74b49114610530578063e985e9c514610538578063f2fde38b1461054b57600080fd5b8063af5260bf14610469578063b868723e14610472578063b88d4fde1461047b578063bd05e9651461048e578063c52987cf146104f857600080fd5b80638da5cb5b1161010a5780638da5cb5b1461042b57806395d89b411461043c5780639f181b5e14610444578063a22cb4651461044d578063ae7f93e81461046057600080fd5b8063715018a6146103f457806378e97925146103fc578063793ebd28146104055780637d8820971461040e5780638327bed31461041757600080fd5b806323b2c023116101d45780634a5f0fb0116101985780634a5f0fb0146103a0578063531a9358146103b35780636352211e146103c657806366805de5146103d957806370a08231146103e157600080fd5b806323b2c0231461035657806323b872dd1461035e57806333a100ca1461037157806342842e0e14610384578063476343ee1461039757600080fd5b80630e15561a1161021b5780630e15561a146103075780630fb5a6b41461031e5780631bc6a79e146103275780631c153b81146103305780631c4b774b1461034357600080fd5b8062a6e7301461025757806301ffc9a71461028f57806306fdde03146102b2578063081812fc146102c7578063095ea7b3146102f2575b600080fd5b61026a61026536600461242b565b61055e565b6040805194855260208501939093529183015260608201526080015b60405180910390f35b6102a261029d366004612471565b610813565b6040519015158152602001610286565b6102ba610865565b60405161028691906124de565b6102da6102d53660046124f1565b6108f7565b6040516001600160a01b039091168152602001610286565b610305610300366004612521565b61091e565b005b61031060115481565b604051908152602001610286565b610310600c5481565b610310600f5481565b61030561033e36600461254b565b610a38565b6103106103513660046124f1565b610a5a565b610310610c61565b61030561036c36600461256d565b610d1f565b61030561037f3660046125a9565b610d50565b61030561039236600461256d565b610d7a565b61031060165481565b6007546102da906001600160a01b031681565b6103106103c13660046125c4565b610d95565b6102da6103d43660046124f1565b610e85565b610305610ee5565b6103106103ef3660046125a9565b61103a565b6103056110c0565b610310600a5481565b610310600d5481565b61031060145481565b6013546102a290600160a01b900460ff1681565b6006546001600160a01b03166102da565b6102ba6110d4565b61031060125481565b61030561045b3660046125e1565b6110e3565b61031060155481565b610310600b5481565b61031060105481565b610305610489366004612623565b6110ee565b6104ce61049c3660046124f1565b6017602052600090815260409020805460018201546002830154600384015460049094015492939192909160ff169085565b6040805195865260208601949094529284019190915215156060830152608082015260a001610286565b61031060085481565b6102ba61050f3660046124f1565b611126565b6009546102da906001600160a01b031681565b610310600e5481565b61031061119a565b6102a26105463660046126ff565b6111bc565b6103056105593660046125a9565b6111ea565b600080600080600a5442101561057357600080fd5b60095460408051633fabe5a360e21b815290516000926001600160a01b03169163feaf968c9160048083019260a09291908290030181865afa1580156105bd573d6000803e3d6000fd5b505050506040513d601f19601f820116820180604052508101906105e1919061274c565b505050915050600081136105f457600080fd5b866014600082825461060691906127b2565b90915550819050600061061882611263565b90506000610626828a61148f565b600754909150600090610643908c906001600160a01b031661152f565b90506000600c5442600b5461065891906127c5565b61066285856127d8565b61066c91906127d8565b610676919061280d565b60128054919250600061068883612821565b909155505060125460008181526017602052604090208d8155426001808301919091556002820187905560038201805460ff19168f15159081179091556004830185905590036106ef5782600d60008282546106e491906127b2565b909155506107119050565b8c15156000036107115782600e600082825461070b91906127b2565b90915550505b610738333061072487633b9aca006127d8565b6007546001600160a01b0316929190611713565b601354610769906001600160a01b031661075686633b9aca006127d8565b6007546001600160a01b0316919061177e565b6013546007546001600160a01b03918216916347e7ef24911661079087633b9aca006127d8565b6040516001600160e01b031960e085901b1681526001600160a01b0390921660048301526024820152604401600060405180830381600087803b1580156107d657600080fd5b505af11580156107ea573d6000803e3d6000fd5b505050506107fe6107f83390565b83611893565b50929c909b5092995097509095505050505050565b60006001600160e01b031982166380ac58cd60e01b148061084457506001600160e01b03198216635b5e139f60e01b145b8061085f57506301ffc9a760e01b6001600160e01b03198316145b92915050565b6060600080546108749061283a565b80601f01602080910402602001604051908101604052809291908181526020018280546108a09061283a565b80156108ed5780601f106108c2576101008083540402835291602001916108ed565b820191906000526020600020905b8154815290600101906020018083116108d057829003601f168201915b5050505050905090565b6000610902826118ad565b506000908152600460205260409020546001600160a01b031690565b600061092982610e85565b9050806001600160a01b0316836001600160a01b03160361099b5760405162461bcd60e51b815260206004820152602160248201527f4552433732313a20617070726f76616c20746f2063757272656e74206f776e656044820152603960f91b60648201526084015b60405180910390fd5b336001600160a01b03821614806109b757506109b781336111bc565b610a295760405162461bcd60e51b815260206004820152603e60248201527f4552433732313a20617070726f76652063616c6c6572206973206e6f7420746f60448201527f6b656e206f776e6572206e6f7220617070726f76656420666f7220616c6c00006064820152608401610992565b610a33838361190c565b505050565b8160116000828254610a4a91906127b2565b9091555050601055506000601555565b6000600b5442118015610a7b5750601354600160a01b900460ff1615156001145b610a8457600080fd5b33610a8e83610e85565b6001600160a01b031614610ae45760405162461bcd60e51b815260206004820152601d60248201527f75736572206973206e6f74204f776e6572206f6620746f6b656e2049440000006044820152606401610992565b6000806000806015541115610b3a57601454601554600087815260176020526040902054610b1291906127d8565b610b1c919061280d565b9250610b35336007546001600160a01b0316908561197a565b610c59565b60085460105410158015610b64575060008581526017602052604090206003015460ff1615156001145b15610bbb57600085815260176020526040812060040154600d54601154919450610b90928591906119aa565b601654909350610bac908490670de0b6b3a764000060016119aa565b9050610bb881846127c5565b92505b600854601054108015610be0575060008581526017602052604090206003015460ff16155b15610c3757600085815260176020526040812060040154600e54601154919450610c0c928591906119aa565b601654909350610c28908490670de0b6b3a764000060016119aa565b9050610c3481846127c5565b92505b600085815260176020526040902054610c5090846127b2565b95945050505050565b505050919050565b600e5460009015610d19576000600e54601454633b9aca00610c8391906127d8565b610c8d919061280d565b905080601360009054906101000a90046001600160a01b03166001600160a01b0316639f560dd56040518163ffffffff1660e01b81526004016020604051808303816000875af1158015610ce5573d6000803e3d6000fd5b505050506040513d601f19601f82011682018060405250810190610d099190612874565b610d1391906127d8565b91505090565b50600090565b610d293382611a09565b610d455760405162461bcd60e51b81526004016109929061288d565b610a33838383611a67565b610d58611c03565b601380546001600160a01b0319166001600160a01b0392909216919091179055565b610a33838383604051806020016040528060008152506110ee565b600080600960009054906101000a90046001600160a01b03166001600160a01b031663feaf968c6040518163ffffffff1660e01b815260040160a060405180830381865afa158015610deb573d6000803e3d6000fd5b505050506040513d601f19601f82011682018060405250810190610e0f919061274c565b50505091505060008113610e2257600080fd5b6000610e2d82611263565b9050831515600103610e56576008548110610e5157610e4a61119a565b9250610e56565b600092505b831515600003610e7e57600854811015610e7957610e72610c61565b9250610e7e565b600092505b5050919050565b6000818152600260205260408120546001600160a01b03168061085f5760405162461bcd60e51b8152602060048201526018602482015277115490cdcc8c4e881a5b9d985b1a59081d1bdad95b88125160421b6044820152606401610992565b610eed611c03565b600b544211610efb57600080fd5b6013805460ff60a01b1916600160a01b17905560095460408051633fabe5a360e21b815290516000926001600160a01b03169163feaf968c9160048083019260a09291908290030181865afa158015610f58573d6000803e3d6000fd5b505050506040513d601f19601f82011682018060405250810190610f7c919061274c565b50505091505060008113610f8f57600080fd5b610f9881611263565b60105560135460408051633ccfd60b60e01b815290516000926001600160a01b031691633ccfd60b916004808301926020929190829003018187875af1158015610fe6573d6000803e3d6000fd5b505050506040513d601f19601f8201168201806040525081019061100a9190612874565b9050601454811161101b5760155550565b6014548111156110365760145461103290826127c5565b6011555b5050565b60006001600160a01b0382166110a45760405162461bcd60e51b815260206004820152602960248201527f4552433732313a2061646472657373207a65726f206973206e6f7420612076616044820152683634b21037bbb732b960b91b6064820152608401610992565b506001600160a01b031660009081526003602052604090205490565b6110c8611c03565b6110d26000611c5d565b565b6060600180546108749061283a565b611036338383611caf565b6110f83383611a09565b6111145760405162461bcd60e51b81526004016109929061288d565b61112084848484611d7d565b50505050565b6060611131826118ad565b600061114860408051602081019091526000815290565b905060008151116111685760405180602001604052806000815250611193565b8061117284611db0565b6040516020016111839291906128db565b6040516020818303038152906040525b9392505050565b600d5460009015610d19576000600d54601454633b9aca00610c8391906127d8565b6001600160a01b03918216600090815260056020908152604080832093909416825291909152205460ff1690565b6111f2611c03565b6001600160a01b0381166112575760405162461bcd60e51b815260206004820152602660248201527f4f776e61626c653a206e6577206f776e657220697320746865207a65726f206160448201526564647265737360d01b6064820152608401610992565b61126081611c5d565b50565b600980546040805163313ce56760e01b815290518493926001600160a01b03169163313ce5679160048083019260209291908290030181865afa1580156112ae573d6000803e3d6000fd5b505050506040513d601f19601f820116820180604052508101906112d2919061290a565b60ff16101561137257600960009054906101000a90046001600160a01b03166001600160a01b031663313ce5676040518163ffffffff1660e01b8152600401602060405180830381865afa15801561132e573d6000803e3d6000fd5b505050506040513d601f19601f82011682018060405250810190611352919061290a565b61135d90600961292d565b61136890600a612a2a565b61085f90826127d8565b60098060009054906101000a90046001600160a01b03166001600160a01b031663313ce5676040518163ffffffff1660e01b8152600401602060405180830381865afa1580156113c6573d6000803e3d6000fd5b505050506040513d601f19601f820116820180604052508101906113ea919061290a565b60ff16111561148a5760098060009054906101000a90046001600160a01b03166001600160a01b031663313ce5676040518163ffffffff1660e01b8152600401602060405180830381865afa158015611447573d6000803e3d6000fd5b505050506040513d601f19601f8201168201806040525081019061146b919061290a565b611475919061292d565b61148090600a612a2a565b61085f908261280d565b919050565b60008115156001036114f7576008548311156114b05750633b9aca0061085f565b60085483116114f757600f54836008546114ca91906127c5565b6114d890633b9aca006127d8565b6114e2919061280d565b6114f090633b9aca006127b2565b905061085f565b81151560000361085f578260085411156115165750633b9aca0061085f565b826008541161085f57600f546008546114ca90856127c5565b60008290506009826001600160a01b031663313ce5676040518163ffffffff1660e01b8152600401602060405180830381865afa158015611574573d6000803e3d6000fd5b505050506040513d601f19601f82011682018060405250810190611598919061290a565b60ff16101561162357816001600160a01b031663313ce5676040518163ffffffff1660e01b8152600401602060405180830381865afa1580156115df573d6000803e3d6000fd5b505050506040513d601f19601f82011682018060405250810190611603919061290a565b61160e90601261292d565b61161990600a612a2a565b6114f090826127d8565b6009826001600160a01b031663313ce5676040518163ffffffff1660e01b8152600401602060405180830381865afa158015611663573d6000803e3d6000fd5b505050506040513d601f19601f82011682018060405250810190611687919061290a565b60ff16111561085f576009826001600160a01b031663313ce5676040518163ffffffff1660e01b8152600401602060405180830381865afa1580156116d0573d6000803e3d6000fd5b505050506040513d601f19601f820116820180604052508101906116f4919061290a565b6116fe919061292d565b61170990600a612a2a565b611193908261280d565b6040516001600160a01b03808516602483015283166044820152606481018290526111209085906323b872dd60e01b906084015b60408051601f198184030181529190526020810180516001600160e01b03166001600160e01b031990931692909217909152611eb1565b8015806117f85750604051636eb1769f60e11b81523060048201526001600160a01b03838116602483015284169063dd62ed3e90604401602060405180830381865afa1580156117d2573d6000803e3d6000fd5b505050506040513d601f19601f820116820180604052508101906117f69190612874565b155b6118635760405162461bcd60e51b815260206004820152603660248201527f5361666545524332303a20617070726f76652066726f6d206e6f6e2d7a65726f60448201527520746f206e6f6e2d7a65726f20616c6c6f77616e636560501b6064820152608401610992565b6040516001600160a01b038316602482015260448101829052610a3390849063095ea7b360e01b90606401611747565b611036828260405180602001604052806000815250611f83565b6000818152600260205260409020546001600160a01b03166112605760405162461bcd60e51b8152602060048201526018602482015277115490cdcc8c4e881a5b9d985b1a59081d1bdad95b88125160421b6044820152606401610992565b600081815260046020526040902080546001600160a01b0319166001600160a01b038416908117909155819061194182610e85565b6001600160a01b03167f8c5be1e5ebec7d5bd14f71427d1e84f3dd0314c0f7b2291e5b200ac8c7c3b92560405160405180910390a45050565b6040516001600160a01b038316602482015260448101829052610a3390849063a9059cbb60e01b90606401611747565b6000806119b8868686611fb6565b905060018360028111156119ce576119ce612a39565b1480156119eb5750600084806119e6576119e66127f7565b868809115b156119fe576119fb6001826127b2565b90505b90505b949350505050565b600080611a1583610e85565b9050806001600160a01b0316846001600160a01b03161480611a3c5750611a3c81856111bc565b80611a015750836001600160a01b0316611a55846108f7565b6001600160a01b031614949350505050565b826001600160a01b0316611a7a82610e85565b6001600160a01b031614611ade5760405162461bcd60e51b815260206004820152602560248201527f4552433732313a207472616e736665722066726f6d20696e636f72726563742060448201526437bbb732b960d91b6064820152608401610992565b6001600160a01b038216611b405760405162461bcd60e51b8152602060048201526024808201527f4552433732313a207472616e7366657220746f20746865207a65726f206164646044820152637265737360e01b6064820152608401610992565b611b4b60008261190c565b6001600160a01b0383166000908152600360205260408120805460019290611b749084906127c5565b90915550506001600160a01b0382166000908152600360205260408120805460019290611ba29084906127b2565b909155505060008181526002602052604080822080546001600160a01b0319166001600160a01b0386811691821790925591518493918716917fddf252ad1be2c89b69c2b068fc378daa952ba7f163c4a11628f55a4df523b3ef91a4505050565b6006546001600160a01b031633146110d25760405162461bcd60e51b815260206004820181905260248201527f4f776e61626c653a2063616c6c6572206973206e6f7420746865206f776e65726044820152606401610992565b600680546001600160a01b038381166001600160a01b0319831681179093556040519116919082907f8be0079c531659141344cd1fd0a4f28419497f9722a3daafe3b4186f6b6457e090600090a35050565b816001600160a01b0316836001600160a01b031603611d105760405162461bcd60e51b815260206004820152601960248201527f4552433732313a20617070726f766520746f2063616c6c6572000000000000006044820152606401610992565b6001600160a01b03838116600081815260056020908152604080832094871680845294825291829020805460ff191686151590811790915591519182527f17307eab39ab6107e8899845ad3d59bd9653f200f220920489ca2b5937696c31910160405180910390a3505050565b611d88848484611a67565b611d9484848484612064565b6111205760405162461bcd60e51b815260040161099290612a4f565b606081600003611dd75750506040805180820190915260018152600360fc1b602082015290565b8160005b8115611e015780611deb81612821565b9150611dfa9050600a8361280d565b9150611ddb565b60008167ffffffffffffffff811115611e1c57611e1c61260d565b6040519080825280601f01601f191660200182016040528015611e46576020820181803683370190505b5090505b8415611a0157611e5b6001836127c5565b9150611e68600a86612aa1565b611e739060306127b2565b60f81b818381518110611e8857611e88612ab5565b60200101906001600160f81b031916908160001a905350611eaa600a8661280d565b9450611e4a565b6000611f06826040518060400160405280602081526020017f5361666545524332303a206c6f772d6c6576656c2063616c6c206661696c6564815250856001600160a01b03166121629092919063ffffffff16565b805190915015610a335780806020019051810190611f249190612acb565b610a335760405162461bcd60e51b815260206004820152602a60248201527f5361666545524332303a204552433230206f7065726174696f6e20646964206e6044820152691bdd081cdd58d8d9595960b21b6064820152608401610992565b611f8d8383612171565b611f9a6000848484612064565b610a335760405162461bcd60e51b815260040161099290612a4f565b6000808060001985870985870292508281108382030391505080600003611ff057838281611fe657611fe66127f7565b0492505050611193565b808411611ffc57600080fd5b600084868809600260036001881981018916988990049182028318808302840302808302840302808302840302808302840302808302840302918202909203026000889003889004909101858311909403939093029303949094049190911702949350505050565b60006001600160a01b0384163b1561215a57604051630a85bd0160e11b81526001600160a01b0385169063150b7a02906120a8903390899088908890600401612ae8565b6020604051808303816000875af19250505080156120e3575060408051601f3d908101601f191682019092526120e091810190612b25565b60015b612140573d808015612111576040519150601f19603f3d011682016040523d82523d6000602084013e612116565b606091505b5080516000036121385760405162461bcd60e51b815260040161099290612a4f565b805181602001fd5b6001600160e01b031916630a85bd0160e11b149050611a01565b506001611a01565b6060611a0184846000856122b3565b6001600160a01b0382166121c75760405162461bcd60e51b815260206004820181905260248201527f4552433732313a206d696e7420746f20746865207a65726f20616464726573736044820152606401610992565b6000818152600260205260409020546001600160a01b03161561222c5760405162461bcd60e51b815260206004820152601c60248201527f4552433732313a20746f6b656e20616c7265616479206d696e746564000000006044820152606401610992565b6001600160a01b03821660009081526003602052604081208054600192906122559084906127b2565b909155505060008181526002602052604080822080546001600160a01b0319166001600160a01b03861690811790915590518392907fddf252ad1be2c89b69c2b068fc378daa952ba7f163c4a11628f55a4df523b3ef908290a45050565b6060824710156123145760405162461bcd60e51b815260206004820152602660248201527f416464726573733a20696e73756666696369656e742062616c616e636520666f6044820152651c8818d85b1b60d21b6064820152608401610992565b6001600160a01b0385163b61236b5760405162461bcd60e51b815260206004820152601d60248201527f416464726573733a2063616c6c20746f206e6f6e2d636f6e74726163740000006044820152606401610992565b600080866001600160a01b031685876040516123879190612b42565b60006040518083038185875af1925050503d80600081146123c4576040519150601f19603f3d011682016040523d82523d6000602084013e6123c9565b606091505b50915091506123d98282866123e4565b979650505050505050565b606083156123f3575081611193565b8251156124035782518084602001fd5b8160405162461bcd60e51b815260040161099291906124de565b801515811461126057600080fd5b6000806040838503121561243e57600080fd5b8235915060208301356124508161241d565b809150509250929050565b6001600160e01b03198116811461126057600080fd5b60006020828403121561248357600080fd5b81356111938161245b565b60005b838110156124a9578181015183820152602001612491565b50506000910152565b600081518084526124ca81602086016020860161248e565b601f01601f19169290920160200192915050565b60208152600061119360208301846124b2565b60006020828403121561250357600080fd5b5035919050565b80356001600160a01b038116811461148a57600080fd5b6000806040838503121561253457600080fd5b61253d8361250a565b946020939093013593505050565b6000806040838503121561255e57600080fd5b50508035926020909101359150565b60008060006060848603121561258257600080fd5b61258b8461250a565b92506125996020850161250a565b9150604084013590509250925092565b6000602082840312156125bb57600080fd5b6111938261250a565b6000602082840312156125d657600080fd5b81356111938161241d565b600080604083850312156125f457600080fd5b6125fd8361250a565b915060208301356124508161241d565b634e487b7160e01b600052604160045260246000fd5b6000806000806080858703121561263957600080fd5b6126428561250a565b93506126506020860161250a565b925060408501359150606085013567ffffffffffffffff8082111561267457600080fd5b818701915087601f83011261268857600080fd5b81358181111561269a5761269a61260d565b604051601f8201601f19908116603f011681019083821181831017156126c2576126c261260d565b816040528281528a60208487010111156126db57600080fd5b82602086016020830137600060208483010152809550505050505092959194509250565b6000806040838503121561271257600080fd5b61271b8361250a565b91506127296020840161250a565b90509250929050565b805169ffffffffffffffffffff8116811461148a57600080fd5b600080600080600060a0868803121561276457600080fd5b61276d86612732565b945060208601519350604086015192506060860151915061279060808701612732565b90509295509295909350565b634e487b7160e01b600052601160045260246000fd5b8082018082111561085f5761085f61279c565b8181038181111561085f5761085f61279c565b60008160001904831182151516156127f2576127f261279c565b500290565b634e487b7160e01b600052601260045260246000fd5b60008261281c5761281c6127f7565b500490565b6000600182016128335761283361279c565b5060010190565b600181811c9082168061284e57607f821691505b60208210810361286e57634e487b7160e01b600052602260045260246000fd5b50919050565b60006020828403121561288657600080fd5b5051919050565b6020808252602e908201527f4552433732313a2063616c6c6572206973206e6f7420746f6b656e206f776e6560408201526d1c881b9bdc88185c1c1c9bdd995960921b606082015260800190565b600083516128ed81846020880161248e565b83519083019061290181836020880161248e565b01949350505050565b60006020828403121561291c57600080fd5b815160ff8116811461119357600080fd5b60ff828116828216039081111561085f5761085f61279c565b600181815b808511156129815781600019048211156129675761296761279c565b8085161561297457918102915b93841c939080029061294b565b509250929050565b6000826129985750600161085f565b816129a55750600061085f565b81600181146129bb57600281146129c5576129e1565b600191505061085f565b60ff8411156129d6576129d661279c565b50506001821b61085f565b5060208310610133831016604e8410600b8410161715612a04575081810a61085f565b612a0e8383612946565b8060001904821115612a2257612a2261279c565b029392505050565b600061119360ff841683612989565b634e487b7160e01b600052602160045260246000fd5b60208082526032908201527f4552433732313a207472616e7366657220746f206e6f6e20455243373231526560408201527131b2b4bb32b91034b6b83632b6b2b73a32b960711b606082015260800190565b600082612ab057612ab06127f7565b500690565b634e487b7160e01b600052603260045260246000fd5b600060208284031215612add57600080fd5b81516111938161241d565b6001600160a01b0385811682528416602082015260408101839052608060608201819052600090612b1b908301846124b2565b9695505050505050565b600060208284031215612b3757600080fd5b81516111938161245b565b60008251612b5481846020870161248e565b919091019291505056fea264697066735822122046eaa969495ef758d3c349016203dd8eaa0066970bbc835f6251db665745dacd64736f6c63430008100033",
    "linkReferences": {}
  },
  "methodIdentifiers": {
    "actualAPY(bool)": "531a9358",
    "approve(address,uint256)": "095ea7b3",
    "balanceOf(address)": "70a08231",
    "chainlinkPriceFeed()": "d8a2b7f0",
    "closePool()": "66805de5",
    "deltaPrice()": "1bc6a79e",
    "depositFunds(uint256,bool)": "00a6e730",
    "duration()": "0fb5a6b4",
    "endPrice()": "b868723e",
    "expectedAPY_longs()": "dd74b491",
    "expectedAPY_shorts()": "23b2c023",
    "finalTime()": "af5260bf",
    "getApproved(uint256)": "081812fc",
    "getReward(uint256)": "1c4b774b",
    "isApprovedForAll(address,address)": "e985e9c5",
    "longs()": "793ebd28",
    "name()": "06fdde03",
    "owner()": "8da5cb5b",
    "ownerOf(uint256)": "6352211e",
    "poolIsClosed()": "8327bed3",
    "renounceOwnership()": "715018a6",
    "safeTransferFrom(address,address,uint256)": "42842e0e",
    "safeTransferFrom(address,address,uint256,bytes)": "b88d4fde",
    "setApprovalForAll(address,bool)": "a22cb465",
    "setStrategy(address)": "33a100ca",
    "setTotalRewardsAndPrice(uint256,uint256)": "1c153b81",
    "shorts()": "dbe7f9bd",
    "startTime()": "78e97925",
    "strikePrice()": "c52987cf",
    "suppliedAsset()": "4a5f0fb0",
    "supportsInterface(bytes4)": "01ffc9a7",
    "symbol()": "95d89b41",
    "tokenCount()": "9f181b5e",
    "tokenToPosition(uint256)": "bd05e965",
    "tokenURI(uint256)": "c87b56dd",
    "totalDeposits()": "7d882097",
    "totalReturnedFromStrat()": "ae7f93e8",
    "totalRewards()": "0e15561a",
    "transferFrom(address,address,uint256)": "23b872dd",
    "transferOwnership(address)": "f2fde38b",
    "withdrawFees()": "476343ee"
  },
  "id": 0
}