{
  "abi": [
    {
      "inputs": [
        {
          "internalType": "uint256",
          "name": "_strikePrice",
          "type": "uint256"
        },
        {
          "internalType": "address",
          "name": "_asset",
          "type": "address"
        },
        {
          "internalType": "uint256",
          "name": "_duration",
          "type": "uint256"
        },
        {
          "internalType": "uint256",
          "name": "_startTime",
          "type": "uint256"
        },
        {
          "internalType": "uint256",
          "name": "_deltaPrice",
          "type": "uint256"
        },
        {
          "internalType": "address",
          "name": "_chainlinkPriceFeed",
          "type": "address"
        },
        {
          "internalType": "string",
          "name": "_name",
          "type": "string"
        },
        {
          "internalType": "string",
          "name": "_symbol",
          "type": "string"
        }
      ],
      "stateMutability": "nonpayable",
      "type": "constructor"
    },
    {
      "anonymous": false,
      "inputs": [
        {
          "indexed": true,
          "internalType": "address",
          "name": "owner",
          "type": "address"
        },
        {
          "indexed": true,
          "internalType": "address",
          "name": "approved",
          "type": "address"
        },
        {
          "indexed": true,
          "internalType": "uint256",
          "name": "tokenId",
          "type": "uint256"
        }
      ],
      "name": "Approval",
      "type": "event"
    },
    {
      "anonymous": false,
      "inputs": [
        {
          "indexed": true,
          "internalType": "address",
          "name": "owner",
          "type": "address"
        },
        {
          "indexed": true,
          "internalType": "address",
          "name": "operator",
          "type": "address"
        },
        {
          "indexed": false,
          "internalType": "bool",
          "name": "approved",
          "type": "bool"
        }
      ],
      "name": "ApprovalForAll",
      "type": "event"
    },
    {
      "anonymous": false,
      "inputs": [
        {
          "indexed": true,
          "internalType": "address",
          "name": "previousOwner",
          "type": "address"
        },
        {
          "indexed": true,
          "internalType": "address",
          "name": "newOwner",
          "type": "address"
        }
      ],
      "name": "OwnershipTransferred",
      "type": "event"
    },
    {
      "anonymous": false,
      "inputs": [
        {
          "indexed": true,
          "internalType": "address",
          "name": "from",
          "type": "address"
        },
        {
          "indexed": true,
          "internalType": "address",
          "name": "to",
          "type": "address"
        },
        {
          "indexed": true,
          "internalType": "uint256",
          "name": "tokenId",
          "type": "uint256"
        }
      ],
      "name": "Transfer",
      "type": "event"
    },
    {
      "inputs": [
        {
          "internalType": "address",
          "name": "to",
          "type": "address"
        },
        {
          "internalType": "uint256",
          "name": "tokenId",
          "type": "uint256"
        }
      ],
      "name": "approve",
      "outputs": [],
      "stateMutability": "nonpayable",
      "type": "function"
    },
    {
      "inputs": [
        {
          "internalType": "address",
          "name": "owner",
          "type": "address"
        }
      ],
      "name": "balanceOf",
      "outputs": [
        {
          "internalType": "uint256",
          "name": "",
          "type": "uint256"
        }
      ],
      "stateMutability": "view",
      "type": "function"
    },
    {
      "inputs": [],
      "name": "chainlinkPriceFeed",
      "outputs": [
        {
          "internalType": "address",
          "name": "",
          "type": "address"
        }
      ],
      "stateMutability": "view",
      "type": "function"
    },
    {
      "inputs": [],
      "name": "closePool",
      "outputs": [],
      "stateMutability": "nonpayable",
      "type": "function"
    },
    {
      "inputs": [],
      "name": "deltaPrice",
      "outputs": [
        {
          "internalType": "uint256",
          "name": "",
          "type": "uint256"
        }
      ],
      "stateMutability": "view",
      "type": "function"
    },
    {
      "inputs": [
        {
          "internalType": "uint256",
          "name": "amount",
          "type": "uint256"
        },
        {
          "internalType": "bool",
          "name": "longShort",
          "type": "bool"
        }
      ],
      "name": "depositFunds",
      "outputs": [
        {
          "internalType": "uint256",
          "name": "_computedRisk",
          "type": "uint256"
        },
        {
          "internalType": "uint256",
          "name": "_alpha",
          "type": "uint256"
        },
        {
          "internalType": "uint256",
          "name": "_standardizedPrice",
          "type": "uint256"
        },
        {
          "internalType": "uint256",
          "name": "_standardizedAmount",
          "type": "uint256"
        }
      ],
      "stateMutability": "nonpayable",
      "type": "function"
    },
    {
      "inputs": [],
      "name": "duration",
      "outputs": [
        {
          "internalType": "uint256",
          "name": "",
          "type": "uint256"
        }
      ],
      "stateMutability": "view",
      "type": "function"
    },
    {
      "inputs": [],
      "name": "endPrice",
      "outputs": [
        {
          "internalType": "uint256",
          "name": "",
          "type": "uint256"
        }
      ],
      "stateMutability": "view",
      "type": "function"
    },
    {
      "inputs": [],
      "name": "finalTime",
      "outputs": [
        {
          "internalType": "uint256",
          "name": "",
          "type": "uint256"
        }
      ],
      "stateMutability": "view",
      "type": "function"
    },
    {
      "inputs": [
        {
          "internalType": "uint256",
          "name": "tokenId",
          "type": "uint256"
        }
      ],
      "name": "getApproved",
      "outputs": [
        {
          "internalType": "address",
          "name": "",
          "type": "address"
        }
      ],
      "stateMutability": "view",
      "type": "function"
    },
    {
      "inputs": [
        {
          "internalType": "uint256",
          "name": "tokenID",
          "type": "uint256"
        }
      ],
      "name": "getReward",
      "outputs": [
        {
          "internalType": "uint256",
          "name": "amountOwedTokenID",
          "type": "uint256"
        }
      ],
      "stateMutability": "nonpayable",
      "type": "function"
    },
    {
      "inputs": [
        {
          "internalType": "address",
          "name": "owner",
          "type": "address"
        },
        {
          "internalType": "address",
          "name": "operator",
          "type": "address"
        }
      ],
      "name": "isApprovedForAll",
      "outputs": [
        {
          "internalType": "bool",
          "name": "",
          "type": "bool"
        }
      ],
      "stateMutability": "view",
      "type": "function"
    },
    {
      "inputs": [],
      "name": "longs",
      "outputs": [
        {
          "internalType": "uint256",
          "name": "",
          "type": "uint256"
        }
      ],
      "stateMutability": "view",
      "type": "function"
    },
    {
      "inputs": [],
      "name": "name",
      "outputs": [
        {
          "internalType": "string",
          "name": "",
          "type": "string"
        }
      ],
      "stateMutability": "view",
      "type": "function"
    },
    {
      "inputs": [],
      "name": "owner",
      "outputs": [
        {
          "internalType": "address",
          "name": "",
          "type": "address"
        }
      ],
      "stateMutability": "view",
      "type": "function"
    },
    {
      "inputs": [
        {
          "internalType": "uint256",
          "name": "tokenId",
          "type": "uint256"
        }
      ],
      "name": "ownerOf",
      "outputs": [
        {
          "internalType": "address",
          "name": "",
          "type": "address"
        }
      ],
      "stateMutability": "view",
      "type": "function"
    },
    {
      "inputs": [],
      "name": "poolIsClosed",
      "outputs": [
        {
          "internalType": "bool",
          "name": "",
          "type": "bool"
        }
      ],
      "stateMutability": "view",
      "type": "function"
    },
    {
      "inputs": [],
      "name": "renounceOwnership",
      "outputs": [],
      "stateMutability": "nonpayable",
      "type": "function"
    },
    {
      "inputs": [
        {
          "internalType": "address",
          "name": "from",
          "type": "address"
        },
        {
          "internalType": "address",
          "name": "to",
          "type": "address"
        },
        {
          "internalType": "uint256",
          "name": "tokenId",
          "type": "uint256"
        }
      ],
      "name": "safeTransferFrom",
      "outputs": [],
      "stateMutability": "nonpayable",
      "type": "function"
    },
    {
      "inputs": [
        {
          "internalType": "address",
          "name": "from",
          "type": "address"
        },
        {
          "internalType": "address",
          "name": "to",
          "type": "address"
        },
        {
          "internalType": "uint256",
          "name": "tokenId",
          "type": "uint256"
        },
        {
          "internalType": "bytes",
          "name": "data",
          "type": "bytes"
        }
      ],
      "name": "safeTransferFrom",
      "outputs": [],
      "stateMutability": "nonpayable",
      "type": "function"
    },
    {
      "inputs": [
        {
          "internalType": "address",
          "name": "operator",
          "type": "address"
        },
        {
          "internalType": "bool",
          "name": "approved",
          "type": "bool"
        }
      ],
      "name": "setApprovalForAll",
      "outputs": [],
      "stateMutability": "nonpayable",
      "type": "function"
    },
    {
      "inputs": [
        {
          "internalType": "address",
          "name": "_strat",
          "type": "address"
        }
      ],
      "name": "setStrategy",
      "outputs": [],
      "stateMutability": "nonpayable",
      "type": "function"
    },
    {
      "inputs": [
        {
          "internalType": "uint256",
          "name": "_amount",
          "type": "uint256"
        },
        {
          "internalType": "uint256",
          "name": "_endPrice",
          "type": "uint256"
        }
      ],
      "name": "setTotalRewardsAndPrice",
      "outputs": [],
      "stateMutability": "nonpayable",
      "type": "function"
    },
    {
      "inputs": [],
      "name": "shorts",
      "outputs": [
        {
          "internalType": "uint256",
          "name": "",
          "type": "uint256"
        }
      ],
      "stateMutability": "view",
      "type": "function"
    },
    {
      "inputs": [],
      "name": "startTime",
      "outputs": [
        {
          "internalType": "uint256",
          "name": "",
          "type": "uint256"
        }
      ],
      "stateMutability": "view",
      "type": "function"
    },
    {
      "inputs": [],
      "name": "strikePrice",
      "outputs": [
        {
          "internalType": "uint256",
          "name": "",
          "type": "uint256"
        }
      ],
      "stateMutability": "view",
      "type": "function"
    },
    {
      "inputs": [],
      "name": "suppliedAsset",
      "outputs": [
        {
          "internalType": "address",
          "name": "",
          "type": "address"
        }
      ],
      "stateMutability": "view",
      "type": "function"
    },
    {
      "inputs": [
        {
          "internalType": "bytes4",
          "name": "interfaceId",
          "type": "bytes4"
        }
      ],
      "name": "supportsInterface",
      "outputs": [
        {
          "internalType": "bool",
          "name": "",
          "type": "bool"
        }
      ],
      "stateMutability": "view",
      "type": "function"
    },
    {
      "inputs": [],
      "name": "symbol",
      "outputs": [
        {
          "internalType": "string",
          "name": "",
          "type": "string"
        }
      ],
      "stateMutability": "view",
      "type": "function"
    },
    {
      "inputs": [],
      "name": "tokenCount",
      "outputs": [
        {
          "internalType": "uint256",
          "name": "",
          "type": "uint256"
        }
      ],
      "stateMutability": "view",
      "type": "function"
    },
    {
      "inputs": [
        {
          "internalType": "uint256",
          "name": "",
          "type": "uint256"
        }
      ],
      "name": "tokenToPosition",
      "outputs": [
        {
          "internalType": "uint256",
          "name": "amount",
          "type": "uint256"
        },
        {
          "internalType": "uint256",
          "name": "timeStamp",
          "type": "uint256"
        },
        {
          "internalType": "uint256",
          "name": "assetPrice",
          "type": "uint256"
        },
        {
          "internalType": "bool",
          "name": "longOrShort",
          "type": "bool"
        },
        {
          "internalType": "uint256",
          "name": "alpha",
          "type": "uint256"
        }
      ],
      "stateMutability": "view",
      "type": "function"
    },
    {
      "inputs": [
        {
          "internalType": "uint256",
          "name": "tokenId",
          "type": "uint256"
        }
      ],
      "name": "tokenURI",
      "outputs": [
        {
          "internalType": "string",
          "name": "",
          "type": "string"
        }
      ],
      "stateMutability": "view",
      "type": "function"
    },
    {
      "inputs": [],
      "name": "totalDeposits",
      "outputs": [
        {
          "internalType": "uint256",
          "name": "",
          "type": "uint256"
        }
      ],
      "stateMutability": "view",
      "type": "function"
    },
    {
      "inputs": [],
      "name": "totalReturnedFromStrat",
      "outputs": [
        {
          "internalType": "uint256",
          "name": "",
          "type": "uint256"
        }
      ],
      "stateMutability": "view",
      "type": "function"
    },
    {
      "inputs": [],
      "name": "totalRewards",
      "outputs": [
        {
          "internalType": "uint256",
          "name": "",
          "type": "uint256"
        }
      ],
      "stateMutability": "view",
      "type": "function"
    },
    {
      "inputs": [
        {
          "internalType": "address",
          "name": "from",
          "type": "address"
        },
        {
          "internalType": "address",
          "name": "to",
          "type": "address"
        },
        {
          "internalType": "uint256",
          "name": "tokenId",
          "type": "uint256"
        }
      ],
      "name": "transferFrom",
      "outputs": [],
      "stateMutability": "nonpayable",
      "type": "function"
    },
    {
      "inputs": [
        {
          "internalType": "address",
          "name": "newOwner",
          "type": "address"
        }
      ],
      "name": "transferOwnership",
      "outputs": [],
      "stateMutability": "nonpayable",
      "type": "function"
    }
  ],
  "bytecode": {
    "object": "0x60806040523480156200001157600080fd5b5060405162002c2238038062002c22833981016040819052620000349162000207565b818160006200004483826200034d565b5060016200005382826200034d565b505050620000706200006a620000cf60201b60201c565b620000d3565b600780546001600160a01b03808a166001600160a01b03199283161790925560088a90556009805492861692909116919091179055600c869055600a859055620000bb868662000419565b600b55505050600f55506200044192505050565b3390565b600680546001600160a01b038381166001600160a01b0319831681179093556040519116919082907f8be0079c531659141344cd1fd0a4f28419497f9722a3daafe3b4186f6b6457e090600090a35050565b80516001600160a01b03811681146200013d57600080fd5b919050565b634e487b7160e01b600052604160045260246000fd5b600082601f8301126200016a57600080fd5b81516001600160401b038082111562000187576200018762000142565b604051601f8301601f19908116603f01168101908282118183101715620001b257620001b262000142565b81604052838152602092508683858801011115620001cf57600080fd5b600091505b83821015620001f35785820183015181830184015290820190620001d4565b600093810190920192909252949350505050565b600080600080600080600080610100898b0312156200022557600080fd5b885197506200023760208a0162000125565b96506040890151955060608901519450608089015193506200025c60a08a0162000125565b60c08a01519093506001600160401b03808211156200027a57600080fd5b620002888c838d0162000158565b935060e08b01519150808211156200029f57600080fd5b50620002ae8b828c0162000158565b9150509295985092959890939650565b600181811c90821680620002d357607f821691505b602082108103620002f457634e487b7160e01b600052602260045260246000fd5b50919050565b601f8211156200034857600081815260208120601f850160051c81016020861015620003235750805b601f850160051c820191505b8181101562000344578281556001016200032f565b5050505b505050565b81516001600160401b0381111562000369576200036962000142565b62000381816200037a8454620002be565b84620002fa565b602080601f831160018114620003b95760008415620003a05750858301515b600019600386901b1c1916600185901b17855562000344565b600085815260208120601f198616915b82811015620003ea57888601518255948401946001909101908401620003c9565b5085821015620004095787850151600019600388901b60f8161c191681555b5050505050600190811b01905550565b808201808211156200043b57634e487b7160e01b600052601160045260246000fd5b92915050565b6127d180620004516000396000f3fe608060405234801561001057600080fd5b50600436106102265760003560e01c806378e9792511610130578063af5260bf116100b8578063c87b56dd1161007c578063c87b56dd146104b1578063d8a2b7f0146104c4578063dbe7f9bd146104d7578063e985e9c5146104e0578063f2fde38b146104f357600080fd5b8063af5260bf14610419578063b868723e14610422578063b88d4fde1461042b578063bd05e9651461043e578063c52987cf146104a857600080fd5b80638da5cb5b116100ff5780638da5cb5b146103db57806395d89b41146103ec5780639f181b5e146103f4578063a22cb465146103fd578063ae7f93e81461041057600080fd5b806378e97925146103ac578063793ebd28146103b55780637d882097146103be5780638327bed3146103c757600080fd5b80631c4b774b116101b35780634a5f0fb0116101825780634a5f0fb0146103635780636352211e1461037657806366805de51461038957806370a0823114610391578063715018a6146103a457600080fd5b80631c4b774b1461031757806323b872dd1461032a57806333a100ca1461033d57806342842e0e1461035057600080fd5b8063095ea7b3116101fa578063095ea7b3146102c65780630e15561a146102db5780630fb5a6b4146102f25780631bc6a79e146102fb5780631c153b811461030457600080fd5b8062a6e7301461022b57806301ffc9a71461026357806306fdde0314610286578063081812fc1461029b575b600080fd5b61023e61023936600461209b565b610506565b6040805194855260208501939093529183015260608201526080015b60405180910390f35b6102766102713660046120e1565b6107bb565b604051901515815260200161025a565b61028e61080d565b60405161025a919061214e565b6102ae6102a9366004612161565b61089f565b6040516001600160a01b03909116815260200161025a565b6102d96102d4366004612191565b6108c6565b005b6102e460115481565b60405190815260200161025a565b6102e4600c5481565b6102e4600f5481565b6102d96103123660046121bb565b6109e0565b6102e4610325366004612161565b6109fd565b6102d96103383660046121dd565b610bb6565b6102d961034b366004612219565b610be7565b6102d961035e3660046121dd565b610c11565b6007546102ae906001600160a01b031681565b6102ae610384366004612161565b610c2c565b6102d9610c8c565b6102e461039f366004612219565b610dda565b6102d9610e60565b6102e4600a5481565b6102e4600d5481565b6102e460145481565b60135461027690600160a01b900460ff1681565b6006546001600160a01b03166102ae565b61028e610e74565b6102e460125481565b6102d961040b366004612234565b610e83565b6102e460155481565b6102e4600b5481565b6102e460105481565b6102d9610439366004612276565b610e8e565b61047e61044c366004612161565b6016602052600090815260409020805460018201546002830154600384015460049094015492939192909160ff169085565b6040805195865260208601949094529284019190915215156060830152608082015260a00161025a565b6102e460085481565b61028e6104bf366004612161565b610ec6565b6009546102ae906001600160a01b031681565b6102e4600e5481565b6102766104ee366004612352565b610f3a565b6102d9610501366004612219565b610f68565b600080600080600a5442101561051b57600080fd5b60095460408051633fabe5a360e21b815290516000926001600160a01b03169163feaf968c9160048083019260a09291908290030181865afa158015610565573d6000803e3d6000fd5b505050506040513d601f19601f82011682018060405250810190610589919061239f565b5050509150506000811361059c57600080fd5b86601460008282546105ae9190612405565b9091555081905060006105c082610fe1565b905060006105ce828a611208565b6007549091506000906105eb908c906001600160a01b03166112a8565b90506000600c5442600b546106009190612418565b61060a858561242b565b610614919061242b565b61061e9190612460565b60128054919250600061063083612474565b909155505060125460008181526016602052604090208d8155426001808301919091556002820187905560038201805460ff19168f15159081179091556004830185905590036106975782600d600082825461068c9190612405565b909155506106b99050565b8c15156000036106b95782600e60008282546106b39190612405565b90915550505b6106e033306106cc87633b9aca0061242b565b6007546001600160a01b031692919061148c565b601354610711906001600160a01b03166106fe86633b9aca0061242b565b6007546001600160a01b031691906114f7565b6013546007546001600160a01b03918216916347e7ef24911661073887633b9aca0061242b565b6040516001600160e01b031960e085901b1681526001600160a01b0390921660048301526024820152604401600060405180830381600087803b15801561077e57600080fd5b505af1158015610792573d6000803e3d6000fd5b505050506107a66107a03390565b8361160c565b50929c909b5092995097509095505050505050565b60006001600160e01b031982166380ac58cd60e01b14806107ec57506001600160e01b03198216635b5e139f60e01b145b8061080757506301ffc9a760e01b6001600160e01b03198316145b92915050565b60606000805461081c9061248d565b80601f01602080910402602001604051908101604052809291908181526020018280546108489061248d565b80156108955780601f1061086a57610100808354040283529160200191610895565b820191906000526020600020905b81548152906001019060200180831161087857829003601f168201915b5050505050905090565b60006108aa82611626565b506000908152600460205260409020546001600160a01b031690565b60006108d182610c2c565b9050806001600160a01b0316836001600160a01b0316036109435760405162461bcd60e51b815260206004820152602160248201527f4552433732313a20617070726f76616c20746f2063757272656e74206f776e656044820152603960f91b60648201526084015b60405180910390fd5b336001600160a01b038216148061095f575061095f8133610f3a565b6109d15760405162461bcd60e51b815260206004820152603e60248201527f4552433732313a20617070726f76652063616c6c6572206973206e6f7420746f60448201527f6b656e206f776e6572206e6f7220617070726f76656420666f7220616c6c0000606482015260840161093a565b6109db8383611685565b505050565b81601160008282546109f29190612405565b909155505060105550565b6000600b5442118015610a1e5750601354600160a01b900460ff1615156001145b610a2757600080fd5b33610a3183610c2c565b6001600160a01b031614610a875760405162461bcd60e51b815260206004820152601d60248201527f75736572206973206e6f74204f776e6572206f6620746f6b656e204944000000604482015260640161093a565b60155415610ad757601454601554600084815260166020526040902054610aae919061242b565b610ab89190612460565b9050610ad2335b6007546001600160a01b031690836116f3565b919050565b60085460105410158015610b01575060008281526016602052604090206003015460ff1615156001145b15610b3757600082815260166020526040902060040154600d54601154610b2990839061242b565b610b339190612460565b9150505b600854601054108015610b5c575060008281526016602052604090206003015460ff16155b15610b9257600082815260166020526040902060040154600e54601154610b8490839061242b565b610b8e9190612460565b9150505b600082815260166020526040902054610bab9082612405565b9050610ad233610abf565b610bc03382611723565b610bdc5760405162461bcd60e51b815260040161093a906124c7565b6109db838383611782565b610bef61191e565b601380546001600160a01b0319166001600160a01b0392909216919091179055565b6109db83838360405180602001604052806000815250610e8e565b6000818152600260205260408120546001600160a01b0316806108075760405162461bcd60e51b8152602060048201526018602482015277115490cdcc8c4e881a5b9d985b1a59081d1bdad95b88125160421b604482015260640161093a565b610c9461191e565b600b544211610ca257600080fd5b6013805460ff60a01b1916600160a01b17905560095460408051633fabe5a360e21b815290516000926001600160a01b03169163feaf968c9160048083019260a09291908290030181865afa158015610cff573d6000803e3d6000fd5b505050506040513d601f19601f82011682018060405250810190610d23919061239f565b50505091505060008113610d3657600080fd5b601081905560135460408051633ccfd60b60e01b815290516000926001600160a01b031691633ccfd60b916004808301926020929190829003018187875af1158015610d86573d6000803e3d6000fd5b505050506040513d601f19601f82011682018060405250810190610daa9190612515565b90506014548111610dbb5760155550565b601454811115610dd657601454610dd29082612418565b6011555b5050565b60006001600160a01b038216610e445760405162461bcd60e51b815260206004820152602960248201527f4552433732313a2061646472657373207a65726f206973206e6f7420612076616044820152683634b21037bbb732b960b91b606482015260840161093a565b506001600160a01b031660009081526003602052604090205490565b610e6861191e565b610e726000611978565b565b60606001805461081c9061248d565b610dd63383836119ca565b610e983383611723565b610eb45760405162461bcd60e51b815260040161093a906124c7565b610ec084848484611a98565b50505050565b6060610ed182611626565b6000610ee860408051602081019091526000815290565b90506000815111610f085760405180602001604052806000815250610f33565b80610f1284611acb565b604051602001610f2392919061252e565b6040516020818303038152906040525b9392505050565b6001600160a01b03918216600090815260056020908152604080832093909416825291909152205460ff1690565b610f7061191e565b6001600160a01b038116610fd55760405162461bcd60e51b815260206004820152602660248201527f4f776e61626c653a206e6577206f776e657220697320746865207a65726f206160448201526564647265737360d01b606482015260840161093a565b610fde81611978565b50565b600980546040805163313ce56760e01b815290518493926001600160a01b03169163313ce5679160048083019260209291908290030181865afa15801561102c573d6000803e3d6000fd5b505050506040513d601f19601f82011682018060405250810190611050919061255d565b60ff1610156110f057600960009054906101000a90046001600160a01b03166001600160a01b031663313ce5676040518163ffffffff1660e01b8152600401602060405180830381865afa1580156110ac573d6000803e3d6000fd5b505050506040513d601f19601f820116820180604052508101906110d0919061255d565b6110db906009612580565b6110e690600a61267d565b610807908261242b565b60098060009054906101000a90046001600160a01b03166001600160a01b031663313ce5676040518163ffffffff1660e01b8152600401602060405180830381865afa158015611144573d6000803e3d6000fd5b505050506040513d601f19601f82011682018060405250810190611168919061255d565b60ff161115610ad25760098060009054906101000a90046001600160a01b03166001600160a01b031663313ce5676040518163ffffffff1660e01b8152600401602060405180830381865afa1580156111c5573d6000803e3d6000fd5b505050506040513d601f19601f820116820180604052508101906111e9919061255d565b6111f39190612580565b6111fe90600a61267d565b6108079082612460565b6000811515600103611270576008548311156112295750633b9aca00610807565b600854831161127057600f54836008546112439190612418565b61125190633b9aca0061242b565b61125b9190612460565b61126990633b9aca00612405565b9050610807565b8115156000036108075782600854111561128f5750633b9aca00610807565b826008541161080757600f546008546112439085612418565b60008290506009826001600160a01b031663313ce5676040518163ffffffff1660e01b8152600401602060405180830381865afa1580156112ed573d6000803e3d6000fd5b505050506040513d601f19601f82011682018060405250810190611311919061255d565b60ff16101561139c57816001600160a01b031663313ce5676040518163ffffffff1660e01b8152600401602060405180830381865afa158015611358573d6000803e3d6000fd5b505050506040513d601f19601f8201168201806040525081019061137c919061255d565b611387906012612580565b61139290600a61267d565b611269908261242b565b6009826001600160a01b031663313ce5676040518163ffffffff1660e01b8152600401602060405180830381865afa1580156113dc573d6000803e3d6000fd5b505050506040513d601f19601f82011682018060405250810190611400919061255d565b60ff161115610807576009826001600160a01b031663313ce5676040518163ffffffff1660e01b8152600401602060405180830381865afa158015611449573d6000803e3d6000fd5b505050506040513d601f19601f8201168201806040525081019061146d919061255d565b6114779190612580565b61148290600a61267d565b610f339082612460565b6040516001600160a01b0380851660248301528316604482015260648101829052610ec09085906323b872dd60e01b906084015b60408051601f198184030181529190526020810180516001600160e01b03166001600160e01b031990931692909217909152611bcc565b8015806115715750604051636eb1769f60e11b81523060048201526001600160a01b03838116602483015284169063dd62ed3e90604401602060405180830381865afa15801561154b573d6000803e3d6000fd5b505050506040513d601f19601f8201168201806040525081019061156f9190612515565b155b6115dc5760405162461bcd60e51b815260206004820152603660248201527f5361666545524332303a20617070726f76652066726f6d206e6f6e2d7a65726f60448201527520746f206e6f6e2d7a65726f20616c6c6f77616e636560501b606482015260840161093a565b6040516001600160a01b0383166024820152604481018290526109db90849063095ea7b360e01b906064016114c0565b610dd6828260405180602001604052806000815250611c9e565b6000818152600260205260409020546001600160a01b0316610fde5760405162461bcd60e51b8152602060048201526018602482015277115490cdcc8c4e881a5b9d985b1a59081d1bdad95b88125160421b604482015260640161093a565b600081815260046020526040902080546001600160a01b0319166001600160a01b03841690811790915581906116ba82610c2c565b6001600160a01b03167f8c5be1e5ebec7d5bd14f71427d1e84f3dd0314c0f7b2291e5b200ac8c7c3b92560405160405180910390a45050565b6040516001600160a01b0383166024820152604481018290526109db90849063a9059cbb60e01b906064016114c0565b60008061172f83610c2c565b9050806001600160a01b0316846001600160a01b0316148061175657506117568185610f3a565b8061177a5750836001600160a01b031661176f8461089f565b6001600160a01b0316145b949350505050565b826001600160a01b031661179582610c2c565b6001600160a01b0316146117f95760405162461bcd60e51b815260206004820152602560248201527f4552433732313a207472616e736665722066726f6d20696e636f72726563742060448201526437bbb732b960d91b606482015260840161093a565b6001600160a01b03821661185b5760405162461bcd60e51b8152602060048201526024808201527f4552433732313a207472616e7366657220746f20746865207a65726f206164646044820152637265737360e01b606482015260840161093a565b611866600082611685565b6001600160a01b038316600090815260036020526040812080546001929061188f908490612418565b90915550506001600160a01b03821660009081526003602052604081208054600192906118bd908490612405565b909155505060008181526002602052604080822080546001600160a01b0319166001600160a01b0386811691821790925591518493918716917fddf252ad1be2c89b69c2b068fc378daa952ba7f163c4a11628f55a4df523b3ef91a4505050565b6006546001600160a01b03163314610e725760405162461bcd60e51b815260206004820181905260248201527f4f776e61626c653a2063616c6c6572206973206e6f7420746865206f776e6572604482015260640161093a565b600680546001600160a01b038381166001600160a01b0319831681179093556040519116919082907f8be0079c531659141344cd1fd0a4f28419497f9722a3daafe3b4186f6b6457e090600090a35050565b816001600160a01b0316836001600160a01b031603611a2b5760405162461bcd60e51b815260206004820152601960248201527f4552433732313a20617070726f766520746f2063616c6c657200000000000000604482015260640161093a565b6001600160a01b03838116600081815260056020908152604080832094871680845294825291829020805460ff191686151590811790915591519182527f17307eab39ab6107e8899845ad3d59bd9653f200f220920489ca2b5937696c31910160405180910390a3505050565b611aa3848484611782565b611aaf84848484611cd1565b610ec05760405162461bcd60e51b815260040161093a9061268c565b606081600003611af25750506040805180820190915260018152600360fc1b602082015290565b8160005b8115611b1c5780611b0681612474565b9150611b159050600a83612460565b9150611af6565b60008167ffffffffffffffff811115611b3757611b37612260565b6040519080825280601f01601f191660200182016040528015611b61576020820181803683370190505b5090505b841561177a57611b76600183612418565b9150611b83600a866126de565b611b8e906030612405565b60f81b818381518110611ba357611ba36126f2565b60200101906001600160f81b031916908160001a905350611bc5600a86612460565b9450611b65565b6000611c21826040518060400160405280602081526020017f5361666545524332303a206c6f772d6c6576656c2063616c6c206661696c6564815250856001600160a01b0316611dd29092919063ffffffff16565b8051909150156109db5780806020019051810190611c3f9190612708565b6109db5760405162461bcd60e51b815260206004820152602a60248201527f5361666545524332303a204552433230206f7065726174696f6e20646964206e6044820152691bdd081cdd58d8d9595960b21b606482015260840161093a565b611ca88383611de1565b611cb56000848484611cd1565b6109db5760405162461bcd60e51b815260040161093a9061268c565b60006001600160a01b0384163b15611dc757604051630a85bd0160e11b81526001600160a01b0385169063150b7a0290611d15903390899088908890600401612725565b6020604051808303816000875af1925050508015611d50575060408051601f3d908101601f19168201909252611d4d91810190612762565b60015b611dad573d808015611d7e576040519150601f19603f3d011682016040523d82523d6000602084013e611d83565b606091505b508051600003611da55760405162461bcd60e51b815260040161093a9061268c565b805181602001fd5b6001600160e01b031916630a85bd0160e11b14905061177a565b506001949350505050565b606061177a8484600085611f23565b6001600160a01b038216611e375760405162461bcd60e51b815260206004820181905260248201527f4552433732313a206d696e7420746f20746865207a65726f2061646472657373604482015260640161093a565b6000818152600260205260409020546001600160a01b031615611e9c5760405162461bcd60e51b815260206004820152601c60248201527f4552433732313a20746f6b656e20616c7265616479206d696e74656400000000604482015260640161093a565b6001600160a01b0382166000908152600360205260408120805460019290611ec5908490612405565b909155505060008181526002602052604080822080546001600160a01b0319166001600160a01b03861690811790915590518392907fddf252ad1be2c89b69c2b068fc378daa952ba7f163c4a11628f55a4df523b3ef908290a45050565b606082471015611f845760405162461bcd60e51b815260206004820152602660248201527f416464726573733a20696e73756666696369656e742062616c616e636520666f6044820152651c8818d85b1b60d21b606482015260840161093a565b6001600160a01b0385163b611fdb5760405162461bcd60e51b815260206004820152601d60248201527f416464726573733a2063616c6c20746f206e6f6e2d636f6e7472616374000000604482015260640161093a565b600080866001600160a01b03168587604051611ff7919061277f565b60006040518083038185875af1925050503d8060008114612034576040519150601f19603f3d011682016040523d82523d6000602084013e612039565b606091505b5091509150612049828286612054565b979650505050505050565b60608315612063575081610f33565b8251156120735782518084602001fd5b8160405162461bcd60e51b815260040161093a919061214e565b8015158114610fde57600080fd5b600080604083850312156120ae57600080fd5b8235915060208301356120c08161208d565b809150509250929050565b6001600160e01b031981168114610fde57600080fd5b6000602082840312156120f357600080fd5b8135610f33816120cb565b60005b83811015612119578181015183820152602001612101565b50506000910152565b6000815180845261213a8160208601602086016120fe565b601f01601f19169290920160200192915050565b602081526000610f336020830184612122565b60006020828403121561217357600080fd5b5035919050565b80356001600160a01b0381168114610ad257600080fd5b600080604083850312156121a457600080fd5b6121ad8361217a565b946020939093013593505050565b600080604083850312156121ce57600080fd5b50508035926020909101359150565b6000806000606084860312156121f257600080fd5b6121fb8461217a565b92506122096020850161217a565b9150604084013590509250925092565b60006020828403121561222b57600080fd5b610f338261217a565b6000806040838503121561224757600080fd5b6122508361217a565b915060208301356120c08161208d565b634e487b7160e01b600052604160045260246000fd5b6000806000806080858703121561228c57600080fd5b6122958561217a565b93506122a36020860161217a565b925060408501359150606085013567ffffffffffffffff808211156122c757600080fd5b818701915087601f8301126122db57600080fd5b8135818111156122ed576122ed612260565b604051601f8201601f19908116603f0116810190838211818310171561231557612315612260565b816040528281528a602084870101111561232e57600080fd5b82602086016020830137600060208483010152809550505050505092959194509250565b6000806040838503121561236557600080fd5b61236e8361217a565b915061237c6020840161217a565b90509250929050565b805169ffffffffffffffffffff81168114610ad257600080fd5b600080600080600060a086880312156123b757600080fd5b6123c086612385565b94506020860151935060408601519250606086015191506123e360808701612385565b90509295509295909350565b634e487b7160e01b600052601160045260246000fd5b80820180821115610807576108076123ef565b81810381811115610807576108076123ef565b6000816000190483118215151615612445576124456123ef565b500290565b634e487b7160e01b600052601260045260246000fd5b60008261246f5761246f61244a565b500490565b600060018201612486576124866123ef565b5060010190565b600181811c908216806124a157607f821691505b6020821081036124c157634e487b7160e01b600052602260045260246000fd5b50919050565b6020808252602e908201527f4552433732313a2063616c6c6572206973206e6f7420746f6b656e206f776e6560408201526d1c881b9bdc88185c1c1c9bdd995960921b606082015260800190565b60006020828403121561252757600080fd5b5051919050565b600083516125408184602088016120fe565b8351908301906125548183602088016120fe565b01949350505050565b60006020828403121561256f57600080fd5b815160ff81168114610f3357600080fd5b60ff8281168282160390811115610807576108076123ef565b600181815b808511156125d45781600019048211156125ba576125ba6123ef565b808516156125c757918102915b93841c939080029061259e565b509250929050565b6000826125eb57506001610807565b816125f857506000610807565b816001811461260e576002811461261857612634565b6001915050610807565b60ff841115612629576126296123ef565b50506001821b610807565b5060208310610133831016604e8410600b8410161715612657575081810a610807565b6126618383612599565b8060001904821115612675576126756123ef565b029392505050565b6000610f3360ff8416836125dc565b60208082526032908201527f4552433732313a207472616e7366657220746f206e6f6e20455243373231526560408201527131b2b4bb32b91034b6b83632b6b2b73a32b960711b606082015260800190565b6000826126ed576126ed61244a565b500690565b634e487b7160e01b600052603260045260246000fd5b60006020828403121561271a57600080fd5b8151610f338161208d565b6001600160a01b038581168252841660208201526040810183905260806060820181905260009061275890830184612122565b9695505050505050565b60006020828403121561277457600080fd5b8151610f33816120cb565b600082516127918184602087016120fe565b919091019291505056fea264697066735822122070351c1a4c74421050f7e261c05c22d985e86c111ddfbea3c52e48d79c11a83b64736f6c63430008100033",
    "linkReferences": {}
  },
  "methodIdentifiers": {
    "approve(address,uint256)": "095ea7b3",
    "balanceOf(address)": "70a08231",
    "chainlinkPriceFeed()": "d8a2b7f0",
    "closePool()": "66805de5",
    "deltaPrice()": "1bc6a79e",
    "depositFunds(uint256,bool)": "00a6e730",
    "duration()": "0fb5a6b4",
    "endPrice()": "b868723e",
    "finalTime()": "af5260bf",
    "getApproved(uint256)": "081812fc",
    "getReward(uint256)": "1c4b774b",
    "isApprovedForAll(address,address)": "e985e9c5",
    "longs()": "793ebd28",
    "name()": "06fdde03",
    "owner()": "8da5cb5b",
    "ownerOf(uint256)": "6352211e",
    "poolIsClosed()": "8327bed3",
    "renounceOwnership()": "715018a6",
    "safeTransferFrom(address,address,uint256)": "42842e0e",
    "safeTransferFrom(address,address,uint256,bytes)": "b88d4fde",
    "setApprovalForAll(address,bool)": "a22cb465",
    "setStrategy(address)": "33a100ca",
    "setTotalRewardsAndPrice(uint256,uint256)": "1c153b81",
    "shorts()": "dbe7f9bd",
    "startTime()": "78e97925",
    "strikePrice()": "c52987cf",
    "suppliedAsset()": "4a5f0fb0",
    "supportsInterface(bytes4)": "01ffc9a7",
    "symbol()": "95d89b41",
    "tokenCount()": "9f181b5e",
    "tokenToPosition(uint256)": "bd05e965",
    "tokenURI(uint256)": "c87b56dd",
    "totalDeposits()": "7d882097",
    "totalReturnedFromStrat()": "ae7f93e8",
    "totalRewards()": "0e15561a",
    "transferFrom(address,address,uint256)": "23b872dd",
    "transferOwnership(address)": "f2fde38b"
  },
  "id": 0
}