{
  "abi": [
    {
      "inputs": [
        {
          "internalType": "uint256",
          "name": "_strikePrice",
          "type": "uint256"
        },
        {
          "internalType": "address",
          "name": "_asset",
          "type": "address"
        },
        {
          "internalType": "uint256",
          "name": "_duration",
          "type": "uint256"
        },
        {
          "internalType": "uint256",
          "name": "_startTime",
          "type": "uint256"
        },
        {
          "internalType": "uint256",
          "name": "_deltaPrice",
          "type": "uint256"
        },
        {
          "internalType": "address",
          "name": "_chainlinkPriceFeed",
          "type": "address"
        },
        {
          "internalType": "uint256",
          "name": "_fees",
          "type": "uint256"
        },
        {
          "internalType": "string",
          "name": "_name",
          "type": "string"
        },
        {
          "internalType": "string",
          "name": "_symbol",
          "type": "string"
        }
      ],
      "stateMutability": "nonpayable",
      "type": "constructor"
    },
    {
      "anonymous": false,
      "inputs": [
        {
          "indexed": true,
          "internalType": "address",
          "name": "owner",
          "type": "address"
        },
        {
          "indexed": true,
          "internalType": "address",
          "name": "approved",
          "type": "address"
        },
        {
          "indexed": true,
          "internalType": "uint256",
          "name": "tokenId",
          "type": "uint256"
        }
      ],
      "name": "Approval",
      "type": "event"
    },
    {
      "anonymous": false,
      "inputs": [
        {
          "indexed": true,
          "internalType": "address",
          "name": "owner",
          "type": "address"
        },
        {
          "indexed": true,
          "internalType": "address",
          "name": "operator",
          "type": "address"
        },
        {
          "indexed": false,
          "internalType": "bool",
          "name": "approved",
          "type": "bool"
        }
      ],
      "name": "ApprovalForAll",
      "type": "event"
    },
    {
      "anonymous": false,
      "inputs": [
        {
          "indexed": true,
          "internalType": "address",
          "name": "previousOwner",
          "type": "address"
        },
        {
          "indexed": true,
          "internalType": "address",
          "name": "newOwner",
          "type": "address"
        }
      ],
      "name": "OwnershipTransferred",
      "type": "event"
    },
    {
      "anonymous": false,
      "inputs": [
        {
          "indexed": true,
          "internalType": "address",
          "name": "from",
          "type": "address"
        },
        {
          "indexed": true,
          "internalType": "address",
          "name": "to",
          "type": "address"
        },
        {
          "indexed": true,
          "internalType": "uint256",
          "name": "tokenId",
          "type": "uint256"
        }
      ],
      "name": "Transfer",
      "type": "event"
    },
    {
      "inputs": [
        {
          "internalType": "bool",
          "name": "_longOrShort",
          "type": "bool"
        }
      ],
      "name": "actualAPY",
      "outputs": [
        {
          "internalType": "uint256",
          "name": "_apy",
          "type": "uint256"
        }
      ],
      "stateMutability": "nonpayable",
      "type": "function"
    },
    {
      "inputs": [],
      "name": "alphaLongs",
      "outputs": [
        {
          "internalType": "uint256",
          "name": "",
          "type": "uint256"
        }
      ],
      "stateMutability": "view",
      "type": "function"
    },
    {
      "inputs": [],
      "name": "alphaShorts",
      "outputs": [
        {
          "internalType": "uint256",
          "name": "",
          "type": "uint256"
        }
      ],
      "stateMutability": "view",
      "type": "function"
    },
    {
      "inputs": [
        {
          "internalType": "address",
          "name": "to",
          "type": "address"
        },
        {
          "internalType": "uint256",
          "name": "tokenId",
          "type": "uint256"
        }
      ],
      "name": "approve",
      "outputs": [],
      "stateMutability": "nonpayable",
      "type": "function"
    },
    {
      "inputs": [
        {
          "internalType": "address",
          "name": "owner",
          "type": "address"
        }
      ],
      "name": "balanceOf",
      "outputs": [
        {
          "internalType": "uint256",
          "name": "",
          "type": "uint256"
        }
      ],
      "stateMutability": "view",
      "type": "function"
    },
    {
      "inputs": [],
      "name": "chainlinkPriceFeed",
      "outputs": [
        {
          "internalType": "address",
          "name": "",
          "type": "address"
        }
      ],
      "stateMutability": "view",
      "type": "function"
    },
    {
      "inputs": [],
      "name": "closePool",
      "outputs": [],
      "stateMutability": "nonpayable",
      "type": "function"
    },
    {
      "inputs": [],
      "name": "deltaPrice",
      "outputs": [
        {
          "internalType": "uint256",
          "name": "",
          "type": "uint256"
        }
      ],
      "stateMutability": "view",
      "type": "function"
    },
    {
      "inputs": [
        {
          "internalType": "uint256",
          "name": "amount",
          "type": "uint256"
        },
        {
          "internalType": "bool",
          "name": "longShort",
          "type": "bool"
        }
      ],
      "name": "depositFunds",
      "outputs": [
        {
          "internalType": "uint256",
          "name": "_computedRisk",
          "type": "uint256"
        },
        {
          "internalType": "uint256",
          "name": "_alpha",
          "type": "uint256"
        },
        {
          "internalType": "uint256",
          "name": "_standardizedPrice",
          "type": "uint256"
        },
        {
          "internalType": "uint256",
          "name": "_standardizedAmount",
          "type": "uint256"
        }
      ],
      "stateMutability": "nonpayable",
      "type": "function"
    },
    {
      "inputs": [],
      "name": "duration",
      "outputs": [
        {
          "internalType": "uint256",
          "name": "",
          "type": "uint256"
        }
      ],
      "stateMutability": "view",
      "type": "function"
    },
    {
      "inputs": [],
      "name": "endPrice",
      "outputs": [
        {
          "internalType": "uint256",
          "name": "",
          "type": "uint256"
        }
      ],
      "stateMutability": "view",
      "type": "function"
    },
    {
      "inputs": [],
      "name": "expectedAPY_longs",
      "outputs": [
        {
          "internalType": "uint256",
          "name": "_apy",
          "type": "uint256"
        }
      ],
      "stateMutability": "nonpayable",
      "type": "function"
    },
    {
      "inputs": [],
      "name": "expectedAPY_shorts",
      "outputs": [
        {
          "internalType": "uint256",
          "name": "_apy",
          "type": "uint256"
        }
      ],
      "stateMutability": "nonpayable",
      "type": "function"
    },
    {
      "inputs": [],
      "name": "finalTime",
      "outputs": [
        {
          "internalType": "uint256",
          "name": "",
          "type": "uint256"
        }
      ],
      "stateMutability": "view",
      "type": "function"
    },
    {
      "inputs": [
        {
          "internalType": "uint256",
          "name": "tokenId",
          "type": "uint256"
        }
      ],
      "name": "getApproved",
      "outputs": [
        {
          "internalType": "address",
          "name": "",
          "type": "address"
        }
      ],
      "stateMutability": "view",
      "type": "function"
    },
    {
      "inputs": [
        {
          "internalType": "uint256",
          "name": "tokenID",
          "type": "uint256"
        }
      ],
      "name": "getReward",
      "outputs": [
        {
          "internalType": "uint256",
          "name": "_amountOwed",
          "type": "uint256"
        }
      ],
      "stateMutability": "nonpayable",
      "type": "function"
    },
    {
      "inputs": [
        {
          "internalType": "address",
          "name": "owner",
          "type": "address"
        },
        {
          "internalType": "address",
          "name": "operator",
          "type": "address"
        }
      ],
      "name": "isApprovedForAll",
      "outputs": [
        {
          "internalType": "bool",
          "name": "",
          "type": "bool"
        }
      ],
      "stateMutability": "view",
      "type": "function"
    },
    {
      "inputs": [],
      "name": "name",
      "outputs": [
        {
          "internalType": "string",
          "name": "",
          "type": "string"
        }
      ],
      "stateMutability": "view",
      "type": "function"
    },
    {
      "inputs": [],
      "name": "owner",
      "outputs": [
        {
          "internalType": "address",
          "name": "",
          "type": "address"
        }
      ],
      "stateMutability": "view",
      "type": "function"
    },
    {
      "inputs": [
        {
          "internalType": "uint256",
          "name": "tokenId",
          "type": "uint256"
        }
      ],
      "name": "ownerOf",
      "outputs": [
        {
          "internalType": "address",
          "name": "",
          "type": "address"
        }
      ],
      "stateMutability": "view",
      "type": "function"
    },
    {
      "inputs": [],
      "name": "poolIsClosed",
      "outputs": [
        {
          "internalType": "bool",
          "name": "",
          "type": "bool"
        }
      ],
      "stateMutability": "view",
      "type": "function"
    },
    {
      "inputs": [],
      "name": "renounceOwnership",
      "outputs": [],
      "stateMutability": "nonpayable",
      "type": "function"
    },
    {
      "inputs": [
        {
          "internalType": "address",
          "name": "from",
          "type": "address"
        },
        {
          "internalType": "address",
          "name": "to",
          "type": "address"
        },
        {
          "internalType": "uint256",
          "name": "tokenId",
          "type": "uint256"
        }
      ],
      "name": "safeTransferFrom",
      "outputs": [],
      "stateMutability": "nonpayable",
      "type": "function"
    },
    {
      "inputs": [
        {
          "internalType": "address",
          "name": "from",
          "type": "address"
        },
        {
          "internalType": "address",
          "name": "to",
          "type": "address"
        },
        {
          "internalType": "uint256",
          "name": "tokenId",
          "type": "uint256"
        },
        {
          "internalType": "bytes",
          "name": "data",
          "type": "bytes"
        }
      ],
      "name": "safeTransferFrom",
      "outputs": [],
      "stateMutability": "nonpayable",
      "type": "function"
    },
    {
      "inputs": [
        {
          "internalType": "address",
          "name": "operator",
          "type": "address"
        },
        {
          "internalType": "bool",
          "name": "approved",
          "type": "bool"
        }
      ],
      "name": "setApprovalForAll",
      "outputs": [],
      "stateMutability": "nonpayable",
      "type": "function"
    },
    {
      "inputs": [
        {
          "internalType": "address",
          "name": "_strat",
          "type": "address"
        }
      ],
      "name": "setStrategy",
      "outputs": [],
      "stateMutability": "nonpayable",
      "type": "function"
    },
    {
      "inputs": [
        {
          "internalType": "uint256",
          "name": "_amount",
          "type": "uint256"
        },
        {
          "internalType": "uint256",
          "name": "_endPrice",
          "type": "uint256"
        }
      ],
      "name": "setTotalRewardsAndPrice",
      "outputs": [],
      "stateMutability": "nonpayable",
      "type": "function"
    },
    {
      "inputs": [],
      "name": "startTime",
      "outputs": [
        {
          "internalType": "uint256",
          "name": "",
          "type": "uint256"
        }
      ],
      "stateMutability": "view",
      "type": "function"
    },
    {
      "inputs": [],
      "name": "strikePrice",
      "outputs": [
        {
          "internalType": "uint256",
          "name": "",
          "type": "uint256"
        }
      ],
      "stateMutability": "view",
      "type": "function"
    },
    {
      "inputs": [],
      "name": "suppliedAsset",
      "outputs": [
        {
          "internalType": "address",
          "name": "",
          "type": "address"
        }
      ],
      "stateMutability": "view",
      "type": "function"
    },
    {
      "inputs": [
        {
          "internalType": "bytes4",
          "name": "interfaceId",
          "type": "bytes4"
        }
      ],
      "name": "supportsInterface",
      "outputs": [
        {
          "internalType": "bool",
          "name": "",
          "type": "bool"
        }
      ],
      "stateMutability": "view",
      "type": "function"
    },
    {
      "inputs": [],
      "name": "symbol",
      "outputs": [
        {
          "internalType": "string",
          "name": "",
          "type": "string"
        }
      ],
      "stateMutability": "view",
      "type": "function"
    },
    {
      "inputs": [],
      "name": "tokenCount",
      "outputs": [
        {
          "internalType": "uint256",
          "name": "",
          "type": "uint256"
        }
      ],
      "stateMutability": "view",
      "type": "function"
    },
    {
      "inputs": [
        {
          "internalType": "uint256",
          "name": "",
          "type": "uint256"
        }
      ],
      "name": "tokenToPosition",
      "outputs": [
        {
          "internalType": "uint256",
          "name": "amount",
          "type": "uint256"
        },
        {
          "internalType": "uint256",
          "name": "timeStamp",
          "type": "uint256"
        },
        {
          "internalType": "uint256",
          "name": "assetPrice",
          "type": "uint256"
        },
        {
          "internalType": "bool",
          "name": "longOrShort",
          "type": "bool"
        },
        {
          "internalType": "uint256",
          "name": "alpha",
          "type": "uint256"
        }
      ],
      "stateMutability": "view",
      "type": "function"
    },
    {
      "inputs": [
        {
          "internalType": "uint256",
          "name": "tokenId",
          "type": "uint256"
        }
      ],
      "name": "tokenURI",
      "outputs": [
        {
          "internalType": "string",
          "name": "",
          "type": "string"
        }
      ],
      "stateMutability": "view",
      "type": "function"
    },
    {
      "inputs": [],
      "name": "totalDeposits",
      "outputs": [
        {
          "internalType": "uint256",
          "name": "",
          "type": "uint256"
        }
      ],
      "stateMutability": "view",
      "type": "function"
    },
    {
      "inputs": [],
      "name": "totalDepositsLONG",
      "outputs": [
        {
          "internalType": "uint256",
          "name": "",
          "type": "uint256"
        }
      ],
      "stateMutability": "view",
      "type": "function"
    },
    {
      "inputs": [],
      "name": "totalDepositsSHORT",
      "outputs": [
        {
          "internalType": "uint256",
          "name": "",
          "type": "uint256"
        }
      ],
      "stateMutability": "view",
      "type": "function"
    },
    {
      "inputs": [],
      "name": "totalReturnedFromStrat",
      "outputs": [
        {
          "internalType": "uint256",
          "name": "",
          "type": "uint256"
        }
      ],
      "stateMutability": "view",
      "type": "function"
    },
    {
      "inputs": [],
      "name": "totalRewards",
      "outputs": [
        {
          "internalType": "uint256",
          "name": "",
          "type": "uint256"
        }
      ],
      "stateMutability": "view",
      "type": "function"
    },
    {
      "inputs": [
        {
          "internalType": "address",
          "name": "from",
          "type": "address"
        },
        {
          "internalType": "address",
          "name": "to",
          "type": "address"
        },
        {
          "internalType": "uint256",
          "name": "tokenId",
          "type": "uint256"
        }
      ],
      "name": "transferFrom",
      "outputs": [],
      "stateMutability": "nonpayable",
      "type": "function"
    },
    {
      "inputs": [
        {
          "internalType": "address",
          "name": "newOwner",
          "type": "address"
        }
      ],
      "name": "transferOwnership",
      "outputs": [],
      "stateMutability": "nonpayable",
      "type": "function"
    },
    {
      "inputs": [],
      "name": "withdrawFees",
      "outputs": [
        {
          "internalType": "uint256",
          "name": "",
          "type": "uint256"
        }
      ],
      "stateMutability": "view",
      "type": "function"
    }
  ],
  "bytecode": {
    "object": "0x60806040523480156200001157600080fd5b506040516200304f3803806200304f83398101604081905262000034916200020d565b818160006200004483826200035d565b5060016200005382826200035d565b505050620000706200006a620000d560201b60201c565b620000d9565b600780546001600160a01b03808b166001600160a01b03199283161790925560088b90556009805492871692909116919091179055600c879055600a869055620000bb878762000429565b600b555050600f9290925550601855506200045192505050565b3390565b600680546001600160a01b038381166001600160a01b0319831681179093556040519116919082907f8be0079c531659141344cd1fd0a4f28419497f9722a3daafe3b4186f6b6457e090600090a35050565b80516001600160a01b03811681146200014357600080fd5b919050565b634e487b7160e01b600052604160045260246000fd5b600082601f8301126200017057600080fd5b81516001600160401b03808211156200018d576200018d62000148565b604051601f8301601f19908116603f01168101908282118183101715620001b857620001b862000148565b81604052838152602092508683858801011115620001d557600080fd5b600091505b83821015620001f95785820183015181830184015290820190620001da565b600093810190920192909252949350505050565b60008060008060008060008060006101208a8c0312156200022d57600080fd5b895198506200023f60208b016200012b565b975060408a0151965060608a0151955060808a015194506200026460a08b016200012b565b60c08b015160e08c015191955093506001600160401b03808211156200028957600080fd5b620002978d838e016200015e565b93506101008c0151915080821115620002af57600080fd5b50620002be8c828d016200015e565b9150509295985092959850929598565b600181811c90821680620002e357607f821691505b6020821081036200030457634e487b7160e01b600052602260045260246000fd5b50919050565b601f8211156200035857600081815260208120601f850160051c81016020861015620003335750805b601f850160051c820191505b8181101562000354578281556001016200033f565b5050505b505050565b81516001600160401b0381111562000379576200037962000148565b62000391816200038a8454620002ce565b846200030a565b602080601f831160018114620003c95760008415620003b05750858301515b600019600386901b1c1916600185901b17855562000354565b600085815260208120601f198616915b82811015620003fa57888601518255948401946001909101908401620003d9565b5085821015620004195787850151600019600388901b60f8161c191681555b5050505050600190811b01905550565b808201808211156200044b57634e487b7160e01b600052601160045260246000fd5b92915050565b612bee80620004616000396000f3fe608060405234801561001057600080fd5b50600436106102685760003560e01c806366805de511610151578063af5260bf116100c3578063c52987cf11610087578063c52987cf14610529578063c87b56dd14610532578063d8a2b7f014610545578063dd74b49114610558578063e985e9c514610560578063f2fde38b1461057357600080fd5b8063af5260bf14610491578063b868723e1461049a578063b88d4fde146104a3578063bb77d7ea146104b6578063bd05e965146104bf57600080fd5b80638327bed3116101155780638327bed31461043f5780638da5cb5b1461045357806395d89b41146104645780639f181b5e1461046c578063a22cb46514610475578063ae7f93e81461048857600080fd5b806366805de51461040a57806370a0823114610412578063715018a61461042557806378e979251461042d5780637d8820971461043657600080fd5b806323b2c023116101ea57806342842e0e116101ae57806342842e0e146103ac578063476343ee146103bf5780634a5f0fb0146103c8578063531a9358146103db57806354bf5d13146103ee5780636352211e146103f757600080fd5b806323b2c0231461036c57806323b872dd1461037457806333a100ca146103875780633b6498121461039a5780633f3f4537146103a357600080fd5b80630e15561a116102315780630e15561a1461031d5780630fb5a6b4146103345780631bc6a79e1461033d5780631c153b81146103465780631c4b774b1461035957600080fd5b8062a6e7301461026d57806301ffc9a7146102a557806306fdde03146102c8578063081812fc146102dd578063095ea7b314610308575b600080fd5b61028061027b366004612485565b610586565b6040805194855260208501939093529183015260608201526080015b60405180910390f35b6102b86102b33660046124cb565b61086d565b604051901515815260200161029c565b6102d06108bf565b60405161029c9190612538565b6102f06102eb36600461254b565b610951565b6040516001600160a01b03909116815260200161029c565b61031b61031636600461257b565b610978565b005b61032660115481565b60405190815260200161029c565b610326600c5481565b610326600f5481565b61031b6103543660046125a5565b610a92565b61032661036736600461254b565b610ab4565b610326610cbb565b61031b6103823660046125c7565b610d79565b61031b610395366004612603565b610daa565b61032660155481565b61032660165481565b61031b6103ba3660046125c7565b610dd4565b61032660185481565b6007546102f0906001600160a01b031681565b6103266103e936600461261e565b610def565b610326600e5481565b6102f061040536600461254b565b610edf565b61031b610f3f565b610326610420366004612603565b611094565b61031b61111a565b610326600a5481565b61032660145481565b6013546102b890600160a01b900460ff1681565b6006546001600160a01b03166102f0565b6102d061112e565b61032660125481565b61031b61048336600461263b565b61113d565b61032660175481565b610326600b5481565b61032660105481565b61031b6104b136600461267d565b611148565b610326600d5481565b6104ff6104cd36600461254b565b6019602052600090815260409020805460018201546002830154600384015460049094015492939192909160ff169085565b6040805195865260208601949094529284019190915215156060830152608082015260a00161029c565b61032660085481565b6102d061054036600461254b565b611180565b6009546102f0906001600160a01b031681565b6103266111f4565b6102b861056e366004612759565b611216565b61031b610581366004612603565b611244565b600080600080600a5442101561059b57600080fd5b60095460408051633fabe5a360e21b815290516000926001600160a01b03169163feaf968c9160048083019260a09291908290030181865afa1580156105e5573d6000803e3d6000fd5b505050506040513d601f19601f8201168201806040525081019061060991906127a6565b5050509150506000811361061c57600080fd5b866014600082825461062e919061280c565b909155508190506000610640826112bd565b9050600061064e828a6114e9565b60075490915060009061066b908c906001600160a01b0316611589565b90506000600c5442600b54610680919061281f565b61068a8585612832565b6106949190612832565b61069e9190612867565b6012805491925060006106b08361287b565b909155505060125460008181526019602052604090208d8155426001808301919091556002820187905560038201805460ff19168f15159081179091556004830185905590036107305782600d600082825461070c919061280c565b925050819055508d60156000828254610725919061280c565b9091555061076b9050565b8c151560000361076b5782600e600082825461074c919061280c565b925050819055508d60166000828254610765919061280c565b90915550505b610792333061077e87633b9aca00612832565b6007546001600160a01b031692919061176d565b6013546107c3906001600160a01b03166107b086633b9aca00612832565b6007546001600160a01b031691906117d8565b6013546007546001600160a01b03918216916347e7ef2491166107ea87633b9aca00612832565b6040516001600160e01b031960e085901b1681526001600160a01b0390921660048301526024820152604401600060405180830381600087803b15801561083057600080fd5b505af1158015610844573d6000803e3d6000fd5b505050506108586108523390565b836118ed565b50929c909b5092995097509095505050505050565b60006001600160e01b031982166380ac58cd60e01b148061089e57506001600160e01b03198216635b5e139f60e01b145b806108b957506301ffc9a760e01b6001600160e01b03198316145b92915050565b6060600080546108ce90612894565b80601f01602080910402602001604051908101604052809291908181526020018280546108fa90612894565b80156109475780601f1061091c57610100808354040283529160200191610947565b820191906000526020600020905b81548152906001019060200180831161092a57829003601f168201915b5050505050905090565b600061095c82611907565b506000908152600460205260409020546001600160a01b031690565b600061098382610edf565b9050806001600160a01b0316836001600160a01b0316036109f55760405162461bcd60e51b815260206004820152602160248201527f4552433732313a20617070726f76616c20746f2063757272656e74206f776e656044820152603960f91b60648201526084015b60405180910390fd5b336001600160a01b0382161480610a115750610a118133611216565b610a835760405162461bcd60e51b815260206004820152603e60248201527f4552433732313a20617070726f76652063616c6c6572206973206e6f7420746f60448201527f6b656e206f776e6572206e6f7220617070726f76656420666f7220616c6c000060648201526084016109ec565b610a8d8383611966565b505050565b8160116000828254610aa4919061280c565b9091555050601055506000601755565b6000600b5442118015610ad55750601354600160a01b900460ff1615156001145b610ade57600080fd5b33610ae883610edf565b6001600160a01b031614610b3e5760405162461bcd60e51b815260206004820152601d60248201527f75736572206973206e6f74204f776e6572206f6620746f6b656e20494400000060448201526064016109ec565b6000806000806017541115610b9457601454601754600087815260196020526040902054610b6c9190612832565b610b769190612867565b9250610b8f336007546001600160a01b031690856119d4565b610cb3565b60085460105410158015610bbe575060008581526019602052604090206003015460ff1615156001145b15610c1557600085815260196020526040812060040154600d54601154919450610bea92859190611a04565b601854909350610c06908490670de0b6b3a76400006001611a04565b9050610c12818461281f565b92505b600854601054108015610c3a575060008581526019602052604090206003015460ff16155b15610c9157600085815260196020526040812060040154600e54601154919450610c6692859190611a04565b601854909350610c82908490670de0b6b3a76400006001611a04565b9050610c8e818461281f565b92505b600085815260196020526040902054610caa908461280c565b95945050505050565b505050919050565b60165460009015610d73576000601654601454633b9aca00610cdd9190612832565b610ce79190612867565b905080601360009054906101000a90046001600160a01b03166001600160a01b0316639f560dd56040518163ffffffff1660e01b81526004016020604051808303816000875af1158015610d3f573d6000803e3d6000fd5b505050506040513d601f19601f82011682018060405250810190610d6391906128ce565b610d6d9190612832565b91505090565b50600090565b610d833382611a63565b610d9f5760405162461bcd60e51b81526004016109ec906128e7565b610a8d838383611ac1565b610db2611c5d565b601380546001600160a01b0319166001600160a01b0392909216919091179055565b610a8d83838360405180602001604052806000815250611148565b600080600960009054906101000a90046001600160a01b03166001600160a01b031663feaf968c6040518163ffffffff1660e01b815260040160a060405180830381865afa158015610e45573d6000803e3d6000fd5b505050506040513d601f19601f82011682018060405250810190610e6991906127a6565b50505091505060008113610e7c57600080fd5b6000610e87826112bd565b9050831515600103610eb0576008548110610eab57610ea46111f4565b9250610eb0565b600092505b831515600003610ed857600854811015610ed357610ecc610cbb565b9250610ed8565b600092505b5050919050565b6000818152600260205260408120546001600160a01b0316806108b95760405162461bcd60e51b8152602060048201526018602482015277115490cdcc8c4e881a5b9d985b1a59081d1bdad95b88125160421b60448201526064016109ec565b610f47611c5d565b600b544211610f5557600080fd5b6013805460ff60a01b1916600160a01b17905560095460408051633fabe5a360e21b815290516000926001600160a01b03169163feaf968c9160048083019260a09291908290030181865afa158015610fb2573d6000803e3d6000fd5b505050506040513d601f19601f82011682018060405250810190610fd691906127a6565b50505091505060008113610fe957600080fd5b610ff2816112bd565b60105560135460408051633ccfd60b60e01b815290516000926001600160a01b031691633ccfd60b916004808301926020929190829003018187875af1158015611040573d6000803e3d6000fd5b505050506040513d601f19601f8201168201806040525081019061106491906128ce565b905060145481116110755760175550565b6014548111156110905760145461108c908261281f565b6011555b5050565b60006001600160a01b0382166110fe5760405162461bcd60e51b815260206004820152602960248201527f4552433732313a2061646472657373207a65726f206973206e6f7420612076616044820152683634b21037bbb732b960b91b60648201526084016109ec565b506001600160a01b031660009081526003602052604090205490565b611122611c5d565b61112c6000611cb7565b565b6060600180546108ce90612894565b611090338383611d09565b6111523383611a63565b61116e5760405162461bcd60e51b81526004016109ec906128e7565b61117a84848484611dd7565b50505050565b606061118b82611907565b60006111a260408051602081019091526000815290565b905060008151116111c257604051806020016040528060008152506111ed565b806111cc84611e0a565b6040516020016111dd929190612935565b6040516020818303038152906040525b9392505050565b60155460009015610d73576000601554601454633b9aca00610cdd9190612832565b6001600160a01b03918216600090815260056020908152604080832093909416825291909152205460ff1690565b61124c611c5d565b6001600160a01b0381166112b15760405162461bcd60e51b815260206004820152602660248201527f4f776e61626c653a206e6577206f776e657220697320746865207a65726f206160448201526564647265737360d01b60648201526084016109ec565b6112ba81611cb7565b50565b600980546040805163313ce56760e01b815290518493926001600160a01b03169163313ce5679160048083019260209291908290030181865afa158015611308573d6000803e3d6000fd5b505050506040513d601f19601f8201168201806040525081019061132c9190612964565b60ff1610156113cc57600960009054906101000a90046001600160a01b03166001600160a01b031663313ce5676040518163ffffffff1660e01b8152600401602060405180830381865afa158015611388573d6000803e3d6000fd5b505050506040513d601f19601f820116820180604052508101906113ac9190612964565b6113b7906009612987565b6113c290600a612a84565b6108b99082612832565b60098060009054906101000a90046001600160a01b03166001600160a01b031663313ce5676040518163ffffffff1660e01b8152600401602060405180830381865afa158015611420573d6000803e3d6000fd5b505050506040513d601f19601f820116820180604052508101906114449190612964565b60ff1611156114e45760098060009054906101000a90046001600160a01b03166001600160a01b031663313ce5676040518163ffffffff1660e01b8152600401602060405180830381865afa1580156114a1573d6000803e3d6000fd5b505050506040513d601f19601f820116820180604052508101906114c59190612964565b6114cf9190612987565b6114da90600a612a84565b6108b99082612867565b919050565b60008115156001036115515760085483111561150a5750633b9aca006108b9565b600854831161155157600f5483600854611524919061281f565b61153290633b9aca00612832565b61153c9190612867565b61154a90633b9aca0061280c565b90506108b9565b8115156000036108b9578260085411156115705750633b9aca006108b9565b82600854116108b957600f54600854611524908561281f565b60008290506009826001600160a01b031663313ce5676040518163ffffffff1660e01b8152600401602060405180830381865afa1580156115ce573d6000803e3d6000fd5b505050506040513d601f19601f820116820180604052508101906115f29190612964565b60ff16101561167d57816001600160a01b031663313ce5676040518163ffffffff1660e01b8152600401602060405180830381865afa158015611639573d6000803e3d6000fd5b505050506040513d601f19601f8201168201806040525081019061165d9190612964565b611668906012612987565b61167390600a612a84565b61154a9082612832565b6009826001600160a01b031663313ce5676040518163ffffffff1660e01b8152600401602060405180830381865afa1580156116bd573d6000803e3d6000fd5b505050506040513d601f19601f820116820180604052508101906116e19190612964565b60ff1611156108b9576009826001600160a01b031663313ce5676040518163ffffffff1660e01b8152600401602060405180830381865afa15801561172a573d6000803e3d6000fd5b505050506040513d601f19601f8201168201806040525081019061174e9190612964565b6117589190612987565b61176390600a612a84565b6111ed9082612867565b6040516001600160a01b038085166024830152831660448201526064810182905261117a9085906323b872dd60e01b906084015b60408051601f198184030181529190526020810180516001600160e01b03166001600160e01b031990931692909217909152611f0b565b8015806118525750604051636eb1769f60e11b81523060048201526001600160a01b03838116602483015284169063dd62ed3e90604401602060405180830381865afa15801561182c573d6000803e3d6000fd5b505050506040513d601f19601f8201168201806040525081019061185091906128ce565b155b6118bd5760405162461bcd60e51b815260206004820152603660248201527f5361666545524332303a20617070726f76652066726f6d206e6f6e2d7a65726f60448201527520746f206e6f6e2d7a65726f20616c6c6f77616e636560501b60648201526084016109ec565b6040516001600160a01b038316602482015260448101829052610a8d90849063095ea7b360e01b906064016117a1565b611090828260405180602001604052806000815250611fdd565b6000818152600260205260409020546001600160a01b03166112ba5760405162461bcd60e51b8152602060048201526018602482015277115490cdcc8c4e881a5b9d985b1a59081d1bdad95b88125160421b60448201526064016109ec565b600081815260046020526040902080546001600160a01b0319166001600160a01b038416908117909155819061199b82610edf565b6001600160a01b03167f8c5be1e5ebec7d5bd14f71427d1e84f3dd0314c0f7b2291e5b200ac8c7c3b92560405160405180910390a45050565b6040516001600160a01b038316602482015260448101829052610a8d90849063a9059cbb60e01b906064016117a1565b600080611a12868686612010565b90506001836002811115611a2857611a28612a93565b148015611a45575060008480611a4057611a40612851565b868809115b15611a5857611a5560018261280c565b90505b90505b949350505050565b600080611a6f83610edf565b9050806001600160a01b0316846001600160a01b03161480611a965750611a968185611216565b80611a5b5750836001600160a01b0316611aaf84610951565b6001600160a01b031614949350505050565b826001600160a01b0316611ad482610edf565b6001600160a01b031614611b385760405162461bcd60e51b815260206004820152602560248201527f4552433732313a207472616e736665722066726f6d20696e636f72726563742060448201526437bbb732b960d91b60648201526084016109ec565b6001600160a01b038216611b9a5760405162461bcd60e51b8152602060048201526024808201527f4552433732313a207472616e7366657220746f20746865207a65726f206164646044820152637265737360e01b60648201526084016109ec565b611ba5600082611966565b6001600160a01b0383166000908152600360205260408120805460019290611bce90849061281f565b90915550506001600160a01b0382166000908152600360205260408120805460019290611bfc90849061280c565b909155505060008181526002602052604080822080546001600160a01b0319166001600160a01b0386811691821790925591518493918716917fddf252ad1be2c89b69c2b068fc378daa952ba7f163c4a11628f55a4df523b3ef91a4505050565b6006546001600160a01b0316331461112c5760405162461bcd60e51b815260206004820181905260248201527f4f776e61626c653a2063616c6c6572206973206e6f7420746865206f776e657260448201526064016109ec565b600680546001600160a01b038381166001600160a01b0319831681179093556040519116919082907f8be0079c531659141344cd1fd0a4f28419497f9722a3daafe3b4186f6b6457e090600090a35050565b816001600160a01b0316836001600160a01b031603611d6a5760405162461bcd60e51b815260206004820152601960248201527f4552433732313a20617070726f766520746f2063616c6c65720000000000000060448201526064016109ec565b6001600160a01b03838116600081815260056020908152604080832094871680845294825291829020805460ff191686151590811790915591519182527f17307eab39ab6107e8899845ad3d59bd9653f200f220920489ca2b5937696c31910160405180910390a3505050565b611de2848484611ac1565b611dee848484846120be565b61117a5760405162461bcd60e51b81526004016109ec90612aa9565b606081600003611e315750506040805180820190915260018152600360fc1b602082015290565b8160005b8115611e5b5780611e458161287b565b9150611e549050600a83612867565b9150611e35565b60008167ffffffffffffffff811115611e7657611e76612667565b6040519080825280601f01601f191660200182016040528015611ea0576020820181803683370190505b5090505b8415611a5b57611eb560018361281f565b9150611ec2600a86612afb565b611ecd90603061280c565b60f81b818381518110611ee257611ee2612b0f565b60200101906001600160f81b031916908160001a905350611f04600a86612867565b9450611ea4565b6000611f60826040518060400160405280602081526020017f5361666545524332303a206c6f772d6c6576656c2063616c6c206661696c6564815250856001600160a01b03166121bc9092919063ffffffff16565b805190915015610a8d5780806020019051810190611f7e9190612b25565b610a8d5760405162461bcd60e51b815260206004820152602a60248201527f5361666545524332303a204552433230206f7065726174696f6e20646964206e6044820152691bdd081cdd58d8d9595960b21b60648201526084016109ec565b611fe783836121cb565b611ff460008484846120be565b610a8d5760405162461bcd60e51b81526004016109ec90612aa9565b600080806000198587098587029250828110838203039150508060000361204a5783828161204057612040612851565b04925050506111ed565b80841161205657600080fd5b600084868809600260036001881981018916988990049182028318808302840302808302840302808302840302808302840302808302840302918202909203026000889003889004909101858311909403939093029303949094049190911702949350505050565b60006001600160a01b0384163b156121b457604051630a85bd0160e11b81526001600160a01b0385169063150b7a0290612102903390899088908890600401612b42565b6020604051808303816000875af192505050801561213d575060408051601f3d908101601f1916820190925261213a91810190612b7f565b60015b61219a573d80801561216b576040519150601f19603f3d011682016040523d82523d6000602084013e612170565b606091505b5080516000036121925760405162461bcd60e51b81526004016109ec90612aa9565b805181602001fd5b6001600160e01b031916630a85bd0160e11b149050611a5b565b506001611a5b565b6060611a5b848460008561230d565b6001600160a01b0382166122215760405162461bcd60e51b815260206004820181905260248201527f4552433732313a206d696e7420746f20746865207a65726f206164647265737360448201526064016109ec565b6000818152600260205260409020546001600160a01b0316156122865760405162461bcd60e51b815260206004820152601c60248201527f4552433732313a20746f6b656e20616c7265616479206d696e7465640000000060448201526064016109ec565b6001600160a01b03821660009081526003602052604081208054600192906122af90849061280c565b909155505060008181526002602052604080822080546001600160a01b0319166001600160a01b03861690811790915590518392907fddf252ad1be2c89b69c2b068fc378daa952ba7f163c4a11628f55a4df523b3ef908290a45050565b60608247101561236e5760405162461bcd60e51b815260206004820152602660248201527f416464726573733a20696e73756666696369656e742062616c616e636520666f6044820152651c8818d85b1b60d21b60648201526084016109ec565b6001600160a01b0385163b6123c55760405162461bcd60e51b815260206004820152601d60248201527f416464726573733a2063616c6c20746f206e6f6e2d636f6e747261637400000060448201526064016109ec565b600080866001600160a01b031685876040516123e19190612b9c565b60006040518083038185875af1925050503d806000811461241e576040519150601f19603f3d011682016040523d82523d6000602084013e612423565b606091505b509150915061243382828661243e565b979650505050505050565b6060831561244d5750816111ed565b82511561245d5782518084602001fd5b8160405162461bcd60e51b81526004016109ec9190612538565b80151581146112ba57600080fd5b6000806040838503121561249857600080fd5b8235915060208301356124aa81612477565b809150509250929050565b6001600160e01b0319811681146112ba57600080fd5b6000602082840312156124dd57600080fd5b81356111ed816124b5565b60005b838110156125035781810151838201526020016124eb565b50506000910152565b600081518084526125248160208601602086016124e8565b601f01601f19169290920160200192915050565b6020815260006111ed602083018461250c565b60006020828403121561255d57600080fd5b5035919050565b80356001600160a01b03811681146114e457600080fd5b6000806040838503121561258e57600080fd5b61259783612564565b946020939093013593505050565b600080604083850312156125b857600080fd5b50508035926020909101359150565b6000806000606084860312156125dc57600080fd5b6125e584612564565b92506125f360208501612564565b9150604084013590509250925092565b60006020828403121561261557600080fd5b6111ed82612564565b60006020828403121561263057600080fd5b81356111ed81612477565b6000806040838503121561264e57600080fd5b61265783612564565b915060208301356124aa81612477565b634e487b7160e01b600052604160045260246000fd5b6000806000806080858703121561269357600080fd5b61269c85612564565b93506126aa60208601612564565b925060408501359150606085013567ffffffffffffffff808211156126ce57600080fd5b818701915087601f8301126126e257600080fd5b8135818111156126f4576126f4612667565b604051601f8201601f19908116603f0116810190838211818310171561271c5761271c612667565b816040528281528a602084870101111561273557600080fd5b82602086016020830137600060208483010152809550505050505092959194509250565b6000806040838503121561276c57600080fd5b61277583612564565b915061278360208401612564565b90509250929050565b805169ffffffffffffffffffff811681146114e457600080fd5b600080600080600060a086880312156127be57600080fd5b6127c78661278c565b94506020860151935060408601519250606086015191506127ea6080870161278c565b90509295509295909350565b634e487b7160e01b600052601160045260246000fd5b808201808211156108b9576108b96127f6565b818103818111156108b9576108b96127f6565b600081600019048311821515161561284c5761284c6127f6565b500290565b634e487b7160e01b600052601260045260246000fd5b60008261287657612876612851565b500490565b60006001820161288d5761288d6127f6565b5060010190565b600181811c908216806128a857607f821691505b6020821081036128c857634e487b7160e01b600052602260045260246000fd5b50919050565b6000602082840312156128e057600080fd5b5051919050565b6020808252602e908201527f4552433732313a2063616c6c6572206973206e6f7420746f6b656e206f776e6560408201526d1c881b9bdc88185c1c1c9bdd995960921b606082015260800190565b600083516129478184602088016124e8565b83519083019061295b8183602088016124e8565b01949350505050565b60006020828403121561297657600080fd5b815160ff811681146111ed57600080fd5b60ff82811682821603908111156108b9576108b96127f6565b600181815b808511156129db5781600019048211156129c1576129c16127f6565b808516156129ce57918102915b93841c93908002906129a5565b509250929050565b6000826129f2575060016108b9565b816129ff575060006108b9565b8160018114612a155760028114612a1f57612a3b565b60019150506108b9565b60ff841115612a3057612a306127f6565b50506001821b6108b9565b5060208310610133831016604e8410600b8410161715612a5e575081810a6108b9565b612a6883836129a0565b8060001904821115612a7c57612a7c6127f6565b029392505050565b60006111ed60ff8416836129e3565b634e487b7160e01b600052602160045260246000fd5b60208082526032908201527f4552433732313a207472616e7366657220746f206e6f6e20455243373231526560408201527131b2b4bb32b91034b6b83632b6b2b73a32b960711b606082015260800190565b600082612b0a57612b0a612851565b500690565b634e487b7160e01b600052603260045260246000fd5b600060208284031215612b3757600080fd5b81516111ed81612477565b6001600160a01b0385811682528416602082015260408101839052608060608201819052600090612b759083018461250c565b9695505050505050565b600060208284031215612b9157600080fd5b81516111ed816124b5565b60008251612bae8184602087016124e8565b919091019291505056fea2646970667358221220b2d7e115d63b4a2b2730919370ca455ae953edfd80705bb6ca3dc69cb59482d564736f6c63430008100033",
    "linkReferences": {}
  },
  "methodIdentifiers": {
    "actualAPY(bool)": "531a9358",
    "alphaLongs()": "bb77d7ea",
    "alphaShorts()": "54bf5d13",
    "approve(address,uint256)": "095ea7b3",
    "balanceOf(address)": "70a08231",
    "chainlinkPriceFeed()": "d8a2b7f0",
    "closePool()": "66805de5",
    "deltaPrice()": "1bc6a79e",
    "depositFunds(uint256,bool)": "00a6e730",
    "duration()": "0fb5a6b4",
    "endPrice()": "b868723e",
    "expectedAPY_longs()": "dd74b491",
    "expectedAPY_shorts()": "23b2c023",
    "finalTime()": "af5260bf",
    "getApproved(uint256)": "081812fc",
    "getReward(uint256)": "1c4b774b",
    "isApprovedForAll(address,address)": "e985e9c5",
    "name()": "06fdde03",
    "owner()": "8da5cb5b",
    "ownerOf(uint256)": "6352211e",
    "poolIsClosed()": "8327bed3",
    "renounceOwnership()": "715018a6",
    "safeTransferFrom(address,address,uint256)": "42842e0e",
    "safeTransferFrom(address,address,uint256,bytes)": "b88d4fde",
    "setApprovalForAll(address,bool)": "a22cb465",
    "setStrategy(address)": "33a100ca",
    "setTotalRewardsAndPrice(uint256,uint256)": "1c153b81",
    "startTime()": "78e97925",
    "strikePrice()": "c52987cf",
    "suppliedAsset()": "4a5f0fb0",
    "supportsInterface(bytes4)": "01ffc9a7",
    "symbol()": "95d89b41",
    "tokenCount()": "9f181b5e",
    "tokenToPosition(uint256)": "bd05e965",
    "tokenURI(uint256)": "c87b56dd",
    "totalDeposits()": "7d882097",
    "totalDepositsLONG()": "3b649812",
    "totalDepositsSHORT()": "3f3f4537",
    "totalReturnedFromStrat()": "ae7f93e8",
    "totalRewards()": "0e15561a",
    "transferFrom(address,address,uint256)": "23b872dd",
    "transferOwnership(address)": "f2fde38b",
    "withdrawFees()": "476343ee"
  },
  "id": 0
}