{
  "abi": [
    {
      "inputs": [
        {
          "internalType": "uint256",
          "name": "_strikePrice",
          "type": "uint256"
        },
        {
          "internalType": "address",
          "name": "_asset",
          "type": "address"
        },
        {
          "internalType": "uint256",
          "name": "_duration",
          "type": "uint256"
        },
        {
          "internalType": "uint256",
          "name": "_startTime",
          "type": "uint256"
        },
        {
          "internalType": "uint256",
          "name": "_deltaPrice",
          "type": "uint256"
        },
        {
          "internalType": "address",
          "name": "_chainlinkPriceFeed",
          "type": "address"
        },
        {
          "internalType": "uint256",
          "name": "_fees",
          "type": "uint256"
        },
        {
          "internalType": "uint256[2]",
          "name": "_capLongShort",
          "type": "uint256[2]"
        },
        {
          "internalType": "string",
          "name": "_name",
          "type": "string"
        },
        {
          "internalType": "string",
          "name": "_symbol",
          "type": "string"
        }
      ],
      "stateMutability": "nonpayable",
      "type": "constructor"
    },
    {
      "anonymous": false,
      "inputs": [
        {
          "indexed": true,
          "internalType": "address",
          "name": "owner",
          "type": "address"
        },
        {
          "indexed": true,
          "internalType": "address",
          "name": "approved",
          "type": "address"
        },
        {
          "indexed": true,
          "internalType": "uint256",
          "name": "tokenId",
          "type": "uint256"
        }
      ],
      "name": "Approval",
      "type": "event"
    },
    {
      "anonymous": false,
      "inputs": [
        {
          "indexed": true,
          "internalType": "address",
          "name": "owner",
          "type": "address"
        },
        {
          "indexed": true,
          "internalType": "address",
          "name": "operator",
          "type": "address"
        },
        {
          "indexed": false,
          "internalType": "bool",
          "name": "approved",
          "type": "bool"
        }
      ],
      "name": "ApprovalForAll",
      "type": "event"
    },
    {
      "anonymous": false,
      "inputs": [
        {
          "indexed": true,
          "internalType": "address",
          "name": "previousOwner",
          "type": "address"
        },
        {
          "indexed": true,
          "internalType": "address",
          "name": "newOwner",
          "type": "address"
        }
      ],
      "name": "OwnershipTransferred",
      "type": "event"
    },
    {
      "anonymous": false,
      "inputs": [
        {
          "indexed": true,
          "internalType": "address",
          "name": "from",
          "type": "address"
        },
        {
          "indexed": true,
          "internalType": "address",
          "name": "to",
          "type": "address"
        },
        {
          "indexed": true,
          "internalType": "uint256",
          "name": "tokenId",
          "type": "uint256"
        }
      ],
      "name": "Transfer",
      "type": "event"
    },
    {
      "inputs": [
        {
          "internalType": "bool",
          "name": "_longOrShort",
          "type": "bool"
        }
      ],
      "name": "actualAPYBooster",
      "outputs": [
        {
          "internalType": "uint256",
          "name": "apyMultiplicator",
          "type": "uint256"
        }
      ],
      "stateMutability": "view",
      "type": "function"
    },
    {
      "inputs": [],
      "name": "alphaLongs",
      "outputs": [
        {
          "internalType": "uint256",
          "name": "",
          "type": "uint256"
        }
      ],
      "stateMutability": "view",
      "type": "function"
    },
    {
      "inputs": [],
      "name": "alphaShorts",
      "outputs": [
        {
          "internalType": "uint256",
          "name": "",
          "type": "uint256"
        }
      ],
      "stateMutability": "view",
      "type": "function"
    },
    {
      "inputs": [
        {
          "internalType": "address",
          "name": "to",
          "type": "address"
        },
        {
          "internalType": "uint256",
          "name": "tokenId",
          "type": "uint256"
        }
      ],
      "name": "approve",
      "outputs": [],
      "stateMutability": "nonpayable",
      "type": "function"
    },
    {
      "inputs": [],
      "name": "apyBoosterLong",
      "outputs": [
        {
          "internalType": "uint256",
          "name": "standardizedMultiplicator",
          "type": "uint256"
        }
      ],
      "stateMutability": "view",
      "type": "function"
    },
    {
      "inputs": [],
      "name": "apyBoosterShort",
      "outputs": [
        {
          "internalType": "uint256",
          "name": "standardizedMultiplicator",
          "type": "uint256"
        }
      ],
      "stateMutability": "view",
      "type": "function"
    },
    {
      "inputs": [
        {
          "internalType": "address",
          "name": "owner",
          "type": "address"
        }
      ],
      "name": "balanceOf",
      "outputs": [
        {
          "internalType": "uint256",
          "name": "",
          "type": "uint256"
        }
      ],
      "stateMutability": "view",
      "type": "function"
    },
    {
      "inputs": [
        {
          "internalType": "uint256",
          "name": "",
          "type": "uint256"
        }
      ],
      "name": "capLongShort",
      "outputs": [
        {
          "internalType": "uint256",
          "name": "",
          "type": "uint256"
        }
      ],
      "stateMutability": "view",
      "type": "function"
    },
    {
      "inputs": [],
      "name": "chainlinkPriceFeed",
      "outputs": [
        {
          "internalType": "address",
          "name": "",
          "type": "address"
        }
      ],
      "stateMutability": "view",
      "type": "function"
    },
    {
      "inputs": [],
      "name": "closePool",
      "outputs": [],
      "stateMutability": "nonpayable",
      "type": "function"
    },
    {
      "inputs": [],
      "name": "collectFees",
      "outputs": [],
      "stateMutability": "nonpayable",
      "type": "function"
    },
    {
      "inputs": [],
      "name": "deltaPrice",
      "outputs": [
        {
          "internalType": "uint256",
          "name": "",
          "type": "uint256"
        }
      ],
      "stateMutability": "view",
      "type": "function"
    },
    {
      "inputs": [
        {
          "internalType": "uint256",
          "name": "amount",
          "type": "uint256"
        },
        {
          "internalType": "bool",
          "name": "longShort",
          "type": "bool"
        }
      ],
      "name": "depositFunds",
      "outputs": [
        {
          "internalType": "uint256",
          "name": "_computedRisk",
          "type": "uint256"
        },
        {
          "internalType": "uint256",
          "name": "_alpha",
          "type": "uint256"
        },
        {
          "internalType": "uint256",
          "name": "_standardizedPrice",
          "type": "uint256"
        },
        {
          "internalType": "uint256",
          "name": "_standardizedAmount",
          "type": "uint256"
        }
      ],
      "stateMutability": "nonpayable",
      "type": "function"
    },
    {
      "inputs": [],
      "name": "duration",
      "outputs": [
        {
          "internalType": "uint256",
          "name": "",
          "type": "uint256"
        }
      ],
      "stateMutability": "view",
      "type": "function"
    },
    {
      "inputs": [],
      "name": "endPrice",
      "outputs": [
        {
          "internalType": "uint256",
          "name": "",
          "type": "uint256"
        }
      ],
      "stateMutability": "view",
      "type": "function"
    },
    {
      "inputs": [],
      "name": "feesCollected",
      "outputs": [
        {
          "internalType": "uint256",
          "name": "",
          "type": "uint256"
        }
      ],
      "stateMutability": "view",
      "type": "function"
    },
    {
      "inputs": [],
      "name": "finalTime",
      "outputs": [
        {
          "internalType": "uint256",
          "name": "",
          "type": "uint256"
        }
      ],
      "stateMutability": "view",
      "type": "function"
    },
    {
      "inputs": [
        {
          "internalType": "uint256",
          "name": "tokenId",
          "type": "uint256"
        }
      ],
      "name": "getApproved",
      "outputs": [
        {
          "internalType": "address",
          "name": "",
          "type": "address"
        }
      ],
      "stateMutability": "view",
      "type": "function"
    },
    {
      "inputs": [
        {
          "internalType": "uint256",
          "name": "tokenID",
          "type": "uint256"
        }
      ],
      "name": "getReward",
      "outputs": [
        {
          "internalType": "uint256",
          "name": "_amountOwed",
          "type": "uint256"
        }
      ],
      "stateMutability": "nonpayable",
      "type": "function"
    },
    {
      "inputs": [
        {
          "internalType": "address",
          "name": "owner",
          "type": "address"
        },
        {
          "internalType": "address",
          "name": "operator",
          "type": "address"
        }
      ],
      "name": "isApprovedForAll",
      "outputs": [
        {
          "internalType": "bool",
          "name": "",
          "type": "bool"
        }
      ],
      "stateMutability": "view",
      "type": "function"
    },
    {
      "inputs": [],
      "name": "name",
      "outputs": [
        {
          "internalType": "string",
          "name": "",
          "type": "string"
        }
      ],
      "stateMutability": "view",
      "type": "function"
    },
    {
      "inputs": [],
      "name": "owner",
      "outputs": [
        {
          "internalType": "address",
          "name": "",
          "type": "address"
        }
      ],
      "stateMutability": "view",
      "type": "function"
    },
    {
      "inputs": [
        {
          "internalType": "uint256",
          "name": "tokenId",
          "type": "uint256"
        }
      ],
      "name": "ownerOf",
      "outputs": [
        {
          "internalType": "address",
          "name": "",
          "type": "address"
        }
      ],
      "stateMutability": "view",
      "type": "function"
    },
    {
      "inputs": [],
      "name": "poolIsClosed",
      "outputs": [
        {
          "internalType": "bool",
          "name": "",
          "type": "bool"
        }
      ],
      "stateMutability": "view",
      "type": "function"
    },
    {
      "inputs": [],
      "name": "renounceOwnership",
      "outputs": [],
      "stateMutability": "nonpayable",
      "type": "function"
    },
    {
      "inputs": [
        {
          "internalType": "address",
          "name": "from",
          "type": "address"
        },
        {
          "internalType": "address",
          "name": "to",
          "type": "address"
        },
        {
          "internalType": "uint256",
          "name": "tokenId",
          "type": "uint256"
        }
      ],
      "name": "safeTransferFrom",
      "outputs": [],
      "stateMutability": "nonpayable",
      "type": "function"
    },
    {
      "inputs": [
        {
          "internalType": "address",
          "name": "from",
          "type": "address"
        },
        {
          "internalType": "address",
          "name": "to",
          "type": "address"
        },
        {
          "internalType": "uint256",
          "name": "tokenId",
          "type": "uint256"
        },
        {
          "internalType": "bytes",
          "name": "data",
          "type": "bytes"
        }
      ],
      "name": "safeTransferFrom",
      "outputs": [],
      "stateMutability": "nonpayable",
      "type": "function"
    },
    {
      "inputs": [
        {
          "internalType": "address",
          "name": "operator",
          "type": "address"
        },
        {
          "internalType": "bool",
          "name": "approved",
          "type": "bool"
        }
      ],
      "name": "setApprovalForAll",
      "outputs": [],
      "stateMutability": "nonpayable",
      "type": "function"
    },
    {
      "inputs": [
        {
          "internalType": "address",
          "name": "_strat",
          "type": "address"
        }
      ],
      "name": "setStrategy",
      "outputs": [],
      "stateMutability": "nonpayable",
      "type": "function"
    },
    {
      "inputs": [],
      "name": "startTime",
      "outputs": [
        {
          "internalType": "uint256",
          "name": "",
          "type": "uint256"
        }
      ],
      "stateMutability": "view",
      "type": "function"
    },
    {
      "inputs": [],
      "name": "stratContract",
      "outputs": [
        {
          "internalType": "address",
          "name": "",
          "type": "address"
        }
      ],
      "stateMutability": "view",
      "type": "function"
    },
    {
      "inputs": [],
      "name": "strategyActivated",
      "outputs": [
        {
          "internalType": "bool",
          "name": "",
          "type": "bool"
        }
      ],
      "stateMutability": "view",
      "type": "function"
    },
    {
      "inputs": [],
      "name": "strikePrice",
      "outputs": [
        {
          "internalType": "uint256",
          "name": "",
          "type": "uint256"
        }
      ],
      "stateMutability": "view",
      "type": "function"
    },
    {
      "inputs": [],
      "name": "suppliedAsset",
      "outputs": [
        {
          "internalType": "address",
          "name": "",
          "type": "address"
        }
      ],
      "stateMutability": "view",
      "type": "function"
    },
    {
      "inputs": [
        {
          "internalType": "bytes4",
          "name": "interfaceId",
          "type": "bytes4"
        }
      ],
      "name": "supportsInterface",
      "outputs": [
        {
          "internalType": "bool",
          "name": "",
          "type": "bool"
        }
      ],
      "stateMutability": "view",
      "type": "function"
    },
    {
      "inputs": [],
      "name": "symbol",
      "outputs": [
        {
          "internalType": "string",
          "name": "",
          "type": "string"
        }
      ],
      "stateMutability": "view",
      "type": "function"
    },
    {
      "inputs": [],
      "name": "tokenCount",
      "outputs": [
        {
          "internalType": "uint256",
          "name": "",
          "type": "uint256"
        }
      ],
      "stateMutability": "view",
      "type": "function"
    },
    {
      "inputs": [
        {
          "internalType": "uint256",
          "name": "",
          "type": "uint256"
        }
      ],
      "name": "tokenToPosition",
      "outputs": [
        {
          "internalType": "uint256",
          "name": "amount",
          "type": "uint256"
        },
        {
          "internalType": "uint256",
          "name": "assetPrice",
          "type": "uint256"
        },
        {
          "internalType": "bool",
          "name": "longOrShort",
          "type": "bool"
        },
        {
          "internalType": "uint256",
          "name": "alpha",
          "type": "uint256"
        }
      ],
      "stateMutability": "view",
      "type": "function"
    },
    {
      "inputs": [
        {
          "internalType": "uint256",
          "name": "tokenId",
          "type": "uint256"
        }
      ],
      "name": "tokenURI",
      "outputs": [
        {
          "internalType": "string",
          "name": "",
          "type": "string"
        }
      ],
      "stateMutability": "view",
      "type": "function"
    },
    {
      "inputs": [],
      "name": "totalDeposits",
      "outputs": [
        {
          "internalType": "uint256",
          "name": "",
          "type": "uint256"
        }
      ],
      "stateMutability": "view",
      "type": "function"
    },
    {
      "inputs": [],
      "name": "totalDepositsLONG",
      "outputs": [
        {
          "internalType": "uint256",
          "name": "",
          "type": "uint256"
        }
      ],
      "stateMutability": "view",
      "type": "function"
    },
    {
      "inputs": [],
      "name": "totalDepositsSHORT",
      "outputs": [
        {
          "internalType": "uint256",
          "name": "",
          "type": "uint256"
        }
      ],
      "stateMutability": "view",
      "type": "function"
    },
    {
      "inputs": [],
      "name": "totalReturnedFromStrat",
      "outputs": [
        {
          "internalType": "uint256",
          "name": "",
          "type": "uint256"
        }
      ],
      "stateMutability": "view",
      "type": "function"
    },
    {
      "inputs": [],
      "name": "totalRewards",
      "outputs": [
        {
          "internalType": "uint256",
          "name": "",
          "type": "uint256"
        }
      ],
      "stateMutability": "view",
      "type": "function"
    },
    {
      "inputs": [
        {
          "internalType": "address",
          "name": "from",
          "type": "address"
        },
        {
          "internalType": "address",
          "name": "to",
          "type": "address"
        },
        {
          "internalType": "uint256",
          "name": "tokenId",
          "type": "uint256"
        }
      ],
      "name": "transferFrom",
      "outputs": [],
      "stateMutability": "nonpayable",
      "type": "function"
    },
    {
      "inputs": [
        {
          "internalType": "address",
          "name": "newOwner",
          "type": "address"
        }
      ],
      "name": "transferOwnership",
      "outputs": [],
      "stateMutability": "nonpayable",
      "type": "function"
    },
    {
      "inputs": [],
      "name": "withdrawFees",
      "outputs": [
        {
          "internalType": "uint256",
          "name": "",
          "type": "uint256"
        }
      ],
      "stateMutability": "view",
      "type": "function"
    }
  ],
  "bytecode": {
    "object": "0x60806040523480156200001157600080fd5b506040516200355b3803806200355b833981016040819052620000349162000484565b81816000620000448382620005e9565b506001620000538282620005e9565b505050620000706200006a6200018e60201b60201c565b62000192565b610bb8841115620000b95760405162461bcd60e51b815260206004820152600e60248201526d4d6178206665652069732033302560901b60448201526064015b60405180910390fd5b428710156200010b5760405162461bcd60e51b815260206004820152601e60248201527f737461727454696d652063616e277420626520696e20746865207061737400006044820152606401620000b0565b601a80546001600160a01b03808c166001600160a01b03199283161790925560178c9055601b80549288169290911691909117905560098890556007879055620001568888620006b5565b60085560188690556014849055620001726012846002620002c1565b506200017e32620001e4565b50505050505050505050620006dd565b3390565b600680546001600160a01b038381166001600160a01b0319831681179093556040519116919082907f8be0079c531659141344cd1fd0a4f28419497f9722a3daafe3b4186f6b6457e090600090a35050565b620001ee62000263565b6001600160a01b038116620002555760405162461bcd60e51b815260206004820152602660248201527f4f776e61626c653a206e6577206f776e657220697320746865207a65726f206160448201526564647265737360d01b6064820152608401620000b0565b620002608162000192565b50565b6006546001600160a01b03163314620002bf5760405162461bcd60e51b815260206004820181905260248201527f4f776e61626c653a2063616c6c6572206973206e6f7420746865206f776e65726044820152606401620000b0565b565b8260028101928215620002f2579160200282015b82811115620002f2578251825591602001919060010190620002d5565b506200030092915062000304565b5090565b5b8082111562000300576000815560010162000305565b80516001600160a01b03811681146200033357600080fd5b919050565b634e487b7160e01b600052604160045260246000fd5b604051601f8201601f191681016001600160401b038111828210171562000379576200037962000338565b604052919050565b600082601f8301126200039357600080fd5b604080519081016001600160401b0381118282101715620003b857620003b862000338565b8060405250806040840185811115620003d057600080fd5b845b81811015620003ec578051835260209283019201620003d2565b509195945050505050565b600082601f8301126200040957600080fd5b81516001600160401b0381111562000425576200042562000338565b60206200043b601f8301601f191682016200034e565b82815285828487010111156200045057600080fd5b60005b838110156200047057858101830151828201840152820162000453565b506000928101909101919091529392505050565b6000806000806000806000806000806101608b8d031215620004a557600080fd5b8a519950620004b760208c016200031b565b985060408b0151975060608b0151965060808b01519550620004dc60a08c016200031b565b945060c08b01519350620004f48c60e08d0162000381565b6101208c01519093506001600160401b03808211156200051357600080fd5b620005218e838f01620003f7565b93506101408d01519150808211156200053957600080fd5b50620005488d828e01620003f7565b9150509295989b9194979a5092959850565b600181811c908216806200056f57607f821691505b6020821081036200059057634e487b7160e01b600052602260045260246000fd5b50919050565b601f821115620005e457600081815260208120601f850160051c81016020861015620005bf5750805b601f850160051c820191505b81811015620005e057828155600101620005cb565b5050505b505050565b81516001600160401b0381111562000605576200060562000338565b6200061d816200061684546200055a565b8462000596565b602080601f8311600181146200065557600084156200063c5750858301515b600019600386901b1c1916600185901b178555620005e0565b600085815260208120601f198616915b82811015620006865788860151825594840194600190910190840162000665565b5085821015620006a55787850151600019600388901b60f8161c191681555b5050505050600190811b01905550565b80820180821115620006d757634e487b7160e01b600052601160045260246000fd5b92915050565b612e6e80620006ed6000396000f3fe608060405234801561001057600080fd5b50600436106102945760003560e01c806378e9792511610167578063b88d4fde116100ce578063d8a2b7f011610087578063d8a2b7f014610579578063e985e9c51461058c578063eb4c74b81461059f578063f071db5a146105b2578063f2a16e04146105bb578063f2fde38b146105ce57600080fd5b8063b88d4fde146104d8578063bb77d7ea146104eb578063bd05e965146104f4578063c52987cf14610555578063c87965721461055e578063c87b56dd1461056657600080fd5b806395d89b411161012057806395d89b41146104995780639f181b5e146104a1578063a22cb465146104aa578063ae7f93e8146104bd578063af5260bf146104c6578063b868723e146104cf57600080fd5b806378e97925146104465780637d79669e1461044f5780637d882097146104635780638327bed31461046c5780638901ba12146104805780638da5cb5b1461048857600080fd5b806333a100ca1161020b57806354bf5d13116101c457806354bf5d13146103ff5780636352211e1461040857806366805de51461041b5780636fdeeae51461042357806370a082311461042b578063715018a61461043e57600080fd5b806333a100ca146103ab5780633b649812146103be5780633f3f4537146103c757806342842e0e146103d0578063476343ee146103e35780634a5f0fb0146103ec57600080fd5b80630dff5c571161025d5780630dff5c57146103495780630e15561a1461035c5780630fb5a6b4146103735780631bc6a79e1461037c5780631c4b774b1461038557806323b872dd1461039857600080fd5b8062a6e7301461029957806301ffc9a7146102d157806306fdde03146102f4578063081812fc14610309578063095ea7b314610334575b600080fd5b6102ac6102a7366004612727565b6105e1565b6040805194855260208501939093529183015260608201526080015b60405180910390f35b6102e46102df36600461276d565b610997565b60405190151581526020016102c8565b6102fc6109e9565b6040516102c891906127da565b61031c6103173660046127ed565b610a7b565b6040516001600160a01b0390911681526020016102c8565b61034761034236600461281d565b610aa2565b005b60195461031c906001600160a01b031681565b610365600b5481565b6040519081526020016102c8565b61036560095481565b61036560185481565b6103656103933660046127ed565b610bb7565b6103476103a6366004612847565b610de1565b6103476103b9366004612883565b610e12565b610365600e5481565b610365600f5481565b6103476103de366004612847565b610e5f565b61036560145481565b601a5461031c906001600160a01b031681565b61036560165481565b61031c6104163660046127ed565b610e7a565b610347610eda565b61036561102e565b610365610439366004612883565b6110f3565b610347611179565b61036560075481565b601b546102e490600160a81b900460ff1681565b610365600d5481565b601b546102e490600160a01b900460ff1681565b61036561118d565b6006546001600160a01b031661031c565b6102fc6111e6565b610365600c5481565b6103476104b836600461289e565b6111f5565b61036560105481565b61036560085481565b610365600a5481565b6103476104e63660046128e0565b611200565b61036560155481565b61052f6105023660046127ed565b601c6020526000908152604090208054600182015460028301546003909301549192909160ff9091169084565b6040805194855260208501939093529015159183019190915260608201526080016102c8565b61036560175481565b610347611238565b6102fc6105743660046127ed565b6112b5565b601b5461031c906001600160a01b031681565b6102e461059a3660046129bc565b611329565b6103656105ad3660046129ef565b611357565b61036560115481565b6103656105c93660046127ed565b611447565b6103476105dc366004612883565b61145e565b6000806000806007544210156105f657600080fd5b84151560010361067857601254600e54610611908890612a38565b11156106735760405162461bcd60e51b815260206004820152602660248201527f4d617820616d6f756e7420666f72206c6f6e6720706f736974696f6e7320657860448201526518d95959195960d21b60648201526084015b60405180910390fd5b6106e7565b601354600f54610689908890612a38565b11156106e75760405162461bcd60e51b815260206004820152602760248201527f4d617820616d6f756e7420666f722073686f727420706f736974696f6e7320656044820152661e18d95959195960ca1b606482015260840161066a565b601b5460408051633fabe5a360e21b815290516000926001600160a01b03169163feaf968c9160048083019260a09291908290030181865afa158015610731573d6000803e3d6000fd5b505050506040513d601f19601f820116820180604052508101906107559190612a65565b5050509150506000811361076857600080fd5b86600d600082825461077a9190612a38565b9091555081905087600061078d836114d4565b9050600061079b828b6116f0565b601a549091506000906107b8908d906001600160a01b0316611790565b90506000600954426008546107cd9190612ab5565b6107d78585612ac8565b6107e19190612ac8565b6107eb9190612afd565b600c805491925060006107fd83612b11565b91905055506000600c5490506000601c600083815260200190815260200160002090508e81600001819055508581600101819055508d8160020160006101000a81548160ff0219169083151502179055508281600301819055508d151560011515036108995782601560008282546108759190612a38565b925050819055508e600e600082825461088e9190612a38565b909155506108d49050565b8d15156000036108d45782601660008282546108b59190612a38565b925050819055508e600f60008282546108ce9190612a38565b90915550505b6108ec33601a546001600160a01b031690308a611974565b601954601a54610909916001600160a01b039182169116896119df565b601954601a546040516311f9fbc960e21b81526001600160a01b039182166004820152602481018a90529116906347e7ef2490604401600060405180830381600087803b15801561095957600080fd5b505af115801561096d573d6000803e3d6000fd5b5050505061098161097b3390565b83611af4565b50929d909c50929a509850909650505050505050565b60006001600160e01b031982166380ac58cd60e01b14806109c857506001600160e01b03198216635b5e139f60e01b145b806109e357506301ffc9a760e01b6001600160e01b03198316145b92915050565b6060600080546109f890612b2a565b80601f0160208091040260200160405190810160405280929190818152602001828054610a2490612b2a565b8015610a715780601f10610a4657610100808354040283529160200191610a71565b820191906000526020600020905b815481529060010190602001808311610a5457829003601f168201915b5050505050905090565b6000610a8682611b0e565b506000908152600460205260409020546001600160a01b031690565b6000610aad82610e7a565b9050806001600160a01b0316836001600160a01b031603610b1a5760405162461bcd60e51b815260206004820152602160248201527f4552433732313a20617070726f76616c20746f2063757272656e74206f776e656044820152603960f91b606482015260840161066a565b336001600160a01b0382161480610b365750610b368133611329565b610ba85760405162461bcd60e51b815260206004820152603e60248201527f4552433732313a20617070726f76652063616c6c6572206973206e6f7420746f60448201527f6b656e206f776e6572206e6f7220617070726f76656420666f7220616c6c0000606482015260840161066a565b610bb28383611b6d565b505050565b600060085442118015610bd85750601b54600160a01b900460ff1615156001145b610be157600080fd5b33610beb83610e7a565b6001600160a01b031614610c415760405162461bcd60e51b815260206004820152601d60248201527f75736572206973206e6f74204f776e6572206f6620746f6b656e204944000000604482015260640161066a565b6000806000806010541115610ca457600d546010546000878152601c6020526040902054610c6f9190612ac8565b610c799190612afd565b9250610c8485611bdb565b610c9b33601a546001600160a01b03169085611c76565b50909392505050565b601754600a5410158015610cce57506000858152601c602052604090206002015460ff1615156001145b15610d3b576000858152601c6020526040812060030154601554600b54919450610cfa92859190611ca6565b601454909350610d109084906127106001611ca6565b9050610d1c8184612ab5565b92508060116000828254610d309190612a38565b90915550610dc89050565b601754600a54108015610d6057506000858152601c602052604090206002015460ff16155b15610dc8576000858152601c6020526040812060030154601654600b54919450610d8c92859190611ca6565b601454909350610da29084906127106001611ca6565b9050610dae8184612ab5565b92508060116000828254610dc29190612a38565b90915550505b6000858152601c6020526040902054610c799084612a38565b610deb3382611d05565b610e075760405162461bcd60e51b815260040161066a90612b64565b610bb2838383611d63565b601b54600160a81b900460ff1615610e2957600080fd5b601b805460ff60a81b1916600160a81b179055601980546001600160a01b039092166001600160a01b0319909216919091179055565b610bb283838360405180602001604052806000815250611200565b6000818152600260205260408120546001600160a01b0316806109e35760405162461bcd60e51b8152602060048201526018602482015277115490cdcc8c4e881a5b9d985b1a59081d1bdad95b88125160421b604482015260640161066a565b610ee2611eff565b6008544211610ef057600080fd5b601b805460ff60a01b198116600160a01b1790915560408051633fabe5a360e21b815290516000926001600160a01b03169163feaf968c9160048083019260a09291908290030181865afa158015610f4c573d6000803e3d6000fd5b505050506040513d601f19601f82011682018060405250810190610f709190612a65565b50505091505060008113610f8357600080fd5b610f8c816114d4565b600a5560195460408051633ccfd60b60e01b815290516000926001600160a01b031691633ccfd60b916004808301926020929190829003018187875af1158015610fda573d6000803e3d6000fd5b505050506040513d601f19601f82011682018060405250810190610ffe9190612bb2565b9050600d54811161100f5760105550565b600d5481111561102a57600d546110269082612ab5565b600b555b5050565b600f54600090156110ed57600f54601a546040805163313ce56760e01b81529051600093926001600160a01b03169163313ce5679160048083019260209291908290030181865afa158015611087573d6000803e3d6000fd5b505050506040513d601f19601f820116820180604052508101906110ab9190612bcb565b6110b690600a612cd2565b600d546110c39190612ac8565b6110cd9190612afd565b601a549091506110e79082906001600160a01b0316611790565b91505090565b50600090565b60006001600160a01b03821661115d5760405162461bcd60e51b815260206004820152602960248201527f4552433732313a2061646472657373207a65726f206973206e6f7420612076616044820152683634b21037bbb732b960b91b606482015260840161066a565b506001600160a01b031660009081526003602052604090205490565b611181611eff565b61118b6000611f59565b565b600e54600090156110ed57600e54601a546040805163313ce56760e01b81529051600093926001600160a01b03169163313ce5679160048083019260209291908290030181865afa158015611087573d6000803e3d6000fd5b6060600180546109f890612b2a565b61102a338383611fab565b61120a3383611d05565b6112265760405162461bcd60e51b815260040161066a90612b64565b61123284848484612079565b50505050565b611240611eff565b6000601154116112925760405162461bcd60e51b815260206004820152601b60248201527f6e6f7420656e6f756768206665657320746f2077697468647261770000000000604482015260640161066a565b6011805460009091556112b233601a546001600160a01b03169083611c76565b50565b60606112c082611b0e565b60006112d760408051602081019091526000815290565b905060008151116112f75760405180602001604052806000815250611322565b80611301846120ac565b604051602001611312929190612ce1565b6040516020818303038152906040525b9392505050565b6001600160a01b03918216600090815260056020908152604080832093909416825291909152205460ff1690565b600080601b60009054906101000a90046001600160a01b03166001600160a01b031663feaf968c6040518163ffffffff1660e01b815260040160a060405180830381865afa1580156113ad573d6000803e3d6000fd5b505050506040513d601f19601f820116820180604052508101906113d19190612a65565b505050915050600081136113e457600080fd5b60006113ef826114d4565b90508315156001036114185760175481106114135761140c61118d565b9250611418565b600092505b8315156000036114405760175481101561143b5761143461102e565b9250611440565b600092505b5050919050565b6012816002811061145757600080fd5b0154905081565b611466611eff565b6001600160a01b0381166114cb5760405162461bcd60e51b815260206004820152602660248201527f4f776e61626c653a206e6577206f776e657220697320746865207a65726f206160448201526564647265737360d01b606482015260840161066a565b6112b281611f59565b601b546040805163313ce56760e01b8152905183926009926001600160a01b039091169163313ce567916004808201926020929091908290030181865afa158015611523573d6000803e3d6000fd5b505050506040513d601f19601f820116820180604052508101906115479190612bcb565b60ff1610156115e757601b60009054906101000a90046001600160a01b03166001600160a01b031663313ce5676040518163ffffffff1660e01b8152600401602060405180830381865afa1580156115a3573d6000803e3d6000fd5b505050506040513d601f19601f820116820180604052508101906115c79190612bcb565b6115d2906009612d10565b6115dd90600a612cd2565b6109e39082612ac8565b601b546040805163313ce56760e01b815290516009926001600160a01b03169163313ce5679160048083019260209291908290030181865afa158015611631573d6000803e3d6000fd5b505050506040513d601f19601f820116820180604052508101906116559190612bcb565b60ff1611156116eb57601b546040805163313ce56760e01b815290516009926001600160a01b03169163313ce5679160048083019260209291908290030181865afa1580156116a8573d6000803e3d6000fd5b505050506040513d601f19601f820116820180604052508101906116cc9190612bcb565b6116d69190612d10565b6116e190600a612cd2565b6109e39082612afd565b919050565b6000811515600103611758576017548311156117115750633b9aca006109e3565b6017548311611758576018548360175461172b9190612ab5565b61173990633b9aca00612ac8565b6117439190612afd565b61175190633b9aca00612a38565b90506109e3565b8115156000036109e3578260175411156117775750633b9aca006109e3565b82601754116109e35760185460175461172b9085612ab5565b60008290506009826001600160a01b031663313ce5676040518163ffffffff1660e01b8152600401602060405180830381865afa1580156117d5573d6000803e3d6000fd5b505050506040513d601f19601f820116820180604052508101906117f99190612bcb565b60ff16101561188457816001600160a01b031663313ce5676040518163ffffffff1660e01b8152600401602060405180830381865afa158015611840573d6000803e3d6000fd5b505050506040513d601f19601f820116820180604052508101906118649190612bcb565b61186f906009612d10565b61187a90600a612cd2565b6117519082612ac8565b6009826001600160a01b031663313ce5676040518163ffffffff1660e01b8152600401602060405180830381865afa1580156118c4573d6000803e3d6000fd5b505050506040513d601f19601f820116820180604052508101906118e89190612bcb565b60ff1611156109e3576009826001600160a01b031663313ce5676040518163ffffffff1660e01b8152600401602060405180830381865afa158015611931573d6000803e3d6000fd5b505050506040513d601f19601f820116820180604052508101906119559190612bcb565b61195f9190612d10565b61196a90600a612cd2565b6113229082612afd565b6040516001600160a01b03808516602483015283166044820152606481018290526112329085906323b872dd60e01b906084015b60408051601f198184030181529190526020810180516001600160e01b03166001600160e01b0319909316929092179091526121ad565b801580611a595750604051636eb1769f60e11b81523060048201526001600160a01b03838116602483015284169063dd62ed3e90604401602060405180830381865afa158015611a33573d6000803e3d6000fd5b505050506040513d601f19601f82011682018060405250810190611a579190612bb2565b155b611ac45760405162461bcd60e51b815260206004820152603660248201527f5361666545524332303a20617070726f76652066726f6d206e6f6e2d7a65726f60448201527520746f206e6f6e2d7a65726f20616c6c6f77616e636560501b606482015260840161066a565b6040516001600160a01b038316602482015260448101829052610bb290849063095ea7b360e01b906064016119a8565b61102a82826040518060200160405280600081525061227f565b6000818152600260205260409020546001600160a01b03166112b25760405162461bcd60e51b8152602060048201526018602482015277115490cdcc8c4e881a5b9d985b1a59081d1bdad95b88125160421b604482015260640161066a565b600081815260046020526040902080546001600160a01b0319166001600160a01b0384169081179091558190611ba282610e7a565b6001600160a01b03167f8c5be1e5ebec7d5bd14f71427d1e84f3dd0314c0f7b2291e5b200ac8c7c3b92560405160405180910390a45050565b6000611be682610e7a565b9050611bf3600083611b6d565b6001600160a01b0381166000908152600360205260408120805460019290611c1c908490612ab5565b909155505060008281526002602052604080822080546001600160a01b0319169055518391906001600160a01b038416907fddf252ad1be2c89b69c2b068fc378daa952ba7f163c4a11628f55a4df523b3ef908390a45050565b6040516001600160a01b038316602482015260448101829052610bb290849063a9059cbb60e01b906064016119a8565b600080611cb48686866122b2565b90506001836002811115611cca57611cca612d29565b148015611ce7575060008480611ce257611ce2612ae7565b868809115b15611cfa57611cf7600182612a38565b90505b90505b949350505050565b600080611d1183610e7a565b9050806001600160a01b0316846001600160a01b03161480611d385750611d388185611329565b80611cfd5750836001600160a01b0316611d5184610a7b565b6001600160a01b031614949350505050565b826001600160a01b0316611d7682610e7a565b6001600160a01b031614611dda5760405162461bcd60e51b815260206004820152602560248201527f4552433732313a207472616e736665722066726f6d20696e636f72726563742060448201526437bbb732b960d91b606482015260840161066a565b6001600160a01b038216611e3c5760405162461bcd60e51b8152602060048201526024808201527f4552433732313a207472616e7366657220746f20746865207a65726f206164646044820152637265737360e01b606482015260840161066a565b611e47600082611b6d565b6001600160a01b0383166000908152600360205260408120805460019290611e70908490612ab5565b90915550506001600160a01b0382166000908152600360205260408120805460019290611e9e908490612a38565b909155505060008181526002602052604080822080546001600160a01b0319166001600160a01b0386811691821790925591518493918716917fddf252ad1be2c89b69c2b068fc378daa952ba7f163c4a11628f55a4df523b3ef91a4505050565b6006546001600160a01b0316331461118b5760405162461bcd60e51b815260206004820181905260248201527f4f776e61626c653a2063616c6c6572206973206e6f7420746865206f776e6572604482015260640161066a565b600680546001600160a01b038381166001600160a01b0319831681179093556040519116919082907f8be0079c531659141344cd1fd0a4f28419497f9722a3daafe3b4186f6b6457e090600090a35050565b816001600160a01b0316836001600160a01b03160361200c5760405162461bcd60e51b815260206004820152601960248201527f4552433732313a20617070726f766520746f2063616c6c657200000000000000604482015260640161066a565b6001600160a01b03838116600081815260056020908152604080832094871680845294825291829020805460ff191686151590811790915591519182527f17307eab39ab6107e8899845ad3d59bd9653f200f220920489ca2b5937696c31910160405180910390a3505050565b612084848484611d63565b61209084848484612360565b6112325760405162461bcd60e51b815260040161066a90612d3f565b6060816000036120d35750506040805180820190915260018152600360fc1b602082015290565b8160005b81156120fd57806120e781612b11565b91506120f69050600a83612afd565b91506120d7565b60008167ffffffffffffffff811115612118576121186128ca565b6040519080825280601f01601f191660200182016040528015612142576020820181803683370190505b5090505b8415611cfd57612157600183612ab5565b9150612164600a86612d91565b61216f906030612a38565b60f81b81838151811061218457612184612a0c565b60200101906001600160f81b031916908160001a9053506121a6600a86612afd565b9450612146565b6000612202826040518060400160405280602081526020017f5361666545524332303a206c6f772d6c6576656c2063616c6c206661696c6564815250856001600160a01b031661245e9092919063ffffffff16565b805190915015610bb257808060200190518101906122209190612da5565b610bb25760405162461bcd60e51b815260206004820152602a60248201527f5361666545524332303a204552433230206f7065726174696f6e20646964206e6044820152691bdd081cdd58d8d9595960b21b606482015260840161066a565b612289838361246d565b6122966000848484612360565b610bb25760405162461bcd60e51b815260040161066a90612d3f565b60008080600019858709858702925082811083820303915050806000036122ec578382816122e2576122e2612ae7565b0492505050611322565b8084116122f857600080fd5b600084868809600260036001881981018916988990049182028318808302840302808302840302808302840302808302840302808302840302918202909203026000889003889004909101858311909403939093029303949094049190911702949350505050565b60006001600160a01b0384163b1561245657604051630a85bd0160e11b81526001600160a01b0385169063150b7a02906123a4903390899088908890600401612dc2565b6020604051808303816000875af19250505080156123df575060408051601f3d908101601f191682019092526123dc91810190612dff565b60015b61243c573d80801561240d576040519150601f19603f3d011682016040523d82523d6000602084013e612412565b606091505b5080516000036124345760405162461bcd60e51b815260040161066a90612d3f565b805181602001fd5b6001600160e01b031916630a85bd0160e11b149050611cfd565b506001611cfd565b6060611cfd84846000856125af565b6001600160a01b0382166124c35760405162461bcd60e51b815260206004820181905260248201527f4552433732313a206d696e7420746f20746865207a65726f2061646472657373604482015260640161066a565b6000818152600260205260409020546001600160a01b0316156125285760405162461bcd60e51b815260206004820152601c60248201527f4552433732313a20746f6b656e20616c7265616479206d696e74656400000000604482015260640161066a565b6001600160a01b0382166000908152600360205260408120805460019290612551908490612a38565b909155505060008181526002602052604080822080546001600160a01b0319166001600160a01b03861690811790915590518392907fddf252ad1be2c89b69c2b068fc378daa952ba7f163c4a11628f55a4df523b3ef908290a45050565b6060824710156126105760405162461bcd60e51b815260206004820152602660248201527f416464726573733a20696e73756666696369656e742062616c616e636520666f6044820152651c8818d85b1b60d21b606482015260840161066a565b6001600160a01b0385163b6126675760405162461bcd60e51b815260206004820152601d60248201527f416464726573733a2063616c6c20746f206e6f6e2d636f6e7472616374000000604482015260640161066a565b600080866001600160a01b031685876040516126839190612e1c565b60006040518083038185875af1925050503d80600081146126c0576040519150601f19603f3d011682016040523d82523d6000602084013e6126c5565b606091505b50915091506126d58282866126e0565b979650505050505050565b606083156126ef575081611322565b8251156126ff5782518084602001fd5b8160405162461bcd60e51b815260040161066a91906127da565b80151581146112b257600080fd5b6000806040838503121561273a57600080fd5b82359150602083013561274c81612719565b809150509250929050565b6001600160e01b0319811681146112b257600080fd5b60006020828403121561277f57600080fd5b813561132281612757565b60005b838110156127a557818101518382015260200161278d565b50506000910152565b600081518084526127c681602086016020860161278a565b601f01601f19169290920160200192915050565b60208152600061132260208301846127ae565b6000602082840312156127ff57600080fd5b5035919050565b80356001600160a01b03811681146116eb57600080fd5b6000806040838503121561283057600080fd5b61283983612806565b946020939093013593505050565b60008060006060848603121561285c57600080fd5b61286584612806565b925061287360208501612806565b9150604084013590509250925092565b60006020828403121561289557600080fd5b61132282612806565b600080604083850312156128b157600080fd5b6128ba83612806565b9150602083013561274c81612719565b634e487b7160e01b600052604160045260246000fd5b600080600080608085870312156128f657600080fd5b6128ff85612806565b935061290d60208601612806565b925060408501359150606085013567ffffffffffffffff8082111561293157600080fd5b818701915087601f83011261294557600080fd5b813581811115612957576129576128ca565b604051601f8201601f19908116603f0116810190838211818310171561297f5761297f6128ca565b816040528281528a602084870101111561299857600080fd5b82602086016020830137600060208483010152809550505050505092959194509250565b600080604083850312156129cf57600080fd5b6129d883612806565b91506129e660208401612806565b90509250929050565b600060208284031215612a0157600080fd5b813561132281612719565b634e487b7160e01b600052603260045260246000fd5b634e487b7160e01b600052601160045260246000fd5b808201808211156109e3576109e3612a22565b805169ffffffffffffffffffff811681146116eb57600080fd5b600080600080600060a08688031215612a7d57600080fd5b612a8686612a4b565b9450602086015193506040860151925060608601519150612aa960808701612a4b565b90509295509295909350565b818103818111156109e3576109e3612a22565b6000816000190483118215151615612ae257612ae2612a22565b500290565b634e487b7160e01b600052601260045260246000fd5b600082612b0c57612b0c612ae7565b500490565b600060018201612b2357612b23612a22565b5060010190565b600181811c90821680612b3e57607f821691505b602082108103612b5e57634e487b7160e01b600052602260045260246000fd5b50919050565b6020808252602e908201527f4552433732313a2063616c6c6572206973206e6f7420746f6b656e206f776e6560408201526d1c881b9bdc88185c1c1c9bdd995960921b606082015260800190565b600060208284031215612bc457600080fd5b5051919050565b600060208284031215612bdd57600080fd5b815160ff8116811461132257600080fd5b600181815b80851115612c29578160001904821115612c0f57612c0f612a22565b80851615612c1c57918102915b93841c9390800290612bf3565b509250929050565b600082612c40575060016109e3565b81612c4d575060006109e3565b8160018114612c635760028114612c6d57612c89565b60019150506109e3565b60ff841115612c7e57612c7e612a22565b50506001821b6109e3565b5060208310610133831016604e8410600b8410161715612cac575081810a6109e3565b612cb68383612bee565b8060001904821115612cca57612cca612a22565b029392505050565b600061132260ff841683612c31565b60008351612cf381846020880161278a565b835190830190612d0781836020880161278a565b01949350505050565b60ff82811682821603908111156109e3576109e3612a22565b634e487b7160e01b600052602160045260246000fd5b60208082526032908201527f4552433732313a207472616e7366657220746f206e6f6e20455243373231526560408201527131b2b4bb32b91034b6b83632b6b2b73a32b960711b606082015260800190565b600082612da057612da0612ae7565b500690565b600060208284031215612db757600080fd5b815161132281612719565b6001600160a01b0385811682528416602082015260408101839052608060608201819052600090612df5908301846127ae565b9695505050505050565b600060208284031215612e1157600080fd5b815161132281612757565b60008251612e2e81846020870161278a565b919091019291505056fea264697066735822122058ff1dbbd762a5aae4f0e7d38950db76718a898b4fcc1e681ab29a0e6192d01d64736f6c63430008100033",
    "linkReferences": {}
  },
  "methodIdentifiers": {
    "actualAPYBooster(bool)": "eb4c74b8",
    "alphaLongs()": "bb77d7ea",
    "alphaShorts()": "54bf5d13",
    "approve(address,uint256)": "095ea7b3",
    "apyBoosterLong()": "8901ba12",
    "apyBoosterShort()": "6fdeeae5",
    "balanceOf(address)": "70a08231",
    "capLongShort(uint256)": "f2a16e04",
    "chainlinkPriceFeed()": "d8a2b7f0",
    "closePool()": "66805de5",
    "collectFees()": "c8796572",
    "deltaPrice()": "1bc6a79e",
    "depositFunds(uint256,bool)": "00a6e730",
    "duration()": "0fb5a6b4",
    "endPrice()": "b868723e",
    "feesCollected()": "f071db5a",
    "finalTime()": "af5260bf",
    "getApproved(uint256)": "081812fc",
    "getReward(uint256)": "1c4b774b",
    "isApprovedForAll(address,address)": "e985e9c5",
    "name()": "06fdde03",
    "owner()": "8da5cb5b",
    "ownerOf(uint256)": "6352211e",
    "poolIsClosed()": "8327bed3",
    "renounceOwnership()": "715018a6",
    "safeTransferFrom(address,address,uint256)": "42842e0e",
    "safeTransferFrom(address,address,uint256,bytes)": "b88d4fde",
    "setApprovalForAll(address,bool)": "a22cb465",
    "setStrategy(address)": "33a100ca",
    "startTime()": "78e97925",
    "stratContract()": "0dff5c57",
    "strategyActivated()": "7d79669e",
    "strikePrice()": "c52987cf",
    "suppliedAsset()": "4a5f0fb0",
    "supportsInterface(bytes4)": "01ffc9a7",
    "symbol()": "95d89b41",
    "tokenCount()": "9f181b5e",
    "tokenToPosition(uint256)": "bd05e965",
    "tokenURI(uint256)": "c87b56dd",
    "totalDeposits()": "7d882097",
    "totalDepositsLONG()": "3b649812",
    "totalDepositsSHORT()": "3f3f4537",
    "totalReturnedFromStrat()": "ae7f93e8",
    "totalRewards()": "0e15561a",
    "transferFrom(address,address,uint256)": "23b872dd",
    "transferOwnership(address)": "f2fde38b",
    "withdrawFees()": "476343ee"
  },
  "id": 0
}