{
  "abi": [
    {
      "inputs": [
        {
          "internalType": "address",
          "name": "_underlyingToken",
          "type": "address"
        },
        {
          "internalType": "address",
          "name": "_pool",
          "type": "address"
        }
      ],
      "stateMutability": "nonpayable",
      "type": "constructor"
    },
    {
      "anonymous": false,
      "inputs": [
        {
          "indexed": true,
          "internalType": "address",
          "name": "previousOwner",
          "type": "address"
        },
        {
          "indexed": true,
          "internalType": "address",
          "name": "newOwner",
          "type": "address"
        }
      ],
      "name": "OwnershipTransferred",
      "type": "event"
    },
    {
      "inputs": [
        {
          "internalType": "address",
          "name": "token",
          "type": "address"
        },
        {
          "internalType": "uint256",
          "name": "amount",
          "type": "uint256"
        }
      ],
      "name": "deposit",
      "outputs": [],
      "stateMutability": "nonpayable",
      "type": "function"
    },
    {
      "inputs": [],
      "name": "getSupplyAPY",
      "outputs": [
        {
          "internalType": "uint256",
          "name": "_apy",
          "type": "uint256"
        }
      ],
      "stateMutability": "view",
      "type": "function"
    },
    {
      "inputs": [],
      "name": "owner",
      "outputs": [
        {
          "internalType": "address",
          "name": "",
          "type": "address"
        }
      ],
      "stateMutability": "view",
      "type": "function"
    },
    {
      "inputs": [],
      "name": "renounceOwnership",
      "outputs": [],
      "stateMutability": "nonpayable",
      "type": "function"
    },
    {
      "inputs": [],
      "name": "stratBalance",
      "outputs": [
        {
          "internalType": "uint256",
          "name": "totalInvested",
          "type": "uint256"
        }
      ],
      "stateMutability": "nonpayable",
      "type": "function"
    },
    {
      "inputs": [
        {
          "internalType": "address",
          "name": "newOwner",
          "type": "address"
        }
      ],
      "name": "transferOwnership",
      "outputs": [],
      "stateMutability": "nonpayable",
      "type": "function"
    },
    {
      "inputs": [],
      "name": "underlyingToken",
      "outputs": [
        {
          "internalType": "address",
          "name": "",
          "type": "address"
        }
      ],
      "stateMutability": "view",
      "type": "function"
    },
    {
      "inputs": [],
      "name": "withdraw",
      "outputs": [
        {
          "internalType": "uint256",
          "name": "returnedAmount",
          "type": "uint256"
        }
      ],
      "stateMutability": "nonpayable",
      "type": "function"
    }
  ],
  "bytecode": {
    "object": "0x6080604052600180546001600160a01b03199081167327182842e098f60e3d576794a5bffb0777e025d317909155600280548216733520d5a913427e6f0d6a83e07ccd4a4da316e4d3908117909155600380548316735077b7642abf198b4a5b7c4bdce4f03016c7089c179055600480549092161790553480156200008357600080fd5b5060405162000fb238038062000fb2833981016040819052620000a6916200022d565b620000b133620000df565b600580546001600160a01b0319166001600160a01b038416179055620000d7816200012f565b505062000265565b600080546001600160a01b038381166001600160a01b0319831681178455604051919092169283917f8be0079c531659141344cd1fd0a4f28419497f9722a3daafe3b4186f6b6457e09190a35050565b62000139620001b2565b6001600160a01b038116620001a45760405162461bcd60e51b815260206004820152602660248201527f4f776e61626c653a206e6577206f776e657220697320746865207a65726f206160448201526564647265737360d01b60648201526084015b60405180910390fd5b620001af81620000df565b50565b6000546001600160a01b031633146200020e5760405162461bcd60e51b815260206004820181905260248201527f4f776e61626c653a2063616c6c6572206973206e6f7420746865206f776e657260448201526064016200019b565b565b80516001600160a01b03811681146200022857600080fd5b919050565b600080604083850312156200024157600080fd5b6200024c8362000210565b91506200025c6020840162000210565b90509250929050565b610d3d80620002756000396000f3fe608060405234801561001057600080fd5b50600436106100885760003560e01c8063715018a61161005b578063715018a6146100f05780638da5cb5b146100f85780639f560dd514610109578063f2fde38b1461011157600080fd5b80632495a5991461008d5780633ccfd60b146100bd5780633e8fa4e5146100d357806347e7ef24146100db575b600080fd5b6005546100a0906001600160a01b031681565b6040516001600160a01b0390911681526020015b60405180910390f35b6100c5610124565b6040519081526020016100b4565b6100c561031d565b6100ee6100e9366004610ba3565b61040c565b005b6100ee6105b3565b6000546001600160a01b03166100a0565b6100c56105c7565b6100ee61011f366004610bcf565b61065b565b600061012e6106d4565b60048054600554604051638948874960e01b81526001600160a01b03918216938101939093526000929116906389488749906024016020604051808303816000875af1158015610182573d6000803e3d6000fd5b505050506040513d601f19601f820116820180604052508101906101a69190610bec565b9050806001600160a01b031663441a3e7060006101c161031d565b6040516001600160e01b031960e085901b16815260048101929092526024820152604401600060405180830381600087803b1580156101ff57600080fd5b505af1158015610213573d6000803e3d6000fd5b50506005546040516370a0823160e01b81523060048201526001600160a01b0390911692506370a082319150602401602060405180830381865afa15801561025f573d6000803e3d6000fd5b505050506040513d601f19601f820116820180604052508101906102839190610c09565b915061031961029a6000546001600160a01b031690565b6005546040516370a0823160e01b81523060048201526001600160a01b03909116906370a0823190602401602060405180830381865afa1580156102e2573d6000803e3d6000fd5b505050506040513d601f19601f820116820180604052508101906103069190610c09565b6005546001600160a01b0316919061072e565b5090565b60048054600554604051638948874960e01b81526001600160a01b0391821693810193909352600092839291909116906389488749906024016020604051808303816000875af1158015610375573d6000803e3d6000fd5b505050506040513d601f19601f820116820180604052508101906103999190610bec565b6040516370a0823160e01b81523060048201529091506001600160a01b038216906370a08231906024016020604051808303816000875af11580156103e2573d6000803e3d6000fd5b505050506040513d601f19601f820116820180604052508101906104069190610c09565b91505090565b6104146106d4565b6005546001600160a01b0383811691161461048c5760405162461bcd60e51b815260206004820152602d60248201527f746f6b656e20737570706c696564206e6f7420737570706f727465642062792060448201526c1d1a1a5cc818dbdb9d1c9858dd609a1b60648201526084015b60405180910390fd5b6104a4336005546001600160a01b0316903084610796565b6001546005546104c1916001600160a01b039182169116836107d4565b600254600480546001600160a01b0319166001600160a01b039283169081178255600554604051638948874960e01b81529316918301919091526000916389488749906024016020604051808303816000875af1158015610526573d6000803e3d6000fd5b505050506040513d601f19601f8201168201806040525081019061054a9190610bec565b604051631c57762b60e31b815260006004820152602481018490529091506001600160a01b0382169063e2bbb15890604401600060405180830381600087803b15801561059657600080fd5b505af11580156105aa573d6000803e3d6000fd5b50505050505050565b6105bb6106d4565b6105c560006108e9565b565b60006105d16106d4565b60035460055460405163dccda03d60e01b81526001600160a01b03918216600482015291169063dccda03d90602401606060405180830381865afa15801561061d573d6000803e3d6000fd5b505050506040513d601f19601f820116820180604052508101906106419190610c22565b9250610656915064174876e800905082610c50565b905090565b6106636106d4565b6001600160a01b0381166106c85760405162461bcd60e51b815260206004820152602660248201527f4f776e61626c653a206e6577206f776e657220697320746865207a65726f206160448201526564647265737360d01b6064820152608401610483565b6106d1816108e9565b50565b6000546001600160a01b031633146105c55760405162461bcd60e51b815260206004820181905260248201527f4f776e61626c653a2063616c6c6572206973206e6f7420746865206f776e65726044820152606401610483565b6040516001600160a01b03831660248201526044810182905261079190849063a9059cbb60e01b906064015b60408051601f198184030181529190526020810180516001600160e01b03166001600160e01b031990931692909217909152610939565b505050565b6040516001600160a01b03808516602483015283166044820152606481018290526107ce9085906323b872dd60e01b9060840161075a565b50505050565b80158061084e5750604051636eb1769f60e11b81523060048201526001600160a01b03838116602483015284169063dd62ed3e90604401602060405180830381865afa158015610828573d6000803e3d6000fd5b505050506040513d601f19601f8201168201806040525081019061084c9190610c09565b155b6108b95760405162461bcd60e51b815260206004820152603660248201527f5361666545524332303a20617070726f76652066726f6d206e6f6e2d7a65726f60448201527520746f206e6f6e2d7a65726f20616c6c6f77616e636560501b6064820152608401610483565b6040516001600160a01b03831660248201526044810182905261079190849063095ea7b360e01b9060640161075a565b600080546001600160a01b038381166001600160a01b0319831681178455604051919092169283917f8be0079c531659141344cd1fd0a4f28419497f9722a3daafe3b4186f6b6457e09190a35050565b600061098e826040518060400160405280602081526020017f5361666545524332303a206c6f772d6c6576656c2063616c6c206661696c6564815250856001600160a01b0316610a0b9092919063ffffffff16565b80519091501561079157808060200190518101906109ac9190610c72565b6107915760405162461bcd60e51b815260206004820152602a60248201527f5361666545524332303a204552433230206f7065726174696f6e20646964206e6044820152691bdd081cdd58d8d9595960b21b6064820152608401610483565b6060610a1a8484600085610a24565b90505b9392505050565b606082471015610a855760405162461bcd60e51b815260206004820152602660248201527f416464726573733a20696e73756666696369656e742062616c616e636520666f6044820152651c8818d85b1b60d21b6064820152608401610483565b6001600160a01b0385163b610adc5760405162461bcd60e51b815260206004820152601d60248201527f416464726573733a2063616c6c20746f206e6f6e2d636f6e74726163740000006044820152606401610483565b600080866001600160a01b03168587604051610af89190610cb8565b60006040518083038185875af1925050503d8060008114610b35576040519150601f19603f3d011682016040523d82523d6000602084013e610b3a565b606091505b5091509150610b4a828286610b55565b979650505050505050565b60608315610b64575081610a1d565b825115610b745782518084602001fd5b8160405162461bcd60e51b81526004016104839190610cd4565b6001600160a01b03811681146106d157600080fd5b60008060408385031215610bb657600080fd5b8235610bc181610b8e565b946020939093013593505050565b600060208284031215610be157600080fd5b8135610a1d81610b8e565b600060208284031215610bfe57600080fd5b8151610a1d81610b8e565b600060208284031215610c1b57600080fd5b5051919050565b600080600060608486031215610c3757600080fd5b8351925060208401519150604084015190509250925092565b600082610c6d57634e487b7160e01b600052601260045260246000fd5b500490565b600060208284031215610c8457600080fd5b81518015158114610a1d57600080fd5b60005b83811015610caf578181015183820152602001610c97565b50506000910152565b60008251610cca818460208701610c94565b9190910192915050565b6020815260008251806020840152610cf3816040850160208701610c94565b601f01601f1916919091016040019291505056fea26469706673582212200b08c15b94cd04a009352a613e5a0b272e190ce8582b47aeea24e5a19439e40264736f6c63430008100033",
    "linkReferences": {}
  },
  "methodIdentifiers": {
    "deposit(address,uint256)": "47e7ef24",
    "getSupplyAPY()": "9f560dd5",
    "owner()": "8da5cb5b",
    "renounceOwnership()": "715018a6",
    "stratBalance()": "3e8fa4e5",
    "transferOwnership(address)": "f2fde38b",
    "underlyingToken()": "2495a599",
    "withdraw()": "3ccfd60b"
  },
  "id": 4
}