{
  "abi": [
    {
      "inputs": [
        {
          "internalType": "address",
          "name": "_underlyingToken",
          "type": "address"
        },
        {
          "internalType": "address",
          "name": "_pool",
          "type": "address"
        }
      ],
      "stateMutability": "nonpayable",
      "type": "constructor"
    },
    {
      "anonymous": false,
      "inputs": [
        {
          "indexed": true,
          "internalType": "address",
          "name": "previousOwner",
          "type": "address"
        },
        {
          "indexed": true,
          "internalType": "address",
          "name": "newOwner",
          "type": "address"
        }
      ],
      "name": "OwnershipTransferred",
      "type": "event"
    },
    {
      "inputs": [
        {
          "internalType": "address",
          "name": "token",
          "type": "address"
        },
        {
          "internalType": "uint256",
          "name": "amount",
          "type": "uint256"
        }
      ],
      "name": "deposit",
      "outputs": [],
      "stateMutability": "nonpayable",
      "type": "function"
    },
    {
      "inputs": [],
      "name": "owner",
      "outputs": [
        {
          "internalType": "address",
          "name": "",
          "type": "address"
        }
      ],
      "stateMutability": "view",
      "type": "function"
    },
    {
      "inputs": [],
      "name": "renounceOwnership",
      "outputs": [],
      "stateMutability": "nonpayable",
      "type": "function"
    },
    {
      "inputs": [],
      "name": "stratBalance",
      "outputs": [
        {
          "internalType": "uint256",
          "name": "totalInvested",
          "type": "uint256"
        }
      ],
      "stateMutability": "nonpayable",
      "type": "function"
    },
    {
      "inputs": [
        {
          "internalType": "address",
          "name": "newOwner",
          "type": "address"
        }
      ],
      "name": "transferOwnership",
      "outputs": [],
      "stateMutability": "nonpayable",
      "type": "function"
    },
    {
      "inputs": [],
      "name": "underlyingToken",
      "outputs": [
        {
          "internalType": "address",
          "name": "",
          "type": "address"
        }
      ],
      "stateMutability": "view",
      "type": "function"
    },
    {
      "inputs": [],
      "name": "withdraw",
      "outputs": [
        {
          "internalType": "uint256",
          "name": "returnedAmount",
          "type": "uint256"
        }
      ],
      "stateMutability": "nonpayable",
      "type": "function"
    }
  ],
  "bytecode": {
    "object": "0x6080604052600180546001600160a01b03199081167327182842e098f60e3d576794a5bffb0777e025d317909155600280548216733520d5a913427e6f0d6a83e07ccd4a4da316e4d3908117909155600380549092161790553480156200006557600080fd5b5060405162000e9b38038062000e9b83398101604081905262000088916200020f565b6200009333620000c1565b600480546001600160a01b0319166001600160a01b038416179055620000b98162000111565b505062000247565b600080546001600160a01b038381166001600160a01b0319831681178455604051919092169283917f8be0079c531659141344cd1fd0a4f28419497f9722a3daafe3b4186f6b6457e09190a35050565b6200011b62000194565b6001600160a01b038116620001865760405162461bcd60e51b815260206004820152602660248201527f4f776e61626c653a206e6577206f776e657220697320746865207a65726f206160448201526564647265737360d01b60648201526084015b60405180910390fd5b6200019181620000c1565b50565b6000546001600160a01b03163314620001f05760405162461bcd60e51b815260206004820181905260248201527f4f776e61626c653a2063616c6c6572206973206e6f7420746865206f776e657260448201526064016200017d565b565b80516001600160a01b03811681146200020a57600080fd5b919050565b600080604083850312156200022357600080fd5b6200022e83620001f2565b91506200023e60208401620001f2565b90509250929050565b610c4480620002576000396000f3fe608060405234801561001057600080fd5b506004361061007d5760003560e01c806347e7ef241161005b57806347e7ef24146100d0578063715018a6146100e55780638da5cb5b146100ed578063f2fde38b146100fe57600080fd5b80632495a599146100825780633ccfd60b146100b25780633e8fa4e5146100c8575b600080fd5b600454610095906001600160a01b031681565b6040516001600160a01b0390911681526020015b60405180910390f35b6100ba610111565b6040519081526020016100a9565b6100ba61030b565b6100e36100de366004610afa565b6103f8565b005b6100e361059e565b6000546001600160a01b0316610095565b6100e361010c366004610b26565b6105b2565b600061011b61062b565b60035460048054604051638948874960e01b81526001600160a01b039182169281019290925260009216906389488749906024016020604051808303816000875af115801561016e573d6000803e3d6000fd5b505050506040513d601f19601f820116820180604052508101906101929190610b43565b9050806001600160a01b031663441a3e7060006101ad61030b565b6040516001600160e01b031960e085901b16815260048101929092526024820152604401600060405180830381600087803b1580156101eb57600080fd5b505af11580156101ff573d6000803e3d6000fd5b5050600480546040516370a0823160e01b815230928101929092526001600160a01b031692506370a082319150602401602060405180830381865afa15801561024c573d6000803e3d6000fd5b505050506040513d601f19601f820116820180604052508101906102709190610b60565b91506103076102876000546001600160a01b031690565b600480546040516370a0823160e01b815230928101929092526001600160a01b0316906370a0823190602401602060405180830381865afa1580156102d0573d6000803e3d6000fd5b505050506040513d601f19601f820116820180604052508101906102f49190610b60565b6004546001600160a01b03169190610685565b5090565b60035460048054604051638948874960e01b81526001600160a01b039182169281019290925260009283929116906389488749906024016020604051808303816000875af1158015610361573d6000803e3d6000fd5b505050506040513d601f19601f820116820180604052508101906103859190610b43565b6040516370a0823160e01b81523060048201529091506001600160a01b038216906370a08231906024016020604051808303816000875af11580156103ce573d6000803e3d6000fd5b505050506040513d601f19601f820116820180604052508101906103f29190610b60565b91505090565b61040061062b565b6004546001600160a01b038381169116146104785760405162461bcd60e51b815260206004820152602d60248201527f746f6b656e20737570706c696564206e6f7420737570706f727465642062792060448201526c1d1a1a5cc818dbdb9d1c9858dd609a1b60648201526084015b60405180910390fd5b610490336004546001600160a01b03169030846106ed565b6001546004546104ad916001600160a01b0391821691168361072b565b600254600380546001600160a01b0319166001600160a01b0392831690811790915560048054604051638948874960e01b81529316908301526000916389488749906024016020604051808303816000875af1158015610511573d6000803e3d6000fd5b505050506040513d601f19601f820116820180604052508101906105359190610b43565b604051631c57762b60e31b815260006004820152602481018490529091506001600160a01b0382169063e2bbb15890604401600060405180830381600087803b15801561058157600080fd5b505af1158015610595573d6000803e3d6000fd5b50505050505050565b6105a661062b565b6105b06000610840565b565b6105ba61062b565b6001600160a01b03811661061f5760405162461bcd60e51b815260206004820152602660248201527f4f776e61626c653a206e6577206f776e657220697320746865207a65726f206160448201526564647265737360d01b606482015260840161046f565b61062881610840565b50565b6000546001600160a01b031633146105b05760405162461bcd60e51b815260206004820181905260248201527f4f776e61626c653a2063616c6c6572206973206e6f7420746865206f776e6572604482015260640161046f565b6040516001600160a01b0383166024820152604481018290526106e890849063a9059cbb60e01b906064015b60408051601f198184030181529190526020810180516001600160e01b03166001600160e01b031990931692909217909152610890565b505050565b6040516001600160a01b03808516602483015283166044820152606481018290526107259085906323b872dd60e01b906084016106b1565b50505050565b8015806107a55750604051636eb1769f60e11b81523060048201526001600160a01b03838116602483015284169063dd62ed3e90604401602060405180830381865afa15801561077f573d6000803e3d6000fd5b505050506040513d601f19601f820116820180604052508101906107a39190610b60565b155b6108105760405162461bcd60e51b815260206004820152603660248201527f5361666545524332303a20617070726f76652066726f6d206e6f6e2d7a65726f60448201527520746f206e6f6e2d7a65726f20616c6c6f77616e636560501b606482015260840161046f565b6040516001600160a01b0383166024820152604481018290526106e890849063095ea7b360e01b906064016106b1565b600080546001600160a01b038381166001600160a01b0319831681178455604051919092169283917f8be0079c531659141344cd1fd0a4f28419497f9722a3daafe3b4186f6b6457e09190a35050565b60006108e5826040518060400160405280602081526020017f5361666545524332303a206c6f772d6c6576656c2063616c6c206661696c6564815250856001600160a01b03166109629092919063ffffffff16565b8051909150156106e857808060200190518101906109039190610b79565b6106e85760405162461bcd60e51b815260206004820152602a60248201527f5361666545524332303a204552433230206f7065726174696f6e20646964206e6044820152691bdd081cdd58d8d9595960b21b606482015260840161046f565b6060610971848460008561097b565b90505b9392505050565b6060824710156109dc5760405162461bcd60e51b815260206004820152602660248201527f416464726573733a20696e73756666696369656e742062616c616e636520666f6044820152651c8818d85b1b60d21b606482015260840161046f565b6001600160a01b0385163b610a335760405162461bcd60e51b815260206004820152601d60248201527f416464726573733a2063616c6c20746f206e6f6e2d636f6e7472616374000000604482015260640161046f565b600080866001600160a01b03168587604051610a4f9190610bbf565b60006040518083038185875af1925050503d8060008114610a8c576040519150601f19603f3d011682016040523d82523d6000602084013e610a91565b606091505b5091509150610aa1828286610aac565b979650505050505050565b60608315610abb575081610974565b825115610acb5782518084602001fd5b8160405162461bcd60e51b815260040161046f9190610bdb565b6001600160a01b038116811461062857600080fd5b60008060408385031215610b0d57600080fd5b8235610b1881610ae5565b946020939093013593505050565b600060208284031215610b3857600080fd5b813561097481610ae5565b600060208284031215610b5557600080fd5b815161097481610ae5565b600060208284031215610b7257600080fd5b5051919050565b600060208284031215610b8b57600080fd5b8151801515811461097457600080fd5b60005b83811015610bb6578181015183820152602001610b9e565b50506000910152565b60008251610bd1818460208701610b9b565b9190910192915050565b6020815260008251806020840152610bfa816040850160208701610b9b565b601f01601f1916919091016040019291505056fea2646970667358221220d15b808de89a08c3b61b46f9eff83b1bc6c2d616fff2babd08047ec11df4873764736f6c63430008100033",
    "linkReferences": {}
  },
  "methodIdentifiers": {
    "deposit(address,uint256)": "47e7ef24",
    "owner()": "8da5cb5b",
    "renounceOwnership()": "715018a6",
    "stratBalance()": "3e8fa4e5",
    "transferOwnership(address)": "f2fde38b",
    "underlyingToken()": "2495a599",
    "withdraw()": "3ccfd60b"
  },
  "id": 1
}