{
  "abi": [
    {
      "inputs": [
        {
          "internalType": "address",
          "name": "_underlyingToken",
          "type": "address"
        },
        {
          "internalType": "address",
          "name": "_pool",
          "type": "address"
        }
      ],
      "stateMutability": "nonpayable",
      "type": "constructor"
    },
    {
      "anonymous": false,
      "inputs": [
        {
          "indexed": true,
          "internalType": "address",
          "name": "previousOwner",
          "type": "address"
        },
        {
          "indexed": true,
          "internalType": "address",
          "name": "newOwner",
          "type": "address"
        }
      ],
      "name": "OwnershipTransferred",
      "type": "event"
    },
    {
      "inputs": [
        {
          "internalType": "address",
          "name": "token",
          "type": "address"
        },
        {
          "internalType": "uint256",
          "name": "amount",
          "type": "uint256"
        }
      ],
      "name": "deposit",
      "outputs": [],
      "stateMutability": "nonpayable",
      "type": "function"
    },
    {
      "inputs": [],
      "name": "getSupplyAPY",
      "outputs": [
        {
          "internalType": "uint256",
          "name": "_apy",
          "type": "uint256"
        }
      ],
      "stateMutability": "nonpayable",
      "type": "function"
    },
    {
      "inputs": [],
      "name": "owner",
      "outputs": [
        {
          "internalType": "address",
          "name": "",
          "type": "address"
        }
      ],
      "stateMutability": "view",
      "type": "function"
    },
    {
      "inputs": [],
      "name": "renounceOwnership",
      "outputs": [],
      "stateMutability": "nonpayable",
      "type": "function"
    },
    {
      "inputs": [],
      "name": "stratBalance",
      "outputs": [
        {
          "internalType": "uint256",
          "name": "totalInvested",
          "type": "uint256"
        }
      ],
      "stateMutability": "nonpayable",
      "type": "function"
    },
    {
      "inputs": [
        {
          "internalType": "address",
          "name": "newOwner",
          "type": "address"
        }
      ],
      "name": "transferOwnership",
      "outputs": [],
      "stateMutability": "nonpayable",
      "type": "function"
    },
    {
      "inputs": [],
      "name": "underlyingToken",
      "outputs": [
        {
          "internalType": "address",
          "name": "",
          "type": "address"
        }
      ],
      "stateMutability": "view",
      "type": "function"
    },
    {
      "inputs": [],
      "name": "withdraw",
      "outputs": [
        {
          "internalType": "uint256",
          "name": "returnedAmount",
          "type": "uint256"
        }
      ],
      "stateMutability": "nonpayable",
      "type": "function"
    }
  ],
  "bytecode": {
    "object": "0x6080604052600180546001600160a01b03199081167327182842e098f60e3d576794a5bffb0777e025d317909155600280548216733520d5a913427e6f0d6a83e07ccd4a4da316e4d3908117909155600380548316735077b7642abf198b4a5b7c4bdce4f03016c7089c17905560048054909216179055640141dd76006005553480156200008c57600080fd5b506040516200101d3803806200101d833981016040819052620000af9162000236565b620000ba33620000e8565b600680546001600160a01b0319166001600160a01b038416179055620000e08162000138565b50506200026e565b600080546001600160a01b038381166001600160a01b0319831681178455604051919092169283917f8be0079c531659141344cd1fd0a4f28419497f9722a3daafe3b4186f6b6457e09190a35050565b62000142620001bb565b6001600160a01b038116620001ad5760405162461bcd60e51b815260206004820152602660248201527f4f776e61626c653a206e6577206f776e657220697320746865207a65726f206160448201526564647265737360d01b60648201526084015b60405180910390fd5b620001b881620000e8565b50565b6000546001600160a01b03163314620002175760405162461bcd60e51b815260206004820181905260248201527f4f776e61626c653a2063616c6c6572206973206e6f7420746865206f776e65726044820152606401620001a4565b565b80516001600160a01b03811681146200023157600080fd5b919050565b600080604083850312156200024a57600080fd5b620002558362000219565b9150620002656020840162000219565b90509250929050565b610d9f806200027e6000396000f3fe608060405234801561001057600080fd5b50600436106100885760003560e01c8063715018a61161005b578063715018a6146100f05780638da5cb5b146100f85780639f560dd514610109578063f2fde38b1461011157600080fd5b80632495a5991461008d5780633ccfd60b146100bd5780633e8fa4e5146100d357806347e7ef24146100db575b600080fd5b6006546100a0906001600160a01b031681565b6040516001600160a01b0390911681526020015b60405180910390f35b6100c5610124565b6040519081526020016100b4565b6100c561031d565b6100ee6100e9366004610bde565b61040c565b005b6100ee6105b3565b6000546001600160a01b03166100a0565b6100c56105c7565b6100ee61011f366004610c0a565b610696565b600061012e61070f565b60048054600654604051638948874960e01b81526001600160a01b03918216938101939093526000929116906389488749906024016020604051808303816000875af1158015610182573d6000803e3d6000fd5b505050506040513d601f19601f820116820180604052508101906101a69190610c27565b9050806001600160a01b031663441a3e7060006101c161031d565b6040516001600160e01b031960e085901b16815260048101929092526024820152604401600060405180830381600087803b1580156101ff57600080fd5b505af1158015610213573d6000803e3d6000fd5b50506006546040516370a0823160e01b81523060048201526001600160a01b0390911692506370a082319150602401602060405180830381865afa15801561025f573d6000803e3d6000fd5b505050506040513d601f19601f820116820180604052508101906102839190610c44565b915061031961029a6000546001600160a01b031690565b6006546040516370a0823160e01b81523060048201526001600160a01b03909116906370a0823190602401602060405180830381865afa1580156102e2573d6000803e3d6000fd5b505050506040513d601f19601f820116820180604052508101906103069190610c44565b6006546001600160a01b03169190610769565b5090565b60048054600654604051638948874960e01b81526001600160a01b0391821693810193909352600092839291909116906389488749906024016020604051808303816000875af1158015610375573d6000803e3d6000fd5b505050506040513d601f19601f820116820180604052508101906103999190610c27565b6040516370a0823160e01b81523060048201529091506001600160a01b038216906370a08231906024016020604051808303816000875af11580156103e2573d6000803e3d6000fd5b505050506040513d601f19601f820116820180604052508101906104069190610c44565b91505090565b61041461070f565b6006546001600160a01b0383811691161461048c5760405162461bcd60e51b815260206004820152602d60248201527f746f6b656e20737570706c696564206e6f7420737570706f727465642062792060448201526c1d1a1a5cc818dbdb9d1c9858dd609a1b60648201526084015b60405180910390fd5b6104a4336006546001600160a01b03169030846107d1565b6001546006546104c1916001600160a01b0391821691168361080f565b600254600480546001600160a01b0319166001600160a01b039283169081178255600654604051638948874960e01b81529316918301919091526000916389488749906024016020604051808303816000875af1158015610526573d6000803e3d6000fd5b505050506040513d601f19601f8201168201806040525081019061054a9190610c27565b604051631c57762b60e31b815260006004820152602481018490529091506001600160a01b0382169063e2bbb15890604401600060405180830381600087803b15801561059657600080fd5b505af11580156105aa573d6000803e3d6000fd5b50505050505050565b6105bb61070f565b6105c56000610924565b565b60006105d161070f565b60035460065460405163dccda03d60e01b81526001600160a01b03918216600482015291169063dccda03d906024016060604051808303816000875af115801561061f573d6000803e3d6000fd5b505050506040513d601f19601f820116820180604052508101906106439190610c5d565b925061065a9150662386f26fc10000905082610c8b565b6006549091506001600160a01b031673ae7ab96520de3a18e5e111b5eaab095312d7fe8403610693576005546106909082610cad565b90505b90565b61069e61070f565b6001600160a01b0381166107035760405162461bcd60e51b815260206004820152602660248201527f4f776e61626c653a206e6577206f776e657220697320746865207a65726f206160448201526564647265737360d01b6064820152608401610483565b61070c81610924565b50565b6000546001600160a01b031633146105c55760405162461bcd60e51b815260206004820181905260248201527f4f776e61626c653a2063616c6c6572206973206e6f7420746865206f776e65726044820152606401610483565b6040516001600160a01b0383166024820152604481018290526107cc90849063a9059cbb60e01b906064015b60408051601f198184030181529190526020810180516001600160e01b03166001600160e01b031990931692909217909152610974565b505050565b6040516001600160a01b03808516602483015283166044820152606481018290526108099085906323b872dd60e01b90608401610795565b50505050565b8015806108895750604051636eb1769f60e11b81523060048201526001600160a01b03838116602483015284169063dd62ed3e90604401602060405180830381865afa158015610863573d6000803e3d6000fd5b505050506040513d601f19601f820116820180604052508101906108879190610c44565b155b6108f45760405162461bcd60e51b815260206004820152603660248201527f5361666545524332303a20617070726f76652066726f6d206e6f6e2d7a65726f60448201527520746f206e6f6e2d7a65726f20616c6c6f77616e636560501b6064820152608401610483565b6040516001600160a01b0383166024820152604481018290526107cc90849063095ea7b360e01b90606401610795565b600080546001600160a01b038381166001600160a01b0319831681178455604051919092169283917f8be0079c531659141344cd1fd0a4f28419497f9722a3daafe3b4186f6b6457e09190a35050565b60006109c9826040518060400160405280602081526020017f5361666545524332303a206c6f772d6c6576656c2063616c6c206661696c6564815250856001600160a01b0316610a469092919063ffffffff16565b8051909150156107cc57808060200190518101906109e79190610cd4565b6107cc5760405162461bcd60e51b815260206004820152602a60248201527f5361666545524332303a204552433230206f7065726174696f6e20646964206e6044820152691bdd081cdd58d8d9595960b21b6064820152608401610483565b6060610a558484600085610a5f565b90505b9392505050565b606082471015610ac05760405162461bcd60e51b815260206004820152602660248201527f416464726573733a20696e73756666696369656e742062616c616e636520666f6044820152651c8818d85b1b60d21b6064820152608401610483565b6001600160a01b0385163b610b175760405162461bcd60e51b815260206004820152601d60248201527f416464726573733a2063616c6c20746f206e6f6e2d636f6e74726163740000006044820152606401610483565b600080866001600160a01b03168587604051610b339190610d1a565b60006040518083038185875af1925050503d8060008114610b70576040519150601f19603f3d011682016040523d82523d6000602084013e610b75565b606091505b5091509150610b85828286610b90565b979650505050505050565b60608315610b9f575081610a58565b825115610baf5782518084602001fd5b8160405162461bcd60e51b81526004016104839190610d36565b6001600160a01b038116811461070c57600080fd5b60008060408385031215610bf157600080fd5b8235610bfc81610bc9565b946020939093013593505050565b600060208284031215610c1c57600080fd5b8135610a5881610bc9565b600060208284031215610c3957600080fd5b8151610a5881610bc9565b600060208284031215610c5657600080fd5b5051919050565b600080600060608486031215610c7257600080fd5b8351925060208401519150604084015190509250925092565b600082610ca857634e487b7160e01b600052601260045260246000fd5b500490565b80820180821115610cce57634e487b7160e01b600052601160045260246000fd5b92915050565b600060208284031215610ce657600080fd5b81518015158114610a5857600080fd5b60005b83811015610d11578181015183820152602001610cf9565b50506000910152565b60008251610d2c818460208701610cf6565b9190910192915050565b6020815260008251806020840152610d55816040850160208701610cf6565b601f01601f1916919091016040019291505056fea26469706673582212201000b4b2495ad0c5e06a76b711733a94f37f05424c5a12309e9e81889de1fc1c64736f6c63430008100033",
    "linkReferences": {}
  },
  "methodIdentifiers": {
    "deposit(address,uint256)": "47e7ef24",
    "getSupplyAPY()": "9f560dd5",
    "owner()": "8da5cb5b",
    "renounceOwnership()": "715018a6",
    "stratBalance()": "3e8fa4e5",
    "transferOwnership(address)": "f2fde38b",
    "underlyingToken()": "2495a599",
    "withdraw()": "3ccfd60b"
  },
  "id": 1
}