{
  "abi": [
    {
      "inputs": [
        {
          "internalType": "uint256",
          "name": "_strikePrice",
          "type": "uint256"
        },
        {
          "internalType": "address",
          "name": "_asset",
          "type": "address"
        },
        {
          "internalType": "uint256",
          "name": "_duration",
          "type": "uint256"
        },
        {
          "internalType": "uint256",
          "name": "_deltaPrice",
          "type": "uint256"
        },
        {
          "internalType": "address",
          "name": "_chainlinkPriceFeed",
          "type": "address"
        }
      ],
      "stateMutability": "nonpayable",
      "type": "constructor"
    },
    {
      "anonymous": false,
      "inputs": [
        {
          "indexed": true,
          "internalType": "address",
          "name": "owner",
          "type": "address"
        },
        {
          "indexed": true,
          "internalType": "address",
          "name": "approved",
          "type": "address"
        },
        {
          "indexed": true,
          "internalType": "uint256",
          "name": "tokenId",
          "type": "uint256"
        }
      ],
      "name": "Approval",
      "type": "event"
    },
    {
      "anonymous": false,
      "inputs": [
        {
          "indexed": true,
          "internalType": "address",
          "name": "owner",
          "type": "address"
        },
        {
          "indexed": true,
          "internalType": "address",
          "name": "operator",
          "type": "address"
        },
        {
          "indexed": false,
          "internalType": "bool",
          "name": "approved",
          "type": "bool"
        }
      ],
      "name": "ApprovalForAll",
      "type": "event"
    },
    {
      "anonymous": false,
      "inputs": [
        {
          "indexed": true,
          "internalType": "address",
          "name": "previousOwner",
          "type": "address"
        },
        {
          "indexed": true,
          "internalType": "address",
          "name": "newOwner",
          "type": "address"
        }
      ],
      "name": "OwnershipTransferred",
      "type": "event"
    },
    {
      "anonymous": false,
      "inputs": [
        {
          "indexed": true,
          "internalType": "address",
          "name": "from",
          "type": "address"
        },
        {
          "indexed": true,
          "internalType": "address",
          "name": "to",
          "type": "address"
        },
        {
          "indexed": true,
          "internalType": "uint256",
          "name": "tokenId",
          "type": "uint256"
        }
      ],
      "name": "Transfer",
      "type": "event"
    },
    {
      "inputs": [
        {
          "internalType": "address",
          "name": "_strat",
          "type": "address"
        }
      ],
      "name": "activatePool",
      "outputs": [],
      "stateMutability": "nonpayable",
      "type": "function"
    },
    {
      "inputs": [
        {
          "internalType": "address",
          "name": "to",
          "type": "address"
        },
        {
          "internalType": "uint256",
          "name": "tokenId",
          "type": "uint256"
        }
      ],
      "name": "approve",
      "outputs": [],
      "stateMutability": "nonpayable",
      "type": "function"
    },
    {
      "inputs": [
        {
          "internalType": "address",
          "name": "owner",
          "type": "address"
        }
      ],
      "name": "balanceOf",
      "outputs": [
        {
          "internalType": "uint256",
          "name": "",
          "type": "uint256"
        }
      ],
      "stateMutability": "view",
      "type": "function"
    },
    {
      "inputs": [],
      "name": "chainlinkPriceFeed",
      "outputs": [
        {
          "internalType": "address",
          "name": "",
          "type": "address"
        }
      ],
      "stateMutability": "view",
      "type": "function"
    },
    {
      "inputs": [],
      "name": "deltaPrice",
      "outputs": [
        {
          "internalType": "uint256",
          "name": "",
          "type": "uint256"
        }
      ],
      "stateMutability": "view",
      "type": "function"
    },
    {
      "inputs": [
        {
          "internalType": "uint256",
          "name": "amount",
          "type": "uint256"
        },
        {
          "internalType": "bool",
          "name": "longShort",
          "type": "bool"
        }
      ],
      "name": "depositFunds",
      "outputs": [
        {
          "internalType": "uint256",
          "name": "_computedRisk",
          "type": "uint256"
        },
        {
          "internalType": "uint256",
          "name": "_alpha",
          "type": "uint256"
        },
        {
          "internalType": "uint256",
          "name": "_standardizedPrice",
          "type": "uint256"
        },
        {
          "internalType": "uint256",
          "name": "_standardizedAmount",
          "type": "uint256"
        }
      ],
      "stateMutability": "nonpayable",
      "type": "function"
    },
    {
      "inputs": [],
      "name": "duration",
      "outputs": [
        {
          "internalType": "uint256",
          "name": "",
          "type": "uint256"
        }
      ],
      "stateMutability": "view",
      "type": "function"
    },
    {
      "inputs": [],
      "name": "finalTime",
      "outputs": [
        {
          "internalType": "uint256",
          "name": "",
          "type": "uint256"
        }
      ],
      "stateMutability": "view",
      "type": "function"
    },
    {
      "inputs": [
        {
          "internalType": "uint256",
          "name": "tokenId",
          "type": "uint256"
        }
      ],
      "name": "getApproved",
      "outputs": [
        {
          "internalType": "address",
          "name": "",
          "type": "address"
        }
      ],
      "stateMutability": "view",
      "type": "function"
    },
    {
      "inputs": [
        {
          "internalType": "address",
          "name": "owner",
          "type": "address"
        },
        {
          "internalType": "address",
          "name": "operator",
          "type": "address"
        }
      ],
      "name": "isApprovedForAll",
      "outputs": [
        {
          "internalType": "bool",
          "name": "",
          "type": "bool"
        }
      ],
      "stateMutability": "view",
      "type": "function"
    },
    {
      "inputs": [],
      "name": "longs",
      "outputs": [
        {
          "internalType": "uint256",
          "name": "",
          "type": "uint256"
        }
      ],
      "stateMutability": "view",
      "type": "function"
    },
    {
      "inputs": [],
      "name": "name",
      "outputs": [
        {
          "internalType": "string",
          "name": "",
          "type": "string"
        }
      ],
      "stateMutability": "view",
      "type": "function"
    },
    {
      "inputs": [],
      "name": "owner",
      "outputs": [
        {
          "internalType": "address",
          "name": "",
          "type": "address"
        }
      ],
      "stateMutability": "view",
      "type": "function"
    },
    {
      "inputs": [
        {
          "internalType": "uint256",
          "name": "tokenId",
          "type": "uint256"
        }
      ],
      "name": "ownerOf",
      "outputs": [
        {
          "internalType": "address",
          "name": "",
          "type": "address"
        }
      ],
      "stateMutability": "view",
      "type": "function"
    },
    {
      "inputs": [],
      "name": "poolActive",
      "outputs": [
        {
          "internalType": "bool",
          "name": "",
          "type": "bool"
        }
      ],
      "stateMutability": "view",
      "type": "function"
    },
    {
      "inputs": [],
      "name": "renounceOwnership",
      "outputs": [],
      "stateMutability": "nonpayable",
      "type": "function"
    },
    {
      "inputs": [
        {
          "internalType": "address",
          "name": "from",
          "type": "address"
        },
        {
          "internalType": "address",
          "name": "to",
          "type": "address"
        },
        {
          "internalType": "uint256",
          "name": "tokenId",
          "type": "uint256"
        }
      ],
      "name": "safeTransferFrom",
      "outputs": [],
      "stateMutability": "nonpayable",
      "type": "function"
    },
    {
      "inputs": [
        {
          "internalType": "address",
          "name": "from",
          "type": "address"
        },
        {
          "internalType": "address",
          "name": "to",
          "type": "address"
        },
        {
          "internalType": "uint256",
          "name": "tokenId",
          "type": "uint256"
        },
        {
          "internalType": "bytes",
          "name": "data",
          "type": "bytes"
        }
      ],
      "name": "safeTransferFrom",
      "outputs": [],
      "stateMutability": "nonpayable",
      "type": "function"
    },
    {
      "inputs": [
        {
          "internalType": "address",
          "name": "operator",
          "type": "address"
        },
        {
          "internalType": "bool",
          "name": "approved",
          "type": "bool"
        }
      ],
      "name": "setApprovalForAll",
      "outputs": [],
      "stateMutability": "nonpayable",
      "type": "function"
    },
    {
      "inputs": [],
      "name": "shorts",
      "outputs": [
        {
          "internalType": "uint256",
          "name": "",
          "type": "uint256"
        }
      ],
      "stateMutability": "view",
      "type": "function"
    },
    {
      "inputs": [],
      "name": "startTime",
      "outputs": [
        {
          "internalType": "uint256",
          "name": "",
          "type": "uint256"
        }
      ],
      "stateMutability": "view",
      "type": "function"
    },
    {
      "inputs": [],
      "name": "strikePrice",
      "outputs": [
        {
          "internalType": "uint256",
          "name": "",
          "type": "uint256"
        }
      ],
      "stateMutability": "view",
      "type": "function"
    },
    {
      "inputs": [],
      "name": "suppliedAsset",
      "outputs": [
        {
          "internalType": "address",
          "name": "",
          "type": "address"
        }
      ],
      "stateMutability": "view",
      "type": "function"
    },
    {
      "inputs": [
        {
          "internalType": "bytes4",
          "name": "interfaceId",
          "type": "bytes4"
        }
      ],
      "name": "supportsInterface",
      "outputs": [
        {
          "internalType": "bool",
          "name": "",
          "type": "bool"
        }
      ],
      "stateMutability": "view",
      "type": "function"
    },
    {
      "inputs": [],
      "name": "symbol",
      "outputs": [
        {
          "internalType": "string",
          "name": "",
          "type": "string"
        }
      ],
      "stateMutability": "view",
      "type": "function"
    },
    {
      "inputs": [],
      "name": "tokenCount",
      "outputs": [
        {
          "internalType": "uint256",
          "name": "",
          "type": "uint256"
        }
      ],
      "stateMutability": "view",
      "type": "function"
    },
    {
      "inputs": [
        {
          "internalType": "uint256",
          "name": "",
          "type": "uint256"
        },
        {
          "internalType": "uint256",
          "name": "",
          "type": "uint256"
        }
      ],
      "name": "tokenToPosition",
      "outputs": [
        {
          "internalType": "uint256",
          "name": "amount",
          "type": "uint256"
        },
        {
          "internalType": "uint256",
          "name": "timeStamp",
          "type": "uint256"
        },
        {
          "internalType": "uint256",
          "name": "assetPrice",
          "type": "uint256"
        },
        {
          "internalType": "bool",
          "name": "longOrShort",
          "type": "bool"
        },
        {
          "internalType": "uint256",
          "name": "alpha",
          "type": "uint256"
        }
      ],
      "stateMutability": "view",
      "type": "function"
    },
    {
      "inputs": [
        {
          "internalType": "uint256",
          "name": "tokenId",
          "type": "uint256"
        }
      ],
      "name": "tokenURI",
      "outputs": [
        {
          "internalType": "string",
          "name": "",
          "type": "string"
        }
      ],
      "stateMutability": "view",
      "type": "function"
    },
    {
      "inputs": [
        {
          "internalType": "address",
          "name": "from",
          "type": "address"
        },
        {
          "internalType": "address",
          "name": "to",
          "type": "address"
        },
        {
          "internalType": "uint256",
          "name": "tokenId",
          "type": "uint256"
        }
      ],
      "name": "transferFrom",
      "outputs": [],
      "stateMutability": "nonpayable",
      "type": "function"
    },
    {
      "inputs": [
        {
          "internalType": "address",
          "name": "newOwner",
          "type": "address"
        }
      ],
      "name": "transferOwnership",
      "outputs": [],
      "stateMutability": "nonpayable",
      "type": "function"
    }
  ],
  "bytecode": {
    "object": "0x60806040523480156200001157600080fd5b506040516200276438038062002764833981016040819052620000349162000160565b604051806040016040528060048152602001634c65596960e01b815250604051806040016040528060048152602001634c45594960e01b81525081600090816200007f91906200025a565b5060016200008e82826200025a565b505050620000ab620000a5620000ed60201b60201c565b620000f1565b600780546001600160a01b039586166001600160a01b0319918216179091556008959095556009805491909416941693909317909155600c5560105562000326565b3390565b600680546001600160a01b038381166001600160a01b0319831681179093556040519116919082907f8be0079c531659141344cd1fd0a4f28419497f9722a3daafe3b4186f6b6457e090600090a35050565b80516001600160a01b03811681146200015b57600080fd5b919050565b600080600080600060a086880312156200017957600080fd5b855194506200018b6020870162000143565b93506040860151925060608601519150620001a96080870162000143565b90509295509295909350565b634e487b7160e01b600052604160045260246000fd5b600181811c90821680620001e057607f821691505b6020821081036200020157634e487b7160e01b600052602260045260246000fd5b50919050565b601f8211156200025557600081815260208120601f850160051c81016020861015620002305750805b601f850160051c820191505b8181101562000251578281556001016200023c565b5050505b505050565b81516001600160401b03811115620002765762000276620001b5565b6200028e81620002878454620001cb565b8462000207565b602080601f831160018114620002c65760008415620002ad5750858301515b600019600386901b1c1916600185901b17855562000251565b600085815260208120601f198616915b82811015620002f757888601518255948401946001909101908401620002d6565b5085821015620003165787850151600019600388901b60f8161c191681555b5050505050600190811b01905550565b61242e80620003366000396000f3fe608060405234801561001057600080fd5b50600436106101d95760003560e01c8063793ebd2811610104578063b88d4fde116100a2578063d8a2b7f011610071578063d8a2b7f0146103f1578063dbe7f9bd14610404578063e985e9c51461040d578063f2fde38b1461042057600080fd5b8063b88d4fde146103af578063c52987cf146103c2578063c87b56dd146103cb578063cac556ef146103de57600080fd5b80639f181b5e116100de5780639f181b5e1461037d578063a22cb46514610386578063af5260bf14610399578063b7f06c81146103a257600080fd5b8063793ebd281461035b5780638da5cb5b1461036457806395d89b411461037557600080fd5b806323b872dd1161017c5780636352211e1161014b5780636352211e1461032457806370a0823114610337578063715018a61461034a57806378e979251461035257600080fd5b806323b872dd146102ae57806342842e0e146102c15780634a5f0fb0146102d4578063506262bd146102e757600080fd5b8063081812fc116101b8578063081812fc1461024e578063095ea7b3146102795780630fb5a6b41461028e5780631bc6a79e146102a557600080fd5b8062a6e730146101de57806301ffc9a71461021657806306fdde0314610239575b600080fd5b6101f16101ec366004611cf8565b610433565b6040805194855260208501939093529183015260608201526080015b60405180910390f35b610229610224366004611d3e565b6106e0565b604051901515815260200161020d565b610241610732565b60405161020d9190611dab565b61026161025c366004611dbe565b6107c4565b6040516001600160a01b03909116815260200161020d565b61028c610287366004611dee565b6107eb565b005b610297600c5481565b60405190815260200161020d565b61029760105481565b61028c6102bc366004611e18565b610905565b61028c6102cf366004611e18565b610936565b600754610261906001600160a01b031681565b6102fa6102f5366004611e54565b610951565b6040805195865260208601949094529284019190915215156060830152608082015260a00161020d565b610261610332366004611dbe565b6109a2565b610297610345366004611e76565b610a02565b61028c610a88565b610297600a5481565b610297600e5481565b6006546001600160a01b0316610261565b610241610a9c565b61029760125481565b61028c610394366004611e91565b610aab565b610297600b5481565b600d546102299060ff1681565b61028c6103bd366004611ed3565b610aba565b61029760085481565b6102416103d9366004611dbe565b610af2565b61028c6103ec366004611e76565b610b66565b600954610261906001600160a01b031681565b610297600f5481565b61022961041b366004611faf565b610bc2565b61028c61042e366004611e76565b610bf0565b6000806000806000600960009054906101000a90046001600160a01b03166001600160a01b031663feaf968c6040518163ffffffff1660e01b815260040160a060405180830381865afa15801561048e573d6000803e3d6000fd5b505050506040513d601f19601f820116820180604052508101906104b29190611ffc565b505050915050600081136104c557600080fd5b8060006104d182610c69565b905060006104df828a610e95565b6007549091506000906104fc908c906001600160a01b0316610f35565b90506000600c5442600b546105119190612062565b61051b8585612075565b6105259190612075565b61052f91906120aa565b601280549192506000610541836120be565b909155505060125460008181526014602090815260408220805460018082018355918452919092206005909102018e815542818301556002810187905560038101805460ff19168f1515908117909155600482018590559091036105bc5782600e60008282546105b191906120d7565b909155506105de9050565b8c15156000036105de5782600f60008282546105d891906120d7565b90915550505b61060533306105f187633b9aca00612075565b6007546001600160a01b0316929190611119565b601354610636906001600160a01b031661062386633b9aca00612075565b6007546001600160a01b03169190611184565b6013546007546001600160a01b03918216916347e7ef24911661065d87633b9aca00612075565b6040516001600160e01b031960e085901b1681526001600160a01b0390921660048301526024820152604401600060405180830381600087803b1580156106a357600080fd5b505af11580156106b7573d6000803e3d6000fd5b505050506106cb6106c53390565b83611299565b50929c909b5092995097509095505050505050565b60006001600160e01b031982166380ac58cd60e01b148061071157506001600160e01b03198216635b5e139f60e01b145b8061072c57506301ffc9a760e01b6001600160e01b03198316145b92915050565b606060008054610741906120ea565b80601f016020809104026020016040519081016040528092919081815260200182805461076d906120ea565b80156107ba5780601f1061078f576101008083540402835291602001916107ba565b820191906000526020600020905b81548152906001019060200180831161079d57829003601f168201915b5050505050905090565b60006107cf826112b3565b506000908152600460205260409020546001600160a01b031690565b60006107f6826109a2565b9050806001600160a01b0316836001600160a01b0316036108685760405162461bcd60e51b815260206004820152602160248201527f4552433732313a20617070726f76616c20746f2063757272656e74206f776e656044820152603960f91b60648201526084015b60405180910390fd5b336001600160a01b038216148061088457506108848133610bc2565b6108f65760405162461bcd60e51b815260206004820152603e60248201527f4552433732313a20617070726f76652063616c6c6572206973206e6f7420746f60448201527f6b656e206f776e6572206e6f7220617070726f76656420666f7220616c6c0000606482015260840161085f565b6109008383611312565b505050565b61090f3382611380565b61092b5760405162461bcd60e51b815260040161085f90612124565b6109008383836113df565b61090083838360405180602001604052806000815250610aba565b6014602052816000526040600020818154811061096d57600080fd5b6000918252602090912060059091020180546001820154600283015460038401546004909401549295509093509160ff169085565b6000818152600260205260408120546001600160a01b03168061072c5760405162461bcd60e51b8152602060048201526018602482015277115490cdcc8c4e881a5b9d985b1a59081d1bdad95b88125160421b604482015260640161085f565b60006001600160a01b038216610a6c5760405162461bcd60e51b815260206004820152602960248201527f4552433732313a2061646472657373207a65726f206973206e6f7420612076616044820152683634b21037bbb732b960b91b606482015260840161085f565b506001600160a01b031660009081526003602052604090205490565b610a9061157b565b610a9a60006115d5565b565b606060018054610741906120ea565b610ab6338383611627565b5050565b610ac43383611380565b610ae05760405162461bcd60e51b815260040161085f90612124565b610aec848484846116f5565b50505050565b6060610afd826112b3565b6000610b1460408051602081019091526000815290565b90506000815111610b345760405180602001604052806000815250610b5f565b80610b3e84611728565b604051602001610b4f929190612172565b6040516020818303038152906040525b9392505050565b610b6e61157b565b600d5460ff1615610b7e57600080fd5b600d805460ff1916600117905542600a819055600c54610b9d916120d7565b600b55601380546001600160a01b0319166001600160a01b0392909216919091179055565b6001600160a01b03918216600090815260056020908152604080832093909416825291909152205460ff1690565b610bf861157b565b6001600160a01b038116610c5d5760405162461bcd60e51b815260206004820152602660248201527f4f776e61626c653a206e6577206f776e657220697320746865207a65726f206160448201526564647265737360d01b606482015260840161085f565b610c66816115d5565b50565b600980546040805163313ce56760e01b815290518493926001600160a01b03169163313ce5679160048083019260209291908290030181865afa158015610cb4573d6000803e3d6000fd5b505050506040513d601f19601f82011682018060405250810190610cd891906121a1565b60ff161015610d7857600960009054906101000a90046001600160a01b03166001600160a01b031663313ce5676040518163ffffffff1660e01b8152600401602060405180830381865afa158015610d34573d6000803e3d6000fd5b505050506040513d601f19601f82011682018060405250810190610d5891906121a1565b610d639060096121c4565b610d6e90600a6122c1565b61072c9082612075565b60098060009054906101000a90046001600160a01b03166001600160a01b031663313ce5676040518163ffffffff1660e01b8152600401602060405180830381865afa158015610dcc573d6000803e3d6000fd5b505050506040513d601f19601f82011682018060405250810190610df091906121a1565b60ff161115610e905760098060009054906101000a90046001600160a01b03166001600160a01b031663313ce5676040518163ffffffff1660e01b8152600401602060405180830381865afa158015610e4d573d6000803e3d6000fd5b505050506040513d601f19601f82011682018060405250810190610e7191906121a1565b610e7b91906121c4565b610e8690600a6122c1565b61072c90826120aa565b919050565b6000811515600103610efd57600854831115610eb65750633b9aca0061072c565b6008548311610efd5760105483600854610ed09190612062565b610ede90633b9aca00612075565b610ee891906120aa565b610ef690633b9aca006120d7565b905061072c565b81151560000361072c57826008541115610f1c5750633b9aca0061072c565b826008541161072c57601054600854610ed09085612062565b60008290506009826001600160a01b031663313ce5676040518163ffffffff1660e01b8152600401602060405180830381865afa158015610f7a573d6000803e3d6000fd5b505050506040513d601f19601f82011682018060405250810190610f9e91906121a1565b60ff16101561102957816001600160a01b031663313ce5676040518163ffffffff1660e01b8152600401602060405180830381865afa158015610fe5573d6000803e3d6000fd5b505050506040513d601f19601f8201168201806040525081019061100991906121a1565b6110149060126121c4565b61101f90600a6122c1565b610ef69082612075565b6009826001600160a01b031663313ce5676040518163ffffffff1660e01b8152600401602060405180830381865afa158015611069573d6000803e3d6000fd5b505050506040513d601f19601f8201168201806040525081019061108d91906121a1565b60ff16111561072c576009826001600160a01b031663313ce5676040518163ffffffff1660e01b8152600401602060405180830381865afa1580156110d6573d6000803e3d6000fd5b505050506040513d601f19601f820116820180604052508101906110fa91906121a1565b61110491906121c4565b61110f90600a6122c1565b610b5f90826120aa565b6040516001600160a01b0380851660248301528316604482015260648101829052610aec9085906323b872dd60e01b906084015b60408051601f198184030181529190526020810180516001600160e01b03166001600160e01b031990931692909217909152611829565b8015806111fe5750604051636eb1769f60e11b81523060048201526001600160a01b03838116602483015284169063dd62ed3e90604401602060405180830381865afa1580156111d8573d6000803e3d6000fd5b505050506040513d601f19601f820116820180604052508101906111fc91906122d0565b155b6112695760405162461bcd60e51b815260206004820152603660248201527f5361666545524332303a20617070726f76652066726f6d206e6f6e2d7a65726f60448201527520746f206e6f6e2d7a65726f20616c6c6f77616e636560501b606482015260840161085f565b6040516001600160a01b03831660248201526044810182905261090090849063095ea7b360e01b9060640161114d565b610ab68282604051806020016040528060008152506118fb565b6000818152600260205260409020546001600160a01b0316610c665760405162461bcd60e51b8152602060048201526018602482015277115490cdcc8c4e881a5b9d985b1a59081d1bdad95b88125160421b604482015260640161085f565b600081815260046020526040902080546001600160a01b0319166001600160a01b0384169081179091558190611347826109a2565b6001600160a01b03167f8c5be1e5ebec7d5bd14f71427d1e84f3dd0314c0f7b2291e5b200ac8c7c3b92560405160405180910390a45050565b60008061138c836109a2565b9050806001600160a01b0316846001600160a01b031614806113b357506113b38185610bc2565b806113d75750836001600160a01b03166113cc846107c4565b6001600160a01b0316145b949350505050565b826001600160a01b03166113f2826109a2565b6001600160a01b0316146114565760405162461bcd60e51b815260206004820152602560248201527f4552433732313a207472616e736665722066726f6d20696e636f72726563742060448201526437bbb732b960d91b606482015260840161085f565b6001600160a01b0382166114b85760405162461bcd60e51b8152602060048201526024808201527f4552433732313a207472616e7366657220746f20746865207a65726f206164646044820152637265737360e01b606482015260840161085f565b6114c3600082611312565b6001600160a01b03831660009081526003602052604081208054600192906114ec908490612062565b90915550506001600160a01b038216600090815260036020526040812080546001929061151a9084906120d7565b909155505060008181526002602052604080822080546001600160a01b0319166001600160a01b0386811691821790925591518493918716917fddf252ad1be2c89b69c2b068fc378daa952ba7f163c4a11628f55a4df523b3ef91a4505050565b6006546001600160a01b03163314610a9a5760405162461bcd60e51b815260206004820181905260248201527f4f776e61626c653a2063616c6c6572206973206e6f7420746865206f776e6572604482015260640161085f565b600680546001600160a01b038381166001600160a01b0319831681179093556040519116919082907f8be0079c531659141344cd1fd0a4f28419497f9722a3daafe3b4186f6b6457e090600090a35050565b816001600160a01b0316836001600160a01b0316036116885760405162461bcd60e51b815260206004820152601960248201527f4552433732313a20617070726f766520746f2063616c6c657200000000000000604482015260640161085f565b6001600160a01b03838116600081815260056020908152604080832094871680845294825291829020805460ff191686151590811790915591519182527f17307eab39ab6107e8899845ad3d59bd9653f200f220920489ca2b5937696c31910160405180910390a3505050565b6117008484846113df565b61170c8484848461192e565b610aec5760405162461bcd60e51b815260040161085f906122e9565b60608160000361174f5750506040805180820190915260018152600360fc1b602082015290565b8160005b81156117795780611763816120be565b91506117729050600a836120aa565b9150611753565b60008167ffffffffffffffff81111561179457611794611ebd565b6040519080825280601f01601f1916602001820160405280156117be576020820181803683370190505b5090505b84156113d7576117d3600183612062565b91506117e0600a8661233b565b6117eb9060306120d7565b60f81b8183815181106118005761180061234f565b60200101906001600160f81b031916908160001a905350611822600a866120aa565b94506117c2565b600061187e826040518060400160405280602081526020017f5361666545524332303a206c6f772d6c6576656c2063616c6c206661696c6564815250856001600160a01b0316611a2f9092919063ffffffff16565b805190915015610900578080602001905181019061189c9190612365565b6109005760405162461bcd60e51b815260206004820152602a60248201527f5361666545524332303a204552433230206f7065726174696f6e20646964206e6044820152691bdd081cdd58d8d9595960b21b606482015260840161085f565b6119058383611a3e565b611912600084848461192e565b6109005760405162461bcd60e51b815260040161085f906122e9565b60006001600160a01b0384163b15611a2457604051630a85bd0160e11b81526001600160a01b0385169063150b7a0290611972903390899088908890600401612382565b6020604051808303816000875af19250505080156119ad575060408051601f3d908101601f191682019092526119aa918101906123bf565b60015b611a0a573d8080156119db576040519150601f19603f3d011682016040523d82523d6000602084013e6119e0565b606091505b508051600003611a025760405162461bcd60e51b815260040161085f906122e9565b805181602001fd5b6001600160e01b031916630a85bd0160e11b1490506113d7565b506001949350505050565b60606113d78484600085611b80565b6001600160a01b038216611a945760405162461bcd60e51b815260206004820181905260248201527f4552433732313a206d696e7420746f20746865207a65726f2061646472657373604482015260640161085f565b6000818152600260205260409020546001600160a01b031615611af95760405162461bcd60e51b815260206004820152601c60248201527f4552433732313a20746f6b656e20616c7265616479206d696e74656400000000604482015260640161085f565b6001600160a01b0382166000908152600360205260408120805460019290611b229084906120d7565b909155505060008181526002602052604080822080546001600160a01b0319166001600160a01b03861690811790915590518392907fddf252ad1be2c89b69c2b068fc378daa952ba7f163c4a11628f55a4df523b3ef908290a45050565b606082471015611be15760405162461bcd60e51b815260206004820152602660248201527f416464726573733a20696e73756666696369656e742062616c616e636520666f6044820152651c8818d85b1b60d21b606482015260840161085f565b6001600160a01b0385163b611c385760405162461bcd60e51b815260206004820152601d60248201527f416464726573733a2063616c6c20746f206e6f6e2d636f6e7472616374000000604482015260640161085f565b600080866001600160a01b03168587604051611c5491906123dc565b60006040518083038185875af1925050503d8060008114611c91576040519150601f19603f3d011682016040523d82523d6000602084013e611c96565b606091505b5091509150611ca6828286611cb1565b979650505050505050565b60608315611cc0575081610b5f565b825115611cd05782518084602001fd5b8160405162461bcd60e51b815260040161085f9190611dab565b8015158114610c6657600080fd5b60008060408385031215611d0b57600080fd5b823591506020830135611d1d81611cea565b809150509250929050565b6001600160e01b031981168114610c6657600080fd5b600060208284031215611d5057600080fd5b8135610b5f81611d28565b60005b83811015611d76578181015183820152602001611d5e565b50506000910152565b60008151808452611d97816020860160208601611d5b565b601f01601f19169290920160200192915050565b602081526000610b5f6020830184611d7f565b600060208284031215611dd057600080fd5b5035919050565b80356001600160a01b0381168114610e9057600080fd5b60008060408385031215611e0157600080fd5b611e0a83611dd7565b946020939093013593505050565b600080600060608486031215611e2d57600080fd5b611e3684611dd7565b9250611e4460208501611dd7565b9150604084013590509250925092565b60008060408385031215611e6757600080fd5b50508035926020909101359150565b600060208284031215611e8857600080fd5b610b5f82611dd7565b60008060408385031215611ea457600080fd5b611ead83611dd7565b91506020830135611d1d81611cea565b634e487b7160e01b600052604160045260246000fd5b60008060008060808587031215611ee957600080fd5b611ef285611dd7565b9350611f0060208601611dd7565b925060408501359150606085013567ffffffffffffffff80821115611f2457600080fd5b818701915087601f830112611f3857600080fd5b813581811115611f4a57611f4a611ebd565b604051601f8201601f19908116603f01168101908382118183101715611f7257611f72611ebd565b816040528281528a6020848701011115611f8b57600080fd5b82602086016020830137600060208483010152809550505050505092959194509250565b60008060408385031215611fc257600080fd5b611fcb83611dd7565b9150611fd960208401611dd7565b90509250929050565b805169ffffffffffffffffffff81168114610e9057600080fd5b600080600080600060a0868803121561201457600080fd5b61201d86611fe2565b945060208601519350604086015192506060860151915061204060808701611fe2565b90509295509295909350565b634e487b7160e01b600052601160045260246000fd5b8181038181111561072c5761072c61204c565b600081600019048311821515161561208f5761208f61204c565b500290565b634e487b7160e01b600052601260045260246000fd5b6000826120b9576120b9612094565b500490565b6000600182016120d0576120d061204c565b5060010190565b8082018082111561072c5761072c61204c565b600181811c908216806120fe57607f821691505b60208210810361211e57634e487b7160e01b600052602260045260246000fd5b50919050565b6020808252602e908201527f4552433732313a2063616c6c6572206973206e6f7420746f6b656e206f776e6560408201526d1c881b9bdc88185c1c1c9bdd995960921b606082015260800190565b60008351612184818460208801611d5b565b835190830190612198818360208801611d5b565b01949350505050565b6000602082840312156121b357600080fd5b815160ff81168114610b5f57600080fd5b60ff828116828216039081111561072c5761072c61204c565b600181815b808511156122185781600019048211156121fe576121fe61204c565b8085161561220b57918102915b93841c93908002906121e2565b509250929050565b60008261222f5750600161072c565b8161223c5750600061072c565b8160018114612252576002811461225c57612278565b600191505061072c565b60ff84111561226d5761226d61204c565b50506001821b61072c565b5060208310610133831016604e8410600b841016171561229b575081810a61072c565b6122a583836121dd565b80600019048211156122b9576122b961204c565b029392505050565b6000610b5f60ff841683612220565b6000602082840312156122e257600080fd5b5051919050565b60208082526032908201527f4552433732313a207472616e7366657220746f206e6f6e20455243373231526560408201527131b2b4bb32b91034b6b83632b6b2b73a32b960711b606082015260800190565b60008261234a5761234a612094565b500690565b634e487b7160e01b600052603260045260246000fd5b60006020828403121561237757600080fd5b8151610b5f81611cea565b6001600160a01b03858116825284166020820152604081018390526080606082018190526000906123b590830184611d7f565b9695505050505050565b6000602082840312156123d157600080fd5b8151610b5f81611d28565b600082516123ee818460208701611d5b565b919091019291505056fea264697066735822122036d41823815ea86067536be6eb3bb12862238f38e03acadd473d79c766140d1664736f6c63430008100033",
    "linkReferences": {}
  },
  "methodIdentifiers": {
    "activatePool(address)": "cac556ef",
    "approve(address,uint256)": "095ea7b3",
    "balanceOf(address)": "70a08231",
    "chainlinkPriceFeed()": "d8a2b7f0",
    "deltaPrice()": "1bc6a79e",
    "depositFunds(uint256,bool)": "00a6e730",
    "duration()": "0fb5a6b4",
    "finalTime()": "af5260bf",
    "getApproved(uint256)": "081812fc",
    "isApprovedForAll(address,address)": "e985e9c5",
    "longs()": "793ebd28",
    "name()": "06fdde03",
    "owner()": "8da5cb5b",
    "ownerOf(uint256)": "6352211e",
    "poolActive()": "b7f06c81",
    "renounceOwnership()": "715018a6",
    "safeTransferFrom(address,address,uint256)": "42842e0e",
    "safeTransferFrom(address,address,uint256,bytes)": "b88d4fde",
    "setApprovalForAll(address,bool)": "a22cb465",
    "shorts()": "dbe7f9bd",
    "startTime()": "78e97925",
    "strikePrice()": "c52987cf",
    "suppliedAsset()": "4a5f0fb0",
    "supportsInterface(bytes4)": "01ffc9a7",
    "symbol()": "95d89b41",
    "tokenCount()": "9f181b5e",
    "tokenToPosition(uint256,uint256)": "506262bd",
    "tokenURI(uint256)": "c87b56dd",
    "transferFrom(address,address,uint256)": "23b872dd",
    "transferOwnership(address)": "f2fde38b"
  },
  "id": 1
}