{
  "abi": [
    {
      "inputs": [
        {
          "internalType": "address",
          "name": "_underlyingToken",
          "type": "address"
        },
        {
          "internalType": "address",
          "name": "_diodePool",
          "type": "address"
        },
        {
          "internalType": "address",
          "name": "_curvePool",
          "type": "address"
        },
        {
          "internalType": "address",
          "name": "_curveLPToken",
          "type": "address"
        },
        {
          "internalType": "address",
          "name": "_beefyVault",
          "type": "address"
        }
      ],
      "stateMutability": "nonpayable",
      "type": "constructor"
    },
    {
      "anonymous": false,
      "inputs": [
        {
          "indexed": true,
          "internalType": "address",
          "name": "previousOwner",
          "type": "address"
        },
        {
          "indexed": true,
          "internalType": "address",
          "name": "newOwner",
          "type": "address"
        }
      ],
      "name": "OwnershipTransferred",
      "type": "event"
    },
    {
      "inputs": [],
      "name": "assetCurveIndex",
      "outputs": [
        {
          "internalType": "uint256",
          "name": "",
          "type": "uint256"
        }
      ],
      "stateMutability": "view",
      "type": "function"
    },
    {
      "inputs": [],
      "name": "beefyVault",
      "outputs": [
        {
          "internalType": "address",
          "name": "",
          "type": "address"
        }
      ],
      "stateMutability": "view",
      "type": "function"
    },
    {
      "inputs": [],
      "name": "curveLPToken",
      "outputs": [
        {
          "internalType": "address",
          "name": "",
          "type": "address"
        }
      ],
      "stateMutability": "view",
      "type": "function"
    },
    {
      "inputs": [],
      "name": "curvePool",
      "outputs": [
        {
          "internalType": "address",
          "name": "",
          "type": "address"
        }
      ],
      "stateMutability": "view",
      "type": "function"
    },
    {
      "inputs": [
        {
          "internalType": "address",
          "name": "token",
          "type": "address"
        },
        {
          "internalType": "uint256",
          "name": "amount",
          "type": "uint256"
        }
      ],
      "name": "deposit",
      "outputs": [],
      "stateMutability": "nonpayable",
      "type": "function"
    },
    {
      "inputs": [],
      "name": "getSupplyAPY",
      "outputs": [
        {
          "internalType": "uint256",
          "name": "_apy",
          "type": "uint256"
        }
      ],
      "stateMutability": "view",
      "type": "function"
    },
    {
      "inputs": [],
      "name": "owner",
      "outputs": [
        {
          "internalType": "address",
          "name": "",
          "type": "address"
        }
      ],
      "stateMutability": "view",
      "type": "function"
    },
    {
      "inputs": [],
      "name": "renounceOwnership",
      "outputs": [],
      "stateMutability": "nonpayable",
      "type": "function"
    },
    {
      "inputs": [],
      "name": "stratBalance",
      "outputs": [
        {
          "internalType": "uint256",
          "name": "totalInvested",
          "type": "uint256"
        }
      ],
      "stateMutability": "view",
      "type": "function"
    },
    {
      "inputs": [
        {
          "internalType": "address",
          "name": "newOwner",
          "type": "address"
        }
      ],
      "name": "transferOwnership",
      "outputs": [],
      "stateMutability": "nonpayable",
      "type": "function"
    },
    {
      "inputs": [],
      "name": "underlyingToken",
      "outputs": [
        {
          "internalType": "address",
          "name": "",
          "type": "address"
        }
      ],
      "stateMutability": "view",
      "type": "function"
    },
    {
      "inputs": [],
      "name": "withdraw",
      "outputs": [
        {
          "internalType": "uint256",
          "name": "returnedAmount",
          "type": "uint256"
        }
      ],
      "stateMutability": "nonpayable",
      "type": "function"
    }
  ],
  "bytecode": {
    "object": "0x60806040523480156200001157600080fd5b506040516200111d3803806200111d8339810160408190526200003491620003cc565b6200003f3362000282565b60405163c661065760e01b8152600060048201526001600160a01b03808716919085169063c661065790602401602060405180830381865afa1580156200008a573d6000803e3d6000fd5b505050506040513d601f19601f82011682018060405250810190620000b091906200043c565b6001600160a01b031614806200013d575060405163c661065760e01b8152600160048201526001600160a01b03808716919085169063c661065790602401602060405180830381865afa1580156200010c573d6000803e3d6000fd5b505050506040513d601f19601f820116820180604052508101906200013291906200043c565b6001600160a01b0316145b6200019b5760405162461bcd60e51b8152602060048201526024808201527f706f6f6c20646f6573206e6f7420636f6e7461696e2070726f766964656420616044820152631cdcd95d60e21b60648201526084015b60405180910390fd5b600180546001600160a01b03199081166001600160a01b038881169182179093556002805483168785169081179091556003805484168686161790556004805490931693861693909317825560405163c661065760e01b8152600092810192909252919063c661065790602401602060405180830381865afa15801562000226573d6000803e3d6000fd5b505050506040513d601f19601f820116820180604052508101906200024c91906200043c565b6001600160a01b031603620002665760006005556200026c565b60016005555b6200027784620002d2565b505050505062000461565b600080546001600160a01b038381166001600160a01b0319831681178455604051919092169283917f8be0079c531659141344cd1fd0a4f28419497f9722a3daafe3b4186f6b6457e09190a35050565b620002dc62000351565b6001600160a01b038116620003435760405162461bcd60e51b815260206004820152602660248201527f4f776e61626c653a206e6577206f776e657220697320746865207a65726f206160448201526564647265737360d01b606482015260840162000192565b6200034e8162000282565b50565b6000546001600160a01b03163314620003ad5760405162461bcd60e51b815260206004820181905260248201527f4f776e61626c653a2063616c6c6572206973206e6f7420746865206f776e6572604482015260640162000192565b565b80516001600160a01b0381168114620003c757600080fd5b919050565b600080600080600060a08688031215620003e557600080fd5b620003f086620003af565b94506200040060208701620003af565b93506200041060408701620003af565b92506200042060608701620003af565b91506200043060808701620003af565b90509295509295909350565b6000602082840312156200044f57600080fd5b6200045a82620003af565b9392505050565b610cac80620004716000396000f3fe608060405234801561001057600080fd5b50600436106100b45760003560e01c8063715018a611610071578063715018a6146101425780638784d1a71461014a5780638da5cb5b146101535780639f560dd514610164578063a8577e881461016c578063f2fde38b1461017f57600080fd5b80630f0d6569146100b9578063218751b2146100e95780632495a599146100fc5780633ccfd60b1461010f5780633e8fa4e51461012557806347e7ef241461012d575b600080fd5b6003546100cc906001600160a01b031681565b6040516001600160a01b0390911681526020015b60405180910390f35b6002546100cc906001600160a01b031681565b6001546100cc906001600160a01b031681565b610117610192565b6040519081526020016100e0565b6101176102f7565b61014061013b366004610b4b565b610340565b005b6101406105ea565b61011760055481565b6000546001600160a01b03166100cc565b6101176105fe565b6004546100cc906001600160a01b031681565b61014061018d366004610b75565b61060e565b600061019c610687565b600360009054906101000a90046001600160a01b03166001600160a01b031663853828b66040518163ffffffff1660e01b8152600401600060405180830381600087803b1580156101ec57600080fd5b505af1158015610200573d6000803e3d6000fd5b5050600254600480546040516370a0823160e01b815230928101929092526001600160a01b03928316945063f1dc3cc9935091909116906370a0823190602401602060405180830381865afa15801561025d573d6000803e3d6000fd5b505050506040513d601f19601f820116820180604052508101906102819190610b90565b6005546040516001600160e01b031960e085901b16815260048101929092526024820152600060448201526064016020604051808303816000875af11580156102ce573d6000803e3d6000fd5b505050506040513d601f19601f820116820180604052508101906102f29190610b90565b905090565b6003546040516370a0823160e01b81523060048201526000916001600160a01b0316906370a0823190602401602060405180830381865afa1580156102ce573d6000803e3d6000fd5b610348610687565b6001546001600160a01b038381169116146103c05760405162461bcd60e51b815260206004820152602d60248201527f746f6b656e20737570706c696564206e6f7420737570706f727465642062792060448201526c7468697320737472617465677960981b60648201526084015b60405180910390fd5b6103d8336001546001600160a01b03169030846106e1565b6002546001546103f5916001600160a01b03918216911683610752565b6103fd610b11565b60055460000361040f57818152610417565b602081018290525b600254604051630b4c7e4d60e01b81526001600160a01b0390911690630b4c7e4d9061044a908490600090600401610ba9565b6020604051808303816000875af1158015610469573d6000803e3d6000fd5b505050506040513d601f19601f8201168201806040525081019061048d9190610b90565b50600354600480546040516370a0823160e01b8152309281019290925261051a926001600160a01b03908116929116906370a0823190602401602060405180830381865afa1580156104e3573d6000803e3d6000fd5b505050506040513d601f19601f820116820180604052508101906105079190610b90565b6004546001600160a01b03169190610752565b600354600480546040516370a0823160e01b815230928101929092526001600160a01b039283169263b6b55f25929116906370a0823190602401602060405180830381865afa158015610571573d6000803e3d6000fd5b505050506040513d601f19601f820116820180604052508101906105959190610b90565b6040518263ffffffff1660e01b81526004016105b391815260200190565b600060405180830381600087803b1580156105cd57600080fd5b505af11580156105e1573d6000803e3d6000fd5b50505050505050565b6105f2610687565b6105fc600061086c565b565b6000610608610687565b50600090565b610616610687565b6001600160a01b03811661067b5760405162461bcd60e51b815260206004820152602660248201527f4f776e61626c653a206e6577206f776e657220697320746865207a65726f206160448201526564647265737360d01b60648201526084016103b7565b6106848161086c565b50565b6000546001600160a01b031633146105fc5760405162461bcd60e51b815260206004820181905260248201527f4f776e61626c653a2063616c6c6572206973206e6f7420746865206f776e657260448201526064016103b7565b6040516001600160a01b038085166024830152831660448201526064810182905261074c9085906323b872dd60e01b906084015b60408051601f198184030181529190526020810180516001600160e01b03166001600160e01b0319909316929092179091526108bc565b50505050565b8015806107cc5750604051636eb1769f60e11b81523060048201526001600160a01b03838116602483015284169063dd62ed3e90604401602060405180830381865afa1580156107a6573d6000803e3d6000fd5b505050506040513d601f19601f820116820180604052508101906107ca9190610b90565b155b6108375760405162461bcd60e51b815260206004820152603660248201527f5361666545524332303a20617070726f76652066726f6d206e6f6e2d7a65726f60448201527520746f206e6f6e2d7a65726f20616c6c6f77616e636560501b60648201526084016103b7565b6040516001600160a01b03831660248201526044810182905261086790849063095ea7b360e01b90606401610715565b505050565b600080546001600160a01b038381166001600160a01b0319831681178455604051919092169283917f8be0079c531659141344cd1fd0a4f28419497f9722a3daafe3b4186f6b6457e09190a35050565b6000610911826040518060400160405280602081526020017f5361666545524332303a206c6f772d6c6576656c2063616c6c206661696c6564815250856001600160a01b031661098e9092919063ffffffff16565b805190915015610867578080602001905181019061092f9190610be1565b6108675760405162461bcd60e51b815260206004820152602a60248201527f5361666545524332303a204552433230206f7065726174696f6e20646964206e6044820152691bdd081cdd58d8d9595960b21b60648201526084016103b7565b606061099d84846000856109a7565b90505b9392505050565b606082471015610a085760405162461bcd60e51b815260206004820152602660248201527f416464726573733a20696e73756666696369656e742062616c616e636520666f6044820152651c8818d85b1b60d21b60648201526084016103b7565b6001600160a01b0385163b610a5f5760405162461bcd60e51b815260206004820152601d60248201527f416464726573733a2063616c6c20746f206e6f6e2d636f6e747261637400000060448201526064016103b7565b600080866001600160a01b03168587604051610a7b9190610c27565b60006040518083038185875af1925050503d8060008114610ab8576040519150601f19603f3d011682016040523d82523d6000602084013e610abd565b606091505b5091509150610acd828286610ad8565b979650505050505050565b60608315610ae75750816109a0565b825115610af75782518084602001fd5b8160405162461bcd60e51b81526004016103b79190610c43565b60405180604001604052806002906020820280368337509192915050565b80356001600160a01b0381168114610b4657600080fd5b919050565b60008060408385031215610b5e57600080fd5b610b6783610b2f565b946020939093013593505050565b600060208284031215610b8757600080fd5b6109a082610b2f565b600060208284031215610ba257600080fd5b5051919050565b60608101818460005b6002811015610bd1578151835260209283019290910190600101610bb2565b5050508260408301529392505050565b600060208284031215610bf357600080fd5b815180151581146109a057600080fd5b60005b83811015610c1e578181015183820152602001610c06565b50506000910152565b60008251610c39818460208701610c03565b9190910192915050565b6020815260008251806020840152610c62816040850160208701610c03565b601f01601f1916919091016040019291505056fea26469706673582212201cc590288d56005536c548d96ae6612f33690c5eabbe3fcef15975c989f4fd5864736f6c63430008100033",
    "linkReferences": {}
  },
  "methodIdentifiers": {
    "assetCurveIndex()": "8784d1a7",
    "beefyVault()": "0f0d6569",
    "curveLPToken()": "a8577e88",
    "curvePool()": "218751b2",
    "deposit(address,uint256)": "47e7ef24",
    "getSupplyAPY()": "9f560dd5",
    "owner()": "8da5cb5b",
    "renounceOwnership()": "715018a6",
    "stratBalance()": "3e8fa4e5",
    "transferOwnership(address)": "f2fde38b",
    "underlyingToken()": "2495a599",
    "withdraw()": "3ccfd60b"
  },
  "id": 1
}